:020000040800F2
:1000000090220020690200087702000879020008A7
:100010007B0200087D0200087F020008000000004B
:100020000000000000000000000000008102000845
:100030008302000800000000850200088702000813
:100040008902000889020008890200088902000864
:100050008902000889020008890200088902000854
:100060008902000889020008890200088902000844
:1000700089020008890200080504000889020008B6
:10008000890200084104000889020008890200086A
:100090008902000889020008890200088902000814
:1000A0008902000889020008890200088902000804
:1000B00089020008890200088902000889020008F4
:1000C00089020008890200088902000889020008E4
:1000D00089020008F10500083D07000889020008B0
:1000E00089020008890200088902000889020008C4
:1000F00089020008890200088902000889020008B4
:10010000000000000000000000000000890200085C
:100110008902000889020008DD050008890200083C
:100120008902000889020008890200088902000883
:100130008902000889020008000000000000000099
:1001400089020008890200088902000800000000F6
:10015000000000000000000000000000000000009F
:100160000000000000000000890200088902000869
:1001700089020008000000000000000000000000EC
:10018000000000008902000800F002F800F05CF8AE
:100190000AA090E8000C82448344AAF10107DA45E2
:1001A00001D100F051F8AFF2090EBAE80F0013F0D8
:1001B000010F18BFFB1A43F0010318478C500000D1
:1001C000AC5000000A444FF0000C10F8013B13F053
:1001D000070408BF10F8014B1D1108BF10F8015BA0
:1001E000641E05D010F8016B641E01F8016BF9D193
:1001F00013F0080F1EBF10F8014BAD1C0C1B09D1EA
:100200006D1E58BF01F801CBFAD505E014F8016B5B
:1002100001F8016B6D1EF9D59142D6D370470000ED
:100220000023002400250026103A28BF78C1FBD8FF
:10023000520728BF30C148BF0B6070471FB504F09C
:100240004DFE1FBD10B510BD00F05CF81146FFF764
:10025000F5FF02F061FE00F07AF803B4FFF7F2FF59
:1002600003BC00F081F800000B48016841F4700104
:1002700001600A480047FEE7FEE7FEE7FEE7FEE70B
:10028000FEE7FEE7FEE7FEE7FEE70000044805495B
:10029000054A064B7047000088ED00E08901000820
:1002A0009012002090220020901A0020901A002026
:1002B0004FF0000200B5134694469646203922BFFF
:1002C000A0E80C50A0E80C50B1F12001BFF4F7AF4A
:1002D000090728BFA0E80C5048BF0CC05DF804EB2C
:1002E000890028BF40F8042B08BF704748BF20F89A
:1002F000022B11F0804F18BF00F8012B7047704798
:1003000070477047754600F02BF8AE460500694609
:10031000534620F00700854618B020B5FFF7B6FF1A
:10032000BDE820404FF000064FF000074FF00008F6
:100330004FF0000B21F00701AC46ACE8C009ACE877
:10034000C009ACE8C009ACE8C0098D46704710B5DB
:100350000446AFF300802046BDE81040FFF77DBFA4
:10036000004870472C12002001491820ABBEFEE760
:100370002600020070470000F0B503460025002467
:100380000020DFED1F0AB0EE600A002600BF33E058
:10039000002501202AE003EB8007D7ED000A471E65
:1003A00003EB870797ED001AF4EEC10AF1EE10FA9D
:1003B0001BD2471E03EB8707D7ED000AB0EE600A99
:1003C00003EB8007D7ED000A471E03EB8707C7ED55
:1003D000000A03EB800787ED000A471ECE5D11F887
:1003E00000C001F807C00E540125401C171B8742AE
:1003F000D1DC05B9F0BD641C9442C9DB00BFF9E74C
:100400000000000010B50A4A11680A4A106800F09E
:100410004DFD60B10749086800F03CFD06490868D9
:10042000064901F0D8FB0249086800F0A3FC10BDA2
:1004300010520008C00300209803002006010600A7
:1004400010B50A4A51680A4A506800F02FFD60B1A1
:100450000749486800F01EFD06494868064901F052
:10046000BAFB0249486800F085FC10BD1052000834
:10047000C0030020980300200601060070B5054661
:100480000C466426012C12D1284601F05DFC304652
:1004900000F064F8284601F047FC304600F05EF8B2
:1004A000284601F051FC304600F058F811E028468B
:1004B00001F03AFC304600F051F8284601F044FCC7
:1004C000304600F04BF8284601F02EFC304600F094
:1004D00045F870BDF0B502460C4600270025002304
:1004E00000260021012C06D0022C0AD0032C06D0B5
:1004F000042C08D101E0012507E0082505E00425CA
:1005000003E0022501E0002500BF00BF062A21DA32
:10051000C2F1050000EBD07CCCF347030E48C15C70
:10052000032B17DAC2F1050000EBD07C4FEA6C0C0C
:10053000A0EB4C0C0CF0FF061EB901F0F0012943B2
:1005400005E001F00F01F02000EA05100143024828
:10055000C15401273846F0BD7200002000E0401E63
:100560000028FCD17047000010B5014600200D4B5B
:100570001B880C4CA48823440A4C248923449AB237
:10058000094B1A6040F2E5735343C3F30B029142E7
:1005900006D1064B196042F2CD03054C23600120C1
:1005A00010BD000064040020280000202C00002062
:1005B0003000002070B1084A52F821201268026011
:1005C000054A52F8212052684260034A52F821201D
:1005D00092688260704700000000002010B5012181
:1005E000024801F08BF900F025F910BD0010004021
:1005F0001CB54B480068C06901900198C0F3C02049
:1006000010B347490868474901F006FA46490868A7
:1006100000F040FC4449086800F07AFC4349898BAB
:10062000081A4249C96808800120404909690870D0
:100630003E4B9A8B99693C4B186800F081FB3A4914
:10064000086800F02CFC69E00198C0F34010B0B1DC
:1006500033490868364901F0DFF931490868416AD1
:1006600000910099C9B23148C06802882F48C0681B
:10067000801C2E4BD8601846806981544EE001984A
:10068000C0F3C01020B90198C0F38010002844D0F6
:100690000198C0F3801098B121490868254901F0FC
:1006A000BBF900202149C87108464078042803D0CE
:1006B00008464078052831D11C4801F0D9FE2DE0CC
:1006C0000198C0F3C01038B3154908681A4901F001
:1006D000A3F9164840891549098988420FDB10495A
:1006E0000868154901F05DFA0D490868114901F0E3
:1006F00093F90B4908680F4901F06DFA0EE0084ABA
:1007000010680A4A53895289521C084C6281224659
:100710005269D15C816200BF00E000BF1CBD0000D7
:10072000980300201A010B00D0030020D8030020FA
:100730000501050006010600070107001CB5384841
:100740004068C06901903648406800680090019890
:10075000C0F3C02060B30098C0F3806040B330495C
:100760004868304901F058F92F49486800F092FB79
:100770002D49486800F0CCFB2C49B1F85410081AF8
:1007800081B22A48406C018001212848806C0170A8
:100790002648383000F078F8244BB3F85420196D0F
:1007A000214B586800F0CCFA1F49486800F077FBED
:1007B0000098C0F38010C8B10198C0F38010A8B1B0
:1007C000174948681A4901F027F90021174880F8AD
:1007D0003F1090F83900042804D0144890F83900EC
:1007E000052803D11148383001F042FE019800F08D
:1007F000010078B90198C0F3400058B90198C0F3DE
:10080000800038B90198C0F3C00018B90198C0F34E
:10081000002018B10548383001F0A4FC1CBD0000D0
:10082000980300201A010B00D0030020D8030020F9
:100830000601060010B5002402F02EFA01F044FF74
:100840000446204603F074FF204602F0F7FA2046E3
:1008500003F01CF90A48007801280AD10948006809
:1008600040F6B831884204D300200549087002F0F0
:1008700013F904480068401C0249086010BD0000DC
:10088000710000203800002070470000F0B50246DB
:100890000D46FF21FF24002009E0167886EA0403B4
:1008A0000A4EF65C86EA0104094EF15C521C2E1ECB
:1008B000A5F10105F1D108464FF6FF7606EA0020C2
:1008C00000F47F400619B0B2F0BD0000284F0008C8
:1008D0002850000870B5002400258348B0F8200295
:1008E000062801DD002070BD7F48B0F8200218B94D
:1008F00006207E4908700AE07B48B0F820020628EE
:1009000005DC794890F82002401E78490870784844
:10091000007830B101283CD0022874D0032871D16E
:10092000A9E07148D0F850026F49D1F84C128842C2
:1009300008D96D48D0F850026B49D1F84C12401AD2
:100940000A2810D26848D0F850026749D1F84C12F2
:1009500088421DD26448D0F84C026349D1F8501245
:10096000401A0A2814D36148007800EB80006149DE
:1009700001EB001000F1140400230A2221464FF479
:100980000C5003F00DF85A480078401C5849087084
:10099000A6E05548D0F850025349D1F84C1288428D
:1009A00008D95148D0F850024F49D1F84C12401A9A
:1009B0000A2810D24C48D0F850024B49D1F84C12BA
:1009C00088421DD24848D0F84C024749D1F850120D
:1009D000401A0A2814D34548007800EB80004549A6
:1009E00001EB001000F1280400230A2221464FF4F5
:1009F000105002F0D5FF3E480078401C3C4908707A
:100A00006EE000E067E03848D0F850023649D1F88F
:100A10004C12884208D93448D0F850023249D1F8F3
:100A20004C12401A0A2810D22F48D0F850022E49F2
:100A3000D1F84C1288421DD22B48D0F84C022A49DA
:100A4000D1F85012401A0A2814D32848007800EB35
:100A50008000284901EB001000F13C0400230A2229
:100A600021464FF4085002F09BFF21480078401CBB
:100A70001F49087034E01C48D0F850021A49D1F8D8
:100A80004C12884208D91848D0F850021649D1F8BB
:100A90004C12401A0A2810D21348D0F850021249BA
:100AA000D1F84C12884215D20F48D0F84C020E49AA
:100AB000D1F85012401A0A280CD30F4C00230122FF
:100AC00021464FF4045002F06BFF09480078401CA7
:100AD0000749087004E0002005490870012500BF9F
:100AE00000BF2846FFE6000088000020EF0200203B
:100AF000EE020020E80E0020A80200202DE9F041BF
:100B000006460027002400255EBB00BF26E03846CD
:100B100001F0CAF80546002406E0002105F12C008A
:100B200040F82410601CC4B20A2CF6DB002411E04B
:100B30009FED210A05F17C0000EB840080ED000AA6
:100B40009FED1D0A05F1A80000EB840080ED000A6E
:100B5000601CC4B20B2CEBDB781CC7B2062FD6DBB3
:100B600028E0062E26DC701EC7B2384601F09CF83D
:100B70000546002406E0002105F12C0040F8241071
:100B8000601CC4B20A2CF6DB002411E09FED0A0AB7
:100B900005F17C0000EB840080ED000A9FED060A61
:100BA00005F1A80000EB840080ED000A601CC4B2CF
:100BB0000B2CEBDBBDE8F0810000000030B50246F5
:100BC00000210020E2B900BF17E0002011E000245E
:100BD00001EB8103184D05EB0313143323F8104088
:100BE00001EB810305EB0313283323F81040431C6A
:100BF000D8B20A28EBDB4B1CD9B20729E5DB19E098
:100C0000062A17DC531ED9B2002011E0002401EBA4
:100C10008103094D05EB0313143323F8104001EB56
:100C2000810305EB0313283323F81040431CD8B28B
:100C30000A28EBDB30BD0000E80E0020002000BFDA
:100C400006E00022811D044B23F81120411CC8B28C
:100C50000628F6DB70470000D00E002002498968A4
:100C60000143014A91607047002004E04FF0E0200A
:100C7000006920F004004FF0E02108610A48806814
:100C80000A49B0FBF1F0C0F3CF00094908800846DB
:100C9000008800EB4001C1EBC0104FF6FF7101EA84
:100CA000C0000449088070470812002040420F002D
:100CB000260300202803002001460F4A12884A43D9
:100CC0004FF0E0235A6100229A611A46126922F01D
:100CD0000102521C1A6100BF4FF0E022106900F0BF
:100CE00001021AB100F48032002AF5D000224FF040
:100CF000E0231A619A6170472803002001460F4AD9
:100D000012884A434FF0E0235A6100229A611A4642
:100D1000126922F00102521C1A6100BF4FF0E0225A
:100D2000106900F001021AB100F48032002AF5D0F7
:100D300000224FF0E0231A619A61704726030020D9
:100D4000436862F30F034360C160704700210022D3
:100D500000F080520AB1012100E0002111B1034BE3
:100D6000186001E0024B5860704700000404024024
:100D700000000240002200F000420AB1024900E0F7
:100D80000249486070470000000402400000024031
:100D9000016821F0010101600021016041686FF3E9
:100DA0000F01416000218160C1603849884204D14F
:100DB0000F21364A083A516067E0344914318842BD
:100DC00004D1F021314A083A51605EE02F492831C0
:100DD000884205D14FF470612C4A083A516054E0C2
:100DE0002A493C31884205D14FF47041274A083ADC
:100DF00051604AE025495031884205D14FF47021B5
:100E0000224A083A516040E020496431884205D1C5
:100E10004FF470011D4A083A516036E01B497831A1
:100E2000884205D14FF07061184A083A51602CE0B1
:100E30001749884203D10F21021F116025E0144990
:100E40001431884204D1F021114A121F11601CE0B4
:100E50000F492831884205D14FF470610C4A121FA6
:100E6000116012E00A493C31884205D14FF47041CB
:100E7000074A121F116008E005495031884204D129
:100E80004FF47021024A121F11607047080002409F
:100E900008040240016821F0010101607047016807
:100EA00021F00101491C016070470000F0B50346C4
:100EB0000024A44600250026002701F0004401F08C
:100EC000E0404FEA107C0CB10F4A00E00F4A146872
:100ED00004EA010008B1012600E00026ACF101009F
:100EE0008000C1401D6805F00E0501EA050008B14B
:100EF000012700E00027012F03D1012E01D101209D
:100F0000F0BD0020FCE700000004024000000240A9
:100F100008B5014648680090009880B208BD2DE9E8
:100F2000F04704460D461646DDE9099ADDF82080B3
:100F30000B9F2046FFF72CFF206820F480402060A4
:100F4000206868F34510206020686AF30410206070
:100F5000206820F0800080302060206820F0400071
:100F60002060206867F38B202060206867F30920E9
:100F70002060206869F30D302060606863F30F0023
:100F80006060E560A660BDE8F08702680A43026021
:100F9000704708B5036823F00103036006E00368A7
:100FA0000093009B03F0010303B900E0F7E700BFE3
:100FB000C160436862F30F034360036823F00103D9
:100FC0005B1C036008BD08B5036823F001030360E0
:100FD00006E003680093009B03F0010303B900E0FF
:100FE000F7E700BFC160436862F30F034360036823
:100FF00023F001035B1C036008BD000030B504460C
:10100000042500F061F80546042D16D10C4800694E
:1010100020F00200801C0A4908610846446100690A
:1010200020F040004030086100F04EF805460448CA
:10103000006920F0020002490861284630BD000026
:10104000002002400420094AD16801F001020AB1DF
:1010500001200AE001F010020AB1022005E001F0CF
:1010600004020AB1032000E004207047002002407F
:101070000348006920F08000803001490861704712
:101080000020024030B5002306E00388801C04885D
:1010900043EA044410C1801C141EA2F10105AAB247
:1010A000F3D130BD0549086900F0800121B1044940
:1010B000024A51600349516070470000002002401D
:1010C00023016745AB89EFCD10B54FF0FF33042402
:1010D000FFF7B8FF044603E0FFF7B4FF04465B1ECA
:1010E000012C01D1002BF7D103B90524204610BDF6
:1010F0002DE9F04104460D46164604274FF000083E
:10110000FFF7E2FF0746042F2CD11848006920F0B2
:101110000100401C1549086100BF28882080FFF7A6
:10112000D3FF0746042F09D104F102082868000CF8
:10113000A8F80000FFF7C8FF074606E00B48006963
:1011400020F001000949086105E0701E86B2241DE7
:101150002D1D002EE1D100BF0448006920F00100E0
:10116000024908613846BDE8F081000000200240D5
:10117000F0B5002300244D07ED0E02FA05F308290F
:101180000BDA4E07F70E0F26BE40056AB54305621F
:10119000056A45EA030404620AE04E07F70E0F26CB
:1011A000BE40456AB5434562456A45EA0304446268
:1011B000F0BD2DE9F0430C46079E002100250027D5
:1011C00000BF60E04FF0010C0CFA01F504EA0507DE
:1011D000AF4257D14FEA41094FF0030808FA09F826
:1011E000D0F800C02CEA080CC0F800C04FEA410952
:1011F0004FF0030808FA09F8D0F804C02CEA080CEC
:10120000C0F804C04FEA41094FF0030808FA09F892
:10121000D0F80CC02CEA080CC0F80CC04FEA410909
:101220004FF0030808FA09F8D0F808C02CEA080CB7
:10123000C0F808C04FEA41094FF0020808FA09F85F
:10124000D0F800C04CEA080CC0F800C003FA01F85E
:10125000D0F804C04CEA080CC0F804C04FEA4108BA
:1012600002FA08F8D0F80CC04CEA080CC0F80CC020
:101270004FEA410806FA08F8D0F808C04CEA080C12
:10128000C0F808C0491C10299CD3BDE8F083F0B514
:101290000B4600210024002500BF25E0012606FAA8
:1012A00001F403EA0405A5421DD14FEA410C0327CE
:1012B00007FA0CF70668BE4306604FEA410C0327A5
:1012C00007FA0CF7C668BE43C6604FEA410C002718
:1012D00007FA0CF706683E4306604F0002FA07F76C
:1012E000C6683E43C660491C1029D7D3F0BD2DE91E
:1012F000F0430C46079E00210025002700BF60E058
:101300004FF0010C0CFA01F504EA0507AF4257D182
:101310004FEA41094FF0030808FA09F8D0F800C075
:101320002CEA080CC0F800C04FEA41094FF003084E
:1013300008FA09F8D0F804C02CEA080CC0F804C078
:101340004FEA41094FF0030808FA09F8D0F80CC039
:101350002CEA080CC0F80CC04FEA41094FF0030812
:1013600008FA09F8D0F808C02CEA080CC0F808C040
:101370004FEA41094FF0010808FA09F8D0F800C017
:101380004CEA080CC0F800C003FA01F8D0F804C019
:101390004CEA080CC0F804C04FEA410802FA08F809
:1013A000D0F80CC04CEA080CC0F80CC04FEA410859
:1013B00006FA08F8D0F808C04CEA080CC0F808C0D3
:1013C000491C10299CD3BDE8F083028B0A43028399
:1013D000704700F01F02012191404211920002F17A
:1013E000E022C2F80011704770B5034600200025C6
:1013F0000F240B4E366806F4E066C6F5E066C6F3C9
:101400000720C0F10406F5B2044101FA05F6F0B276
:1014100002EA040630430607300E024EF05470BD57
:101420000CED00E000E400E0024949690143014A93
:1014300051617047001002400249C9690143014AE5
:10144000D161704700100240024909698143014A95
:101450001161704700100240024909690143014AC5
:101460001161704700100240024989690143014A35
:1014700091617047001002400249C9688143014AE6
:10148000D1607047001002400249C9680143014A17
:10149000D160704700100240F0B5054600210022DF
:1014A000002300240020384E367906F00C0121B1CB
:1014B000042906D0082922D108E0344E344F7E603A
:1014C00021E0334E3668324F7E601CE02E4E746849
:1014D000C4F300447068C0F383400E2801D2801C1E
:1014E00000E010202CB12A4E3668760806FB00F387
:1014F00002E0264E46437308254E736003E0234EF8
:10150000234F7E6000BF00BF1F4E3679C6F3031124
:10151000204E725C1E4E7668D6401D4FBE601A4E3D
:10152000B688C6F302211C4E725C3E46B668D640B1
:10153000FE60154EB688C6F3C221174E725C3E4659
:10154000B668D6403E613E46B668FF68BE4204D1EA
:101550000F4EF6680E4F7E6104E00D4EF668760081
:101560000B4F7E610A4EB668094F3F69BE4204D1F7
:10157000074E3669064FBE6104E0054E36697600B7
:10158000034FBE61F0BD00000010024000127A005F
:101590000812002048040020580400202DE9F04FD4
:1015A00082460F4690469946DDF824B00024002577
:1015B0000026A848006840F47000A6490860A648C4
:1015C000006840F00100A449086008464068A3494B
:1015D0000840A149486008460068A14908409E4962
:1015E00008600846006820F48020086008464068CB
:1015F00020F4FE0048600846C06A20F00F00C86270
:101600000846006B974908409349086300208860AA
:10161000002F73D11220944908608F48006820F091
:101620000100401C8C49086000BF00BF00BF6D1C5A
:101630008948046804F002041CB98C48006885429B
:10164000F5D38548046804F0020414B90120BDE80C
:10165000F08F8148406820F0F00070307E4948608B
:101660000846406869F30A204860084640686BF302
:10167000CD2048600846406820F4803048604046ED
:101680004FEAE87108EB9171C1F38F06102E02DA70
:10169000B01E86B200E00F266F48406866F39540A2
:1016A0006D4948600846006820F0807000F1807045
:1016B00008600024002500BF6D1C6748046804F022
:1016C00000741CB9694800688542F5D9624804680D
:1016D00004F000740CB90220B9E75F48406820F0BC
:1016E0000300801C5C494860002400BF5A484468DD
:1016F00004F00804082CF9D19FE0FFE75648C06ABF
:1017000020F00F005449C8620846006820F47F00AA
:10171000086000240025BAF1010F06D108460068D0
:1017200020F4802000F5802008604B48006820F4F9
:10173000803000F580304849086000BF6D1C464885
:10174000046804F400341CB9484800688542F5D3A5
:1017500047487843474908603F48046804F4003428
:101760000CB9012073E74048006820F010001030E9
:101770003D4908600846006820F00700801C0860AA
:101780003548406820F0F000703033494860084622
:10179000406869F30A204860084640686BF3CD2032
:1017A00048600846406820F4003000F5003048608A
:1017B0000846406820F4803000F5803048600026FC
:1017C000384607EBD071491098FBF1F18EB2102E1C
:1017D00002DAB01E86B200E00F261F48406866F3AA
:1017E00095401D4948600846006820F0807000F16F
:1017F000807008600024002500BF6D1C1648046836
:1018000004F000741CB9194800688542F5D31248E9
:10181000046804F000740CB9022018E70E48406810
:1018200020F00300801C0C494860002400BF0A48D7
:10183000446804F00804082CF9D1064980390A9854
:1018400008600D48091D08600A48FFF725FE0020C2
:10185000FDE6000088ED00E0001002400CC07FF8BB
:10186000FFFFF6FECCFC00FF0020024060040020D9
:1018700040420F00081200200005FA0530B51C4652
:1018800011B90025058517E0164DA8420BD0164D5D
:10189000A84208D0154DA84205D0154DA84202D047
:1018A000144DA84202D1144DAB6901E0124D6B6991
:1018B000B3FBF1F56D1E0585B0F1804F01D1C26219
:1018C00001E095B2C562056825F4407505600568BC
:1018D00064F30415056000250561056825F0010520
:1018E000056030BD002C0140003401400040014043
:1018F000004401400048014008120020CA4392B24F
:101900000261704710B504463448844206D1401540
:10191000FFF7BAFD6015FFF7AFFD5EE0B4F1804F51
:1019200006D10120FFF798FD0120FFF78DFD54E05F
:101930002B48844206D10220FFF78EFD0220FFF7DC
:1019400083FD4AE02748844206D10420FFF784FD46
:101950000420FFF779FD40E02348844206D110209F
:10196000FFF77AFD1020FFF76FFD36E01F48844235
:1019700006D12020FFF770FD2020FFF765FD2CE049
:101980001B48844206D14014FFF77EFD6014FFF728
:1019900073FD22E01748844208D14FF48030FFF7EE
:1019A00073FD4FF48030FFF767FD16E01248844264
:1019B00008D14FF40030FFF767FD4FF40030FFF718
:1019C0005BFD0AE00D48844207D14FF48020FFF709
:1019D0005BFD4FF48020FFF74FFD10BD002C014050
:1019E00000040040000800400010004000140040C7
:1019F00000340140004001400044014000480140E3
:101A0000016821F00101491C01607047C2680A4366
:101A1000C26070470162704710B5002200230A0CB3
:101A200001249440A3B2036210BD000010B5044627
:101A30001D48844208D14FF48040FFF725FD4FF444
:101A40008040FFF719FD2EE01848844208D14FF47A
:101A50000030FFF701FD4FF40030FFF7F5FC22E006
:101A60001348844208D14FF48020FFF7F5FC4FF46F
:101A70008020FFF7E9FC16E00E48844208D14FF4BD
:101A80000020FFF7E9FC4FF40020FFF7DDFC0AE03F
:101A90000948844207D14FF48010FFF7DDFC4FF472
:101AA0008010FFF7D1FC10BD003801400044004019
:101AB00000480040004C004000500040816821F088
:101AC0004001403181607047816821F080018031A0
:101AD000816070470246D069084008B10120704714
:101AE0000020FCE72DE9F04104460F4615461E464E
:101AF000DDF81880206820F0010020600020A06040
:101B0000606866F30D306060206868F34A202060EA
:101B1000206820F00400001D2060206820F00800EC
:101B200008302060606820F4000000F5000060606C
:101B3000606900F07F402330606175B1012D15D0E0
:101B4000022D1ED1206820F480502060206820F0F3
:101B5000805000F18050206014E0206820F4805014
:101B60002060206820F0805020600BE0206820F486
:101B7000805000F580502060206820F08050206068
:101B800000E000BF00BF3946204600F04FF84FF09C
:101B9000FF302062206820F00100401C2060BDE87A
:101BA000F08130B5002300240022C1F30723CCB21A
:101BB000012505FA04F2022B03D1456895434560DF
:101BC00008E0032B03D185689543856002E0056832
:101BD0009543056030BD30B5002300240022C1F3D9
:101BE0000723CCB2012505FA04F2022B03D1456884
:101BF0001543456008E0032B03D1856815438560D4
:101C000002E005681543056030BD10B50B460021A4
:101C100008E000BF047FC4F3C014002CFAD05C5C61
:101C20008462491C9142F4D310BD000070B50022BB
:101C300000230024056825F001050560184DA84221
:101C400002D1184D2A6901E0164DEA680588C5F3EE
:101C5000C03545B15500B5FBF1F35500B5FBF1F6C4
:101C600001FB165405E0B2FBF1F3B2FBF1F501FB09
:101C70001524B4EB510F00D35B1C0588C5F3C035A8
:101C800035B1C3F342044FF6F0751D4045EA040335
:101C90009DB2C560056825F001056D1C056070BD2D
:101CA000003801400812002001460548062906DADE
:101CB000C1EBC102C2EB8112034603EB8200704705
:101CC000D00400201CB50446032003464822082106
:101CD000CDE900040020FFF761FC1CBD10B5FEF744
:101CE000C5FF10BD10B504462046FEF7E5FF10BD48
:101CF00010B504462046FFF701F810BD0146084B19
:101D000053F82120074B33F81100136903400BB13E
:101D1000012300E000230BB9002070470120FCE7FD
:101D200060030020B0510008054B53F82010054B0C
:101D300033F810200B8B13430B8300BF7047000058
:101D40002C0300205C510008054B53F82010054B74
:101D500033F810204B8B13434B8300BF70470000B8
:101D60002C0300205C51000810B504460F48FFF713
:101D7000C9FD1020FFF760FB1020FEF76FFF621E09
:101D800000230B490948FFF779FD0722002136207F
:101D9000FFF72AFB3620FFF71CFB01210348FFF762
:101DA00035FE0248FFF72CFE10BD00000010004079
:101DB00040420F0070B504460D46164621780F4A82
:101DC00052F821000E49FFF727FE21780B4A52F8FE
:101DD00021000C49FFF720FE2178084A52F8210023
:101DE0004FF44071FFF718FE2178074A52F821009E
:101DF00032462946FFF7E7F870BD0000980300203F
:101E00001A010B0006020800D003002038B5044672
:101E1000607808287DD2DFE800F0042345649B9CAD
:101E2000F1EF2178C34A52F82100FFF7FDFA0120B3
:101E300000902278C04B33F81210C04B53F82200A8
:101E400000230122FFF7B5F92378BD4DEA5CBD4DB3
:101E500035F81310B94D55F82300FFF789F966E1FD
:101E60002178B44A52F82100FFF7DEFA01200090F1
:101E70002278B14B33F81210B04B53F822000023F4
:101E80000122FFF796F92378AD4DEA5CAD4D35F8A8
:101E90001310AA4D55F82300FFF76AF9204600F009
:101EA000E7FA44E12178A84A52F82100FFF7BCFA8A
:101EB000012000902278A54B33F81210A44B53F860
:101EC000220000230122FFF774F923789C4DEA5C7D
:101ED000A04D35F813109E4D55F82300FFF748F933
:101EE00025E12178984A52F82100FFF79DFA2178E0
:101EF000994A52F82100FFF797FA012000902278C2
:101F0000964B33F81210964B53F82200002301220F
:101F100000E00BE1FFF7EBF90120009022788B4BFA
:101F200033F81210854B53F8220000230122FFF7EB
:101F300040F92378824DEA5C864D35F81310844DC4
:101F400055F82300FFF714F9204600F0A5FAEEE05B
:101F500000BF21787C4A52F82100FFF765FA21780A
:101F6000744A52F82100FFF75FFA21787A4A52F852
:101F70002100FFF759FA012000902278774B33F8BF
:101F80001210774B53F8220000230122FFF7AFF91C
:101F90000120009022786D4B33F812106C4B53F8EF
:101FA000220000230122FFF704F90120009022788B
:101FB000614B33F81210614B53F8220000230122C9
:101FC000FFF7F7F823785E4DEA5C624D35F81310A1
:101FD0005F4D55F82300FFF7CBF82378584DEA5CA6
:101FE000584D35F81310554D55F82300FFF7C0F83C
:101FF000204600F03DFA9AE03DE0FFE72178524AA2
:1020000052F82100FFF710FA21784A4A52F82100CD
:10201000FFF70AFA0120009022784C4B33F8121097
:102020004B4B53F8220000230122FFF7C2F8012096
:1020300000902278404B33F81210404B53F82200A6
:1020400000230122FFF7B5F823783D4DEA5C414DAE
:1020500035F813103E4D55F82300FFF789F8237823
:10206000374DEA5C374D35F81310344D55F82300E1
:10207000FFF77EF85BE02178334A52F82100FFF742
:10208000D3F921782B4A52F82100FFF7CDF92178B6
:10209000314A52F82100FFF7C7F901200090227859
:1020A0002E4B33F812102E4B53F82200002301223E
:1020B000FFF71DF9012000902278244B33F812100D
:1020C000234B53F8220000230122FFF772F801206E
:1020D00000902278184B33F81210184B53F8220056
:1020E00000230122FFF765F82378154DEA5C194DAE
:1020F00035F81310164D55F82300FFF739F82378FB
:102100000F4DEA5C0F4D35F813100C4D55F82300B8
:10211000FFF72EF800BF2278104B33F81210104B47
:1021200053F82200FFF751F900BF00E000BF00BFE5
:1021300038BD0000E8510008F0510008A803002055
:10214000D6510008F4510008D8510008E0510008A9
:10215000A0030020E4510008F851000800520008D4
:10216000B00300207FB504462046FFF74FFE2078DD
:10217000884951F820008849884206D12178874A49
:1021800052F82100FFF770F905E02178834A52F8F0
:102190002100FFF751F921787E4A52F82100FFF71C
:1021A00045FC607900902379E278A5787C4E56F85A
:1021B00025102578774E56F82500FFF793FC6078B8
:1021C000002855D0A07902283AD12178754A52F8D2
:1021D0002100FFF729F9002001210222CDE90002A8
:1021E000CDE902102378354655F8233003F1280253
:1021F00023786D4D55F8230000236169FEF78FFEAB
:102200002178324652F82100FFF75EFC2178674AB8
:1022100052F82100FEF7AEFD2178654A505C01229C
:102220000021FFF7E1F82178614A505CFFF7D1F80F
:1022300021782A4652F821000221FEF7A6FE17E077
:10224000A079012814D121785A4A505C0022114605
:10225000FFF7CAF821784F4A52F821005649FFF794
:10226000DBFB21784B4A52F821005349FFF7B3FCBE
:102270006078022851D0A07902284FD121784F4AA6
:1022800052F82100FFF7D0F800200222CDE9000229
:102290000290039023783F4D55F8233003F1240238
:1022A0002378474D55F823000023A169FEF737FE38
:1022B0002178384A52F82100FFF700FCA28B204613
:1022C000A169FFF777FD2178324A52F821003D4994
:1022D000FFF7A2FB2178374A505C01220021FFF76B
:1022E00083F82178334A505CFFF773F82178294A44
:1022F00052F821003349FFF76EFC2178254A52F845
:1023000021004FF44071FFF787FB2178214A52F8F2
:1023100021004FF44071FFF75EFC3AE0A0790128FC
:1023200037D12178234A505C01220021FFF75CF865
:102330002178204A505CFFF74CF82178154A52F872
:1023400021002149FFF768FB2178124A52F8210049
:102350001C49FFF761FB21780E4A52F821001A4907
:10236000FFF739FC21780B4A52F821001549FFF795
:1023700032FC2178074A52F821004FF44071FFF7F0
:102380004BFB2178034A52F821004FF44071FFF7CC
:1023900022FC7FBD9803002000380140CC5100088A
:1023A0002052000804520008C00300201052000808
:1023B0000C520008D4510008070107001852000809
:1023C000D00300201A010B000501050010B50446DA
:1023D000A079012807D12178084A52F8210008493C
:1023E000FFF7DFFB09E0A079022806D12178034A34
:1023F00052F821000349FFF7D4FB10BD98030020D9
:10240000050105001A010B0010B50446A07901284A
:1024100007D12178084A52F821000849FFF7DBFB71
:1024200009E0A079022806D12178034A52F8210058
:102430000349FFF7D0FB10BD9803002005010500FC
:102440001A010B0070B504460D460A2D0ADAA57074
:10245000A278054B53F822102278044B53F822003F
:10246000FFF7E4FB70BD0000205200089803002035
:1024700010B50378054C54F82310054C34F813209C
:102480004B8B13434B8300BF10BD0000B0030020F3
:10249000005200087047000010B504462278044B33
:1024A00033F81210034B53F82200FEF78EFF10BDD5
:1024B00000520008B00300202DE9F04104460D460B
:1024C0001646E079012809D12178394A52F82100CD
:1024D000FEF71EFD10B10120BDE8F08160780428F0
:1024E00002D06078052802D12046FFF7D5FFA079F9
:1024F00030BB0120E07121782E4A52F8210032468B
:102500002946FFF782FB6078042802D0607805280E
:1025100013D100BF2178274A52F821004021FFF74C
:10252000D9FA0028F6D12046FFF7A2FF2178214AE8
:1025300052F821004021FFF76DFA0020E07134E0ED
:10254000A079012817D10020608126816069A84206
:1025500000D065612178174A52F821001649FFF72B
:102560005BFA2178134A52F821001349FFF733FB35
:102570000120E07119E02178104A52F82100FEF79D
:10258000E5FB45B922892378094F57F82300616993
:10259000FEF7FFFC07E02178054A52F82100324699
:1025A0002946FEF7F6FC0120E071002094E70000C8
:1025B000C003002098030020070107001052000804
:1025C000F0B587B0344E00250024002700BF05E099
:1025D000002001A941F82400601CC4B2062CF7DBDE
:1025E000002544E0192D3DDA002405E0611DC8B244
:1025F000FFF7AAFB601CC4B2062CF7DB0A20FFF72A
:1026000077FB002405E0611DC8B2FFF78DFB601C5D
:10261000C4B2062CF7DB0A20FFF76AFB002414E0A3
:1026200001A850F82400400001A941F82400211D10
:10263000C8B2FFF763FB074601A850F824003844EE
:1026400001A941F82400601CC4B2062CE8DB002478
:1026500005E0611DC8B2FFF777FB601CC4B2062C11
:10266000F7DB02E01420FFF743FB681CC5B21B2D0B
:10267000B8DB00240CE001AA52F82410C4EBC40219
:10268000C2EB841206EB820000F0ACFF601CC4B207
:10269000062CF0DB07B0F0BDD004002070B500249C
:1026A000084DFFF78DFF00BF09E0C4EBC401C1EB8B
:1026B000841105EB810000F075F8601CC4B2062C93
:1026C000F3DB70BDD004002070B500240025002687
:1026D0003248007805285AD2DFE800F003071526B3
:1026E0004F0001202D49087055E0002405E0611DD0
:1026F000C8B2FFF719FB601CC4B2062CF7DB02203E
:102700002649087047E0002405E0611DC8B2FFF7C4
:102710001BFB601CC4B2062CF7DB03201F490870AA
:1027200000201F49087036E01D480078801C1C49B5
:10273000087008460078B0F5FA7F05DB00200870C5
:1027400001201649087017E0002409E0211DC8B2D5
:10275000FFF7D4FA012801D1012503E0601CC4B2BF
:10276000062CF3DB00BF012D03D103200B490870B9
:1027700002E00420094908700DE0FFF78FFF0320F5
:1027800006490870002006490870012603E0012070
:102790000249087000BF00BF304670BD86000020AF
:1027A0008700002030B50021DFED350AB0EE600A69
:1027B0004FF00042531E8478012C60D100248461C4
:1027C00000BF17E0041D54F82140944202DB041DB1
:1027D00054F82120041D54F821409C4202DC041DC1
:1027E00054F82130041D54F8214085692C4484613B
:1027F0004C1CE1B20529E5DB8469A41AE41A846162
:102800000325846994FBF5F4C461002114E0D0F839
:10281000D8403CB900F12C0454F82140C569A542C8
:1028200008DC0BE000F12C0454F82140C569A542F6
:1028300000DB03E04C1CE1B20A29E8DB00BF00F139
:102840007C0404EB8104D4ED000AB0EE600AD0ED04
:10285000070AF8EEE00A60EE800AB0EE600A00F1C6
:10286000A80404EB8104D4ED000A70EE800AB0EEF7
:10287000600AD0ED370AC0ED380A80ED370A30BD66
:102880000000000001460020054A062906DAC1EBD7
:10289000C103C3EB811302EB8303D86970470000C7
:1028A000D004002070B52DED068B04469FED1B0A69
:1028B000B0EE408A1A49886802F0FBF941EC1A0B25
:1028C0009FED180B53EC102B02F00AFA41EC190B98
:1028D00002F0BEF908EE900A144D062C11DAC4EB92
:1028E000C400C0EB841005EB800090ED370AC4EB08
:1028F000C400C0EB841005EB8000D0ED350A30EE4B
:10290000608AB4EEE88AF1EE10FA01DBB0EE688A74
:10291000B0EE480ABDEC068B70BD00000000000060
:102920003C0000209A9999999999F13FD004002090
:1029300030B5544900200023002200BF9EE0C0EBC8
:10294000C004C4EB801401F824000024C0EBC005CF
:10295000C5EB801501EB8505AC70C0EBC005C5EB80
:10296000801501EB8505EC70C0EBC005C5EB80154B
:1029700001EB8505AC61C0EBC005C5EB801501EB33
:102980008505EC6100230BE00025C0EBC004C4EB1F
:10299000801401EB8404241D44F823505C1CE3B232
:1029A0000A2BF1DB002216E0374C54F82250C0EB22
:1029B000C004C4EB801401EB8404543444F8225066
:1029C0000025C0EBC004C4EB801401EB8404203468
:1029D000A554541CE2B20A2AE6DB00221BE09FED5C
:1029E0002B0AC0EBC004C4EB801401EB84047C34DC
:1029F00004EB820484ED000A9FED250AC0EBC004BD
:102A0000C4EB801401EB8404A83404EB820484ED4D
:102A1000000A541CE2B20B2AE1DB9FED1E0AC0EB58
:102A2000C004C4EB801401EB840484ED350A002457
:102A3000C0EBC005C5EB801501EB8505C5F8D84096
:102A40009FED140AC0EBC004C4EB801401EB8404B6
:102A500084ED370A9FED0F0AC0EBC004C4EB80146D
:102A600001EB840484ED380A0124C0EBC005C5EBFA
:102A7000801501EB85056C70441CE0B20628FFF65A
:102A80005EAF30BDD0040020F04E0008124DA03AD9
:102A9000E1DA85C30000000070B50D4D002400BFD1
:102AA00011E0C4EBC400C0EB841005EB800090ED96
:102AB000370AC4EBC400C0EB841005EB800080ED46
:102AC000350A601CC4B2062CEBDBFEF7B7F870BD0C
:102AD000D004002038B5002416480068009016483D
:102AE000D0F850021449D1F84C12884208D9124843
:102AF000D0F850021049D1F84C12401A0A2810D2CE
:102B00000D48D0F850020C49D1F84C1288420FD22F
:102B10000948D0F84C020849D1F85012401A0A2846
:102B200006D3002302226946842000F039FF0124E5
:102B3000204638BD184F00088800002038B5002412
:102B40001648006800901648D0F850021449D1F891
:102B50004C12884208D91248D0F850021049D1F8D6
:102B60004C12401A0A2810D20D48D0F850020C49D5
:102B7000D1F84C1288420FD20948D0F84C020849CB
:102B8000D1F85012401A0A2806D3002302226946BF
:102B9000842000F005FF0124204638BD244F0008A2
:102BA0008800002038B500241648006800901648B8
:102BB000D0F850021449D1F84C12884208D9124872
:102BC000D0F850021049D1F84C12401A0A2810D2FD
:102BD0000D48D0F850020C49D1F84C1288420FD25F
:102BE0000948D0F84C020849D1F85012401A0A2876
:102BF00006D3002302226946842000F0D1FE01247E
:102C0000204638BD1C4F00088800002038B500243D
:102C10001648006800901648D0F850021449D1F8C0
:102C20004C12884208D91248D0F850021049D1F805
:102C30004C12401A0A2810D20D48D0F850020C4904
:102C4000D1F84C1288420FD20948D0F84C020849FA
:102C5000D1F85012401A0A2806D3002302226946EE
:102C6000842000F09DFE0124204638BD204F00083E
:102C700088000020014600200C2909DB0E2907DA14
:102C8000A1F10C0202EB4202024B03EB420250792B
:102C900070470000FC11002010B500F04DF82248EC
:102CA000007860B90D20FFF7E5FF01280ED11E491D
:102CB00008701E49A1F81402FFF7EEFE06E00D2091
:102CC000FFF7D8FF10B9002017490870184800789E
:102CD00008BB0C20FFF7CEFF012823D11449087050
:102CE000144908780978491C124A117000EBD07118
:102CF0004910A0EB410111B101290AD104E00120E2
:102D00000A49A1F8560205E001200849A1F8580235
:102D100000E000BF06E00C20FFF7ACFF10B9002078
:102D20000349087010BD0000220300208800002025
:102D3000230300202403002070B50024284D00BF89
:102D40004BE004EB440115F81100FEF7D7FF04EB4C
:102D5000440105EB4101087104EB440005EB400020
:102D6000C07804EB440105EB41010979884222D186
:102D700004EB440005EB40008078401C04EB440168
:102D800005EB4101887004EB440005EB40008078BE
:102D9000322816DB322004EB440105EB4101887038
:102DA00004EB440005EB4000007904EB440105EB23
:102DB0004101487105E0002004EB440105EB4101AD
:102DC000887004EB440005EB4000007904EB4401FB
:102DD00005EB4101C870601CC4B2022CB1DB70BDB0
:102DE000FC1100200020144900BF22E000F10C0279
:102DF00000EB400301F81320002200EB400301EB3D
:102E000043039A7000EB400301EB4303DA7000EBDD
:102E1000400301EB43031A7100EB400301EB430352
:102E20005A71012200EB400301EB43035A70421C2C
:102E3000D0B20228DADB7047FC1100202DE9F04700
:102E40000546224E0024A046A1460027204840699E
:102E5000012839D1012D37D100BF0BE01D48005D9D
:102E6000315D884204D0305D1A4908554FF00109A0
:102E7000601CC4B2032CF1DBB9F1010F24D1002492
:102E80001CE01448075D4FF0000812E007F0010055
:102E900018B10020FEF748FF02E00020FEF754FFC3
:102EA0007F1001210320FDF7E9FA08F1010000F08D
:102EB000FF08B8F1080FE9DB601CC4B2032CE0DBAB
:102EC00001210220FDF7DAFABDE8F0877200002048
:102ED0003C0000208300002010B50020FEF724FFF6
:102EE0000120FEF721FF0220FEF72EFF0320FEF750
:102EF0002BFF0420FEF728FF0120FEF715FF00211D
:102F00000420FDF7BBFA01210220FDF7B7FA0120EA
:102F1000FEF71AFF10BD000001F0FAFAFFF762FF9A
:102F2000FFF7DAFFFFF704FD00F0F8FE00F0FAF813
:102F300000F0B8F901210448FDF73CFB03480068A4
:102F4000FDF712FB00BFFEE7640400202C00002008
:102F500010B5062800DD10BD0A2907DA00EB800352
:102F6000034C04EB0313283323F8112000BFF2E7CE
:102F7000E80E002070B5062800DD70BD0A2916DABB
:102F8000012400EB80050B4E06EB051525F81140DA
:102F900000EB8004354605EB0414143424F81120AA
:102FA00000EB800405EB0414283424F8113000BF32
:102FB000E3E70000E80E002070B5002400254C482F
:102FC000B0F82002062801DD002070BD4848B0F8A6
:102FD000200218B90620474908700AE04448B0F8B2
:102FE0002002062805DC424890F82002401E414994
:102FF00008704148007810B1012871D137E03C4891
:10300000D0F850023A49D1F84C12884208D93848D1
:10301000D0F850023649D1F84C12401A0A2810D282
:103020003348D0F850023249D1F84C1288421DD2B0
:103030002F48D0F84C022E49D1F85012401A0A28D5
:1030400014D32C48007800EB80002C4901EB0010D1
:1030500000F1140400230A2221464FF40C5000F022
:103060009FFC25480078401C234908703DE020481B
:10307000D0F850021E49D1F84C12884208D91C4899
:10308000D0F850021A49D1F84C12401A0A2810D22E
:103090001748D0F850021649D1F84C1288421DD278
:1030A0001348D0F84C021249D1F85012401A0A289D
:1030B00014D31048007800EB8000104901EB001099
:1030C00000F1280400230A2221464FF4105000F09A
:1030D00067FC09480078401C0749087005E0FFE7D5
:1030E000002005490870012500BF00BF28466CE795
:1030F00088000020E5020020E4020020E80E002005
:1031000010B5062800DD10BD0A2907DA00EB8003A0
:10311000034C04EB03133C3323F8112000BFF2E708
:10312000E80E00202DE9F04FADF22C4D002640F2C4
:10313000244102A8FDF7BCF80027B046002001900A
:10314000814600240025834640F2091202A9544812
:10315000FDF798FFDDF8281401914FF4846102A86F
:10316000FDF794FB0199884273D100BF00BF00BFF7
:103170008DE009F0FF00FEF797FD06464FF0000BCB
:103180002C4604F10A0085B206F12C0717E002A8CC
:1031900050F8240001C702AB53F824A04FEAEA73A9
:1031A0000AEBD3535B121AB259460BF1010C0CF027
:1031B000FF0B09F0FF00FFF7CBFE601C84B2AC42AE
:1031C000E5DB4FF0000B2C4604F10A0085B206F156
:1031D000540712E002A850F8240001C702AB33F8EC
:1031E00024301AB259460BF1010C0CF0FF0B09F018
:1031F000FF00FFF785FF601C84B2AC42EADB2C467F
:1032000004F10B0085B206F17C0808E002A800EB8F
:10321000840090ED000AA8EC010A601C84B2AC4264
:10322000F4DB2C4604F10B0085B206F1A80808E097
:1032300002A800EB840090ED000AA8EC010A601CD3
:1032400084B2AC42F4DB2C46601C85B206F1D40893
:1032500009E020E002A800EB840090ED000AA8EC51
:10326000010A601C84B2AC42F4DB2C46601C85B2BF
:1032700006F1D80705E002A850F8240001C7601C39
:1032800084B2AC42F7DB09F101001FFA80F9B9F111
:10329000060FFFF66EAF0DF22C4DBDE8F08F00006B
:1032A00000F003082DE9F04F8DB04FF000083421F5
:1032B0006846FCF7FDFFC146C2460025AB46002428
:1032C000002600270D2269462B48FDF7DBFE0C9DEA
:1032D00030216846FDF7DAFAA84249D100BF2146FD
:1032E000641C5DF82100254908602146641C5DF8D6
:1032F0002100234908602146641C5DF82100204913
:1033000048602146641C5DF821001D498860214603
:10331000641C684600EB810090ED000A184880EDBF
:10332000030A2146641C5DF8210015490861214605
:10333000641C5DF8210012494861261D00BF0AE0A7
:103340005DF824203846791CCFB20D49183141F878
:103350002020601C84B2B442F2DB2046611C8CB297
:10336000694601EB800090ED000A054880ED0A0AED
:103370000DB0BDE8F08F000000E003082C00002035
:103380003C000020FEB5424D0024002600BF00BFD7
:1033900013E02046FFF786FAF6EE000A30EE200A28
:1033A000BDEEC00A10EE100A00B22DF814003DF870
:1033B000140025F81400601CC4B2062CE9DB354863
:1033C000007810B101285BD12BE03348D0F85002CF
:1033D0003149D1F84C12884208D92F48D0F8500210
:1033E0002D49D1F84C12401A0A2810D22A48D0F898
:1033F00050022949D1F84C12884211D22648D0F8FF
:103400004C022549D1F85012401A0A2808D300234B
:1034100006222946D00200F0C3FA01201D49087097
:1034200033E01D48D0F850021B49D1F84C128842B5
:1034300008D91948D0F850021749D1F84C12401A4F
:103440000A2810D21448D0F850021349D1F84C126F
:10345000884214D21048D0F84C020F49D1F85012CB
:10346000401A0A280BD30A4D0C35002306222946A0
:103470004FF4445000F094FA02200649087004E02A
:10348000002004490870012600BF00BF3046FEBD81
:10349000D00E0020FE0200208800002070B500241D
:1034A00000254C48B0F82002062801DD002070BD40
:1034B0004848B0F8200218B900204749087009E0D0
:1034C0004448B0F82002062804DC424890F8200264
:1034D000414908704148007810B1012871D137E0A6
:1034E0003C48D0F850023B49D1F84C12884208D9E8
:1034F0003848D0F850023749D1F84C12401A0A28FF
:1035000010D23448D0F850023249D1F84C128842D7
:103510001DD23048D0F84C022E49D1F85012401A32
:103520000A2814D32C48007800EB80002C4901EBCA
:10353000001000F1140400230A2221464FF40C501D
:1035400000F02EFA25480078401C244908703DE020
:103550002048D0F850021F49D1F84C12884208D9AF
:103560001C48D0F850021B49D1F84C12401A0A28C6
:1035700010D21848D0F850021649D1F84C1288429F
:103580001DD21448D0F84C021249D1F85012401AFA
:103590000A2814D31048007800EB8000104901EB92
:1035A000001000F1280400230A2221464FF4105095
:1035B00000F0F6F909480078401C0849087005E059
:1035C000FFE7002005490870012500BF00BF28461D
:1035D0006DE7000088000020ED020020EC020020D2
:1035E000E80E002010B5C278052A03DB0022C27065
:1035F00001228270B1F1807F09D36FF07E42521AAE
:10360000521C5342C478021D42F8243003E0C378B0
:10361000021D42F82310C278521CC27010BD000077
:1036200010B502460020034B12B9197201245C70D8
:1036300010BD0000880000202DE9FC5F804689460F
:103640004FF0000A0025002001900090002600277E
:10365000CC4CA4F80E820FFA89F0A4F81202B4F848
:103660000E024FF6FF71884279D0B4F80E02B0F521
:10367000805F05DBB4F80E0241F21301884205DDDC
:10368000B4F80E0241F2105188426AD1B4F80E0229
:1036900041F20D02811A904231D00BDCB0F5805F0F
:1036A00014D0A0F580500A38A8B1012818D00228FB
:1036B0003AD11AE0012927D006292AD0A1F20351D4
:1036C00089BBB4F91202FCF74FFF44E0B4F91202CF
:1036D000AD4908603FE0B4F91202AB4948603AE0F6
:1036E000B4F91202A849886035E0B4F9120200EE7C
:1036F000100AB8EEC00AA44880ED030A2BE0B4F922
:103700001202A149086126E0B4F912029E494861FB
:1037100021E0B4F9120200EE100AB8EEC00A9A488D
:1037200080ED0A0A17E0FFE7B4F80E0241F20F013C
:1037300088420FDBB4F80E02C91C88420ADCB4F9D7
:103740001222B4F80E02A0F580500F388E491831BD
:1037500041F8202000BF00BF4AF0020A0BE10EE151
:10376000FFE7B4F80E02B0F5045F14D10020A4F80E
:103770001A02B4F82002B4F912128842EED00120E5
:10378000A4F81C02B4F912020628E7DCB4F812020D
:10379000A4F82002EFE0B4F80E0242F201118842D0
:1037A00014D1B4F8120280B240F2E5718842D5D14A
:1037B0000120A4F81802A4F81A0294F82002FDF7D8
:1037C000FDF994F82002FDF799F9D4E0B4F80E025F
:1037D00042F20311884215D1B4F8120280B240F2CD
:1037E000E571884203D10120A4F85402C3E0B4F883
:1037F000120280B240F2B2418842AFD10120A4F857
:103800005A02B8E0B4F80E0242F2021188420CD11A
:10381000B4F8120280B24AF25A5188429ED1FFF7A0
:103820003BF90120A4F81402A5E0B4F80E02B0F5AB
:10383000085F43DBB4F80E0242F20A2188423DDA07
:103840004FF0010AB4F80E02A0F50850A4F82202C5
:1038500094F822020190B4F9122204F5097001993A
:1038600040F82120B4F91262B4F82002A8B900256A
:103870000BE032462846019900F0D2FC32B22846CD
:103880000199FFF73DFC681CC5B2062DF1DB32B291
:1038900028460199FFF734FC6DE094F82012491E88
:1038A000C8B23246019900F0BBFC94F82012491EC0
:1038B000C8B232B20199FFF723FC5CE0B4F81A02F7
:1038C000012858D1B4F80E02B0F5145F53DBB4F8F8
:1038D0000E0242F20A5188424DDAB4F9120241F264
:1038E000FE21884247D10120A4F81602824694F8AE
:1038F0000E020190B4F82002F0B9002513E028462A
:10390000FEF7C0FF8346C0170BEBD0504712284686
:10391000019900F00DFE3BB2012228460199FFF704
:1039200029FB681CC5B2062DE9DB3BB2012206204B
:103930000199FFF71FFB1EE0B4F8200206281ADCED
:1039400094F82012491EC8B2FEF79CFF8346C017A8
:103950000BEBD050471294F82012491EC8B20199BF
:1039600000F0E6FD94F82012491EC8B23BB20122D5
:103970000199FFF7FFFA4FF6FF70A4F80E025046C8
:10398000BDE8FC9F880000203C000020062803DAE8
:10399000821D024B23F8121070470000D00E002049
:1039A0002DE9F05F05460F46144698460026B146BD
:1039B000B346B2464FF6FF70854260DA28190028F8
:1039C0005DDD28194FF6FF71884258DA5A202D49DB
:1039D00081F80A01A5212B4880F80B116000C01C5A
:1039E000C1B2284880F80C11822180F80D11290AF3
:1039F00080F80E1180F80F5100BF10E037F8021B5D
:103A00001FFA81F94FEA29217000801D1E4A1154C6
:103A10007000C01D114601F80090701C86B2A642CD
:103A2000ECDBB8F1010F16D16000C11C1648C01CB8
:103A3000FCF72CFF82464FEA2A216000801D124AC3
:103A400011546000C01D114601F800A0600008304C
:103A50001FFA80FB03E06000801D1FFA80FB09490C
:103A6000486849685A46CB6A074998470548D0F8DC
:103A70004C020449C1F850020120FEF733F9BDE8B9
:103A8000F09F0000880000209201002010B504463D
:103A90000948D0F84C02401C0749C1F84C020846BE
:103AA000D0F84C0240F6B831884203D900F006F84D
:103AB00000F0B0F810BD0000880000202DE9F84F9C
:103AC0000025A94600260020009082468346002457
:103AD000002780464E4890F80C0201287BD14C48C4
:103AE000807A5A2878D14A48C07AA528FAD148481D
:103AF000B0F80A02062873DB4548B0F80A02C01E77
:103B00004349097B88426BD14148407B802806D0DD
:103B1000812805D0822824D083285FD122E05EE06E
:103B20003B4890F80F90007BC01E484518D10020FC
:103B300000903748807B009000260FE04FF0000A8D
:103B4000B01D33490A3111F800A05146009A3244A1
:103B5000D0B2FFF765FD0543701C86B24E45EDDB24
:103B60003DE03CE02A4890F810B00146097B081F70
:103B700000EBD071BBEB610F2CD100272448877B71
:103B80004FF6FF7000EA072707F47F472048C07B05
:103B9000384487B200241BE04FF000086000C01DCD
:103BA0001B490A3111F800804FF6FF7000EA08281F
:103BB00008F47F4860000830085C40441FFA80F831
:103BC000391988B24146FFF737FD0543601C84B2BE
:103BD0005C45E1DB03E019E00EE001E000BF00BF5F
:103BE0000B48D0F84C0241F2883188420AD905F0DE
:103BF000010010B100F028FB04E005F0020008B15C
:103C000000F0D4FB0020024981F80C02BDE8F88FD7
:103C10008800002010B53F48007838B900F074F9EA
:103C2000002876D07B203B49087072E03948B0F814
:103C30001C02012808D1FCF74DFE002869D00020A5
:103C40003449A1F81C0264E03248B0F85A02012855
:103C500008D1FEF73FFF00285BD000202D49A1F8D6
:103C60005A0256E02B48B0F85402012808D1FEF75A
:103C700099FF00284DD000202649A1F8540248E0C1
:103C80002448B0F85602012807D1FEF7BFFF50B311
:103C900000202049A1F856023BE01E48B0F8580227
:103CA000012807D1FEF74AFFE8B100201949A1F821
:103CB00058022EE01748B0F81802012807D1FFF784
:103CC000EDFB80B100201349A1F8180221E0114852
:103CD000B0F81602012807D1FFF76EF918B10020DD
:103CE0000C49A1F8160214E00A48B0F814020128A1
:103CF00007D1FFF747FB60B100200649A1F8140285
:103D000007E00548006842F2CD01884201D100F089
:103D100053F810BD880000203000002010B50024AA
:103D200000202149487021484860002008724872EC
:103D300001F20A204968C860801C1B494968086173
:103D4000A0F202201849496848611749496888610A
:103D500000201549A1F80A0281F80C024FF6FF7005
:103D6000A1F80E020020A1F81002A1F81202A1F899
:103D70001E025820A1F820020020A1F82202A1F87A
:103D80001A0200BF07E00A4850F82410094840F81A
:103D90002410601CC4B20A2CF5DB034A5068526838
:103DA000116A884710BD0000880000201004002020
:103DB000F04E0008AC0200203EB54E4D002400BF7E
:103DC00000BF25E02046FEF76DFDF6EE000A30EE5E
:103DD000200ABDEEC00A10EE100A00B22DF8140041
:103DE0003DF8140025F814003DF91400424931F95A
:103DF000141088420AD03DF814003F4921F81400FD
:103E000001203E49087000203D490870601CC4B282
:103E1000062CD7DB3948007801286AD13848007869
:103E200010B101285ED12BE03648D0F85002354958
:103E3000D1F84C12884208D93248D0F850023149A2
:103E4000D1F84C12401A0A2810D22E48D0F850024D
:103E50002C49D1F84C12884211D22A48D0F84C0291
:103E60002849D1F85012401A0A2808D30023062204
:103E70002946D002FFF794FD01202149087037E060
:103E80002048D0F850021F49D1F84C12884208D976
:103E90001C48D0F850021B49D1F84C12401A0A288D
:103EA00010D21848D0F850021649D1F84C12884266
:103EB00017D21448D0F84C021249D1F85012401AC7
:103EC0000A280ED30B4D0C350023062229464FF449
:103ED0004450FFF765FD022009490870002007499A
:103EE000087005E00020064908700449087000BF0A
:103EF00000BF3EBDD00E00200403002002030020BE
:103F0000100300208800002030B58BB0002400256D
:103F1000BE48007805287DD2DFE800F0033AC6FDF0
:103F2000FC00BB48D0F85002B949D1F84C12884285
:103F300008D9B748D0F85002B549D1F84C12401A08
:103F4000642810D2B248D0F85002B149D1F84C12CE
:103F500088421CD2AE48D0F84C02AD49D1F850127C
:103F6000401A642813D30024AA48008802B22146CC
:103F7000641C01A820F811202246002301A9200377
:103F8000FFF70EFDA1480078401CA049087039E1F8
:103F90009F48D0F850029E49D1F84C12884208D967
:103FA0009B48D0F850029A49D1F84C12401A642824
:103FB00010D29748D0F850029549D1F84C12884257
:103FC00071D29348D0F84C029149D1F85012401A5E
:103FD000642868D300248F48808802B22146641C7C
:103FE00001A820F811208B48008902B22146641CE8
:103FF00001A820F81120874890ED030ABDEEC00A01
:1040000010EE100A02B22146641C01A820F811200B
:10401000804800E0F4E0008A02B22146641C01A856
:1040200020F811207B48808A02B22146641C01A836
:1040300020F811207748008B02B22146641C01A8A9
:1040400020F811207348808B02B22146641C01A81D
:1040500020F811206F48008C02B22146641C01A890
:1040600020F811206B48808C02B22146641C01A804
:1040700020F81120674890ED0A0ABDEEC00A10EE44
:10408000100A02B22146641C01A820F81120224621
:10409000002301A941F20A00FFF782FC5B48007887
:1040A000401C5A490870ADE05948D0F850025849B0
:1040B000D1F84C12884208D95548D0F850025449DA
:1040C000D1F84C12401A642810D25148D0F850024E
:1040D0004F49D1F84C12884220D24D48D0F84C02BA
:1040E0004B49D1F85012401A642817D300244A488B
:1040F000008802B22146641C01A820F81120224643
:10410000002301A94FF4A850FFF74AFC3F4800786C
:10411000401C01E03BE002E03C49087072E03C4892
:10412000D0F850023A49D1F84C12884208D93848A0
:10413000D0F850023649D1F84C12401A642810D2F7
:104140003348D0F850023249D1F84C1288421DD27F
:104150002F48D0F84C022E49D1F85012401A64284A
:1041600014D300242D48008802B22146641C01A803
:1041700020F811202246002301A941F21050FFF738
:104180000FFC22480078401C204908703AE0204883
:10419000D0F850021E49D1F84C12884208D91C4868
:1041A000D0F850021A49D1F84C12401A642810D2A3
:1041B0001748D0F850021649D1F84C1288421ED246
:1041C0001348D0F84C021249D1F85012401A642812
:1041D00015D300240E48B0F8200202B22146641C18
:1041E00001A820F811202246002301A94FF4045011
:1041F000FFF7D6FB05480078401C0449087001E031
:10420000012500BF00BF28460BB030BD12030020BF
:10421000880000203C000020280000202C00002006
:1042200030B5084B06280CDA0A290ADAC0EBC004BC
:10423000C4EB80141D4605EB840303F1540444F8D9
:10424000212030BDD00400202DE9F84F0027544E26
:10425000BB46B846B946002000908246002400259F
:1042600000BF78E00AF0FF00FDF71EFD07462C4670
:1042700004F10A0085B207F12C0808E0B4F5847F48
:1042800003DA58F8040B46F82400601C84B2AC42F0
:10429000F4DB2C4604F10A0085B207F1540808E06B
:1042A000B4F5847F03DA58F8040B46F82400601C48
:1042B00084B2AC42F4DB2C4604F10B0085B207F16A
:1042C0007C090AE0B4F5847F05DAB9EC010A06EB53
:1042D000840080ED000A601C84B2AC42F2DB2C4604
:1042E00004F10B0085B207F1A8090AE0B4F5847F58
:1042F00005DAB9EC010A06EB840080ED000A601CC7
:1043000084B2AC42F2DB2C46601C85B207F1D409C2
:104310000AE0B4F5847F05DAB9EC010A06EB840003
:1043200080ED000A601C84B2AC42F2DB2C46601CBB
:1043300085B207F1D80808E0B4F5847F03DA58F8AD
:10434000040B46F82400601C84B2AC42F4DB0AF192
:1043500001001FFA80FABAF1060F83DBB346A10011
:104360005846FCF793FA0090009846F82400601C29
:1043700084B2B4F5857F10DA0A480088401C0949E8
:104380000880FCF78FFE0848FCF738FE22463146CD
:104390000548FCF7ADFEFCF76BFEBDE8F88F0000AA
:1043A0005C0A0020E602002000F003082DE9F84F27
:1043B0004FF0000B514FD9460026B046B2460020C0
:1043C0000090002400252C46651C4D4E04E001CED3
:1043D00047F82400601C84B2AC42F8DB2C46601C19
:1043E00085B2484E04E001CE47F82400601C84B238
:1043F000AC42F8DB2C46601C85B2424E361D04E010
:1044000001CE47F82400601C84B2AC42F8DB2C4695
:10441000601C85B23B4E083604E001CE47F824000C
:10442000601C84B2AC42F8DB2C46601C85B2DFF81D
:10443000D48008F10C0807E0B8EC010A07EB84000F
:1044400080ED000A601C84B2AC42F5DB2C46601C97
:1044500085B22C4E103604E001CE47F82400601CD3
:1044600084B2AC42F8DB2C46601C85B2254E143673
:1044700004E001CE47F82400601C84B2AC42F8DBB3
:104480002C46201D85B21F4E183604E001CE47F899
:104490002400601C84B2AC42F8DB2C46601C85B260
:1044A000DFF8608008F1280807E0B8EC010A07EBA4
:1044B000840080ED000A601C84B2AC42F5DBB94692
:1044C000A1004846FCF7E2F9824647F824A0601CA8
:1044D00084B20D2C10DC0C480088401C0A4908806E
:1044E000FCF7E0FD0948FCF789FD224639460748FC
:1044F000FCF7FEFDFCF7BCFDBDE8F88F280A0020A4
:104500002C0000203C000020E802002000E003080E
:1045100070B54FF0006400256019FDF7D3FBFDF77F
:10452000DDFB00F05DFB4FF47A70FDF71DFC70BD04
:1045300030B502467C489FED7D1AB0EE410A9FEDF2
:104540007B1AF0EE410A062A7EDA0A29FCDAC2EB6F
:10455000C203C3EB8213044604EB830000F12C0377
:10456000C46943F8214001240C3B5C5400296CD001
:104570004B1E00F12004E35C012B10D100F12C0351
:1045800053F821504B1E0C3454F823309D4203DD68
:104590000023C0F8D83002E00123C0F8D8309FEDE6
:1045A000631AB0EE410A00F1540353F821504B1E38
:1045B00000F1540454F82330EB1A01EE103AB8EE2F
:1045C000C11AB0EE410A00F12C0353F821504B1EE2
:1045D000283C54F82330EB1A01EE103AB8EEC11A19
:1045E000C0EE011AB0EE610A00F1540353F8213015
:1045F00001EE103AB8EEC11A234653F8213001EE0D
:10460000903AF8EEE11A00EE611AF0EE410A00F17C
:104610007C0303EB810383ED000A00F1A80303EBA5
:104620008103C3ED000A092945DA9FED401AB0EE77
:10463000410A00F154034C1C53F8244053F8213034
:10464000E31A01EE103A01E06CE034E0B8EEC11A72
:10465000B0EE410A00F12C034C1C53F8244053F8EF
:104660002130E31A01EE103AB8EEC11AC0EE011A79
:10467000B0EE610A00F154034C1C53F8243001EEF3
:10468000103AB8EEC11A00F12C0353F8243001EEB1
:10469000903AF8EEE11A00EE611AF0EE410A00F1EC
:1046A0007C0303EB840383ED000A00F1A80303EB12
:1046B0008403C3ED000A012918D100F17C0303EB48
:1046C000810393ED001A4B1E00F17C0404EB83037D
:1046D00083ED001A00F1A80303EB810393ED001AA8
:1046E0004B1E2C3404EB830383ED001A092919D1E6
:1046F00000F17C0303EB810393ED001A00F17C03CE
:104700004C1C03EB840383ED001A00F1A80303EBB8
:10471000810393ED001A00F1A8034C1C03EB840302
:1047200083ED001A30BD0000D0040020000000001E
:104730002DE9F04F8FB083460024182109A8FBF71C
:10474000B7FD0127A046182101A8FBF7B1FDA1463E
:10475000BBF1010F7ED100BF09E02046FEF7A2F8B1
:1047600009A800EB840080ED000A601CC4B2062C8E
:10477000F3DB0024EBE02546FD4830F81400C0F3DD
:104780000320062190FBF1F201FB1200C6B2F848AB
:1047900010F81400C0F30310052190FBF1F201FBA7
:1047A0001200C7B2F24830F8140000F4704000283C
:1047B0007AD009A800EB850090ED000A09A800EB6B
:1047C0008600D0ED000A30EE600AEA48D0ED030A18
:1047D000B4EEE00AF1EE10FA4FDC09A800EB850018
:1047E00090ED000A09A800EB8600D0ED000A30EE3B
:1047F000600AE048D0ED030AF1EE600AB4EEE00A88
:10480000F1EE10FA39D309A800EB850090ED000A0B
:10481000D848D0ED030AF1EE600AB4EEE00AF1EEFA
:1048200010FA0CDD09A800EB850090ED000AD148D4
:10483000D0ED030AB4EEE00AF1EE10FA1DD309A898
:1048400000EB860090ED000ACA48D0ED030AF1EEB5
:10485000600A00E0BEE1B4EEE00AF1EE10FA24DDF9
:1048600009A800EB860090ED000AC248D0ED030ACB
:10487000B4EEE00AF1EE10FA17D20020BC4921F89C
:104880001400BD49C85500212846FBF723FE00212E
:104890002846FFF77BF800213046FBF71BFE00217E
:1048A0003046FFF773F850E041E00F20B04921F89F
:1048B0001400084630F814004FF6FF7101EA0010AA
:1048C000AB4921F81400084630F81400304421F8B0
:1048D0001400084630F814004FF6FF7101EA00108A
:1048E000A34921F81400084630F81400384421F890
:1048F0001400084630F814004FF6FF7101EA00106A
:104900009B4921F8140001209B49C8553946284687
:10491000FBF7E0FD39462846FFF738F839463046C0
:10492000FBF7D8FD39463046FFF730F80DE00020A0
:104930008F4921F814009049C85500212046FBF703
:10494000C9FD00212046FFF721F8601CC4B2062CE7
:10495000FFF611AF4FF0000800241AE0844830F849
:10496000140000F47040B0F5704F10D007A800F8A4
:10497000084009A800EB840090ED000A01A800EBB4
:10498000880080ED000A08F1010000F0FF08601CBB
:10499000C4B2062CE2DB424607A901A8FBF7ECFCF7
:1049A0004FF0000911E107A810F8095007A909F113
:1049B00001000E5C09A800EB850090ED000A6D482F
:1049C000D0ED030AF1EE600AB4EEE00AF1EE10FA5F
:1049D0000CD309A800EB850090ED000A6548D0EDE6
:1049E000030AB4EEE00AF1EE10FA7CDD09A800EB50
:1049F000860090ED000A5F48D0ED030AF1EE600AF0
:104A0000B4EEE00AF1EE10FA0CD309A800EB860030
:104A100090ED000A5748D0ED030AB4EEE00AF1EE3B
:104A200010FAE2DD09A800EB860090ED000A09A863
:104A300000EB8500D0ED000A30EE600A4D48D0ED65
:104A4000030AF1EE600AB4EEE00AF1EE10FA4ADD74
:104A500009A800EB860090ED000A09A800EB85008C
:104A6000D0ED000A30EE600A4248D0ED030AB4EE01
:104A7000E00AF1EE10FA36D2012782E03E48C05D2E
:104A800000287CD1BA4601203B49C8550F2038493F
:104A900021F81500084630F815004FF6FF7101EABD
:104AA0000010334921F81500084630F8150030444D
:104AB00021F81500084630F815004FF6FF7101EA9D
:104AC00000102B4921F81500084630F8150038442D
:104AD00021F81500084630F815004FF6FF7101EA7D
:104AE0000010234900E050E021F815000F2021F8C4
:104AF0001600084630F816004FF6FF7101EA001064
:104B00001B4921F81600084630F81600284421F801
:104B10001600084630F816004FF6FF7101EA001043
:104B2000134921F81600084630F81600384421F8D9
:104B30001600084630F816004FF6FF7101EA001023
:104B40000B4921F8160051462846FBF7C3FC514695
:104B50002846FEF71BFF51463046FBF7BBFC51468B
:104B60003046FEF713FF09F1010000F0FF090BE0EA
:104B7000C40400203C0000207B000020FFE7781CDC
:104B8000C7B2052FFFF67AAF1BE00020134921F8CA
:104B9000150000212846FBF79DFC00212846FEF762
:104BA000F5FEA8F1020048450BD100200B4921F881
:104BB000160000213046FBF78DFC00213046FEF741
:104BC000E5FE09F1010000F0FF09A8F101004845E8
:104BD0003FF7E9AE0FB0BDE8F08F0000C40400203D
:104BE00038B500240EE0144951F82400FCF71CFCF1
:104BF000124A32F81410124A52F824000022FCF72C
:104C000046FB641C0E2CEED3002411E00D4951F834
:104C10002400FCF709FC00200B4A009032F8141025
:104C20000A4A52F8240000230122FCF760FB641CAE
:104C30000D2CEBD338BD000078510008B0510008AE
:104C400060030020285100085C5100082C0300205C
:104C500021F00042A2F16052B2F5801F01F0004342
:104C600028BFD2F17F6C0BD95FEA001C43EAC20275
:104C700042EB507018BF704728BF20F0010070470A
:104C8000B2F5801FBCBF184670474FEA410C1CF5B7
:104C9000001F02D2084600F026B970B500F0CAF82D
:104CA00000000089FFF7F6BF4FF00040A0F580003C
:104CB000704710F0004248BF4042B0FA80F310FA4B
:104CC00003F10AD0C3F11D0303F580634FEA41509D
:104CD00002EB035202EBD12170474FF00000704706
:104CE000DFF848C170B51CEA111E1EBF1CEA13157F
:104CF0009EEA0C0F95EA0C0F00F06F8081EA030426
:104D000023EA4C134EEAD47E21EA4C1141F480117F
:104D100043F48013AE44A1FB024CA0FB0365AEF14B
:104D20007F7E361955EB0C05A1FB034C4CF10003BB
:104D3000A0FB021C16EB0C06654153F1000309426F
:104D400018BF46F0010613F4007F0BD14FEA033180
:104D50004FEA0530340341EA155140EA16506FF02E
:104D600003020AE04FEAC3214FEAC520F40241EAF8
:104D7000555140EA56506FF0020202EB2E4201EB11
:104D8000025585EACE710AD05FEA440C18BF24F0C0
:104D9000004450F1000041F1000120EAD47040F2DB
:104DA000FE7C624500D270BDA84214BF4FF0804423
:104DB0004FF04044002E08BF0024BEF1806FA8BF12
:104DC000A1F1C041BDE8704080F282804FF0000048
:104DD00001F1C04101F0004170479EEA0C0F0CEA5E
:104DE000131518BF95EA0C0F06D04FF0000081EAAA
:104DF000030E0EF0004170BD00F01CF88900013E6A
:104E000000F007B800F009B84FEA430C5FEA5C5CB9
:104E100008D081EA030100F05BB84FEA410C5FEA79
:104E20005C5CF6D14FF00000014970470000FF07BD
:104E30000000F87F0EF1020E2EF0030E5EF8046BF8
:104E4000364205D4012A43EB030515F5001F12D89D
:104E5000012841EB010C1CF5001F0CD80ED14FEAC4
:104E6000D17C15F5001F0CEB4C0C0CF1020C08BFAB
:104E70004CEBD37C04E04FF0080C01E04FEAD37C0C
:104E80000CEB4C0526FA05F606F00706B6F1040C05
:104E900006D20EEB860CBDE870404CF0010C60476A
:104EA000DFE80CF0090B02024FF000414FF0000068
:104EB000A1F5002170BD19461046012851EB0104EF
:104EC00018BFD4F5001484BF002001F0004170BD6C
:104ED0000808A0F500114FEA310170474FF040700B
:104EE000E1EE100A7047FF2141EAD050C00570473B
:104EF000000000003200000064000000C800000054
:104F0000F4010000E8030000D0070000B80B000027
:104F1000A00F000088130000015A3800015A350024
:104F2000015A3600015A310000C1814001C0804160
:104F300001C0804100C1814001C0804100C1814069
:104F400000C1814001C0804101C0804100C1814059
:104F500000C1814001C0804100C1814001C0804149
:104F600001C0804100C1814001C0804100C1814039
:104F700000C1814001C0804100C1814001C0804129
:104F800001C0804100C1814000C1814001C0804119
:104F900001C0804100C1814001C0804100C1814009
:104FA00000C1814001C0804101C0804100C18140F9
:104FB00000C1814001C0804100C1814001C08041E9
:104FC00001C0804100C1814000C1814001C08041D9
:104FD00001C0804100C1814001C0804100C18140C9
:104FE00000C1814001C0804100C1814001C08041B9
:104FF00001C0804100C1814001C0804100C18140A9
:1050000000C1814001C0804101C0804100C1814098
:1050100000C1814001C0804100C1814001C0804188
:1050200001C0804100C1814000C0C101C30302C270
:10503000C60607C705C5C404CC0C0DCD0FCFCE0ED8
:105040000ACACB0BC90908C8D81819D91BDBDA1A48
:105050001EDEDF1FDD1D1CDC14D4D515D71716D6B8
:10506000D21213D311D1D010F03031F133F3F23228
:1050700036F6F737F53534F43CFCFD3DFF3F3EFE98
:10508000FA3A3BFB39F9F83828E8E929EB2B2AEA08
:10509000EE2E2FEF2DEDEC2CE42425E527E7E62678
:1050A00022E2E323E12120E0A06061A163A3A262E8
:1050B00066A6A767A56564A46CACAD6DAF6F6EAE58
:1050C000AA6A6BAB69A9A86878B8B979BB7B7ABAC8
:1050D000BE7E7FBF7DBDBC7CB47475B577B7B67638
:1050E00072B2B373B17170B05090915193535292A8
:1050F00096565797559594549C5C5D9D5F9F9E5E18
:105100005A9A9B5B99595898884849894B8B8A4A87
:105110004E8E8F4F8D4D4C8C4484854587474686F7
:105120008242438341818040000008000000040067
:105130000000040000000400000004000000020061
:105140000000020000000800000004000000100041
:10515000000004000000080000000800800000803B
:10516000004000200010100040001000010004006A
:105170001000010002000000000008000000040010
:105180000000040000000400000002000000020013
:1051900000000800000004000000040000000400FB
:1051A00000000200000002000000040000000400F3
:1051B000400000200040008020008000200002000D
:1051C00008002000000400088000400000001000DB
:1051D000000002003526050700000800000002005C
:1051E000001004000C00020000001000000002008B
:1051F000040008000200030000000000000004009A
:105200000000000401000000010000000E11000079
:1052100000200040000000720100000001000000BA
:10522000C012000080250000004B00000096000026
:1052300000E1000000C2010040420F0080841E0017
:10524000C0C62D0000093D00685200080000002083
:1052500064040000C4010008305300086404002006
:105260002C1E0000200200081EACF7FF1FE8042DD2
:10527000107AFF1F0C29081620F4F01F503AF8048A
:105280004B907510810312CD1053881342403201A8
:105290000211023AA01C512921B18BE8031113100D
:1052A0000402FF2001FF810310FFFF0249589A0109
:1052B00002091612513230C3310612081248DA04BC
:1052C00004214904691C5A0C0829106904091A3080
:1052D000E9186910125012401A4404292829182983
:1052E0005849242139302B0240041A44045A800CB6
:1052F00029041A58042A6C0C140601010316020230
:105300002210136521140845241B0895041AB904BA
:105310001A090413CD2335080105050930388168C1
:105320000901020304060708090C1AFF0100000026
:040000050800018965
:00000001FF
