:020000040800F2
:1000000058210020690200087702000879020008E0
:100010007B0200087D0200087F020008000000004B
:100020000000000000000000000000008102000845
:100030008302000800000000850200088702000813
:100040008902000889020008890200088902000864
:100050008902000889020008890200088902000854
:100060008902000889020008890200088902000844
:1000700005040008890200084104000889020008FC
:100080008902000889020008890200088902000824
:100090008902000889020008890200088902000814
:1000A0008902000889020008890200088902000804
:1000B00089020008890200088902000889020008F4
:1000C00089020008890200088902000889020008E4
:1000D000890200088105000889020008CD06000891
:1000E00089020008890200088902000889020008C4
:1000F00089020008890200088902000889020008B4
:10010000000000000000000000000000890200085C
:1001100089020008890200086D05000889020008AC
:100120008902000889020008890200088902000883
:100130008902000889020008000000000000000099
:1001400089020008890200088902000800000000F6
:10015000000000000000000000000000000000009F
:100160000000000000000000890200088902000869
:1001700089020008000000000000000000000000EC
:10018000000000008902000800F002F800F05CF8AE
:100190000AA090E8000C82448344AAF10107DA45E2
:1001A00001D100F051F8AFF2090EBAE80F0013F0D8
:1001B000010F18BFFB1A43F0010318470436000073
:1001C000243600000A444FF0000C10F8013B13F0F5
:1001D000070408BF10F8014B1D1108BF10F8015BA0
:1001E000641E05D010F8016B641E01F8016BF9D193
:1001F00013F0080F1EBF10F8014BAD1C0C1B09D1EA
:100200006D1E58BF01F801CBFAD505E014F8016B5B
:1002100001F8016B6D1EF9D59142D6D370470000ED
:100220000023002400250026103A28BF78C1FBD8FF
:10023000520728BF30C148BF0B6070471FB503F09D
:1002400015F91FBD10B510BD00F05CF81146FFF7A1
:10025000F5FF02F09CFA00F07AF803B4FFF7F2FF22
:1002600003BC00F081F800000B48016841F4700104
:1002700001600A480047FEE7FEE7FEE7FEE7FEE70B
:10028000FEE7FEE7FEE7FEE7FEE70000044805495B
:10029000054A064B7047000088ED00E08901000820
:1002A000581100205821002058190020581900200A
:1002B0004FF0000200B5134694469646203922BFFF
:1002C000A0E80C50A0E80C50B1F12001BFF4F7AF4A
:1002D000090728BFA0E80C5048BF0CC05DF804EB2C
:1002E000890028BF40F8042B08BF704748BF20F89A
:1002F000022B11F0804F18BF00F8012B7047704798
:1003000070477047754600F02BF8AE460500694609
:10031000534620F00700854618B020B5FFF7B6FF1A
:10032000BDE820404FF000064FF000074FF00008F6
:100330004FF0000B21F00701AC46ACE8C009ACE877
:10034000C009ACE8C009ACE8C0098D46704710B5DB
:100350000446AFF300802046BDE81040FFF77DBFA4
:1003600000487047F810002001491820ABBEFEE796
:100370002600020070470000F0B503460025002467
:100380000020DFED1F0AB0EE600A002600BF33E058
:10039000002501202AE003EB8007D7ED000A471E65
:1003A00003EB870797ED001AF4EEC10AF1EE10FA9D
:1003B0001BD2471E03EB8707D7ED000AB0EE600A99
:1003C00003EB8007D7ED000A471E03EB8707C7ED55
:1003D000000A03EB800787ED000A471ECE5D11F887
:1003E00000C001F807C00E540125401C171B8742AE
:1003F000D1DC05B9F0BD641C9442C9DB00BFF9E74C
:100400000000000010B50A4A51680A4A506800F01E
:100410005BFB60B10749486800F04AFB0649486841
:10042000064901F0CAF90249486800F0B1FA10BD66
:1004300088370008F8020020D002002006010600DC
:1004400010B50A4A11680A4A106800F03DFB60B115
:100450000749086800F02CFB06490868064901F0C6
:10046000ACF90249086800F093FA10BD883700081B
:10047000F8020020D00200200601060070B50546F3
:100480000C466426012C12D1284601F061FA304650
:1004900000F066F8284601F04BFA304600F060F8AC
:1004A000284601F055FA304600F05AF811E0284687
:1004B00001F03EFA304600F053F8284601F048FAC1
:1004C000304600F04DF8284601F032FA304600F090
:1004D00047F870BDF0B502460C4600270025002302
:1004E00000260021012C06D0022C0AD0032C06D0B5
:1004F000042C08D101E0082507E0012505E00225CC
:1005000003E0042501E0002500BF00BF082A22DA2D
:10051000C2F1070000EBD07CCCF347030F48C15C6D
:10052000042B18DAC2F1070000EBD07C4FEA6C0C08
:10053000A0EB4C0C0CF0FF06012E03D101F0F001F2
:10054000294305E001F00F01F02000EA0510014306
:100550000248C15401273846F0BD00000A000020BF
:1005600000E0401E0028FCD17047000010B50121BA
:10057000024800F0B5FF00F025F910BD0010004062
:100580001CB54B480068C06901900198C0F3C020B9
:1005900010B347490868474901F030F846490868F0
:1005A00000F086FA4449086800F0C0FA4349898B94
:1005B000081A4249C9680880012040490969087041
:1005C0003E4B9A8B99693C4B186800F0C7F93A4941
:1005D000086800F072FA69E00198C0F34010B0B109
:1005E00033490868364901F009F831490868416A19
:1005F00000910099C9B23148C06802882F48C0688C
:10060000801C2E4BD8601846806981544EE00198BA
:10061000C0F3C01020B90198C0F38010002844D066
:100620000198C0F3801098B121490868254900F06D
:10063000E5FF00202149C87108464078042803D00E
:1006400008464078052831D11C4801F015FD2DE001
:100650000198C0F3C01038B3154908681A4900F072
:10066000CDFF164840891549098988420FDB10499A
:100670000868154901F087F80D490868114900F02C
:10068000BDFF0B4908680F4901F097F80EE0084AD2
:1006900010680A4A53895289521C084C62812246CA
:1006A0005269D15C816200BF00E000BF1CBD000048
:1006B000D00200201A010B000803002010030020C4
:1006C0000501050006010600070107001CB53848B2
:1006D0004068C06901903648406800680090019801
:1006E000C0F3C02060B30098C0F3806040B33049CD
:1006F0004868304900F082FF2F49486800F0D8F977
:100700002D49486800F012FA2C49B1F85410081A23
:1007100081B22A48406C018001212848806C017018
:100720002648383000F066F8244BB3F85420196D91
:10073000214B586800F012F91F49486800F0BDF9D4
:100740000098C0F38010C8B10198C0F38010A8B120
:10075000174948681A4900F051FF0021174880F8EE
:100760003F1090F83900042804D0144890F839005C
:10077000052803D11148383001F07EFC019800F0C3
:10078000010078B90198C0F3400058B90198C0F34E
:10079000800038B90198C0F3C00018B90198C0F3BF
:1007A000002018B10548383001F0E0FA1CBD000007
:1007B000D00200201A010B000803002010030020C3
:1007C0000601060010B5002401F0F8FE01F080FDDE
:1007D0000446204602F05EFD204601F071FF2046EF
:1007E00002F0F8FA02480068401C0149086010BD98
:1007F00004000020704700000A2807DA0122044B99
:1008000023F8102003F1140222F8101070470000A2
:1008100060100020F0B502460D46FF21FF240020A5
:1008200009E0167886EA04030A4EF65C86EA0104BB
:10083000094EF15C521C2E1EA5F10105F1D10846AE
:100840004FF6FF7606EA002000F47F400619B0B2AA
:10085000F0BD0000A0340008A0350008002000BF53
:1008600005E00021034A22F81010411CC8B20A28F2
:10087000F7DB704760100020024989680143014A94
:1008800091607047002004E04FF0E020006920F004
:1008900004004FF0E02108610A4880680A49B0FB73
:1008A000F1F0C0F3CF00094908800846008800EB4A
:1008B0004001C1EBC0104FF6FF7101EAC0000449CE
:1008C00008807047D410002040420F005E020020D4
:1008D0006002002001460F4A12884A434FF0E0238D
:1008E0005A6100229A611A46126922F00102521CD2
:1008F0001A6100BF4FF0E022106900F001021AB146
:1009000000F48032002AF5D000224FF0E0231A6173
:100910009A6170476002002001460F4A12884A43DC
:100920004FF0E0235A6100229A611A46126922F0C0
:100930000102521C1A6100BF4FF0E022106900F062
:1009400001021AB100F48032002AF5D000224FF0E3
:10095000E0231A619A6170475E020020436862F3E7
:100960000F034360C16070470021002200F08052F5
:100970000AB1012100E0002111B1034B186001E030
:10098000024B58607047000004040240000002401F
:10099000002200F000420AB1024900E0024948602A
:1009A000704700000004024000000240016821F08E
:1009B000010101600021016041686FF30F01416096
:1009C00000218160C1603849884204D10F21364A34
:1009D000083A516067E034491431884204D1F0216B
:1009E000314A083A51605EE02F492831884205D1EA
:1009F0004FF470612C4A083A516054E02A493C3166
:100A0000884205D14FF47041274A083A51604AE0C4
:100A100025495031884205D14FF47021224A083AC5
:100A2000516040E020496431884205D14FF47001A3
:100A30001D4A083A516036E01B497831884205D199
:100A40004FF07061184A083A51602CE0174988420B
:100A500003D10F21021F116025E01449143188428F
:100A600004D1F021114A121F11601CE00F492831F6
:100A7000884205D14FF470610C4A121F116012E0D8
:100A80000A493C31884205D14FF47041074A121F90
:100A9000116008E005495031884204D14FF47021BB
:100AA000024A121F11607047080002400804024009
:100AB000016821F0010101607047016821F0010126
:100AC000491C016070470000F0B503460024A446AD
:100AD00000250026002701F0004401F0E0404FEA25
:100AE000107C0CB10F4A00E00F4A146804EA0100C0
:100AF00008B1012600E00026ACF101008000C140F1
:100B00001D6805F00E0501EA050008B1012700E0A7
:100B10000027012F03D1012E01D10120F0BD0020BB
:100B2000FCE70000000402400000024008B5014656
:100B300048680090009880B208BD2DE9F04704464F
:100B40000D461646DDE9099ADDF820800B9F204608
:100B5000FFF72CFF206820F480402060206868F3B5
:100B60004510206020686AF304102060206820F09F
:100B7000800080302060206820F0400020602068E5
:100B800067F38B202060206867F3092020602068CD
:100B900069F30D302060606863F30F006060E5600A
:100BA000A660BDE8F08702680A430260704708B596
:100BB000036823F00103036006E003680093009BD1
:100BC00003F0010303B900E0F7E700BFC160436829
:100BD00062F30F034360036823F001035B1C0360AF
:100BE00008BD08B5036823F00103036006E003684D
:100BF0000093009B03F0010303B900E0F7E700BF97
:100C0000C160436862F30F034360036823F001038C
:100C10005B1C036008BD000030B50446042500F0ED
:100C200045F80546042D16D10C48006920F0020055
:100C3000801C0A49086108464461006920F04000B0
:100C40004030086100F032F805460448006920F0A1
:100C5000020002490861284630BD00000020024021
:100C60000420094AD16801F001020AB101200AE01A
:100C700001F010020AB1022005E001F004020AB1FD
:100C8000032000E0042070470020024030B500231C
:100C900006E00388801C048843EA044410C1801CD9
:100CA000141EA2F10105AAB2F3D130BD10B54FF068
:100CB000FF330424FFF7D4FF044603E0FFF7D0FF1F
:100CC00004465B1E012C01D1002BF7D103B905248A
:100CD000204610BD2DE9F04104460D461646042776
:100CE0004FF00008FFF7E2FF0746042F2CD1184809
:100CF000006920F00100401C1549086100BF2888E8
:100D00002080FFF7D3FF0746042F09D104F1020822
:100D10002868000CA8F80000FFF7C8FF074606E0A7
:100D20000B48006920F001000949086105E0701EC8
:100D300086B2241D2D1D002EE1D100BF044800699C
:100D400020F00100024908613846BDE8F08100004A
:100D500000200240F0B5002300244D07ED0E02FAFA
:100D600005F308290BDA4E07F70E0F26BE40056A79
:100D7000B5430562056A45EA030404620AE04E07CA
:100D8000F70E0F26BE40456AB5434562456A45EAFF
:100D900003044462F0BD2DE9F0430C46079E002198
:100DA0000025002700BF60E04FF0010C0CFA01F5B0
:100DB00004EA0507AF4257D14FEA41094FF0030853
:100DC00008FA09F8D0F800C02CEA080CC0F800C0F6
:100DD0004FEA41094FF0030808FA09F8D0F804C0B7
:100DE0002CEA080CC0F804C04FEA41094FF0030890
:100DF00008FA09F8D0F80CC02CEA080CC0F80CC0AE
:100E00004FEA41094FF0030808FA09F8D0F808C082
:100E10002CEA080CC0F808C04FEA41094FF002085C
:100E200008FA09F8D0F800C04CEA080CC0F800C075
:100E300003FA01F8D0F804C04CEA080CC0F804C06A
:100E40004FEA410802FA08F8D0F80CC04CEA080C46
:100E5000C0F80CC04FEA410806FA08F8D0F808C0FC
:100E60004CEA080CC0F808C0491C10299CD3BDE806
:100E7000F083F0B50B4600210024002500BF25E0DB
:100E8000012606FA01F403EA0405A5421DD14FEA42
:100E9000410C032707FA0CF70668BE4306604FEAC9
:100EA000410C032707FA0CF7C668BE43C6604FEA39
:100EB000410C002707FA0CF706683E4306604F0016
:100EC00002FA07F7C6683E43C660491C1029D7D30B
:100ED000F0BD2DE9F0430C46079E002100250027B8
:100EE00000BF60E04FF0010C0CFA01F504EA0507C1
:100EF000AF4257D14FEA41094FF0030808FA09F809
:100F0000D0F800C02CEA080CC0F800C04FEA410934
:100F10004FF0030808FA09F8D0F804C02CEA080CCE
:100F2000C0F804C04FEA41094FF0030808FA09F875
:100F3000D0F80CC02CEA080CC0F80CC04FEA4109EC
:100F40004FF0030808FA09F8D0F808C02CEA080C9A
:100F5000C0F808C04FEA41094FF0010808FA09F843
:100F6000D0F800C04CEA080CC0F800C003FA01F841
:100F7000D0F804C04CEA080CC0F804C04FEA41089D
:100F800002FA08F8D0F80CC04CEA080CC0F80CC003
:100F90004FEA410806FA08F8D0F808C04CEA080CF5
:100FA000C0F808C0491C10299CD3BDE8F083028B0F
:100FB0000A430283704700F01F0201219140421151
:100FC000920002F1E022C2F80011704770B50346AA
:100FD000002000250F240B4E366806F4E066C6F5A7
:100FE000E066C6F30720C0F10406F5B2044101FA39
:100FF00005F6F0B202EA040630430607300E024E50
:10100000F05470BD0CED00E000E400E002494969D5
:101010000143014A51617047001002400249C96909
:101020000143014AD1617047001002400249096939
:101030008143014A11617047001002400249096969
:101040000143014A11617047001002400249896959
:101050000143014A91617047001002400249C9688A
:101060008143014AD1607047001002400249C968BB
:101070000143014AD160704700100240F0B50546B7
:1010800000210022002300240020384E367906F08B
:101090000C0121B1042906D0082922D108E0344EE0
:1010A000344F7E6021E0334E3668324F7E601CE064
:1010B0002E4E7468C4F300447068C0F383400E2859
:1010C00001D2801C00E010202CB12A4E3668760830
:1010D00006FB00F302E0264E46437308254E73607C
:1010E00003E0234E234F7E6000BF00BF1F4E3679C2
:1010F000C6F30311204E725C1E4E7668D6401D4F1B
:10110000BE601A4EB688C6F302211C4E725C3E4683
:10111000B668D640FE60154EB688C6F3C221174E9B
:10112000725C3E46B668D6403E613E46B668FF6891
:10113000BE4204D10F4EF6680E4F7E6104E00D4EA4
:10114000F66876000B4F7E610A4EB668094F3F691C
:10115000BE4204D1074E3669064FBE6104E0054E1B
:1011600036697600034FBE61F0BD000000100240FA
:1011700000127A00D4100020800300209003002089
:101180002DE9F04F82460F4690469946DDF824B08F
:10119000002400250026A848006840F47000A649F5
:1011A0000860A648006840F00100A44908600846AD
:1011B0004068A3490840A149486008460068A14921
:1011C00008409E4908600846006820F480200860B6
:1011D0000846406820F4FE0048600846C06A20F0D7
:1011E0000F00C8620846006B97490840934908639E
:1011F00000208860002F73D11220944908608F4826
:10120000006820F00100401C8C49086000BF00BF4E
:1012100000BF6D1C8948046804F002041CB98C48A6
:1012200000688542F5D38548046804F0020414B9C7
:101230000120BDE8F08F8148406820F0F000703058
:101240007E4948600846406869F30A2048600846BD
:1012500040686BF3CD2048600846406820F4803039
:10126000486040464FEAE87108EB9171C1F38F0680
:10127000102E02DAB01E86B200E00F266F484068DA
:1012800066F395406D4948600846006820F080701C
:1012900000F1807008600024002500BF6D1C6748C5
:1012A000046804F000741CB9694800688542F5D9E7
:1012B0006248046804F000740CB90220B9E75F4882
:1012C000406820F00300801C5C494860002400BF97
:1012D0005A48446804F00804082CF9D19FE0FFE75D
:1012E0005648C06A20F00F005449C862084600689A
:1012F00020F47F00086000240025BAF1010F06D118
:101300000846006820F4802000F5802008604B48E3
:10131000006820F4803000F580304849086000BF44
:101320006D1C4648046804F400341CB94848006841
:101330008542F5D347487843474908603F480468E9
:1013400004F400340CB9012073E74048006820F031
:10135000100010303D4908600846006820F0070082
:10136000801C08603548406820F0F0007030334938
:1013700048600846406869F30A20486008464068AB
:101380006BF3CD2048600846406820F4003000F53B
:10139000003048600846406820F4803000F5803016
:1013A00048600026384607EBD071491098FBF1F1F0
:1013B0008EB2102E02DAB01E86B200E00F261F4851
:1013C000406866F395401D4948600846006820F073
:1013D000807000F1807008600024002500BF6D1C43
:1013E0001648046804F000741CB919480068854266
:1013F000F5D31248046804F000740CB9022018E711
:101400000E48406820F00300801C0C49486000240E
:1014100000BF0A48446804F00804082CF9D10649C2
:1014200080390A9808600D48091D08600A48FFF7CE
:1014300025FE0020FDE6000088ED00E000100240DF
:101440000CC07FF8FFFFF6FECCFC00FF002002403E
:101450009803002040420F00D41000200005FA0538
:1014600030B51C4611B90025058517E0164DA84278
:101470000BD0164DA84208D0154DA84205D0154DE9
:10148000A84202D0144DA84202D1144DAB6901E02C
:10149000124D6B69B3FBF1F56D1E0585B0F1804F00
:1014A00001D1C26201E095B2C562056825F44075BC
:1014B0000560056864F3041505600025056105688D
:1014C00025F00105056030BD002C014000340140CD
:1014D000004001400044014000480140D410002079
:1014E000CA4392B20261704710B504463448844240
:1014F00006D14015FFF7BAFD6015FFF7AFFD5EE0BE
:10150000B4F1804F06D10120FFF798FD0120FFF7CD
:101510008DFD54E02B48844206D10220FFF78EFD5A
:101520000220FFF783FD4AE02748844206D10420C9
:10153000FFF784FD0420FFF779FD40E02348844253
:1015400006D11020FFF77AFD1020FFF76FFD36E07F
:101550001F48844206D12020FFF770FD2020FFF7AE
:1015600065FD2CE01B48844206D14014FFF77EFD48
:101570006014FFF773FD22E01748844208D14FF44E
:101580008030FFF773FD4FF48030FFF767FD16E002
:101590001248844208D14FF40030FFF767FD4FF442
:1015A0000030FFF75BFD0AE00D48844207D14FF49D
:1015B0008020FFF75BFD4FF48020FFF74FFD10BD4B
:1015C000002C0140000400400008004000100040D2
:1015D000001400400034014000400140004401403C
:1015E00000480140016821F00101491C0160704779
:1015F000C2680A43C26070470162704710B500229A
:1016000000230A0C01249440A3B2036210BD000021
:1016100010B504461D48844208D14FF48040FFF7BE
:1016200025FD4FF48040FFF719FD2EE01848844255
:1016300008D14FF40030FFF701FD4FF40030FFF701
:10164000F5FC22E01348844208D14FF48020FFF7D4
:10165000F5FC4FF48020FFF7E9FC16E00E488442C9
:1016600008D14FF40020FFF7E9FC4FF40020FFF70A
:10167000DDFC0AE00948844207D14FF48010FFF7EF
:10168000DDFC4FF48010FFF7D1FC10BD00380140A5
:101690000044004000480040004C00400050004022
:1016A000816821F04001403181607047816821F0FC
:1016B00080018031816070470246D069084008B1DE
:1016C000012070470020FCE72DE9F04104460F4659
:1016D00015461E46DDF81880206820F001002060C5
:1016E0000020A060606866F30D306060206868F3D9
:1016F0004A202060206820F00400001D206020683F
:1017000020F0080008302060606820F4000000F538
:1017100000006060606900F07F402330606175B157
:10172000012D15D0022D1ED1206820F4805020609C
:10173000206820F0805000F18050206014E0206884
:1017400020F480502060206820F0805020600BE062
:10175000206820F4805000F580502060206820F040
:101760008050206000E000BF00BF3946204600F0F6
:101770004FF84FF0FF302062206820F00100401C3D
:101780002060BDE8F08130B5002300240022C1F3C1
:101790000723CCB2012505FA04F2022B03D14568D8
:1017A0009543456008E0032B03D185689543856028
:1017B00002E005689543056030BD30B50023002484
:1017C0000022C1F30723CCB2012505FA04F2022B53
:1017D00003D145681543456008E0032B03D18568B4
:1017E0001543856002E005681543056030BD10B5FE
:1017F0000B46002108E000BF047FC4F3C014002C96
:10180000FAD05C5C8462491C9142F4D310BD0000A4
:1018100070B5002200230024056825F0010505604D
:10182000184DA84202D1184D2A6901E0164DEA6808
:101830000588C5F3C03545B15500B5FBF1F355003A
:10184000B5FBF1F601FB165405E0B2FBF1F3B2FB78
:10185000F1F501FB1524B4EB510F00D35B1C058897
:10186000C5F3C03535B1C3F342044FF6F0751D40E2
:1018700045EA04039DB2C560056825F001056D1CAD
:10188000056070BD00380140D410002001460548B5
:10189000082906DA01EB8102C2EB8112034603EB51
:1018A000820070479C0300200020002100BF07E059
:1018B000054A12F81100012800D103E04A1CD1B2F8
:1018C0000A29F5DB00BF7047601000201CB50446F4
:1018D0000320034648220821CDE900040020FFF739
:1018E0004FFC1CBD10B5FEF7CFFF10BD10B5044670
:1018F0002046FEF7EFFF10BD10B504462046FFF767
:101900000BF810BD0146084B53F82120074B33F864
:101910001100136903400BB1012300E000230BB950
:10192000002070470120FCE79802002028370008BB
:10193000054B53F82010054B33F810200B8B134345
:101940000B8300BF7047000064020020D4360008FB
:10195000054B53F82010054B33F810204B8B1343E5
:101960004B8300BF7047000064020020D43600089B
:1019700010B504460F48FFF7B7FD1020FFF74EFBE8
:101980001020FEF779FF621E00230B490948FFF77C
:1019900067FD072200213620FFF718FB3620FFF7EE
:1019A0000AFB01210348FFF723FE0248FFF71AFE56
:1019B00010BD00000010004040420F0070B504460A
:1019C0000D46164621780F4A52F821000E49FFF7BE
:1019D00015FE21780B4A52F821000C49FFF70EFE44
:1019E0002178084A52F821004FF44071FFF706FEB3
:1019F0002178074A52F8210032462946FFF7F1F8CC
:101A000070BD0000D00200201A010B000602080081
:101A10000803002038B50446607808287DD2DFE846
:101A200000F0042345649B9CF1EF2178C34A52F8EF
:101A30002100FFF7EBFA012000902278C04B33F829
:101A40001210C04B53F8220000230122FFF7A3F924
:101A50002378BD4DEA5CBD4D35F81310B94D55F8EE
:101A60002300FFF777F966E12178B44A52F82100A4
:101A7000FFF7CCFA012000902278B14B33F8121016
:101A8000B04B53F8220000230122FFF784F923789A
:101A9000AD4DEA5CAD4D35F81310AA4D55F8230055
:101AA000FFF758F9204600F0E7FA44E12178A84A08
:101AB00052F82100FFF7AAFA012000902278A54BE6
:101AC00033F81210A44B53F8220000230122FFF731
:101AD00062F923789C4DEA5CA04D35F813109E4DB9
:101AE00055F82300FFF736F925E12178984A52F896
:101AF0002100FFF78BFA2178994A52F82100FFF76D
:101B000085FA012000902278964B33F81210964BFC
:101B100053F822000023012200E00BE1FFF7D9F97E
:101B20000120009022788B4B33F81210854B53F82C
:101B3000220000230122FFF72EF92378824DEA5C70
:101B4000864D35F81310844D55F82300FFF702F940
:101B5000204600F0A5FAEEE000BF21787C4A52F85A
:101B60002100FFF753FA2178744A52F82100FFF759
:101B70004DFA21787A4A52F82100FFF747FA0120FE
:101B800000902278774B33F81210774B53F82200ED
:101B900000230122FFF79DF90120009022786D4B70
:101BA00033F812106C4B53F8220000230122FFF788
:101BB000F2F8012000902278614B33F81210614B4B
:101BC00053F8220000230122FFF7E5F823785E4D49
:101BD000EA5C624D35F813105F4D55F82300FFF7AE
:101BE000B9F82378584DEA5C584D35F81310554D27
:101BF00055F82300FFF7AEF8204600F03DFA9AE0D2
:101C00003DE0FFE72178524A52F82100FFF7FEF944
:101C100021784A4A52F82100FFF7F8F90120009094
:101C200022784C4B33F812104B4B53F82200002310
:101C30000122FFF7B0F8012000902278404B33F8E2
:101C40001210404B53F8220000230122FFF7A3F8A3
:101C500023783D4DEA5C414D35F813103E4D55F863
:101C60002300FFF777F82378374DEA5C374D35F8D6
:101C70001310344D55F82300FFF76CF85BE0217822
:101C8000334A52F82100FFF7C1F921782B4A52F864
:101C90002100FFF7BBF92178314A52F82100FFF704
:101CA000B5F90120009022782E4B33F812102E4BFC
:101CB00053F8220000230122FFF70BF901200090C6
:101CC0002278244B33F81210234B53F822000023C0
:101CD0000122FFF760F8012000902278184B33F8BA
:101CE0001210184B53F8220000230122FFF753F87B
:101CF0002378154DEA5C194D35F81310164D55F83B
:101D00002300FFF727F823780F4DEA5C0F4D35F8D5
:101D100013100C4D55F82300FFF71CF800BF227874
:101D2000104B33F81210104B53F82200FFF73FF915
:101D300000BF00E000BF00BF38BD000060370008F2
:101D400068370008E00200204E3700086C370008B2
:101D50005037000858370008D80200205C370008C8
:101D60007037000878370008E80200207FB5044685
:101D70002046FFF74FFE2078884951F82000884917
:101D8000884206D12178874A52F82100FFF75EF990
:101D900005E02178834A52F82100FFF73FF92178C6
:101DA0007E4A52F82100FFF733FC607900902379D6
:101DB000E278A5787C4E56F825102578774E56F8AF
:101DC0002500FFF781FC6078002855D0A079022813
:101DD0003AD12178754A52F82100FFF717F900200F
:101DE00001210222CDE90002CDE902102378354617
:101DF00055F8233003F1280223786D4D55F8230060
:101E000000236169FEF799FE2178324652F82100DD
:101E1000FFF74CFC2178674A52F82100FEF7B8FD25
:101E20002178654A505C01220021FFF7CFF8217824
:101E3000614A505CFFF7BFF821782A4652F821002A
:101E40000221FEF7B0FE17E0A079012814D1217815
:101E50005A4A505C00221146FFF7B8F821784F4AE1
:101E600052F821005649FFF7C9FB21784B4A52F836
:101E700021005349FFF7A1FC6078022851D0A079D6
:101E800002284FD121784F4A52F82100FFF7BEF8BF
:101E900000200222CDE900020290039023783F4DFA
:101EA00055F8233003F124022378474D55F82300D9
:101EB0000023A169FEF741FE2178384A52F821003B
:101EC000FFF7EEFBA28B2046A169FFF777FD217893
:101ED000324A52F821003D49FFF790FB2178374AFA
:101EE000505C01220021FFF771F82178334A505CE1
:101EF000FFF761F82178294A52F821003349FFF7AA
:101F00005CFC2178254A52F821004FF44071FFF71C
:101F100075FB2178214A52F821004FF44071FFF7F8
:101F20004CFC3AE0A079012837D12178234A505C53
:101F300001220021FFF74AF82178204A505CFFF780
:101F40003AF82178154A52F821002149FFF756FB4B
:101F50002178124A52F821001C49FFF74FFB2178E3
:101F60000E4A52F821001A49FFF727FC21780B4A44
:101F700052F821001549FFF720FC2178074A52F852
:101F800021004FF44071FFF739FB2178034A52F8E2
:101F900021004FF44071FFF710FC7FBDD0020020FC
:101FA0000038014044370008983700087C370008A3
:101FB000F802002088370008843700084C370008F2
:101FC0000701070090370008080300201A010B00E2
:101FD0000501050010B50446A079012807D1217834
:101FE000084A52F821000849FFF7CDFB09E0A07923
:101FF000022806D12178034A52F821000349FFF74D
:10200000C2FB10BDD0020020050105001A010B0023
:1020100010B50446A079012807D12178084A52F862
:1020200021000849FFF7C9FB09E0A079022806D181
:102030002178034A52F821000349FFF7BEFB10BD87
:10204000D0020020050105001A010B0070B50446FE
:102050000D460A2D0ADAA570A278054B53F8221016
:102060002278044B53F82200FFF7D2FB70BD00002A
:1020700098370008D002002010B50378054C54F8BA
:102080002310054C34F813204B8B13434B8300BFB4
:1020900010BD0000E80200207837000870470000FB
:1020A00010B504462278044B33F81210034B53F852
:1020B0002200FEF77CFF10BD78370008E802002000
:1020C0002DE9F04104460D461646E079012809D174
:1020D0002178394A52F82100FEF728FD10B101207D
:1020E000BDE8F0816078042802D06078052802D12C
:1020F0002046FFF7D5FFA07930BB0120E0712178A1
:102100002E4A52F8210032462946FFF770FB6078CC
:10211000042802D06078052813D100BF2178274A0F
:1021200052F821004021FFF7C7FA0028F6D12046D7
:10213000FFF7A2FF2178214A52F821004021FFF742
:102140005BFA0020E07134E0A079012817D100206B
:10215000608126816069A84200D065612178174AB4
:1021600052F821001649FFF749FA2178134A52F82C
:1021700021001349FFF721FB0120E07119E02178CC
:10218000104A52F82100FEF7EFFB45B92289237867
:10219000094F57F823006169FEF709FD07E0217830
:1021A000054A52F8210032462946FEF700FD01207B
:1021B000E071002094E70000F8020020D002002027
:1021C0000701070088370008F0B589B0344E0025B4
:1021D0000024002700BF05E0002001A941F82400E9
:1021E000601CC4B2082CF7DB002544E0192D3DDA51
:1021F000002405E0611DC8B2FFF7AAFB601CC4B251
:10220000082CF7DB0A20FFF777FB002405E0611DAF
:10221000C8B2FFF78DFB601CC4B2082CF7DB0A20A4
:10222000FFF76AFB002414E001A850F824004000E6
:1022300001A941F82400211DC8B2FFF763FB07463E
:1022400001A850F82400384401A941F82400601C7A
:10225000C4B2082CE8DB002405E0611DC8B2FFF71A
:1022600077FB601CC4B2082CF7DB02E01420FFF7F8
:1022700043FB681CC5B21B2DB8DB00240CE001AA8F
:1022800052F8241004EB8402C2EB841206EB8200A5
:1022900000F016FB601CC4B2082CF0DB09B0F0BDE6
:1022A0009C03002070B50024084DFFF78DFF00BF90
:1022B00009E004EB8401C1EB841105EB810000F01F
:1022C00075F8601CC4B2082CF3DB70BD9C030020C1
:1022D00070B50024002500263248007805285AD21F
:1022E000DFE800F0030715264F0001202D49087094
:1022F00055E0002405E0611DC8B2FFF719FB601C22
:10230000C4B2082CF7DB02202649087047E00024FD
:1023100005E0611DC8B2FFF71BFB601CC4B2082CAE
:10232000F7DB03201F49087000201F49087036E0C2
:102330001D480078801C1C49087008460078B0F5DC
:10234000FA7F05DB0020087001201649087017E0AD
:10235000002409E0211DC8B2FFF7D4FA012801D1F9
:10236000012503E0601CC4B2082CF3DB00BF012D83
:1023700003D103200B49087002E0042009490870CA
:102380000DE0FFF78FFF0320064908700020064983
:102390000870012603E001200249087000BF00BF59
:1023A000304670BD15000020160000200021DFED32
:1023B0001E0AB0EE600A8278012A33D10A23026B2A
:1023C00092FBF3F2426300BF09E000F1380252F8D9
:1023D0002120436B934200DC03E04A1CD1B20A295E
:1023E000F3DB00BF00F1880202EB8102D2ED000AAC
:1023F000B0EE600AD0ED0D0AF8EEE00A60EE800A59
:10240000B0EE600A00F1B40202EB8102D2ED000AE4
:1024100070EE800AB0EE600AD0ED390AC0ED3A0ADB
:1024200080ED390A7047000000000000DFED0C0A63
:10243000B0EE600A0B49082811DA00EB8002C2EB0B
:10244000801201EB8202D2ED390A00EB8002C2EB6E
:10245000801201EB820292ED381A30EEC10A704709
:10246000000000009C03002030B54F4900200023ED
:10247000002200BF94E0002400EB8005C5EB80152E
:1024800001EB8505AC7000230BE0002500EB800418
:10249000C4EB801401EB8404083444F823505C1C22
:1024A000E3B20A2BF1DB00EB8004C4EB801401F8EB
:1024B0002400002400EB8005C5EB801501EB8505A9
:1024C0002C6300EB8005C5EB801501EB85056C6383
:1024D00000EB8005C5EB801501EB8505EC7000EB8A
:1024E0008005C5EB801501EB85052C7100221BE0F2
:1024F0009FED2E0A00EB8004C4EB801401EB8404F2
:10250000883404EB820484ED000A9FED290A00EB75
:102510008004C4EB801401EB8404B43404EB820423
:1025200084ED000A541CE2B20B2AE1DB00220DE02C
:10253000204C54F8225000EB8004C4EB801401EBD3
:102540008404603444F82250541CE2B20A2AEFDBBF
:102550009FED190A00EB8004C4EB801401EB8404A6
:1025600084ED390A9FED140A00EB8004C4EB80145B
:1025700001EB840484ED3A0A9FED0F0A00EB80041E
:10258000C4EB801401EB840484ED380A012400EBD1
:102590008005C5EB801501EB85056C70441CE0B22D
:1025A0000828FFF668AF30BD9C030020124DA03A0A
:1025B000E1DA85C3783400080000000070B500241B
:1025C000284D00BF4BE004EB440115F81100FFF764
:1025D00099F904EB440105EB4101087104EB440057
:1025E00005EB4000C07804EB440105EB410109799B
:1025F000884222D104EB440005EB40008078401C67
:1026000004EB440105EB4101887004EB440005EB49
:1026100040008078322816DB322004EB440105EBC1
:102620004101887004EB440005EB4000007904EBA5
:10263000440105EB4101487105E0002004EB440131
:1026400005EB4101887004EB440005EB4000007984
:1026500004EB440105EB4101C870601CC4B2022CBC
:10266000B1DB70BDC81000200020144900BF22E07B
:1026700000F10C0200EB400301F81320002200EBF4
:10268000400301EB43039A7000EB400301EB43036B
:10269000DA7000EB400301EB43031A7100EB4003D7
:1026A00001EB43035A71012200EB400301EB4303AA
:1026B0005A70421CD0B20228DADB7047C8100020E2
:1026C0002DE9F0470546204E0024A046A1460027EC
:1026D000012D37D100BF0BE01C48005D315D884201
:1026E00004D0305D194908554FF00109601CC4B28F
:1026F000042CF1DBB9F1010F24D100241CE01348B4
:10270000075D4FF0000812E007F0010018B100204B
:10271000FFF70EF902E00020FFF71AF97F10012100
:102720000320FDF7ABFE08F1010000F0FF08B8F14F
:10273000080FE9DB601CC4B2042CE0DB012102209D
:10274000FDF79CFEBDE8F0870A0000200E00002087
:1027500010B50020FFF7ECF80120FFF7E9F80220A0
:10276000FFF7F6F80320FFF7F3F80420FFF7F0F87F
:102770000120FFF7DDF800210420FDF77FFE012195
:102780000220FDF77BFE0120FFF7E2F810BD00F00C
:102790008DFCFFF769FFFFF7DBFFFFF765FE00F039
:1027A00091FB00F003F800BFFEE700002DE9F047C1
:1027B000ADF5AD6D002740F2645101A8FDF778FD3D
:1027C000B8460026B246B1460024002540F2591210
:1027D00001A93A48FEF75AFADDF864A54FF4AC6156
:1027E00001A8FEF717F8504564D100BF00BF00BF35
:1027F0005DE009F0FF00FFF749F807462C4604F1B9
:102800000A0085B207F138084BE001A850F824000F
:1028100048F8040B2C4604F10A0085B207F1600861
:1028200006E001A850F8240048F8040B601C84B2AC
:10283000AC42F6DB2C4604F10B0085B207F18806AA
:1028400008E001A800EB840090ED000AA6EC010A64
:10285000601C84B2AC42F4DB2C4604F10B0085B260
:1028600007F1B40608E001A800EB840090ED000A2F
:10287000A6EC010A601C84B2AC42F4DB2C46601C5E
:1028800085B207F1E00608E001A800EB840090EDB6
:10289000000AA6EC010A601C84B2AC42F4DB601CA6
:1028A00084B2AC42B1DB09F101001FFA80F9B9F141
:1028B000080F9EDB0DF5AD6DBDE8F08700F0030855
:1028C00010B5C2780A2A03DB0022C270012282708E
:1028D000B1F1807F0AD36FF07E42521A521C5342EC
:1028E000C47800F1080242F8243004E0C37800F113
:1028F000080242F823108278012A16D1C47800F128
:10290000080252F82420036B1A440263C2780B3287
:102910000A2392FBF3F403FB142300F1080252F89C
:102920002320036B9A1A026307E0C47800F10802BF
:1029300052F82420036B1A440263C278521CC270FE
:1029400010BD000010B502460020034B12B91972E9
:1029500001241C7010BD0000180000202DE9F04774
:10296000074688464FF0000A0025434CA4F80E7233
:102970000FFA88F0A4F81202B4F80E024FF6FF71B5
:10298000884275D0B4F80E02C911884208D1B4F952
:102990001202082868DCB4F81202A4F8140263E0FA
:1029A000B4F80E02B0F5007F2FDBB4F80E0240F24F
:1029B0000A21884229DA4FF0010AB4F80E02A0F584
:1029C0000070A4F8160294F81662B4F9121204F515
:1029D000067040F82610B4F91292B4F8140258B9EF
:1029E000002506E04A463146284600F0ADFA681C4C
:1029F000C5B2082DF6DB37E094F81412491EC8B2B0
:102A00004A46314600F0A0FA2EE0B4F80E02B0F5C6
:102A1000057F29DBB4F80E0240F21E21884223DA3A
:102A20004FF0010A94F80E02A0F50570C6B201211C
:102A30003046FDF7E1FEB4F8140250B9002505E078
:102A40003146284600F042FB681CC5B2082DF7DB72
:102A50000AE0B4F81402082806DA94F81412491EA1
:102A6000C8B2314600F032FB4FF6FF70A4F80E02F8
:102A70005046BDE8F0870000180000202DE9F04125
:102A800004460D4616464FF000080027FF2C32DAA8
:102A9000601900282FDD6019FF282CDAA5201749BE
:102AA00081F809015A21154880F80A11032180F89C
:102AB0000B11812180F80C1180F80D4180F80E5126
:102AC000012E0FD1032100F58670FDF7A3FE074606
:102AD00038120A4981F80F01084680F810714FF04A
:102AE000080801E04FF00608044948684968424672
:102AF000CB6A03499847BDE8F08100001800002028
:102B0000210100202DE9F04104460D4616464FF004
:102B1000000800274FF6FF7084423ADA6019002857
:102B200037DD60194FF6FF71884232DAA5201A4965
:102B300081F809015A21184880F80A11042180F807
:102B40000B11832180F80C11210A80F80D1180F8F7
:102B50000E4180F80F51012E0FD1042100F586702F
:102B6000FDF758FE074638120B4981F81001084658
:102B700080F811714FF0090801E04FF0070806498D
:102B8000486849684246CB6A044998470120FEF7E5
:102B9000ADFEBDE8F08100001800002021010020FA
:102BA0002DE9F84F4FF00008C146002500200090A5
:102BB00082468346002400260027484890F80C02ED
:102BC00001287AD14548407AA52877D14348807AB0
:102BD0005A287CD14148B0F80A02062872DB3F48E7
:102BE000B0F80A02C01E3D49C97A88426AD13B4802
:102BF000007B802806D0812805D0822825D0832814
:102C00005ED123E05DE0354890F80E90C07AC01E9A
:102C1000484519D1002000903048407B00900025A5
:102C200010E04FF0000AA81D2C49093111F800A04E
:102C30005146009A2A44D0B2FFF784FE40EA0808C1
:102C4000681C85B24D45ECDB3BE03AE0234890F848
:102C50000FB00146C97A081F00EBD071BBEB610FC2
:102C60002AD100261D48467B4FF6FF7000EA062653
:102C700006F47F461948807B304486B2002419E070
:102C800000276000C01D154909310F5C4FF6FF7029
:102C900000EA072707F47F4760000830085C3844E3
:102CA00087B2311988B23946FFF758FE40EA080862
:102CB000601C84B25C45E3DB03E00CE007E001E06C
:102CC00000BF00BFB8F1010F01D100F051F90020A1
:102CD000024981F80C02BDE8F88F000018000020BE
:102CE000082804DA00F10802014B23F8121070479B
:102CF000881000202DE9F05F05460F4614469846DF
:102D00000026B146B346B2464FF6FF7085425ADA06
:102D10002819002857DD28194FF6FF71884252DA2A
:102D2000A5202A4981F809015A21284880F80A116A
:102D30006000C01CC1B2254880F80B11822180F8C8
:102D40000C11290A80F80D1180F80E5100BF10E017
:102D500037F8021B1FFA81F94FEA29217000801D04
:102D60001B4A11547000C01D114601F80090701CE0
:102D700086B2A642ECDBB8F1010F16D16000C11C8F
:102D80001348C01CFDF746FD82464FEA2A21600029
:102D9000801D0F4A11546000C01D114601F800A0AB
:102DA000600008301FFA80FB03E06000801D1FFAFE
:102DB00080FB0649486849685A46CB6A04499847E7
:102DC0000120FEF793FDBDE8F09F000018000020F1
:102DD0002101002010B50446FFF7E2FE00F002F8E2
:102DE00010BD00007FB50026314D00243148008819
:102DF000401C3049088000BF00BF20E02046FFF79C
:102E000015FBF6EE000A30EE200ABDEEC00A10EE09
:102E1000100A00B22DF814003DF8140025F8140033
:102E20003DF91400244931F91410884205D03DF8C9
:102E30001400214921F814000126601CC4B2082C9A
:102E4000DCDB012E06D10023102229464FF4B0709E
:102E5000FFF750FFFEF728FD012809D1174D002389
:102E60000A22294640F20A20FFF744FFFDF7F6FC4C
:102E7000104800884FF47A7190FBF1F201FB1200C8
:102E8000A8B90F48007828B9002201211046FFF7A1
:102E9000F5FD0CE00A480078012808D100220B213A
:102EA00040F2FF10FFF72EFE0220054908707FBD9B
:102EB000881000205C020020B81000207410002050
:102EC0001800002010B5002400201C49087001F2F1
:102ED0000A204968C860801C184949680861A0F246
:102EE00003201649496848611449496888610020EF
:102EF00012490872A1F80A0281F80C024FF6FF701D
:102F0000A1F80E020020A1F81002A1F81202A1F807
:102F10001402A1F8160200BF07E0094850F8241077
:102F2000084840F82410601CC4B20A2CF5DB034AA0
:102F300050685268116A884710BD000018000020D0
:102F4000783400083002002030B5084B08280CDA2D
:102F50000A290ADA00EB8004C4EB80141D4605EB55
:102F6000840303F1600444F8212030BD9C03002059
:102F70002DE9F84F4FF00008494EC346C1460027DF
:102F80000020009082460024002500BF67E00AF080
:102F9000FF00FEF77BFC80462C4604F10A0085B258
:102FA00008F1380908E0B4F5AC7F03DA59F8040BEE
:102FB00046F82400601C84B2AC42F4DB2C4604F1D9
:102FC0000A0085B208F1600908E0B4F5AC7F03DAC5
:102FD00059F8040B46F82400601C84B2AC42F4DBC0
:102FE0002C4604F10B0085B208F188070AE0B4F51D
:102FF000AC7F05DAB7EC010A06EB840080ED000A2D
:10300000601C84B2AC42F2DB2C4604F10B0085B2AA
:1030100008F1B4070AE0B4F5AC7F05DAB7EC010AB1
:1030200006EB840080ED000A601C84B2AC42F2DB47
:103030002C46601C85B208F1E0070AE0B4F5AC7FCD
:1030400005DAB7EC010A06EB840080ED000A601C8B
:1030500084B2AC42F2DB0AF101001FFA80FABAF145
:10306000080F94DBB346A1005846FDF7D3FB009050
:10307000009846F82400601C84B2B4F5AD7F0CDAE9
:1030800008480088401C074908800748FDF7C4FD30
:10309000224631460448FDF71DFEBDE8F88F0000CA
:1030A000FC0A00205A02002000F0030870B54FF01F
:1030B000006400256019FEF709FCFEF713FC00F020
:1030C0009DF94FF47A70FEF753FC70BD30B502469F
:1030D0006E489FED6F1AB0EE410A9FED6D1AF0EE4B
:1030E000410A082A7EDA0A29FCDA02EB8203C3EBE2
:1030F0008213044604EB830000F13803446B43F869
:10310000214000296FD09FED621AB0EE410A2833AA
:1031100053F821504B1E00F1600454F82330EB1A91
:1031200001EE103AB8EEC11AB0EE410A00F13803D0
:1031300053F821504B1E283C54F82330EB1A01EE73
:10314000103AB8EEC11AC0EE011AB0EE610A00F1F1
:10315000600353F8213001EE103AB8EEC11A23464D
:1031600053F8213001EE903AF8EEE11A00EE611AC0
:10317000F0EE410A00F1880303EB810383ED000ABE
:1031800000F1B40303EB8103C3ED000A092945DA1A
:103190009FED3F1AB0EE410A00F160034C1C53F85A
:1031A000244053F82130E31A01EE103AB8EEC11A68
:1031B000B0EE410A00F138034C1C53F8244053F898
:1031C0002130E31A01EE103AB8EEC11AC0EE011A2E
:1031D000B0EE610A00F160034C1C53F8243001EE9C
:1031E000103A01E051E019E0B8EEC11A00F13803DD
:1031F00053F8243001EE903AF8EEE11A00EE611A2D
:10320000F0EE410A00F1880303EB840383ED000A2A
:1032100000F1B40303EB8403C3ED000A012918D1C4
:1032200000F1880303EB810393ED001A4B1E00F1BC
:10323000880404EB830383ED001A00F1B40303EB6D
:10324000810393ED001A4B1E2C3404EB830383EDB2
:10325000001A092919D100F1880303EB810393EDCA
:10326000001A00F188034C1C03EB840383ED001A61
:1032700000F1B40303EB810393ED001A00F1B403F2
:103280004C1C03EB840383ED001A30BD9C0300202B
:1032900000000000F0B58BB0064600250024012791
:1032A000012E7DD100BF0BE009A845552846FFF748
:1032B000BDF801A800EB850080ED000A681CC5B2CE
:1032C000082DF1DB082209A901A8FDF755F8002413
:1032D0008EE001A9601C01EB800090ED000A01A8BE
:1032E00000EB8400D0ED000A30EE600AF0EE000A38
:1032F000B4EEE00AF1EE10FA60D2601C01EB80003F
:1033000090ED000A01A800EB8400D0ED000A30EE39
:10331000600AF8EE000AB4EEE00AF1EE10FA4DDDB4
:1033200001A800EB840090ED000AF8EE000AB4EE6C
:10333000E00AF1EE10FA0BD301A800EB840090ED47
:10334000000AF0EE000AB4EEE00AF1EE10FA35DD04
:1033500001A9601C01EB800090ED000AF8EE000A64
:10336000B4EEE00AF1EE10FA0BD3601C01EB800022
:1033700090ED000AF0EE000AB4EEE00AF1EE10FA69
:103380001CDD09A9085D3946FDF7A4F809A9085D07
:103390003946FFF7A5FC09AA611C505C394600E0DC
:1033A00029E0FDF797F809AA611C505C3946FFF740
:1033B00097FC601CC4B2781CC7B217E009A9085D6D
:1033C0000021FDF787F809A9085D0021FFF788FCB7
:1033D000062C0BD109AA611C505C0021FDF77AF87C
:1033E00009AA611C505C0021FFF77AFC601CC4B282
:1033F000072CFFF66EAF0BB0F0BD000038B500240F
:103400000EE0144951F82400FDF700FE124A32F88C
:103410001410124A52F824000022FDF72AFD641C01
:103420000E2CEED3002411E00D4951F82400FDF7D5
:10343000EDFD00200B4A009032F814100A4A52F8B1
:10344000240000230122FDF744FD641C0D2CEBD366
:1034500038BD0000F0360008283700089802002028
:10346000A0360008D4360008640200204FF04070F7
:10347000E1EE100A7047000000000000320000007A
:1034800064000000C8000000F4010000E803000030
:10349000D0070000B80B0000A00F00008813000048
:1034A00000C1814001C0804101C0804100C1814014
:1034B00001C0804100C1814000C1814001C0804104
:1034C00001C0804100C1814000C1814001C08041F4
:1034D00000C1814001C0804101C0804100C18140E4
:1034E00001C0804100C1814000C1814001C08041D4
:1034F00000C1814001C0804101C0804100C18140C4
:1035000000C1814001C0804101C0804100C18140B3
:1035100001C0804100C1814000C1814001C08041A3
:1035200001C0804100C1814000C1814001C0804193
:1035300000C1814001C0804101C0804100C1814083
:1035400000C1814001C0804101C0804100C1814073
:1035500001C0804100C1814000C1814001C0804163
:1035600000C1814001C0804101C0804100C1814053
:1035700001C0804100C1814000C1814001C0804143
:1035800001C0804100C1814000C1814001C0804133
:1035900000C1814001C0804101C0804100C1814023
:1035A00000C0C101C30302C2C60607C705C5C404E3
:1035B000CC0C0DCD0FCFCE0E0ACACB0BC90908C853
:1035C000D81819D91BDBDA1A1EDEDF1FDD1D1CDC43
:1035D00014D4D515D71716D6D21213D311D1D010B3
:1035E000F03031F133F3F23236F6F737F53534F4A3
:1035F0003CFCFD3DFF3F3EFEFA3A3BFB39F9F83813
:1036000028E8E929EB2B2AEAEE2E2FEF2DEDEC2C02
:10361000E42425E527E7E62622E2E323E12120E072
:10362000A06061A163A3A26266A6A767A56564A462
:103630006CACAD6DAF6F6EAEAA6A6BAB69A9A868D2
:1036400078B8B979BB7B7ABABE7E7FBF7DBDBC7CC2
:10365000B47475B577B7B67672B2B373B17170B032
:103660005090915193535292965657975595945422
:103670009C5C5D9D5F9F9E5E5A9A9B5B9959589892
:10368000884849894B8B8A4A4E8E8F4F8D4D4C8C82
:1036900044848545874746868242438341818040F2
:1036A00000000800000008000000080000000800FA
:1036B00000000800000002000000020000000200FC
:1036C00000000200000002000000020000000200F2
:1036D00000000200010004000800100020000100AA
:1036E00002000400080010002000400080000000DC
:1036F00000000800000004000000040000000400B6
:1037000000000400000004000000040000000400A9
:103710000000040000000400000004000000040099
:1037200000000400000004000200002000400080AF
:10373000010002000400080010002000400080008A
:1037400000010002000010000000040035270507FA
:103750000000080000000800001000040C000A002F
:1037600000001000000008000400000802000B0028
:103770000000000000000400000000040100000040
:10378000010000000E0C000000200040200000207E
:103790000100000001000000C012000080250000B0
:1037A000004B00000096000000E1000000C2010094
:1037B00040420F0080841E00C0C62D0000093D005D
:1037C000E0370008000000209C030000C40100084E
:1037D000603800089C030020BC1D00002002000887
:1037E0008192F074E8030113480302FF2001FF8176
:1037F0004BFFFF04012AC2011208FA480421091CE8
:103800000429240A31040412501A40067A40687AC6
:103810000C70212920112B0240041A44045A1C0C5C
:1038200029041A58042A300C140601010316020256
:103830002210136D1D14084D201B089D041AC1048D
:103840001A110413D51F35080105050930388168A0
:103850000901020304060708090C1AFF0100000011
:040000050800018965
:00000001FF
