:020000040800F2
:10000000A81D002069020008770200087902000894
:100010007B0200087D0200087F020008000000004B
:100020000000000000000000000000008102000845
:100030008302000800000000850200088702000813
:100040008902000889020008890200088902000864
:100050008902000889020008890200088902000854
:100060008902000889020008890200088902000844
:100070002D030008890200086903000889020008AE
:100080008902000889020008890200088902000824
:100090008902000889020008890200088902000814
:1000A0008902000889020008890200088902000804
:1000B00089020008890200088902000889020008F4
:1000C00089020008890200088902000889020008E4
:1000D00089020008B5050008890200080107000828
:1000E00089020008890200088902000889020008C4
:1000F00089020008890200088902000889020008B4
:10010000000000000000000000000000890200085C
:100110008902000889020008A10500088902000878
:100120008902000889020008890200088902000883
:100130008902000889020008000000000000000099
:1001400089020008890200088902000800000000F6
:10015000000000000000000000000000000000009F
:100160000000000000000000890200088902000869
:1001700089020008000000000000000000000000EC
:10018000000000008902000800F002F800F05CF8AE
:100190000AA090E8000C82448344AAF10107DA45E2
:1001A00001D100F051F8AFF2090EBAE80F0013F0D8
:1001B000010F18BFFB1A43F001031847102B000072
:1001C000302B00000A444FF0000C10F8013B13F0F4
:1001D000070408BF10F8014B1D1108BF10F8015BA0
:1001E000641E05D010F8016B641E01F8016BF9D193
:1001F00013F0080F1EBF10F8014BAD1C0C1B09D1EA
:100200006D1E58BF01F801CBFAD505E014F8016B5B
:1002100001F8016B6D1EF9D59142D6D370470000ED
:100220000023002400250026103A28BF78C1FBD8FF
:10023000520728BF30C148BF0B6070471FB502F09E
:10024000B0FC1FBD10B510BD00F035F81146FFF72A
:10025000F5FF02F0E5F800F053F803B4FFF7F2FF02
:1002600003BC00F05BF800000B48016841F470012A
:1002700001600A480047FEE7FEE7FEE7FEE7FEE70B
:10028000FEE7FEE7FEE7FEE7FEE70000044805495B
:10029000054A064B7047000088ED00E08901000820
:1002A000A80D0020A81D0020A8150020A8150020DA
:1002B000704770477047754600F02CF8AE46050051
:1002C0006946534620F00700854618B020B5FFF771
:1002D000DDFFBDE820404FF000064FF000074FF073
:1002E00000084FF0000B21F00701AC46ACE8C00954
:1002F000ACE8C009ACE8C009ACE8C0098D4670475D
:1003000010B50446AFF300802046BDE81040FFF76B
:10031000A4BF000000487047440D00200149182088
:10032000ABBEFEE7260002007047000010B50A4A87
:1003300051680A4A506800F0D5FB60B10749486827
:1003400000F0C4FB06494868064901F0A6F90249D5
:10035000486800F02BFB10BD942C0008DC02002044
:10036000B40200200601060010B50A4A11680A4AC4
:10037000106800F0B7FB60B10749086800F0A6FB01
:1003800006490868064901F088F90249086800F042
:100390000DFB10BD942C0008DC020020B4020020EC
:1003A000060106002DE9F0411D4D00240026A0465F
:1003B000002700BF0BE01B48005D295D884204D088
:1003C000285D184908554FF00108601CC4B2042C80
:1003D000F1DBB8F1010F20D1002418E01148075DCE
:1003E000002610E007F0010018B1002001F0EAF942
:1003F00002E0002001F0F6F97F100121032000F057
:1004000032F8701CC6B2082EECDB601CC4B2042C9F
:10041000E4DB0121022000F026F8BDE8F0810000B5
:100420000B0000200F00002010B5002001F0CAF9D9
:10043000012001F0C7F9022001F0D4F9032001F0F6
:10044000D1F9042001F0CEF9012001F0BBF900211F
:10045000042000F008F80121022000F004F8012037
:1004600001F0C0F910BD70B505460C466426012C9C
:1004700012D1284601F0B6F9304600F08BF8284634
:1004800001F0A0F9304600F085F8284601F0AAF9FD
:10049000304600F07FF811E0284601F093F930462D
:1004A00000F078F8284601F09DF9304600F072F827
:1004B000284601F087F9304600F06CF870BD000066
:1004C000F0B502460C460027002500230026002137
:1004D00034B1012C06D0022C06D0032C08D105E043
:1004E000082507E0012505E0022503E0042501E0D9
:1004F000002500BF00BF082A22DAC2F1070000EB86
:10050000D07CCCF347030F48C15C042B18DAC2F14E
:10051000070000EBD07C4FEA6C0CA0EB4C0C0CF00D
:10052000FF06012E03D101F0F001294305E001F09F
:100530000F01F02000EA051001430248C1540127D1
:100540003846F0BD0B00002070B5054600240F486A
:100550000088B5FBF0F100FB1150A8B900BF06E020
:100560000B4801782046FFF7ABFF601CC4B2082C93
:10057000F6DB07480078401C0549087008460078FB
:10058000042801DB0020087070BD00000800002076
:100590000A00002000E0401E0028FCD17047000047
:1005A00010B50121024800F00BFF00F025F910BD45
:1005B000001000401CB54B480068C06901900198CC
:1005C000C0F3C02010B347490868474900F086FFD0
:1005D0004649086800F07AFA4449086800F0B4FA1D
:1005E0004349898B081A4249C9680880012040495B
:1005F000096908703E4B9A8B99693C4B186800F06A
:10060000BBF93A49086800F066FA69E00198C0F35E
:100610004010B0B133490868364900F05FFF3149F6
:100620000868416A00910099C9B23148C0680288DF
:100630002F48C068801C2E4BD860184680698154B2
:100640004EE00198C0F3C01020B90198C0F38010AB
:10065000002844D00198C0F3801098B1214908685F
:10066000254900F03BFF00202149C8710846407829
:10067000042803D008464078052831D11C4801F0F1
:1006800045FC2DE00198C0F3C01038B31549086847
:100690001A4900F023FF1648408915490989884204
:1006A0000FDB10490868154900F0DDFF0D490868A7
:1006B000114900F013FF0B4908680F4900F0EDFFE6
:1006C0000EE0084A10680A4A53895289521C084CA5
:1006D000628122465269D15C816200BF00E000BFA6
:1006E0001CBD0000B40200201A010B00EC02002027
:1006F000F4020020050105000601060007010700BD
:100700001CB538484068C0690190364840680068A8
:1007100000900198C0F3C02060B30098C0F38060DF
:1007200040B330494868304900F0D8FE2F49486846
:1007300000F0CCF92D49486800F006FA2C49B1F8D0
:100740005410081A81B22A48406C018001212848BF
:10075000806C01702648383000F0BAF8244BB3F8AA
:100760005420196D214B586800F006F91F4948685C
:1007700000F0B1F90098C0F38010C8B10198C0F33F
:100780008010A8B1174948681A4900F0A7FE002157
:10079000174880F83F1090F83900042804D0144816
:1007A00090F83900052803D11148383001F0AEFB2C
:1007B000019800F0010078B90198C0F3400058B9E1
:1007C0000198C0F3800038B90198C0F3C00018B98F
:1007D0000198C0F3002018B10548383001F010FA34
:1007E0001CBD0000B40200201A010B00EC02002026
:1007F000F40200200601060010B5334800780528F1
:1008000057D2DFE800F003343A401C000C2000F01F
:10081000C3FF012806D10D2000F0BEFF10B9032050
:10082000294908700C2000F0B7FF38B90D2000F0FE
:10083000B3FF012802D10220234908703DE023487C
:1008400000687D21B0FBF1F201FB120008B901F054
:1008500093FE0C2000F0A0FF012807D10D2000F02E
:100860009BFF012802D100201749087025E0FFF7FF
:1008700099FD0220144908701FE001F05DFC012081
:100880001149087019E011480068FFF75DFEFFF795
:1008900089FD0C2000F080FF012809D10D2000F017
:1008A0007BFF012804D1FFF7BFFD00200649087037
:1008B00003E001200449087000BF00BF034800683E
:1008C000401C0249086010BD000000200400002008
:1008D00002460020401C7047024989680143014AD2
:1008E00091607047002004E04FF0E020006920F0A4
:1008F00004004FF0E02108610A4880680A49B0FB13
:10090000F1F0C0F3CF00094908800846008800EBE9
:100910004001C1EBC0104FF6FF7101EAC00004496D
:1009200008807047200D002040420F004202002046
:100930004402002001460F4A12884A434FF0E02348
:100940005A6100229A611A46126922F00102521C71
:100950001A6100BF4FF0E022106900F001021AB1E5
:1009600000F48032002AF5D000224FF0E0231A6113
:100970009A61704742020020436862F30F034360AC
:10098000C16070470021002200F080520AB10121AD
:1009900000E0002111B1034B186001E0024B5860E8
:1009A000704700000404024000000240002200F0F2
:1009B00000420AB1024900E0024948607047000065
:1009C0000004024000000240016821F001010160C2
:1009D0000021016041686FF30F01416000218160D7
:1009E000C1603849884204D10F21364A083A516023
:1009F00067E034491431884204D1F021314A083A81
:100A000051605EE02F492831884205D14FF4706172
:100A10002C4A083A516054E02A493C31884205D1B9
:100A20004FF47041274A083A51604AE02549503155
:100A3000884205D14FF47021224A083A516040E0C3
:100A400020496431884205D14FF470011D4A083AAB
:100A5000516036E01B497831884205D14FF0706112
:100A6000184A083A51602CE01749884203D10F21F7
:100A7000021F116025E014491431884204D1F0218D
:100A8000114A121F11601CE00F492831884205D11C
:100A90004FF470610C4A121F116012E00A493C3198
:100AA000884205D14FF47041074A121F116008E0D7
:100AB00005495031884204D14FF47021024A121F77
:100AC000116070470800024008040240016821F0EC
:100AD000010101607047016821F00101491C0160BA
:100AE00070470000F0B503460024A4460025002608
:100AF000002701F0004401F0E0404FEA107C0CB107
:100B00000F4A00E00F4A146804EA010008B1012608
:100B100000E00026ACF101008000C1401D6805F036
:100B20000E0501EA050008B1012700E00027012FAA
:100B300003D1012E01D10120F0BD0020FCE700000F
:100B4000000402400000024008B5014648680090D9
:100B5000009880B208BD2DE9F04704460D461646C0
:100B6000DDE9099ADDF820800B9F2046FFF72CFF76
:100B7000206820F480402060206868F345102060E1
:100B800020686AF304102060206820F08000803024
:100B90002060206820F040002060206867F38B20F0
:100BA0002060206867F309202060206869F30D3019
:100BB0002060606863F30F006060E560A660BDE8D8
:100BC000F08702680A430260704708B5036823F0A3
:100BD0000103036006E003680093009B03F0010338
:100BE00003B900E0F7E700BFC160436862F30F0399
:100BF0004360036823F001035B1C036008BD08B574
:100C0000036823F00103036006E003680093009B80
:100C100003F0010303B900E0F7E700BFC1604368D8
:100C200062F30F034360036823F001035B1C03605E
:100C300008BDF0B5002300244D07ED0E02FA05F3C0
:100C400008290BDA4E07F70E0F26BE40056AB5439A
:100C50000562056A45EA030404620AE04E07F70EDE
:100C60000F26BE40456AB5434562456A45EA03041E
:100C70004462F0BD2DE9F0430C46079E002100259B
:100C8000002700BF60E04FF0010C0CFA01F504EA08
:100C90000507AF4257D14FEA41094FF0030808FA60
:100CA00009F8D0F800C02CEA080CC0F800C04FEAE0
:100CB00041094FF0030808FA09F8D0F804C02CEAFB
:100CC000080CC0F804C04FEA41094FF0030808FAC5
:100CD00009F8D0F80CC02CEA080CC0F80CC04FEA98
:100CE00041094FF0030808FA09F8D0F808C02CEAC7
:100CF000080CC0F808C04FEA41094FF0020808FA92
:100D000009F8D0F800C04CEA080CC0F800C003FA9B
:100D100001F8D0F804C04CEA080CC0F804C04FEA4F
:100D2000410802FA08F8D0F80CC04CEA080CC0F8E8
:100D30000CC04FEA410806FA08F8D0F808C04CEA9F
:100D4000080CC0F808C0491C10299CD3BDE8F083EA
:100D5000F0B50B4600210024002500BF25E0012648
:100D600006FA01F403EA0405A5421DD14FEA410C3D
:100D7000032707FA0CF70668BE4306604FEA410CEA
:100D8000032707FA0CF7C668BE43C6604FEA410C5A
:100D9000002707FA0CF706683E4306604F0002FA88
:100DA00007F7C6683E43C660491C1029D7D3F0BD7B
:100DB0002DE9F0430C46079E00210025002700BFC7
:100DC00060E04FF0010C0CFA01F504EA0507AF42B0
:100DD00057D14FEA41094FF0030808FA09F8D0F853
:100DE00000C02CEA080CC0F800C04FEA41094FF0DF
:100DF000030808FA09F8D0F804C02CEA080CC0F877
:100E000004C04FEA41094FF0030808FA09F8D0F886
:100E10000CC02CEA080CC0F80CC04FEA41094FF096
:100E2000030808FA09F8D0F808C02CEA080CC0F842
:100E300008C04FEA41094FF0010808FA09F8D0F854
:100E400000C04CEA080CC0F800C003FA01F8D0F862
:100E500004C04CEA080CC0F804C04FEA410802FA8A
:100E600008F8D0F80CC04CEA080CC0F80CC04FEAE7
:100E7000410806FA08F8D0F808C04CEA080CC0F897
:100E800008C0491C10299CD3BDE8F083028B0A439B
:100E90000283704700F01F0201219140421192002D
:100EA00002F1E022C2F800117047000070B503465D
:100EB000002000250F240B4E366806F4E066C6F5C8
:100EC000E066C6F30720C0F10406F5B2044101FA5A
:100ED00005F6F0B202EA040630430607300E024E71
:100EE000F05470BD0CED00E000E400E002494969F7
:100EF0000143014A51617047001002400249C9692B
:100F00000143014AD161704700100240024909695A
:100F10008143014A1161704700100240024909698A
:100F20000143014A1161704700100240024989697A
:100F30000143014A91617047001002400249C968AB
:100F40008143014AD1607047001002400249C968DC
:100F50000143014AD160704700100240F0B50546D8
:100F600000210022002300240020384E367906F0AC
:100F70000C0121B1042906D0082922D108E0344E01
:100F8000344F7E6021E0334E3668324F7E601CE085
:100F90002E4E7468C4F300447068C0F383400E287A
:100FA00001D2801C00E010202CB12A4E3668760851
:100FB00006FB00F302E0264E46437308254E73609D
:100FC00003E0234E234F7E6000BF00BF1F4E3679E3
:100FD000C6F30311204E725C1E4E7668D6401D4F3C
:100FE000BE601A4EB688C6F302211C4E725C3E46A5
:100FF000B668D640FE60154EB688C6F3C221174EBD
:10100000725C3E46B668D6403E613E46B668FF68B2
:10101000BE4204D10F4EF6680E4F7E6104E00D4EC5
:10102000F66876000B4F7E610A4EB668094F3F693D
:10103000BE4204D1074E3669064FBE6104E0054E3C
:1010400036697600034FBE61F0BD0000001002401B
:1010500000127A00200D0020640300207403002099
:101060002DE9F04F82460F4690469946DDF824B0B0
:10107000002400250026A848006840F47000A64916
:101080000860A648006840F00100A44908600846CE
:101090004068A3490840A149486008460068A14942
:1010A00008409E4908600846006820F480200860D7
:1010B0000846406820F4FE0048600846C06A20F0F8
:1010C0000F00C8620846006B9749084093490863BF
:1010D00000208860002F73D11220944908608F4847
:1010E000006820F00100401C8C49086000BF00BF70
:1010F00000BF6D1C8948046804F002041CB98C48C8
:1011000000688542F5D38548046804F0020414B9E8
:101110000120BDE8F08F8148406820F0F000703079
:101120007E4948600846406869F30A2048600846DE
:1011300040686BF3CD2048600846406820F480305A
:10114000486040464FEAE87108EB9171C1F38F06A1
:10115000102E02DAB01E86B200E00F266F484068FB
:1011600066F395406D4948600846006820F080703D
:1011700000F1807008600024002500BF6D1C6748E6
:10118000046804F000741CB9694800688542F5D908
:101190006248046804F000740CB90220B9E75F48A3
:1011A000406820F00300801C5C494860002400BFB8
:1011B0005A48446804F00804082CF9D19FE0FFE77E
:1011C0005648C06A20F00F005449C86208460068BB
:1011D00020F47F00086000240025BAF1010F06D139
:1011E0000846006820F4802000F5802008604B4805
:1011F000006820F4803000F580304849086000BF66
:101200006D1C4648046804F400341CB94848006862
:101210008542F5D347487843474908603F4804680A
:1012200004F400340CB9012073E74048006820F052
:10123000100010303D4908600846006820F00700A3
:10124000801C08603548406820F0F0007030334959
:1012500048600846406869F30A20486008464068CC
:101260006BF3CD2048600846406820F4003000F55C
:10127000003048600846406820F4803000F5803037
:1012800048600026384607EBD071491098FBF1F111
:101290008EB2102E02DAB01E86B200E00F261F4872
:1012A000406866F395401D4948600846006820F094
:1012B000807000F1807008600024002500BF6D1C64
:1012C0001648046804F000741CB919480068854287
:1012D000F5D31248046804F000740CB9022018E732
:1012E0000E48406820F00300801C0C494860002430
:1012F00000BF0A48446804F00804082CF9D10649E4
:1013000080390A9808600D48091D08600A48FFF7EF
:1013100025FE0020FDE6000088ED00E00010024000
:101320000CC07FF8FFFFF6FECCFC00FF002002405F
:101330007C03002040420F00200D00200005FA052C
:1013400030B51C4611B90025058517E0164DA84299
:101350000BD0164DA84208D0154DA84205D0154D0A
:10136000A84202D0144DA84202D1144DAB6901E04D
:10137000124D6B69B3FBF1F56D1E0585B0F1804F21
:1013800001D1C26201E095B2C562056825F44075DD
:101390000560056864F304150560002505610568AE
:1013A00025F00105056030BD002C014000340140EE
:1013B000004001400044014000480140200D002051
:1013C000CA4392B20261704710B504463448844261
:1013D00006D14015FFF7BAFD6015FFF7AFFD5EE0DF
:1013E000B4F1804F06D10120FFF798FD0120FFF7EF
:1013F0008DFD54E02B48844206D10220FFF78EFD7C
:101400000220FFF783FD4AE02748844206D10420EA
:10141000FFF784FD0420FFF779FD40E02348844274
:1014200006D11020FFF77AFD1020FFF76FFD36E0A0
:101430001F48844206D12020FFF770FD2020FFF7CF
:1014400065FD2CE01B48844206D14014FFF77EFD69
:101450006014FFF773FD22E01748844208D14FF46F
:101460008030FFF773FD4FF48030FFF767FD16E023
:101470001248844208D14FF40030FFF767FD4FF463
:101480000030FFF75BFD0AE00D48844207D14FF4BE
:101490008020FFF75BFD4FF48020FFF74FFD10BD6C
:1014A000002C0140000400400008004000100040F3
:1014B000001400400034014000400140004401405D
:1014C00000480140016821F00101491C016070479A
:1014D000C2680A43C26070470162704710B50022BB
:1014E00000230A0C01249440A3B2036210BD000043
:1014F00010B504461D48844208D14FF48040FFF7E0
:1015000025FD4FF48040FFF719FD2EE01848844276
:1015100008D14FF40030FFF701FD4FF40030FFF722
:10152000F5FC22E01348844208D14FF48020FFF7F5
:10153000F5FC4FF48020FFF7E9FC16E00E488442EA
:1015400008D14FF40020FFF7E9FC4FF40020FFF72B
:10155000DDFC0AE00948844207D14FF48010FFF710
:10156000DDFC4FF48010FFF7D1FC10BD00380140C6
:101570000044004000480040004C00400050004043
:10158000816821F04001403181607047816821F01D
:1015900080018031816070470246D069084008B1FF
:1015A000012070470020FCE72DE9F04104460F467A
:1015B00015461E46DDF81880206820F001002060E6
:1015C0000020A060606866F30D306060206868F3FA
:1015D0004A202060206820F00400001D2060206860
:1015E00020F0080008302060606820F4000000F55A
:1015F00000006060606900F07F402330606175B179
:10160000012D15D0022D1ED1206820F480502060BD
:10161000206820F0805000F18050206014E02068A5
:1016200020F480502060206820F0805020600BE083
:10163000206820F4805000F580502060206820F061
:101640008050206000E000BF00BF3946204600F017
:101650004FF84FF0FF302062206820F00100401C5E
:101660002060BDE8F08130B5002300240022C1F3E2
:101670000723CCB2012505FA04F2022B03D14568F9
:101680009543456008E0032B03D185689543856049
:1016900002E005689543056030BD30B500230024A5
:1016A0000022C1F30723CCB2012505FA04F2022B74
:1016B00003D145681543456008E0032B03D18568D5
:1016C0001543856002E005681543056030BD10B51F
:1016D0000B46002108E000BF047FC4F3C014002CB7
:1016E000FAD05C5C8462491C9142F4D310BD0000C6
:1016F00070B5002200230024056825F0010505606F
:10170000184DA84202D1184D2A6901E0164DEA6829
:101710000588C5F3C03545B15500B5FBF1F355005B
:10172000B5FBF1F601FB165405E0B2FBF1F3B2FB99
:10173000F1F501FB1524B4EB510F00D35B1C0588B8
:10174000C5F3C03535B1C3F342044FF6F0751D4003
:1017500045EA04039DB2C560056825F001056D1CCE
:10176000056070BD00380140200D00201CB5044606
:101770000320034648220821CDE900040020FFF79A
:101780006FFC1CBD10B5FFF7AFF810BD10B50446D7
:101790002046FFF7CFF810BD0146084B53F8212033
:1017A000074B33F81100136903400BB1012300E02C
:1017B00000230BB9002070470120FCE77C020020C9
:1017C000342C0008054B53F82010054B33F810203B
:1017D0000B8B13430B8300BF7047000048020020AF
:1017E000E02B0008054B53F82010054B33F8102070
:1017F0004B8B13434B8300BF70470000480200200F
:10180000E02B000810B504460F48FFF7DDFD10205F
:10181000FFF774FB1020FFF75FF8621E00230B49EF
:101820000948FFF78DFD072200213620FFF73EFB18
:101830003620FFF72FFB01210348FFF749FE02483E
:10184000FFF740FE10BD00000010004040420F00B6
:1018500070B504460D46164621780F4A52F821000D
:101860000E49FFF73BFE21780B4A52F821000C4944
:10187000FFF734FE2178084A52F821004FF44071F6
:10188000FFF72CFE2178074A52F8210032462946FC
:10189000FFF7B5F970BD0000B40200201A010B007B
:1018A00006020800EC02002038B5044660780828DB
:1018B0007DD2DFE800F0042345649B9CF1EF2178A2
:1018C000C34A52F82100FFF711FB01200090227853
:1018D000C04B33F81210C04B53F8220000230122F2
:1018E000FFF7C8F92378BD4DEA5CBD4D35F81310FC
:1018F000B94D55F82300FFF79CF966E12178B44A09
:1019000052F82100FFF7F2FA012000902278B14B43
:1019100033F81210B04B53F8220000230122FFF7D6
:10192000A9F92378AD4DEA5CAD4D35F81310AA4DF9
:1019300055F82300FFF77DF9204600F0E7FA44E16F
:101940002178A84A52F82100FFF7D0FA0120009030
:101950002278A54B33F81210A44B53F82200002331
:101960000122FFF787F923789C4DEA5CA04D35F8FA
:1019700013109E4D55F82300FFF75BF925E1217800
:10198000984A52F82100FFF7B1FA2178994A52F8A3
:101990002100FFF7ABFA012000902278964B33F834
:1019A0001210964B53F822000023012200E00BE1B5
:1019B000FFF7FEF90120009022788B4B33F81210CC
:1019C000854B53F8220000230122FFF753F92378B7
:1019D000824DEA5C864D35F81310844D55F823008E
:1019E000FFF727F9204600F0A5FAEEE000BF2178C6
:1019F0007C4A52F82100FFF779FA2178744A52F8AC
:101A00002100FFF773FA21787A4A52F82100FFF794
:101A10006DFA012000902278774B33F81210774B43
:101A200053F8220000230122FFF7C2F901200090A1
:101A300022786D4B33F812106C4B53F822000023C0
:101A40000122FFF717F9012000902278614B33F84B
:101A50001210614B53F8220000230122FFF70AF90C
:101A600023785E4DEA5C624D35F813105F4D55F8F2
:101A70002300FFF7DEF82378584DEA5C584D35F81F
:101A80001310554D55F82300FFF7D3F8204600F00A
:101A90003DFA9AE03DE0FFE72178524A52F82100F2
:101AA000FFF724FA21784A4A52F82100FFF71EFA7C
:101AB0000120009022784C4B33F812104B4B53F816
:101AC000220000230122FFF7D5F8012000902278A0
:101AD000404B33F81210404B53F8220000230122F0
:101AE000FFF7C8F823783D4DEA5C414D35F81310F7
:101AF0003E4D55F82300FFF79CF82378374DEA5CFC
:101B0000374D35F81310344D55F82300FFF791F891
:101B10005BE02178334A52F82100FFF7E7F921789A
:101B20002B4A52F82100FFF7E1F92178314A52F8A7
:101B30002100FFF7DBF90120009022782E4B33F8CB
:101B400012102E4B53F8220000230122FFF730F928
:101B5000012000902278244B33F81210234B53F8C5
:101B6000220000230122FFF785F80120009022784F
:101B7000184B33F81210184B53F82200002301229F
:101B8000FFF778F82378154DEA5C194D35F81310F6
:101B9000164D55F82300FFF74CF823780F4DEA5CFB
:101BA0000F4D35F813100C4D55F82300FFF741F891
:101BB00000BF2278104B33F81210104B53F822005C
:101BC000FFF764F900BF00E000BF00BF38BD0000B0
:101BD0006C2C0008742C0008C40200205A2C000849
:101BE000782C00085C2C0008642C0008BC02002043
:101BF000682C00087C2C0008842C0008CC020020F3
:101C00007FB504462046FFF74FFE2078884951F8FB
:101C100020008849884206D12178874A52F821005D
:101C2000FFF784F905E02178834A52F82100FFF795
:101C300065F921787E4A52F82100FFF759FC607956
:101C400000902379E278A5787C4E56F82510257807
:101C5000774E56F82500FFF7A7FC6078002855D08E
:101C6000A07902283AD12178754A52F82100FFF76D
:101C70003DF9002001210222CDE90002CDE9021048
:101C80002378354655F8233003F1280223786D4D2B
:101C900055F8230000236169FEF75DFF2178324685
:101CA00052F82100FFF772FC2178674A52F82100B0
:101CB000FEF77CFE2178654A505C01220021FFF787
:101CC000F5F82178614A505CFFF7E4F821782A465C
:101CD00052F821000221FEF774FF17E0A0790128D5
:101CE00014D121785A4A505C00221146FFF7DEF8E1
:101CF00021784F4A52F821005649FFF7EFFB21782F
:101D00004B4A52F821005349FFF7C7FC607802287C
:101D100051D0A07902284FD121784F4A52F82100A2
:101D2000FFF7E4F800200222CDE9000202900390C0
:101D300023783F4D55F8233003F124022378474D93
:101D400055F823000023A169FEF705FF2178384AE2
:101D500052F82100FFF714FCA28B2046A169FFF77F
:101D600077FD2178324A52F821003D49FFF7B6FB52
:101D70002178374A505C01220021FFF797F821783B
:101D8000334A505CFFF786F82178294A52F821003F
:101D90003349FFF782FC2178254A52F821004FF49D
:101DA0004071FFF79BFB2178214A52F821004FF444
:101DB0004071FFF772FC3AE0A079012837D1217811
:101DC000234A505C01220021FFF770F82178204A55
:101DD000505CFFF75FF82178154A52F8210021493D
:101DE000FFF77CFB2178124A52F821001C49FFF7CB
:101DF00075FB21780E4A52F821001A49FFF74DFC75
:101E000021780B4A52F821001549FFF746FC21784A
:101E1000074A52F821004FF44071FFF75FFB217829
:101E2000034A52F821004FF44071FFF736FC7FBDA2
:101E3000B402002000380140502C0008A42C0008F7
:101E4000882C0008DC020020942C0008902C00084C
:101E5000582C0008070107009C2C0008EC02002009
:101E60001A010B000501050010B50446A0790128F0
:101E700007D12178084A52F821000849FFF7F3FBFF
:101E800009E0A079022806D12178034A52F82100FE
:101E90000349FFF7E8FB10BDB4020020050105006F
:101EA0001A010B0010B50446A079012807D121784A
:101EB000084A52F821000849FFF7EFFB09E0A07932
:101EC000022806D12178034A52F821000349FFF77E
:101ED000E4FB10BDB4020020050105001A010B004F
:101EE00070B504460D460A2D0ADAA570A278054B96
:101EF00053F822102278044B53F82200FFF7F8FB26
:101F000070BD0000A42C0008B402002010B50378B6
:101F1000054C54F82310054C34F813204B8B134315
:101F20004B8300BF10BD0000CC020020842C0008B1
:101F30007047000010B504462278044B33F81210A5
:101F4000034B53F82200FEF7A1FF10BD842C0008BC
:101F5000CC0200202DE9F04104460D461646E079FA
:101F6000012809D12178394A52F82100FEF7ECFD09
:101F700010B10120BDE8F0816078042802D06078BB
:101F8000052802D12046FFF7D5FFA07930BB0120FC
:101F9000E07121782E4A52F8210032462946FFF797
:101FA00096FB6078042802D06078052813D100BF22
:101FB0002178274A52F821004021FFF7EDFA002846
:101FC000F6D12046FFF7A2FF2178214A52F82100DE
:101FD0004021FFF781FA0020E07134E0A079012868
:101FE00017D10020608126816069A84200D0656118
:101FF0002178174A52F821001649FFF76FFA217825
:10200000134A52F821001349FFF747FB0120E07102
:1020100019E02178104A52F82100FEF7B3FC45B9C7
:1020200022892378094F57F823006169FEF7CDFD17
:1020300007E02178054A52F8210032462946FEF78A
:10204000C4FD0120E071002094E70000DC020020C4
:10205000B402002007010700942C0008F0B589B0F5
:10206000344E00250024002700BF05E0002001A910
:1020700041F82400601CC4B2082CF7DB002544E0C2
:10208000192D3DDA002405E0611DC8B2FFF7AAFB57
:10209000601CC4B2082CF7DB0A20FFF777FB002492
:1020A00005E0611DC8B2FFF78DFB601CC4B2082CAF
:1020B000F7DB0A20FFF76AFB002414E001A850F8C0
:1020C0002400400001A941F82400211DC8B2FFF7F7
:1020D00063FB074601A850F82400384401A941F8E1
:1020E0002400601CC4B2082CE8DB002405E0611D5C
:1020F000C8B2FFF777FB601CC4B2082CF7DB02E024
:102100001420FFF743FB681CC5B21B2DB8DB00246D
:102110000CE001AA52F8241004EB840202EBC40282
:1021200006EB021000F086F9601CC4B2082CF0DB4C
:1021300009B0F0BD0005002070B500240025374827
:102140000078052863D2DFE800F003111F30590042
:10215000002405E00020324941F82400601CC4B28C
:10216000082CF7DB01202D49087054E0002405E01D
:10217000611DC8B2FFF726FB601CC4B2082CF7DB58
:1021800002202649087046E0002405E0611DC8B21F
:10219000FFF728FB601CC4B2082CF7DB03201F49A3
:1021A000087000201F49087035E01E480078801C28
:1021B0001C49087008460078B0F5C87F05DB002090
:1021C000087001201549087017E0002409E0211D5E
:1021D000C8B2FFF7E1FA012801D1012503E0601C34
:1021E000C4B2082CF3DB00BF012D03D103200B493F
:1021F000087002E00420094908700CE000F014F8AF
:1022000003200649087000200649087003E00120F9
:102210000249087000BF00BF70BD000035000020FB
:10222000C00400203600002070B5134D0024FFF7D5
:1022300015FF00BF09E004EB840101EBC40105EBCD
:10224000011000F01FF8601CC4B2082CF3DB0B482F
:1022500001780078401C094A1070642091FBF0F26C
:1022600000FB1210064901EB800095ED330AB8EE31
:10227000400A80ED000A70BD0005002037000020F4
:10228000800B002070B52DED068B044600259FEDD8
:10229000250AB0EE408A607801283FD10A21E06A21
:1022A00090FBF1F0206300BF09E004F1340050F826
:1022B0002500216B814200D803E0681CC5B2092DBE
:1022C000F3DB00BF04F17C0000EB850090ED000A19
:1022D000B0EE408A94ED0C0AB8EEC00A20EE080A6F
:1022E000B0EE408A04F1A40000EB850090ED000AF6
:1022F00030EE080AB0EE408A18EE100A00F0E0FB5B
:1023000041EC1A0B9FED080B53EC102B00F0C4F9B5
:1023100041EC190B00F068FAC4F8CC00BDEC068B58
:1023200070BD000000000000000000000000E03F61
:1023300030B5384900200023002200BF67E00124A7
:1023400000EB800505EBC00501EB05156C70002363
:102350000BE0002500EB800404EBC00401EB041447
:10236000241D44F823505C1CE3B20A2BF1DB00244B
:1023700000EB800505EBC00501EB0515EC6200EBF9
:10238000800505EBC00501EB05152C6300EB80050E
:1023900005EBC00501EB0515AC7000EB800505EB06
:1023A000C00501EB0515EC7000221BE09FED1A0A39
:1023B00000EB800404EBC00401EB04147C3404EB58
:1023C000820484ED000A9FED150A00EB800404EB03
:1023D000C00401EB0414A43404EB820484ED000A6D
:1023E000541CE2B20A2AE1DB002400EB800505EB75
:1023F000C00501EB0515C5F8CC40012400EB8005B4
:1024000005EBC00501EB05152C70441CE0B2082853
:1024100095DB30BD00050020124DA03AE1DA85C3FE
:1024200000F0F2F8FEF700F800F08AF8FFF780FFFE
:1024300000BFFEE710B582780A2A03DB0022827013
:1024400001224270B1F1807F09D36FF07E42521AAF
:10245000521C53428478021D42F8243003E08378F2
:10246000021D42F823104278012A14D18478021DFB
:1024700052F82420C36A1A44C26282780B320A23BB
:1024800092FBF3F403FB1423021D52F82320C36ACA
:102490009A1AC26206E08478021D52F82420C36AA8
:1024A0001A44C2628278521C827010BD2DE9F04736
:1024B00005460F4614460026B046B14640F2FF706E
:1024C000854237DA002C35DD7F2C33DAA5201A4916
:1024D00081F804015A21184880F805116000C01CD9
:1024E000C1B2154880F80611822180F80711290A27
:1024F00080F8081180F8095100BF0EE037F8028B10
:102500004FEA28217000801D0C4A11547000C01D34
:10251000114601F80080701C86B2A642EEDB600016
:10252000801D1FFA80F90449086809684A46CB6A89
:1025300002499847BDE8F087380000203C010020A0
:1025400010B50C48A0F501710968C860801CA0F2A4
:10255000062109680861A0F20220011F096848618C
:10256000011F09688861021F10681268116A884794
:1025700010BD00003C02002010B500241D4800786A
:10258000401C1C4908701C480078D8B9A5201B497C
:1025900081F804015A21194880F80511032180F8B7
:1025A0000611812180F80711032180F8081102210A
:1025B00080F809110146086809680622CB6A1049AB
:1025C000984715E00B4800780E490880012408E080
:1025D000601C0849097848430A4921F81400601C26
:1025E000C4B2082CF4DB082206490020FFF75EFF86
:1025F00010BD0000410200204002002038000020F1
:102600003C010020100D002070B54FF00064002543
:102610006019FFF7ABF8FFF7B5F800F005F84FF4D5
:102620007A70FFF7EFF870BD38B500240EE014495A
:1026300051F82400FEF75AFC124A32F81410124ADC
:1026400052F824000022FEF783FB641C0E2CEED30C
:10265000002411E00D4951F82400FEF747FC00204A
:102660000B4A009032F814100A4A52F82400002352
:102670000122FEF79DFB641C0D2CEBD338BD00003E
:10268000FC2B0008342C00087C020020AC2B000836
:10269000E02B00084802002010B591EA030F48BF64
:1026A00083F0004300F12A81841A71EB030C05D2F8
:1026B000121943EB0C03001B61EB0C01DFF824E162
:1026C0004FEA1154A4EB135C1EEA430F18BF9EEAB5
:1026D000445F73D023EA0E03DCF1200E21EA04519B
:1026E00043F4801332D322FA0CFE10EB0E0023FACF
:1026F0000CFE41EB0E01CCF1200E03FA0EFE10EBA6
:102700000E0051F10001B1F5801FCCF1200E32D244
:1027100001EB045112FA0EF2BDE8104058BF7047A9
:10272000401C38BF5FEA420218BF7047002814BF40
:1027300020F0010041F100014FEA410313F5001FB1
:1027400038BF7047A1F1C04100F0C9B8012A43EB7E
:102750000302ACF1200CDCF11F0E32BF4FF0000E73
:1027600023FA0CF310EB030041EB0451B4EB115FBF
:10277000D0D0A1EB045101F5801149085FEA300087
:1027800001EB04510ED350F1000038BF12FA0EFED7
:1027900008D1BDE81040C9E7401C38BF5FEA4202DB
:1027A000CAD1C3E7BDE810404FEA410313F5001F4B
:1027B00038BF7047A1F1C04100F091B89EEA445F74
:1027C00008D011EA5E0FBDE8104004BF01F00041DF
:1027D00000207047BDE8104070B500F032F800BF2F
:1027E00064FBBE3E0000E0FF4FEA1153A3F5806397
:1027F000D3F11E03A8BFD3F1200C08DB4FF0004239
:1028000042EAC12252EA505232FA03F070470942BA
:102810000BD4102BC4BF0020704703F5787CBCF1AB
:10282000FF3F05D04FF0FF3070474FF0000070477A
:1028300070B500F006F800BF499224800020704770
:10284000F0E70EF1020E2EF0030E5EF8046B364236
:1028500005D4012A43EB030515F5001F12D8012802
:1028600041EB010C1CF5001F0CD80ED14FEAD17CB6
:1028700015F5001F0CEB4C0C0CF1020C08BF4CEBD7
:10288000D37C04E04FF0080C01E04FEAD37C0CEB62
:102890004C0526FA05F606F00706B6F1040C06D23A
:1028A0000EEB860CBDE870404CF0010C6047DFE891
:1028B0000CF0090B02024FF000414FF00000A1F5AF
:1028C000002170BD19461046012851EB010418BFC4
:1028D000D4F5001484BF002001F0004170BD080849
:1028E000A0F500114FEA31017047000010B591EAE0
:1028F000030F48BF83F000433FF5D6AE841A71EB57
:10290000030C07D212198CF0004C43EB0C03001B94
:1029100061EB0C01DFF8A4E14FEA1154A4EB135C66
:102920001EEA430F18BF9EEA445F00F0B08023EA1E
:102930006E03524221EA0451C3EB6E0338BF5B1EA3
:10294000DCF1200E25D322FA0CFE10EB0E0043FA28
:102950000CFE41EB0E01CCF1200E03FA0EFE10EB43
:102960000E0051F10001CCF1200E29D412FA0EF222
:1029700001EB0451BDE8104058BF7047401C1CBF1C
:10298000B2F1004F704700280CBF491C20F0010035
:10299000704712EB020E43EB030218BF4FF0010E1B
:1029A0004EEA4202ACF1200CDCF11E0E54D943FA7F
:1029B0000CFE10EB0E0051F1FF31CCF11E0ED5D5FF
:1029C0000EF1010E12FA0EFE404141EB010101EB46
:1029D000445C5FEA5C5C10D910EBDE7001EB0451E3
:1029E00038BFBEF1004FBDE8104018BF7047002847
:1029F0000CBF491C20F00100704730D24FEAD42CA4
:102A000011F5001124F400641BD0B1FA81F20B3AE5
:102A1000A41AA41ED2F12003914030FA03F3194303
:102A2000904001EBCC71002C01EB0451BDE810404B
:102A3000A8BF704701F1C0414FF0000001F0004114
:102A40007047B0FA80F310FA03F100D110BDE41A18
:102A5000173C4805C90AE4E701EB045110BD4910D1
:102A600001EB0451BDE810404FEA300002E04FF0A6
:102A7000000170474A0008BF0042F8D0B2F5001FBD
:102A800028BF704701F000414FF0000070479EEAF8
:102A9000445F07D011EA5E0FBDE8104004BF00217B
:102AA00000207047BDE8104070B5FFF7CAFE00BFB8
:102AB00040DFF63E83F00041104670470000E0FF23
:102AC00043004FEAD30C4FEA3C0C43401FBF400782
:102AD0000CF1605113F0FE4F70471CF0006F03D1F2
:102AE00000200CF0004170470CF0004343EA5070A6
:102AF00010B540EACC0000F00EF800BF00000092D4
:102B00004FEA0001FFF7EBBE4FF000414FF000002D
:102B1000A1F5002170470EF1020E2EF0030E5EF8B3
:102B2000044B244204D44FEA4102B2F17F4F11D842
:102B30004FEA4003B3F17F4F0CD80ED14FEAD07C5F
:102B4000B2F17F4F0CEB4C0C0CF1020C08BF4CEBBC
:102B5000D17C04E04FF0080C01E04FEAD17C0CEB93
:102B60004C0324FA03F404F00704B4F1040C06D275
:102B70000EEB840CBDE810404CF0010C6047DFE820
:102B80000CF0070802024FF00040A0F5800010BDD5
:102B90000846420018BFD2F1807288BF00F00040A2
:102BA00010BD4FF04070E1EE100A704700000800C1
:102BB00000000800000008000000080000000800F5
:102BC00000000200000002000000020000000200FD
:102BD00000000200000002000000020000000200ED
:102BE00001000400080010002000010002000400A1
:102BF00008001000200040008000000000000800D5
:102C000000000400000004000000040000000400B4
:102C100000000400000004000000040000000400A4
:102C20000000040000000400000004000000040094
:102C300000000400020000200040008001000200AB
:102C40000400080010002000400080000001000285
:102C500000001000000004003527050700000800F0
:102C600000000800001000040C000A000000100022
:102C7000000008000400000802000B000000000033
:102C8000000004000000000401000000010000003A
:102C90000E0C000000200040200000200100000079
:102CA00001000000C012000080250000004B000061
:102CB0000096000000E1000000C2010040420F0049
:102CC00080841E00C0C62D0000093D00EC2C0008C9
:102CD0000000002080030000C4010008682D0008E7
:102CE00080030020281A00002002000881A3E803C6
:102CF0000520FFFFFF01132C0302FF2001FF61826B
:102D0000011208FA480421091C0429240A31040488
:102D100012501A40067A40687A0C70212920112B33
:102D20000240041A44045A1C0C29041A58042A307C
:102D30000C14060101031602021A10D4121C140806
:102D4000E11E1408311F1B0855041AA50C1A69044A
:102D500034010505093038816809010203040607BA
:082D600008090C1AFF01000034
:040000050800018965
:00000001FF
