:020000040800F2
:10000000F021002069020008770200087902000848
:100010007B0200087D0200087F020008000000004B
:100020000000000000000000000000008102000845
:100030008302000800000000850200088702000813
:100040008902000889020008890200088902000864
:100050008902000889020008890200088902000854
:100060008902000889020008890200088902000844
:1000700005040008890200084104000889020008FC
:100080008902000889020008890200088902000824
:100090008902000889020008890200088902000814
:1000A0008902000889020008890200088902000804
:1000B00089020008890200088902000889020008F4
:1000C00089020008890200088902000889020008E4
:1000D000890200087D05000889020008C906000899
:1000E00089020008890200088902000889020008C4
:1000F00089020008890200088902000889020008B4
:10010000000000000000000000000000890200085C
:1001100089020008890200086905000889020008B0
:100120008902000889020008890200088902000883
:100130008902000889020008000000000000000099
:1001400089020008890200088902000800000000F6
:10015000000000000000000000000000000000009F
:100160000000000000000000890200088902000869
:1001700089020008000000000000000000000000EC
:10018000000000008902000800F002F800F05CF8AE
:100190000AA090E8000C82448344AAF10107DA45E2
:1001A00001D100F051F8AFF2090EBAE80F0013F0D8
:1001B000010F18BFFB1A43F001031847583700001E
:1001C000783700000A444FF0000C10F8013B13F0A0
:1001D000070408BF10F8014B1D1108BF10F8015BA0
:1001E000641E05D010F8016B641E01F8016BF9D193
:1001F00013F0080F1EBF10F8014BAD1C0C1B09D1EA
:100200006D1E58BF01F801CBFAD505E014F8016B5B
:1002100001F8016B6D1EF9D59142D6D370470000ED
:100220000023002400250026103A28BF78C1FBD8FF
:10023000520728BF30C148BF0B6070471FB503F09D
:10024000BFF91FBD10B510BD00F05CF81146FFF7F7
:10025000F5FF02F0C8FA00F07AF803B4FFF7F2FFF6
:1002600003BC00F081F800000B48016841F4700104
:1002700001600A480047FEE7FEE7FEE7FEE7FEE70B
:10028000FEE7FEE7FEE7FEE7FEE70000044805495B
:10029000054A064B7047000088ED00E08901000820
:1002A000F0110020F0210020F0190020F0190020AA
:1002B0004FF0000200B5134694469646203922BFFF
:1002C000A0E80C50A0E80C50B1F12001BFF4F7AF4A
:1002D000090728BFA0E80C5048BF0CC05DF804EB2C
:1002E000890028BF40F8042B08BF704748BF20F89A
:1002F000022B11F0804F18BF00F8012B7047704798
:1003000070477047754600F02BF8AE460500694609
:10031000534620F00700854618B020B5FFF7B6FF1A
:10032000BDE820404FF000064FF000074FF00008F6
:100330004FF0000B21F00701AC46ACE8C009ACE877
:10034000C009ACE8C009ACE8C0098D46704710B5DB
:100350000446AFF300802046BDE81040FFF77DBFA4
:10036000004870478C11002001491820ABBEFEE701
:100370002600020070470000F0B503460025002467
:100380000020DFED1F0AB0EE600A002600BF33E058
:10039000002501202AE003EB8007D7ED000A471E65
:1003A00003EB870797ED001AF4EEC10AF1EE10FA9D
:1003B0001BD2471E03EB8707D7ED000AB0EE600A99
:1003C00003EB8007D7ED000A471E03EB8707C7ED55
:1003D000000A03EB800787ED000A471ECE5D11F887
:1003E00000C001F807C00E540125401C171B8742AE
:1003F000D1DC05B9F0BD641C9442C9DB00BFF9E74C
:100400000000000010B50A4A51680A4A506800F01E
:1004100061FB60B10749486800F050FB0649486835
:10042000064901F0ECF90249486800F0B7FA10BD3E
:10043000DC38000808030020E00200200601060066
:1004400010B50A4A11680A4A106800F043FB60B10F
:100450000749086800F032FB06490868064901F0C0
:10046000CEF90249086800F099FA10BDDC3800089E
:1004700008030020E00200200601060070B50546D2
:100480000C466426012C12D1284601F081FA304630
:1004900000F064F8284601F06BFA304600F05EF890
:1004A000284601F075FA304600F058F811E0284669
:1004B00001F05EFA304600F051F8284601F068FA83
:1004C000304600F04BF8284601F052FA304600F072
:1004D00045F870BDF0B502460C4600270025002304
:1004E00000260021012C06D0022C0AD0032C06D0B5
:1004F000042C08D101E0082507E0012505E00225CC
:1005000003E0042501E0002500BF00BF082A21DA2E
:10051000C2F1070000EBD07CCCF347030E48C15C6E
:10052000042B17DAC2F1070000EBD07C4FEA6C0C09
:10053000A0EB4C0C0CF0FF061EB901F0F0012943B2
:1005400005E001F00F01F02000EA05100143024828
:10055000C15401273846F0BD0800002000E0401ECD
:100560000028FCD17047000010B50121024800F0BE
:10057000D9FF00F025F910BD001000401CB54B4814
:100580000068C06901900198C0F3C02010B34749CA
:100590000868474901F054F84649086800F08EFAA7
:1005A0004449086800F0C8FA4349898B081A42494F
:1005B000C968088001204049096908703E4B9A8B40
:1005C00099693C4B186800F0CFF93A49086800F087
:1005D0007AFA69E00198C0F34010B0B13349086875
:1005E000364901F02DF831490868416A00910099B7
:1005F000C9B23148C06802882F48C068801C2E4BA1
:10060000D8601846806981544EE00198C0F3C0104C
:1006100020B90198C0F38010002844D00198C0F39D
:10062000801098B121490868254901F009F8002097
:100630002149C87108464078042803D0084640780C
:10064000052831D11C4801F037FD2DE00198C0F399
:10065000C01038B3154908681A4900F0F1FF164870
:1006600040891549098988420FDB104908681549F6
:1006700001F0ABF80D490868114900F0E1FF0B49A2
:1006800008680F4901F0BBF80EE0084A10680A4AF2
:1006900053895289521C084C628122465269D15CAE
:1006A000816200BF00E000BF1CBD0000E00200202E
:1006B0001A010B001803002020030020050105008B
:1006C00006010600070107001CB538484068C069EC
:1006D000019036484068006800900198C0F3C0203F
:1006E00060B30098C0F3806040B330494868304937
:1006F00000F0A6FF2F49486800F0E0F92D4948684E
:1007000000F01AFA2C49B1F85410081A81B22A489C
:10071000406C018001212848806C017026483830E7
:1007200000F066F8244BB3F85420196D214B58683B
:1007300000F01AF91F49486800F0C5F90098C0F3A5
:100740008010C8B10198C0F38010A8B1174948685B
:100750001A4900F075FF0021174880F83F1090F803
:100760003900042804D0144890F83900052803D132
:100770001148383001F0A0FC019800F0010078B970
:100780000198C0F3400058B90198C0F3800038B90F
:100790000198C0F3C00018B90198C0F3002018B147
:1007A0000548383001F002FB1CBD0000E0020020CB
:1007B0001A010B0018030020200300200601060088
:1007C00010B5002401F026FF01F09EFD04462046EE
:1007D00002F006FE204601F09FFF204602F0A0FA3C
:1007E00002480068401C0149086010BD0400002058
:1007F00070470000F0B502460D46FF21FF2400209F
:1008000009E0167886EA04030A4EF65C86EA0104DB
:10081000094EF15C521C2E1EA5F10105F1D10846CE
:100820004FF6FF7606EA002000F47F400619B0B2CA
:10083000F0BD0000F4350008F4360008002000BFC9
:1008400005E00021034A22F81010411CC8B20A2812
:10085000F7DB7047F0100020002000BF0DE0002102
:10086000074A22F8101000220549143121F81020FF
:10087000143121F81020411CC8B20A28EFDB704760
:10088000F0100020024989680143014A91607047D5
:10089000002004E04FF0E020006920F004004FF059
:1008A000E02108610A4880680A49B0FBF1F0C0F312
:1008B000CF00094908800846008800EB4001C1EBE1
:1008C000C0104FF6FF7101EAC0000449088070476C
:1008D0006811002040420F006E02002070020020CC
:1008E00001460F4A12884A434FF0E0235A61002222
:1008F0009A611A46126922F00102521C1A6100BF65
:100900004FF0E022106900F001021AB100F48032C9
:10091000002AF5D000224FF0E0231A619A61704757
:100920007002002001460F4A12884A434FF0E0232C
:100930005A6100229A611A46126922F00102521C81
:100940001A6100BF4FF0E022106900F001021AB1F5
:1009500000F48032002AF5D000224FF0E0231A6123
:100960009A6170476E020020436862F30F03436090
:10097000C16070470021002200F080520AB10121BD
:1009800000E0002111B1034B186001E0024B5860F8
:10099000704700000404024000000240002200F002
:1009A00000420AB1024900E0024948607047000075
:1009B0000004024000000240016821F001010160D2
:1009C0000021016041686FF30F01416000218160E7
:1009D000C1603849884204D10F21364A083A516033
:1009E00067E034491431884204D1F021314A083A91
:1009F00051605EE02F492831884205D14FF4706183
:100A00002C4A083A516054E02A493C31884205D1C9
:100A10004FF47041274A083A51604AE02549503165
:100A2000884205D14FF47021224A083A516040E0D3
:100A300020496431884205D14FF470011D4A083ABB
:100A4000516036E01B497831884205D14FF0706122
:100A5000184A083A51602CE01749884203D10F2107
:100A6000021F116025E014491431884204D1F0219D
:100A7000114A121F11601CE00F492831884205D12C
:100A80004FF470610C4A121F116012E00A493C31A8
:100A9000884205D14FF47041074A121F116008E0E7
:100AA00005495031884204D14FF47021024A121F87
:100AB000116070470800024008040240016821F0FC
:100AC000010101607047016821F00101491C0160CA
:100AD00070470000F0B503460024A4460025002618
:100AE000002701F0004401F0E0404FEA107C0CB117
:100AF0000F4A00E00F4A146804EA010008B1012619
:100B000000E00026ACF101008000C1401D6805F046
:100B10000E0501EA050008B1012700E00027012FBA
:100B200003D1012E01D10120F0BD0020FCE700001F
:100B3000000402400000024008B5014648680090E9
:100B4000009880B208BD2DE9F04704460D461646D0
:100B5000DDE9099ADDF820800B9F2046FFF72CFF86
:100B6000206820F480402060206868F345102060F1
:100B700020686AF304102060206820F08000803034
:100B80002060206820F040002060206867F38B2000
:100B90002060206867F309202060206869F30D3029
:100BA0002060606863F30F006060E560A660BDE8E8
:100BB000F08702680A430260704708B5036823F0B3
:100BC0000103036006E003680093009B03F0010348
:100BD00003B900E0F7E700BFC160436862F30F03A9
:100BE0004360036823F001035B1C036008BD08B584
:100BF000036823F00103036006E003680093009B91
:100C000003F0010303B900E0F7E700BFC1604368E8
:100C100062F30F034360036823F001035B1C03606E
:100C200008BD000030B50446042500F061F8054613
:100C3000042D16D10C48006920F00200801C0A49DE
:100C4000086108464461006920F0400040300861B6
:100C500000F04EF805460448006920F00200024901
:100C60000861284630BD0000002002400420094AE7
:100C7000D16801F001020AB101200AE001F010027E
:100C80000AB1022005E001F004020AB1032000E0ED
:100C900004207047002002400348006920F08000D3
:100CA00080300149086170470020024030B50023C0
:100CB00006E00388801C048843EA044410C1801CB9
:100CC000141EA2F10105AAB2F3D130BD054908698D
:100CD00000F0800121B10449024A5160034951608A
:100CE000704700000020024023016745AB89EFCD2B
:100CF00010B54FF0FF330424FFF7B8FF044603E0BC
:100D0000FFF7B4FF04465B1E012C01D1002BF7D185
:100D100003B90524204610BD2DE9F04104460D46D7
:100D2000164604274FF00008FFF7E2FF0746042F9E
:100D30002CD11848006920F00100401C15490861B9
:100D400000BF28882080FFF7D3FF0746042F09D172
:100D500004F102082868000CA8F80000FFF7C8FF9B
:100D6000074606E00B48006920F0010009490861C8
:100D700005E0701E86B2241D2D1D002EE1D100BF9E
:100D80000448006920F00100024908613846BDE8C6
:100D9000F081000000200240F0B5002300244D0740
:100DA000ED0E02FA05F308290BDA4E07F70E0F26AF
:100DB000BE40056AB5430562056A45EA030404625C
:100DC0000AE04E07F70E0F26BE40456AB54345625E
:100DD000456A45EA03044462F0BD2DE9F0430C4640
:100DE000079E00210025002700BF60E04FF0010CA6
:100DF0000CFA01F504EA0507AF4257D14FEA410961
:100E00004FF0030808FA09F8D0F800C02CEA080CE3
:100E1000C0F800C04FEA41094FF0030808FA09F88A
:100E2000D0F804C02CEA080CC0F804C04FEA41090D
:100E30004FF0030808FA09F8D0F80CC02CEA080CA7
:100E4000C0F80CC04FEA41094FF0030808FA09F84E
:100E5000D0F808C02CEA080CC0F808C04FEA4109D5
:100E60004FF0020808FA09F8D0F800C04CEA080C64
:100E7000C0F800C003FA01F8D0F804C04CEA080C2E
:100E8000C0F804C04FEA410802FA08F8D0F80CC0D4
:100E90004CEA080CC0F80CC04FEA410806FA08F802
:100EA000D0F808C04CEA080CC0F808C0491C10294A
:100EB0009CD3BDE8F083F0B50B460021002400254B
:100EC00000BF25E0012606FA01F403EA0405A54265
:100ED0001DD14FEA410C032707FA0CF70668BE4301
:100EE00006604FEA410C032707FA0CF7C668BE43B9
:100EF000C6604FEA410C002707FA0CF706683E432C
:100F000006604F0002FA07F7C6683E43C660491CF8
:100F10001029D7D3F0BD2DE9F0430C46079E0021E0
:100F20000025002700BF60E04FF0010C0CFA01F52E
:100F300004EA0507AF4257D14FEA41094FF00308D1
:100F400008FA09F8D0F800C02CEA080CC0F800C074
:100F50004FEA41094FF0030808FA09F8D0F804C035
:100F60002CEA080CC0F804C04FEA41094FF003080E
:100F700008FA09F8D0F80CC02CEA080CC0F80CC02C
:100F80004FEA41094FF0030808FA09F8D0F808C001
:100F90002CEA080CC0F808C04FEA41094FF00108DC
:100FA00008FA09F8D0F800C04CEA080CC0F800C0F4
:100FB00003FA01F8D0F804C04CEA080CC0F804C0E9
:100FC0004FEA410802FA08F8D0F80CC04CEA080CC5
:100FD000C0F80CC04FEA410806FA08F8D0F808C07B
:100FE0004CEA080CC0F808C0491C10299CD3BDE885
:100FF000F083028B0A430283704700F01F02012135
:1010000091404211920002F1E022C2F800117047B3
:1010100070B50346002000250F240B4E366806F4F9
:10102000E066C6F5E066C6F30720C0F10406F5B237
:10103000044101FA05F6F0B202EA0406304306075D
:10104000300E024EF05470BD0CED00E000E400E004
:10105000024949690143014A516170470010024049
:101060000249C9690143014AD16170470010024039
:10107000024909698143014A116170470010024029
:10108000024909690143014A116170470010024099
:10109000024989690143014A916170470010024089
:1010A0000249C9688143014AD1607047001002407B
:1010B0000249C9680143014AD160704700100240EB
:1010C000F0B5054600210022002300240020384E00
:1010D000367906F00C0121B1042906D0082922D165
:1010E00008E0344E344F7E6021E0334E3668324F94
:1010F0007E601CE02E4E7468C4F300447068C0F338
:1011000083400E2801D2801C00E010202CB12A4E12
:101110003668760806FB00F302E0264E4643730865
:10112000254E736003E0234E234F7E6000BF00BF57
:101130001F4E3679C6F30311204E725C1E4E766840
:10114000D6401D4FBE601A4EB688C6F302211C4E13
:10115000725C3E46B668D640FE60154EB688C6F351
:10116000C221174E725C3E46B668D6403E613E468E
:10117000B668FF68BE4204D10F4EF6680E4F7E611E
:1011800004E00D4EF66876000B4F7E610A4EB6689D
:10119000094F3F69BE4204D1074E3669064FBE6112
:1011A00004E0054E36697600034FBE61F0BD0000D5
:1011B0000010024000127A00681100209003002005
:1011C000A00300202DE9F04F82460F469046994635
:1011D000DDF824B0002400250026A848006840F46B
:1011E0007000A6490860A648006840F00100A449C4
:1011F000086008464068A3490840A149486008467D
:101200000068A14908409E4908600846006820F42B
:10121000802008600846406820F4FE0048600846C8
:10122000C06A20F00F00C8620846006B974908406A
:101230009349086300208860002F73D112209449DD
:1012400008608F48006820F00100401C8C4908604D
:1012500000BF00BF00BF6D1C8948046804F0020491
:101260001CB98C4800688542F5D38548046804F0B1
:10127000020414B90120BDE8F08F8148406820F0D5
:10128000F00070307E4948600846406869F30A20E3
:101290004860084640686BF3CD20486008464068C7
:1012A00020F48030486040464FEAE87108EB9171C5
:1012B000C1F38F06102E02DAB01E86B200E00F26B0
:1012C0006F48406866F395406D494860084600687D
:1012D00020F0807000F1807008600024002500BFBD
:1012E0006D1C6748046804F000741CB96948006804
:1012F0008542F5D96248046804F000740CB90220F4
:10130000B9E75F48406820F00300801C5C494860F2
:10131000002400BF5A48446804F00804082CF9D19E
:101320009FE0FFE75648C06A20F00F005449C862AA
:101330000846006820F47F00086000240025BAF108
:10134000010F06D10846006820F4802000F58020B7
:1013500008604B48006820F4803000F58030484930
:10136000086000BF6D1C4648046804F400341CB9D2
:10137000484800688542F5D34748784347490860A4
:101380003F48046804F400340CB9012073E7404876
:10139000006820F0100010303D49086008460068E1
:1013A00020F00700801C08603548406820F0F000FD
:1013B0007030334948600846406869F30A20486045
:1013C000084640686BF3CD2048600846406820F42A
:1013D000003000F5003048600846406820F4803056
:1013E00000F5803048600026384607EBD071491080
:1013F00098FBF1F18EB2102E02DAB01E86B200E038
:101400000F261F48406866F395401D49486008460E
:10141000006820F0807000F18070086000240025D2
:1014200000BF6D1C1648046804F000741CB919480C
:1014300000688542F5D31248046804F000740CB9C2
:10144000022018E70E48406820F00300801C0C4979
:101450004860002400BF0A48446804F00804082CCF
:10146000F9D1064980390A9808600D48091D0860BD
:101470000A48FFF725FE0020FDE6000088ED00E0A9
:10148000001002400CC07FF8FFFFF6FECCFC00FF0E
:1014900000200240A803002040420F0068110020F5
:1014A0000005FA0530B51C4611B90025058517E081
:1014B000164DA8420BD0164DA84208D0154DA84293
:1014C00005D0154DA84202D0144DA84202D1144DAA
:1014D000AB6901E0124D6B69B3FBF1F56D1E05853B
:1014E000B0F1804F01D1C26201E095B2C5620568DA
:1014F00025F440750560056864F304150560002552
:101500000561056825F00105056030BD002C01402E
:1015100000340140004001400044014000480140C7
:1015200068110020CA4392B20261704710B50446A8
:101530003448844206D14015FFF7BAFD6015FFF725
:10154000AFFD5EE0B4F1804F06D10120FFF798FDBA
:101550000120FFF78DFD54E02B48844206D1022084
:10156000FFF78EFD0220FFF783FD4AE02748844203
:1015700006D10420FFF784FD0420FFF779FD40E049
:101580002348844206D11020FFF77AFD1020FFF790
:101590006FFD36E01F48844206D12020FFF770FD22
:1015A0002020FFF765FD2CE01B48844206D1401443
:1015B000FFF77EFD6014FFF773FD22E017488442B9
:1015C00008D14FF48030FFF773FD4FF48030FFF700
:1015D00067FD16E01248844208D14FF40030FFF74F
:1015E00067FD4FF40030FFF75BFD0AE00D488442D1
:1015F00007D14FF48020FFF75BFD4FF48020FFF709
:101600004FFD10BD002C01400004004000080040C8
:101610000010004000140040003401400040014030
:101620000044014000480140016821F00101491CCB
:1016300001607047C2680A43C26070470162704728
:1016400010B5002200230A0C01249440A3B20362C7
:1016500010BD000010B504461D48844208D14FF467
:101660008040FFF725FD4FF48040FFF719FD2EE085
:101670001848844208D14FF40030FFF701FD4FF4C1
:101680000030FFF7F5FC22E01348844208D14FF404
:101690008020FFF7F5FC4FF48020FFF7E9FC16E00F
:1016A0000E48844208D14FF40020FFF7E9FC4FF4C4
:1016B0000020FFF7DDFC0AE00948844207D14FF41F
:1016C0008010FFF7DDFC4FF48010FFF7D1FC10BD58
:1016D000003801400044004000480040004C0040F9
:1016E00000500040816821F0400140318160704726
:1016F000816821F080018031816070470246D069A5
:10170000084008B1012070470020FCE72DE9F041B6
:1017100004460F4615461E46DDF81880206820F066
:10172000010020600020A060606866F30D306060FA
:10173000206868F34A202060206820F00400001D23
:101740002060206820F0080008302060606820F4E5
:10175000000000F500006060606900F07F40233009
:10176000606175B1012D15D0022D1ED1206820F4C5
:1017700080502060206820F0805000F18050206070
:1017800014E0206820F480502060206820F0805011
:1017900020600BE0206820F4805000F5805020602D
:1017A000206820F08050206000E000BF00BF394674
:1017B000204600F04FF84FF0FF302062206820F004
:1017C0000100401C2060BDE8F08130B500230024FA
:1017D0000022C1F30723CCB2012505FA04F2022B43
:1017E00003D145689543456008E0032B03D1856824
:1017F0009543856002E005689543056030BD30B5CE
:10180000002300240022C1F30723CCB2012505FAEE
:1018100004F2022B03D145681543456008E0032B11
:1018200003D185681543856002E0056815430560AE
:1018300030BD10B50B46002108E000BF047FC4F3A3
:10184000C014002CFAD05C5C8462491C9142F4D331
:1018500010BD000070B5002200230024056825F0AB
:1018600001050560184DA84202D1184D2A6901E012
:10187000164DEA680588C5F3C03545B15500B5FB7E
:10188000F1F35500B5FBF1F601FB165405E0B2FB90
:10189000F1F3B2FBF1F501FB1524B4EB510F00D3CA
:1018A0005B1C0588C5F3C03535B1C3F342044FF660
:1018B000F0751D4045EA04039DB2C560056825F03A
:1018C00001056D1C056070BD0038014068110020E5
:1018D00001460448082904DAC1EB4112034603EB30
:1018E000C2007047AC0300200020002100BF07E0C9
:1018F000054A12F81100012800D103E04A1CD1B2B8
:101900000A29F5DB00BF7047F01000201CB5044623
:101910000320034648220821CDE900040020FFF7F8
:1019200051FC1CBD10B5FEF7B5FF10BD10B5044647
:101930002046FEF7D5FF10BD10B504462046FEF741
:10194000F1FF10BD0146084B53F82120074B33F837
:101950001100136903400BB1012300E000230BB910
:10196000002070470120FCE7A80200207C38000816
:10197000054B53F82010054B33F810200B8B134305
:101980000B8300BF70470000740200202838000855
:10199000054B53F82010054B33F810204B8B1343A5
:1019A0004B8300BF704700007402002028380008F5
:1019B00010B504460F48FFF7B9FD1020FFF750FBA4
:1019C0001020FEF75FFF621E00230B490948FFF756
:1019D00069FD072200213620FFF71AFB3620FFF7AA
:1019E0000CFB01210348FFF725FE0248FFF71CFE10
:1019F00010BD00000010004040420F0070B50446CA
:101A00000D46164621780F4A52F821000E49FFF77D
:101A100017FE21780B4A52F821000C49FFF710FEFF
:101A20002178084A52F821004FF44071FFF708FE70
:101A30002178074A52F8210032462946FFF7D7F8A5
:101A400070BD0000E00200201A010B000602080031
:101A50001803002038B50446607808287DD2DFE8F6
:101A600000F0042345649B9CF1EF2178C34A52F8AF
:101A70002100FFF7EDFA012000902278C04B33F8E7
:101A80001210C04B53F8220000230122FFF7A5F9E2
:101A90002378BD4DEA5CBD4D35F81310B94D55F8AE
:101AA0002300FFF779F966E12178B44A52F8210062
:101AB000FFF7CEFA012000902278B14B33F81210D4
:101AC000B04B53F8220000230122FFF786F9237858
:101AD000AD4DEA5CAD4D35F81310AA4D55F8230015
:101AE000FFF75AF9204600F0E7FA44E12178A84AC6
:101AF00052F82100FFF7ACFA012000902278A54BA4
:101B000033F81210A44B53F8220000230122FFF7F0
:101B100064F923789C4DEA5CA04D35F813109E4D76
:101B200055F82300FFF738F925E12178984A52F853
:101B30002100FFF78DFA2178994A52F82100FFF72A
:101B400087FA012000902278964B33F81210964BBA
:101B500053F822000023012200E00BE1FFF7DBF93C
:101B60000120009022788B4B33F81210854B53F8EC
:101B7000220000230122FFF730F92378824DEA5C2E
:101B8000864D35F81310844D55F82300FFF704F9FE
:101B9000204600F0A5FAEEE000BF21787C4A52F81A
:101BA0002100FFF755FA2178744A52F82100FFF717
:101BB0004FFA21787A4A52F82100FFF749FA0120BA
:101BC00000902278774B33F81210774B53F82200AD
:101BD00000230122FFF79FF90120009022786D4B2E
:101BE00033F812106C4B53F8220000230122FFF748
:101BF000F4F8012000902278614B33F81210614B09
:101C000053F8220000230122FFF7E7F823785E4D06
:101C1000EA5C624D35F813105F4D55F82300FFF76D
:101C2000BBF82378584DEA5C584D35F81310554DE4
:101C300055F82300FFF7B0F8204600F03DFA9AE08F
:101C40003DE0FFE72178524A52F82100FFF700FA01
:101C500021784A4A52F82100FFF7FAF90120009052
:101C600022784C4B33F812104B4B53F822000023D0
:101C70000122FFF7B2F8012000902278404B33F8A0
:101C80001210404B53F8220000230122FFF7A5F861
:101C900023783D4DEA5C414D35F813103E4D55F823
:101CA0002300FFF779F82378374DEA5C374D35F894
:101CB0001310344D55F82300FFF76EF85BE02178E0
:101CC000334A52F82100FFF7C3F921782B4A52F822
:101CD0002100FFF7BDF92178314A52F82100FFF7C2
:101CE000B7F90120009022782E4B33F812102E4BBA
:101CF00053F8220000230122FFF70DF90120009084
:101D00002278244B33F81210234B53F8220000237F
:101D10000122FFF762F8012000902278184B33F877
:101D20001210184B53F8220000230122FFF755F838
:101D30002378154DEA5C194D35F81310164D55F8FA
:101D40002300FFF729F823780F4DEA5C0F4D35F893
:101D500013100C4D55F82300FFF71EF800BF227832
:101D6000104B33F81210104B53F82200FFF741F9D3
:101D700000BF00E000BF00BF38BD0000B43800085D
:101D8000BC380008F0020020A2380008C038000863
:101D9000A4380008AC380008E8020020B038000879
:101DA000C4380008CC380008F80200207FB504468B
:101DB0002046FFF74FFE2078884951F820008849D7
:101DC000884206D12178874A52F82100FFF760F94E
:101DD00005E02178834A52F82100FFF741F9217884
:101DE0007E4A52F82100FFF735FC60790090237994
:101DF000E278A5787C4E56F825102578774E56F86F
:101E00002500FFF783FC6078002855D0A0790228D0
:101E10003AD12178754A52F82100FFF719F90020CC
:101E200001210222CDE90002CDE9021023783546D6
:101E300055F8233003F1280223786D4D55F823001F
:101E400000236169FEF77FFE2178324652F82100B7
:101E5000FFF74EFC2178674A52F82100FEF79EFDFD
:101E60002178654A505C01220021FFF7D1F82178E2
:101E7000614A505CFFF7C1F821782A4652F82100E8
:101E80000221FEF796FE17E0A079012814D12178EF
:101E90005A4A505C00221146FFF7BAF821784F4A9F
:101EA00052F821005649FFF7CBFB21784B4A52F8F4
:101EB00021005349FFF7A3FC6078022851D0A07994
:101EC00002284FD121784F4A52F82100FFF7C0F87D
:101ED00000200222CDE900020290039023783F4DBA
:101EE00055F8233003F124022378474D55F8230099
:101EF0000023A169FEF727FE2178384A52F8210015
:101F0000FFF7F0FBA28B2046A169FFF777FD217850
:101F1000324A52F821003D49FFF792FB2178374AB7
:101F2000505C01220021FFF773F82178334A505C9E
:101F3000FFF763F82178294A52F821003349FFF767
:101F40005EFC2178254A52F821004FF44071FFF7DA
:101F500077FB2178214A52F821004FF44071FFF7B6
:101F60004EFC3AE0A079012837D12178234A505C11
:101F700001220021FFF74CF82178204A505CFFF73E
:101F80003CF82178154A52F821002149FFF758FB07
:101F90002178124A52F821001C49FFF751FB2178A1
:101FA0000E4A52F821001A49FFF729FC21780B4A02
:101FB00052F821001549FFF722FC2178074A52F810
:101FC00021004FF44071FFF73BFB2178034A52F8A0
:101FD00021004FF44071FFF712FC7FBDE0020020AA
:101FE0000038014098380008EC380008D038000864
:101FF00008030020DC380008D8380008A0380008A2
:1020000007010700E4380008180300201A010B003C
:102010000501050010B50446A079012807D12178F3
:10202000084A52F821000849FFF7CFFB09E0A079E0
:10203000022806D12178034A52F821000349FFF70C
:10204000C4FB10BDE0020020050105001A010B00D1
:1020500010B50446A079012807D12178084A52F822
:1020600021000849FFF7CBFB09E0A079022806D13F
:102070002178034A52F821000349FFF7C0FB10BD45
:10208000E0020020050105001A010B0070B50446AE
:102090000D460A2D0ADAA570A278054B53F82210D6
:1020A0002278044B53F82200FFF7D4FB70BD0000E8
:1020B000EC380008E002002010B50378054C54F815
:1020C0002310054C34F813204B8B13434B8300BF74
:1020D00010BD0000F8020020CC3800087047000056
:1020E00010B504462278044B33F81210034B53F812
:1020F0002200FEF77EFF10BDCC380008F802002059
:102100002DE9F04104460D461646E079012809D133
:102110002178394A52F82100FEF70EFD10B1012056
:10212000BDE8F0816078042802D06078052802D1EB
:102130002046FFF7D5FFA07930BB0120E071217860
:102140002E4A52F8210032462946FFF772FB60788A
:10215000042802D06078052813D100BF2178274ACF
:1021600052F821004021FFF7C9FA0028F6D1204695
:10217000FFF7A2FF2178214A52F821004021FFF702
:102180005DFA0020E07134E0A079012817D1002029
:10219000608126816069A84200D065612178174A74
:1021A00052F821001649FFF74BFA2178134A52F8EA
:1021B00021001349FFF723FB0120E07119E021788A
:1021C000104A52F82100FEF7D5FB45B92289237841
:1021D000094F57F823006169FEF7EFFC07E021780B
:1021E000054A52F8210032462946FEF7E6FC012056
:1021F000E071002094E7000008030020E0020020C6
:1022000007010700DC380008F0B589B0334E00251F
:102210000024002700BF05E0002001A941F82400A8
:10222000601CC4B2082CF7DB002544E0192D3DDA10
:10223000002405E0611DC8B2FFF7AAFB601CC4B210
:10224000082CF7DB0A20FFF777FB002405E0611D6F
:10225000C8B2FFF78DFB601CC4B2082CF7DB0A2064
:10226000FFF76AFB002414E001A850F824004000A6
:1022700001A941F82400211DC8B2FFF763FB0746FE
:1022800001A850F82400384401A941F82400601C3A
:10229000C4B2082CE8DB002405E0611DC8B2FFF7DA
:1022A00077FB601CC4B2082CF7DB02E01420FFF7B8
:1022B00043FB681CC5B21B2DB8DB00240AE001AA51
:1022C00052F82410C4EB441206EBC20000F030FBBD
:1022D000601CC4B2082CF2DB09B0F0BDAC030020D6
:1022E00070B50024074DFFF78FFF00BF07E0C4EB78
:1022F000441105EBC10000F075F8601CC4B2082C55
:10230000F5DB70BDAC03002070B50024002500266D
:102310003248007805285AD2DFE800F00307152676
:102320004F0001202D49087055E0002405E0611D93
:10233000C8B2FFF71DFB601CC4B2082CF7DB0220FB
:102340002649087047E0002405E0611DC8B2FFF788
:102350001FFB601CC4B2082CF7DB03201F49087068
:1023600000201F49087036E01D480078801C1C4979
:10237000087008460078B0F5FA7F05DB0020087089
:1023800001201649087017E0002409E0211DC8B299
:10239000FFF7D8FA012801D1012503E0601CC4B27F
:1023A000082CF3DB00BF012D03D103200B4908707B
:1023B00002E00420094908700DE0FFF791FF0320B7
:1023C00006490870002006490870012603E0012034
:1023D0000249087000BF00BF304670BD1B000020DE
:1023E0001C0000200021DFED2A0AB0EE600A82788E
:1023F000012A4CD10022C26200BF07E0021D52F840
:102400002120C36A1A44C2624A1CD1B20A29F5DBF0
:102410000A23C26A92FBF3F20263002114E0D0F8AF
:10242000EC203AB900F1400252F82120036B9342AC
:1024300008DC0BE000F1400252F82120036B9342CC
:1024400000DB03E04A1CD1B20A29E8DB00BF00F13F
:10245000900202EB8102D2ED000AB0EE600AD0EDEC
:102460000C0AF8EEE00A60EE800AB0EE600A00F1B5
:10247000BC0202EB8102D2ED000A70EE800AB0EEDF
:10248000600AD0ED3C0AC0ED3D0A80ED3C0A704781
:102490000000000001460020044A082904DAC1EBCC
:1024A000411302EBC303186B70470000AC0300201C
:1024B000DFED0B0AB0EE600A0A4908280FDAC0EB1C
:1024C000401201EBC202D2ED3C0AC0EB401201EB1C
:1024D000C20292ED3A1A70EEC10AB0EE600A70477D
:1024E00000000000AC03002030B545490020002367
:1024F000002200BF80E0C0EB401401F8340000244B
:10250000C0EB401501EBC505AC70C0EB401501EB0D
:10251000C505EC70C0EB401501EBC505EC62C0EBE6
:10252000401501EBC5052C63002309E00025C0EB35
:10253000401401EBC404241D44F823505C1CE3B296
:102540000A2BF3DB002212E02E4C54F82250C0EB91
:10255000401401EBC404683444F822500025C0EB59
:10256000401401EBC4043434A554541CE2B20A2ACA
:10257000EADB002217E09FED240AC0EB401401EBD8
:10258000C404903404EB820484ED000A9FED1F0A1A
:10259000C0EB401401EBC404BC3404EB820484EDB2
:1025A000000A541CE2B20B2AE5DB9FED190AC0EBCE
:1025B000401401EBC40484ED3A0A0024C0EB40153A
:1025C00001EBC505C5F8EC409FED110AC0EB4014C6
:1025D00001EBC40484ED3C0A9FED0D0AC0EB4014EE
:1025E00001EBC40484ED3D0A0124C0EB401501EB6E
:1025F000C5056C70441CE0B20828FFF67CAF30BD06
:10260000AC030020CC350008124DA03AE1DA85C3B6
:102610000000000070B50024284D00BF4BE004EB23
:10262000440115F81100FFF78DF904EB440105EBA7
:102630004101087104EB440005EB4000C07804EB55
:10264000440105EB41010979884222D104EB4400A1
:1026500005EB40008078401C04EB440105EB410190
:10266000887004EB440005EB40008078322816DBCC
:10267000322004EB440105EB4101887004EB440077
:1026800005EB4000007904EB440105EB4101487182
:1026900005E0002004EB440105EB4101887004EBE8
:1026A000440005EB4000007904EB440105EB4101D7
:1026B000C870601CC4B2022CB1DB70BD5C1100207C
:1026C0000020144900BF22E000F10C0200EB40039F
:1026D00001F81320002200EB400301EB43039A7042
:1026E00000EB400301EB4303DA7000EB400301EB26
:1026F00043031A7100EB400301EB43035A710122BB
:1027000000EB400301EB43035A70421CD0B2022895
:10271000DADB70475C1100202DE9F0470546204EBA
:102720000024A046A1460027012D37D100BF0BE0B1
:102730001C48005D315D884204D0305D1949085560
:102740004FF00109601CC4B2042CF1DBB9F1010F98
:1027500024D100241CE01348075D4FF0000812E06C
:1027600007F0010018B10020FFF702F902E0002095
:10277000FFF70EF97F1001210320FDF77FFE08F11E
:10278000010000F0FF08B8F1080FE9DB601CC4B2DB
:10279000042CE0DB01210220FDF770FEBDE8F0878C
:1027A000080000201700002010B50020FFF7E0F817
:1027B0000120FFF7DDF80220FFF7EAF80320FFF71A
:1027C000E7F80420FFF7E4F80120FFF7D1F8002133
:1027D0000420FDF753FE01210220FDF74FFE0120EA
:1027E000FFF7D6F810BD00F0EDFCFFF769FFFFF72B
:1027F000DBFFFFF779FE00F0D7FB00F003F800BF26
:10280000FEE700002DE9F047ADF5B16D002640F27E
:10281000845101A8FDF74CFD0027B046B246B146F1
:102820000024002540F2611201A94048FEF73EFA5B
:10283000DDF884A54FF4B06101A8FDF7DBFF50453A
:1028400070D100BF00BF00BF69E009F0FF00FFF7D3
:102850003FF806462C4604F10A0085B206F140070F
:1028600005E001A850F8240001C7601C84B2AC4206
:10287000F7DB2C4604F10A0085B206F1680705E093
:1028800001A850F8240001C7601C84B2AC42F7DBF9
:102890002C4604F10B0085B206F1900808E001A86F
:1028A00000EB840090ED000AA8EC010A601C84B2E1
:1028B000AC42F4DB2C4604F10B0085B206F1BC08F7
:1028C00008E001A800EB840090ED000AA8EC010AE2
:1028D000601C84B2AC42F4DB2C46601C85B206F16D
:1028E000E80808E001A800EB840090ED000AA8ECDD
:1028F000010A601C84B2AC42F4DB2C46601C85B239
:1029000006F1EC0705E001A850F8240001C7601C9F
:1029100084B2AC42F7DB09F101001FFA80F9B9F18A
:10292000080F92DB0DF5B16DBDE8F08700F00308EC
:1029300010B5C2780A2A03DB0022C270012282701D
:10294000B1F1807F09D36FF07E42521A521C53427C
:10295000C478021D42F8243003E0C378021D42F817
:102960002310C278521CC27010BD000010B5024680
:102970000020034B12B9197201241C7010BD000015
:10298000200000202DE9F84F074688464FF0000A46
:1029900000250026002000908346514CA4F80E72BA
:1029A0000FFA88F0A4F81202B4F80E024FF6FF7185
:1029B000884270D0B4F80E02C91188420BD1B4F924
:1029C0001202082806DCB4F81202A4F8160201204C
:1029D000A4F814027DE0B4F80E02B0F5007F30DBFD
:1029E000B4F80E0240F20A2188422ADA4FF0010AB6
:1029F000B4F80E02A0F50070A4F8180294F818625A
:102A0000B4F9121204F5077040F82610B4F9120256
:102A10000090B4F8160258B9002506E03146284661
:102A2000009A00F00BFB681CC5B2082DF6DB50E0E5
:102A300094F81612491EC8B23146009A00F0FEFA08
:102A400047E0B4F80E02B0F5057F42DBB4F80E02A1
:102A500040F21E2188423CDA4FF0010A94F80E023F
:102A6000A0F50570C6B2B4F81602A8B994F816021B
:102A7000FFF710FD8146C01709EBD0504FEA602BDD
:102A8000002505E03146284600F0ACFB681CC5B2C5
:102A9000082DF7DB17E020E0B4F81602082812DA58
:102AA00094F81612491EC8B2FFF7F4FC8146C0170D
:102AB00009EBD0504FEA602B94F81612491EC8B2A9
:102AC000314600F08FFB0FFA8BF20121304600F007
:102AD00009F84FF6FF70A4F80E025046BDE8F88FD3
:102AE0002000002010B50A280ADA0123054C24F83A
:102AF000103004F1140323F81010143323F81020BD
:102B000010BD0000F01000202DE9F04104460D46F4
:102B100016464FF000080027FF2C32DA6019002813
:102B20002FDD6019FF282CDAA520174981F80A014A
:102B30005A21154880F80B11032180F80C118121CE
:102B400080F80D1180F80E4180F80F51012E0FD141
:102B5000032100F20D10FDF74DFE074638120A4919
:102B600081F81001084680F811714FF0080801E063
:102B70004FF006080449486849684246CB6A034951
:102B80009847BDE8F0810000200000202A010020C5
:102B90002DE9F04104460D4616464FF00008002787
:102BA0004FF6FF7084423ADA6019002837DD601969
:102BB0004FF6FF71884232DAA5201A4981F80A01DE
:102BC0005A21184880F80B11042180F80C11832138
:102BD00080F80D11210A80F80E1180F80F4180F85D
:102BE0001051012E0FD1042100F20D10FDF702FE4D
:102BF000074638120B4981F81101084680F8127116
:102C00004FF0090801E04FF0070806494868496895
:102C10004246CB6A044998470120FEF787FEBDE88B
:102C2000F0810000200000202A010020082804DA9A
:102C300000F10802014B23F8121070472C110020FC
:102C40002DE9F05F05460F46144698460026B1462A
:102C5000B346B2464FF6FF7085425ADA281900286B
:102C600057DD28194FF6FF71884252DAA5202A490C
:102C700081F80A015A21284880F80B116000C01C15
:102C8000C1B2254880F80C11822180F80D11290A63
:102C900080F80E1180F80F5100BF10E037F8021BCA
:102CA0001FFA81F94FEA29217000801D1B4A115437
:102CB0007000C01D114601F80090701C86B2A6423B
:102CC000ECDBB8F1010F16D16000C11C1348C01C29
:102CD000FDF790FD82464FEA2A216000801D0F4AD1
:102CE00011546000C01D114601F800A060000830BA
:102CF0001FFA80FB03E06000801D1FFA80FB06497D
:102D0000486849685A46CB6A044998470120FEF74B
:102D10000DFEBDE8F09F0000200000202A010020E9
:102D200010B504460548D0F84402401C0349C1F8D8
:102D3000440200F005F800F0A9F810BD20000020C2
:102D40002DE9F84F4FF00008C14600250020009003
:102D5000824683460024002600274B4890F80C0248
:102D600001287AD14848807AA52877D14648C07A88
:102D70005A28FAD14448B0F80A02062872DB4248C1
:102D8000B0F80A02C01E4049097B88426AD13E4819
:102D9000407B802806D0812805D0822825D0832832
:102DA0005ED123E05DE0384890F80F90007BC01EB4
:102DB000484519D1002000903348807B00900025C1
:102DC00010E04FF0000AA81D2F490A3111F800A0A9
:102DD0005146009A2A44D0B2FFF7C8FD40EA0808DD
:102DE000681C85B24D45ECDB3BE03AE0264890F8A4
:102DF00010B00146097B081F00EBD071BBEB610FDF
:102E00002AD100262048867B4FF6FF7000EA06266E
:102E100006F47F461C48C07B304486B2002419E08B
:102E200000276000C01D18490A310F5C4FF6FF7083
:102E300000EA072707F47F4760000830085C384441
:102E400087B2311988B23946FFF79CFD40EA08087D
:102E5000601C84B25C45E3DB03E013E00EE001E0BC
:102E600000BF00BFB8F1010F08D10748D0F84402F5
:102E700041F28831884201D900F0F2F8002002497D
:102E800081F80C02BDE8F88F200000207FB5404D8E
:102E9000002440480088401C3E49088000BF00BF15
:102EA00022E02046FFF704FBF6EE000A30EE200A8F
:102EB000BDEEC00A10EE100A00B22DF814003DF865
:102EC000140025F814003DF91400334931F91410A9
:102ED000884207D03DF814002F4921F81400012042
:102EE0002E490870601CC4B2082CDADBFEF7FCFC2B
:102EF000012804D02A48B0F81402012819D1FEF79D
:102F0000F3FC012801D1FDF799FC2548B0F8140223
:102F1000012805D1FDF7A0FC00202149A1F81402E9
:102F2000204D00231422294640F20A20FFF788FE94
:102F30002DE0184800884FF47A7190FBF1F201FB04
:102F40001200B0B91648007828B9002201211046B5
:102F5000FFF7DAFD1BE012480078012817D10022A4
:102F60000B2140F2FF10FFF713FE02200C490870FE
:102F70000DE00A480078012809D1002007490870AF
:102F80000023102229464FF4B070FFF759FE7FBD91
:102F90002C1100206A0200204C1100206C0200203D
:102FA000200000200411002010B5002400201F493B
:102FB00008701F48486000200872487201F20A2019
:102FC0004968C860801C194949680861A0F202205C
:102FD00016494968486115494968886100201349C4
:102FE000A1F80A0281F80C024FF6FF70A1F80E0258
:102FF0000020A1F81002A1F81202A1F81402A1F811
:103000001602A1F8180200BF07E00A4850F8241081
:10301000094840F82410601CC4B20A2CF5DB034AAE
:1030200050685268116A884710BD000020000020D7
:1030300058030020CC3500083C02002030B5074B77
:1030400008280ADA0A2908DAC0EB40141D4605EB05
:10305000C40303F1680444F8212030BDAC03002010
:103060002DE9F84F0027544EBB46B846B94600201C
:10307000009082460024002500BF78E00AF0FF009F
:10308000FEF726FC07462C4604F10A0085B207F13C
:10309000400808E0B4F5B07F03DA58F8040B46F8AE
:1030A0002400601C84B2AC42F4DB2C4604F10A001C
:1030B00085B207F1680808E0B4F5B07F03DA58F884
:1030C000040B46F82400601C84B2AC42F4DB2C46AE
:1030D00004F10B0085B207F190090AE0B4F5B07F66
:1030E00005DAB9EC010A06EB840080ED000A601CE9
:1030F00084B2AC42F2DB2C4604F10B0085B207F13E
:10310000BC090AE0B4F5B07F05DAB9EC010A06EBB8
:10311000840080ED000A601C84B2AC42F2DB2C46D5
:10312000601C85B207F1E8090AE0B4F5B07F05DA62
:10313000B9EC010A06EB840080ED000A601C84B241
:10314000AC42F2DB2C46601C85B207F1EC0808E0CB
:10315000B4F5B07F03DA58F8040B46F82400601C7D
:1031600084B2AC42F4DB0AF101001FFA80FABAF132
:10317000080F83DBB346A1005846FDF73BFB0090E8
:10318000009846F82400601C84B2B4F5B17F10DAD0
:103190000A480088401C09490880FDF797FD084847
:1031A000FDF740FD224631460548FDF7B5FDFDF728
:1031B00073FDBDE8F88F00006C0B00206802002052
:1031C00000F0030870B54FF0006400256019FEF7A9
:1031D0009DFBFEF7A7FB00F0BBF94FF47A70FEF7FA
:1031E000E7FB70BD30B502467B489FED7C1AB0EE20
:1031F000410A9FED7A1AF0EE410A082A7EDA0A297E
:10320000FCDAC2EB4213044604EBC30000F14003B6
:10321000046B43F8214001240C3B5C5400296ED020
:103220004B1E00F13404E35C012B10D100F140038C
:1032300053F821504B1E0C3454F823309D4203DDCB
:103240000023C0F8EC3002E00123C0F8EC309FED21
:10325000631AB0EE410A00F1680353F821504B1E87
:1032600000F1680454F82330EB1A01EE103AB8EE7E
:10327000C11AB0EE410A00F1400353F821504B1E31
:10328000283C54F82330EB1A01EE103AB8EEC11A7C
:10329000C0EE011AB0EE610A00F1680353F8213064
:1032A00001EE103AB8EEC11A234653F8213001EE70
:1032B000903AF8EEE11A00EE611AF0EE410A00F1E0
:1032C000900303EB810383ED000A00F1BC0303EBE1
:1032D0008103C3ED000A092945DA9FED401AB0EEDB
:1032E000410A00F168034C1C53F8244053F8213084
:1032F000E31A01EE103AB8EEC11A01E06AE032E0DA
:10330000B0EE410A00F140034C1C53F8244053F83E
:103310002130E31A01EE103AB8EEC11AC0EE011ADC
:10332000B0EE610A00F168034C1C53F8243001EE42
:10333000103AB8EEC11A00F1400353F8243001EE00
:10334000903AF8EEE11A00EE611AF0EE410A00F14F
:10335000900303EB840383ED000A00F1BC0303EB4D
:103360008403C3ED000A012918D100F1900303EB97
:10337000810393ED001A4B1E00F1900404EB8303CC
:1033800083ED001A00F1BC0303EB810393ED001AF7
:103390004B1E2C3404EB830383ED001A092919D149
:1033A00000F1900303EB810393ED001A00F1900309
:1033B0004C1C03EB840383ED001A00F1BC0303EB08
:1033C000810393ED001A00F1BC034C1C03EB840352
:1033D00083ED001A30BD0000AC03002000000000A7
:1033E000F0B58BB00646002500240127202101A856
:1033F000FCF75EFF012E7DD100BF0BE009A845550B
:103400002846FFF755F801A800EB850080ED000A7B
:10341000681CC5B2082DF1DB082209A901A8FCF738
:10342000ABFF00248EE001A9601C01EB800090ED51
:10343000000A01A800EB8400D0ED000A30EE600A1B
:10344000F0EE000AB4EEE00AF1EE10FA60D2601C71
:1034500001EB800090ED000A01A800EB8400D0EDA4
:10346000000A30EE600AF8EE000AB4EEE00AF1EE6F
:1034700010FA4DDD01A800EB840090ED000AF8EE93
:10348000000AB4EEE00AF1EE10FA0BD301A800EB4B
:10349000840090ED000AF0EE000AB4EEE00AF1EECE
:1034A00010FA35DD01A9601C01EB800090ED000AE7
:1034B000F8EE000AB4EEE00AF1EE10FA0BD3601C4D
:1034C00001EB800090ED000AF0EE000AB4EEE00A95
:1034D000F1EE10FA1CDD09A9085D3946FCF7FAFF88
:1034E00009A9085D3946FFF7A1FB09AA611C505CD8
:1034F000394600E029E0FCF7EDFF09AA611C505CA9
:103500003946FFF793FB601CC4B2781CC7B217E0C2
:1035100009A9085D0021FCF7DDFF09A9085D00216C
:10352000FFF784FB062C0BD109AA611C505C00211B
:10353000FCF7D0FF09AA611C505C0021FFF776FB65
:10354000601CC4B2072CFFF66EAF0BB0F0BD0000DC
:1035500038B500240EE0144951F82400FDF778FD39
:10356000124A32F81410124A52F824000022FDF7D1
:10357000A2FC641C0E2CEED3002411E00D4951F87E
:103580002400FDF765FD00200B4A009032F814106E
:103590000A4A52F8240000230122FDF7BCFC641CF7
:1035A0000D2CEBD338BD0000443800087C380008EF
:1035B000A8020020F4370008283800087402002010
:1035C0004FF04070E1EE100A70470000000000006C
:1035D0003200000064000000C8000000F401000098
:1035E000E8030000D0070000B80B0000A00F0000A7
:1035F0008813000000C1814001C0804101C08041AA
:1036000000C1814001C0804100C1814000C18140B2
:1036100001C0804101C0804100C1814000C18140A2
:1036200001C0804100C1814001C0804101C0804192
:1036300000C1814001C0804100C1814000C1814082
:1036400001C0804100C1814001C0804101C0804172
:1036500000C1814000C1814001C0804101C0804162
:1036600000C1814001C0804100C1814000C1814052
:1036700001C0804101C0804100C1814000C1814042
:1036800001C0804100C1814001C0804101C0804132
:1036900000C1814000C1814001C0804101C0804122
:1036A00000C1814001C0804100C1814000C1814012
:1036B00001C0804100C1814001C0804101C0804102
:1036C00000C1814001C0804100C1814000C18140F2
:1036D00001C0804101C0804100C1814000C18140E2
:1036E00001C0804100C1814001C0804101C08041D2
:1036F00000C1814000C0C101C30302C2C60607C7A2
:1037000005C5C404CC0C0DCD0FCFCE0E0ACACB0B11
:10371000C90908C8D81819D91BDBDA1A1EDEDF1F41
:10372000DD1D1CDC14D4D515D71716D6D21213D331
:1037300011D1D010F03031F133F3F23236F6F737E1
:10374000F53534F43CFCFD3DFF3F3EFEFA3A3BFBD1
:1037500039F9F83828E8E929EB2B2AEAEE2E2FEF81
:103760002DEDEC2CE42425E527E7E62622E2E323F1
:10377000E12120E0A06061A163A3A26266A6A76721
:10378000A56564A46CACAD6DAF6F6EAEAA6A6BAB91
:1037900069A9A86878B8B979BB7B7ABABE7E7FBFC1
:1037A0007DBDBC7CB47475B577B7B67672B2B373B1
:1037B000B17170B050909151935352929656579761
:1037C000559594549C5C5D9D5F9F9E5E5A9A9B5B51
:1037D00099595898884849894B8B8A4A4E8E8F4F01
:1037E0008D4D4C8C44848545874746868242438371
:1037F000418180400000080000000800000008002F
:1038000000000800000008000000020000000200A4
:1038100000000200000002000000020000000200A0
:103820000000020000000200010004000800100077
:1038300020000100020004000800100020004000E9
:1038400080000000000008000000040000000400E8
:103850000000040000000400000004000000040058
:103860000000040000000400000004000000040048
:10387000000004000000040000000400020000201A
:103880000040008001000200040008001000200039
:103890004000800000010002000010000000040051
:1038A000352705070000080000000800001000048C
:1038B0000C000A00000010000000080004000008CE
:1038C00002000B00000000000000040000000004E3
:1038D00001000000010000000E0C0000002000406C
:1038E000200000200100000001000000C0120000C4
:1038F00080250000004B00000096000000E1000061
:1039000000C2010040420F0080841E00C0C62D008E
:1039100000093D003439000800000020AC0300001D
:10392000C4010008AC390008AC030020441E0000AC
:10393000200200080114D4E8030113580302FF20F9
:1039400001FF810345FFFF1208FA480421091C0406
:1039500029240A31040412501A40067A40687A0C6D
:1039600070212920112B0240041A44045A1C0C29EE
:10397000041A58042A300C1406010103160202220C
:103980001013AD1D14088D201B08DD041301211B2D
:103990000851082A150C33050509303881680901DA
:0C39A000020304060708090C1AFF0100CE
:040000050800018965
:00000001FF
