:020000040800F2
:10000000E01A00206902000877020008790200085F
:100010007B0200087D0200087F020008000000004B
:100020000000000000000000000000008102000845
:100030008302000800000000850200088702000813
:100040008902000889020008890200088902000864
:100050008902000889020008890200088902000854
:100060008902000889020008890200088902000844
:10007000B903000889020008F50300088902000896
:100080008902000889020008890200088902000824
:100090008902000889020008890200088902000814
:1000A0008902000889020008890200088902000804
:1000B00089020008890200088902000889020008F4
:1000C00089020008890200088902000889020008E4
:1000D000890200087D05000889020008C906000899
:1000E00089020008890200088902000889020008C4
:1000F00089020008890200088902000889020008B4
:10010000000000000000000000000000890200085C
:1001100089020008890200086905000889020008B0
:100120008902000889020008890200088902000883
:100130008902000889020008000000000000000099
:1001400089020008890200088902000800000000F6
:10015000000000000000000000000000000000009F
:100160000000000000000000890200088902000869
:1001700089020008000000000000000000000000EC
:10018000000000008902000800F002F800F05CF8AE
:100190000AA090E8000C82448344AAF10107DA45E2
:1001A00001D100F051F8AFF2090EBAE80F0013F0D8
:1001B000010F18BFFB1A43F0010318474C2C000035
:1001C0006C2C00000A444FF0000C10F8013B13F0B7
:1001D000070408BF10F8014B1D1108BF10F8015BA0
:1001E000641E05D010F8016B641E01F8016BF9D193
:1001F00013F0080F1EBF10F8014BAD1C0C1B09D1EA
:100200006D1E58BF01F801CBFAD505E014F8016B5B
:1002100001F8016B6D1EF9D59142D6D370470000ED
:100220000023002400250026103A28BF78C1FBD8FF
:10023000520728BF30C148BF0B6070471FB502F09E
:100240004DFC1FBD10B510BD00F035F81146FFF78D
:10025000F5FF02F00CFA00F053F803B4FFF7F2FFD9
:1002600003BC00F05BF800000B48016841F470012A
:1002700001600A480047FEE7FEE7FEE7FEE7FEE70B
:10028000FEE7FEE7FEE7FEE7FEE70000044805495B
:10029000054A064B7047000088ED00E08901000820
:1002A000E00A0020E01A0020E0120020E012002006
:1002B000704770477047754600F02CF8AE46050051
:1002C0006946534620F00700854618B020B5FFF771
:1002D000DDFFBDE820404FF000064FF000074FF073
:1002E00000084FF0000B21F00701AC46ACE8C00954
:1002F000ACE8C009ACE8C009ACE8C0098D4670475D
:1003000010B50446AFF300802046BDE81040FFF76B
:10031000A4BF0000004870477C0A00200149182053
:10032000ABBEFEE72600020070470000F0B50346B2
:10033000002500240020DFED1F0AB0EE600A002631
:1003400000BF33E0002501202AE003EB8007D7ED52
:10035000000A471E03EB870797ED001AF4EEC10A67
:10036000F1EE10FA1BD2471E03EB8707D7ED000A08
:10037000B0EE600A03EB8007D7ED000A471E03EBDF
:100380008707C7ED000A03EB800787ED000A471EC9
:10039000CE5D11F800C001F807C00E540125401CC5
:1003A000171B8742D1DC05B9F0BD641C9442C9DB40
:1003B00000BFF9E70000000010B50A4A51680A4A78
:1003C000506800F0B7FB60B10749486800F0A6FB31
:1003D00006494868064901F088F90249486800F072
:1003E0000DFB10BDD02D0008C00200209802002097
:1003F0000601060010B50A4A11680A4A106800F0A2
:1004000099FB60B10749086800F088FB0649086855
:10041000064901F06AF90249086800F0EFFA10BDD8
:10042000D02D0008C002002098020020060106001E
:1004300070B505460C466426012C12D1284601F001
:10044000F9F9304600F08AF8284601F0E3F9304621
:1004500000F084F8284601F0EDF9304600F07EF80F
:1004600011E0284601F0D6F9304600F077F828462A
:1004700001F0E0F9304600F071F8284601F0CAF9C1
:10048000304600F06BF870BDF0B502460C46002710
:10049000002500230026002134B1012C06D0022CB7
:1004A00006D0032C08D105E0082507E0012505E06A
:1004B000022503E0042501E0002500BF00BF082A53
:1004C00022DAC2F1070000EBD07CCCF347030F48DF
:1004D000C15C042B18DAC2F1070000EBD07C4FEAB4
:1004E0006C0CA0EB4C0C0CF0FF06012E03D101F0BC
:1004F000F001294305E001F00F01F02000EA0510AA
:1005000001430248C15401273846F0BD0F000020C6
:1005100070B5054600240F480088B5FBF0F100FBDC
:100520001150A8B900BF06E00B4801782046FFF73C
:10053000ABFF601CC4B2082CF6DB07480078401CF7
:100540000549087008460078042801DB002008707F
:1005500070BD00000C0000200E00002000E0401ED6
:100560000028FCD17047000010B50121024800F0BE
:100570004FFF00F025F910BD001000401CB54B489E
:100580000068C06901900198C0F3C02010B34749CA
:100590000868474900F0CAFF4649086800F0BEFAFB
:1005A0004449086800F0F8FA4349898B081A42491F
:1005B000C968088001204049096908703E4B9A8B40
:1005C00099693C4B186800F0FFF93A49086800F057
:1005D000AAFA69E00198C0F34010B0B13349086845
:1005E000364900F0A3FF31490868416A009100993B
:1005F000C9B23148C06802882F48C068801C2E4BA1
:10060000D8601846806981544EE00198C0F3C0104C
:1006100020B90198C0F38010002844D00198C0F39D
:10062000801098B121490868254900F07FFF00201B
:100630002149C87108464078042803D0084640780C
:10064000052831D11C4801F089FC2DE00198C0F348
:10065000C01038B3154908681A4900F067FF1648FA
:1006600040891549098988420FDB104908681549F6
:1006700001F021F80D490868114900F057FF0B49B6
:1006800008680F4901F031F80EE0084A10680A4A7C
:1006900053895289521C084C628122465269D15CAE
:1006A000816200BF00E000BF1CBD00009802002076
:1006B0001A010B00D0020020D8020020050105001D
:1006C00006010600070107001CB538484068C069EC
:1006D000019036484068006800900198C0F3C0203F
:1006E00060B30098C0F3806040B330494868304937
:1006F00000F01CFF2F49486800F010FA2D494868A7
:1007000000F04AFA2C49B1F85410081A81B22A486C
:10071000406C018001212848806C017026483830E7
:1007200000F0DAF8244BB3F85420196D214B5868C7
:1007300000F04AF91F49486800F0F5F90098C0F345
:100740008010C8B10198C0F38010A8B1174948685B
:100750001A4900F0EBFE0021174880F83F1090F88E
:100760003900042804D0144890F83900052803D132
:100770001148383001F0F2FB019800F0010078B91F
:100780000198C0F3400058B90198C0F3800038B90F
:100790000198C0F3C00018B90198C0F3002018B147
:1007A0000548383001F054FA1CBD000098020020C2
:1007B0001A010B00D0020020D8020020060106001A
:1007C00010B501F071FE41480078072873D2DFE8C8
:1007D00000F004222830425859000C2001F052FE4B
:1007E000012807D10D2001F04DFE18B9042037492A
:1007F00008700FE00C2001F045FE40B90D2001F01B
:1008000041FE012803D106203049087002E0012092
:100810002E49087053E001F0CDFC02202B490870EE
:100820004DE002F09DF801F0C1FE03202749087059
:1008300045E0274801680068401C254A10601920DF
:10084000B1FBF0F200FB121008B901F0C3FF002069
:100850001E49087033E01F480068FFF759FE01F099
:10086000A5FE0C2001F00EFE012809D10D2001F09B
:1008700009FE012804D101F0DBFE002013490870B5
:100880001DE01CE0134800687D21B0FBF1F201FB84
:10089000120008B902F00AF80C2001F0F3FD01285B
:1008A00007D10D2001F0EEFD012802D100200749FB
:1008B000087004E0FFE700200449087000BF00BF93
:1008C00004480068401C0349086010BD0000002077
:1008D000080000200400002002460020401C704751
:1008E000F0B502460D46FF21FF24002009E01678EE
:1008F00086EA04030A4EF65C86EA0104094EF15CBE
:10090000521C2E1EA5F10105F1D108464FF6FF76C7
:1009100006EA002000F47F400619B0B2F0BD0000E6
:10092000E62A0008E62B0008024989680143014ACB
:1009300091607047002004E04FF0E020006920F053
:1009400004004FF0E02108610A4880680A49B0FBC2
:10095000F1F0C0F3CF00094908800846008800EB99
:100960004001C1EBC0104FF6FF7101EAC00004491D
:1009700008807047580A002040420F0026020020DD
:100980002802002001460F4A12884A434FF0E02314
:100990005A6100229A611A46126922F00102521C21
:1009A0001A6100BF4FF0E022106900F001021AB195
:1009B00000F48032002AF5D000224FF0E0231A61C3
:1009C0009A61704726020020436862F30F03436078
:1009D000C16070470021002200F080520AB101215D
:1009E00000E0002111B1034B186001E0024B586098
:1009F000704700000404024000000240002200F0A2
:100A000000420AB1024900E0024948607047000014
:100A10000004024000000240016821F00101016071
:100A20000021016041686FF30F0141600021816086
:100A3000C1603849884204D10F21364A083A5160D2
:100A400067E034491431884204D1F021314A083A30
:100A500051605EE02F492831884205D14FF4706122
:100A60002C4A083A516054E02A493C31884205D169
:100A70004FF47041274A083A51604AE02549503105
:100A8000884205D14FF47021224A083A516040E073
:100A900020496431884205D14FF470011D4A083A5B
:100AA000516036E01B497831884205D14FF07061C2
:100AB000184A083A51602CE01749884203D10F21A7
:100AC000021F116025E014491431884204D1F0213D
:100AD000114A121F11601CE00F492831884205D1CC
:100AE0004FF470610C4A121F116012E00A493C3148
:100AF000884205D14FF47041074A121F116008E087
:100B000005495031884204D14FF47021024A121F26
:100B1000116070470800024008040240016821F09B
:100B2000010101607047016821F00101491C016069
:100B300070470000F0B503460024A44600250026B7
:100B4000002701F0004401F0E0404FEA107C0CB1B6
:100B50000F4A00E00F4A146804EA010008B10126B8
:100B600000E00026ACF101008000C1401D6805F0E6
:100B70000E0501EA050008B1012700E00027012F5A
:100B800003D1012E01D10120F0BD0020FCE70000BF
:100B9000000402400000024008B501464868009089
:100BA000009880B208BD2DE9F04704460D46164670
:100BB000DDE9099ADDF820800B9F2046FFF72CFF26
:100BC000206820F480402060206868F34510206091
:100BD00020686AF304102060206820F080008030D4
:100BE0002060206820F040002060206867F38B20A0
:100BF0002060206867F309202060206869F30D30C9
:100C00002060606863F30F006060E560A660BDE887
:100C1000F08702680A430260704708B5036823F052
:100C20000103036006E003680093009B03F00103E7
:100C300003B900E0F7E700BFC160436862F30F0348
:100C40004360036823F001035B1C036008BD08B523
:100C5000036823F00103036006E003680093009B30
:100C600003F0010303B900E0F7E700BFC160436888
:100C700062F30F034360036823F001035B1C03600E
:100C800008BDF0B5002300244D07ED0E02FA05F370
:100C900008290BDA4E07F70E0F26BE40056AB5434A
:100CA0000562056A45EA030404620AE04E07F70E8E
:100CB0000F26BE40456AB5434562456A45EA0304CE
:100CC0004462F0BD2DE9F0430C46079E002100254B
:100CD000002700BF60E04FF0010C0CFA01F504EAB8
:100CE0000507AF4257D14FEA41094FF0030808FA10
:100CF00009F8D0F800C02CEA080CC0F800C04FEA90
:100D000041094FF0030808FA09F8D0F804C02CEAAA
:100D1000080CC0F804C04FEA41094FF0030808FA74
:100D200009F8D0F80CC02CEA080CC0F80CC04FEA47
:100D300041094FF0030808FA09F8D0F808C02CEA76
:100D4000080CC0F808C04FEA41094FF0020808FA41
:100D500009F8D0F800C04CEA080CC0F800C003FA4B
:100D600001F8D0F804C04CEA080CC0F804C04FEAFF
:100D7000410802FA08F8D0F80CC04CEA080CC0F898
:100D80000CC04FEA410806FA08F8D0F808C04CEA4F
:100D9000080CC0F808C0491C10299CD3BDE8F0839A
:100DA000F0B50B4600210024002500BF25E00126F8
:100DB00006FA01F403EA0405A5421DD14FEA410CED
:100DC000032707FA0CF70668BE4306604FEA410C9A
:100DD000032707FA0CF7C668BE43C6604FEA410C0A
:100DE000002707FA0CF706683E4306604F0002FA38
:100DF00007F7C6683E43C660491C1029D7D3F0BD2B
:100E00002DE9F0430C46079E00210025002700BF76
:100E100060E04FF0010C0CFA01F504EA0507AF425F
:100E200057D14FEA41094FF0030808FA09F8D0F802
:100E300000C02CEA080CC0F800C04FEA41094FF08E
:100E4000030808FA09F8D0F804C02CEA080CC0F826
:100E500004C04FEA41094FF0030808FA09F8D0F836
:100E60000CC02CEA080CC0F80CC04FEA41094FF046
:100E7000030808FA09F8D0F808C02CEA080CC0F8F2
:100E800008C04FEA41094FF0010808FA09F8D0F804
:100E900000C04CEA080CC0F800C003FA01F8D0F812
:100EA00004C04CEA080CC0F804C04FEA410802FA3A
:100EB00008F8D0F80CC04CEA080CC0F80CC04FEA97
:100EC000410806FA08F8D0F808C04CEA080CC0F847
:100ED00008C0491C10299CD3BDE8F083028B0A434B
:100EE0000283704700F01F020121914042119200DD
:100EF00002F1E022C2F800117047000070B503460D
:100F0000002000250F240B4E366806F4E066C6F577
:100F1000E066C6F30720C0F10406F5B2044101FA09
:100F200005F6F0B202EA040630430607300E024E20
:100F3000F05470BD0CED00E000E400E002494969A6
:100F40000143014A51617047001002400249C969DA
:100F50000143014AD161704700100240024909690A
:100F60008143014A1161704700100240024909693A
:100F70000143014A1161704700100240024989692A
:100F80000143014A91617047001002400249C9685B
:100F90008143014AD1607047001002400249C9688C
:100FA0000143014AD160704700100240F0B5054688
:100FB00000210022002300240020384E367906F05C
:100FC0000C0121B1042906D0082922D108E0344EB1
:100FD000344F7E6021E0334E3668324F7E601CE035
:100FE0002E4E7468C4F300447068C0F383400E282A
:100FF00001D2801C00E010202CB12A4E3668760801
:1010000006FB00F302E0264E46437308254E73604C
:1010100003E0234E234F7E6000BF00BF1F4E367992
:10102000C6F30311204E725C1E4E7668D6401D4FEB
:10103000BE601A4EB688C6F302211C4E725C3E4654
:10104000B668D640FE60154EB688C6F3C221174E6C
:10105000725C3E46B668D6403E613E46B668FF6862
:10106000BE4204D10F4EF6680E4F7E6104E00D4E75
:10107000F66876000B4F7E610A4EB668094F3F69ED
:10108000BE4204D1074E3669064FBE6104E0054EEC
:1010900036697600034FBE61F0BD000000100240CB
:1010A00000127A00580A002048030020580300204C
:1010B0002DE9F04F82460F4690469946DDF824B060
:1010C000002400250026A848006840F47000A649C6
:1010D0000860A648006840F00100A449086008467E
:1010E0004068A3490840A149486008460068A149F2
:1010F00008409E4908600846006820F48020086087
:101100000846406820F4FE0048600846C06A20F0A7
:101110000F00C8620846006B97490840934908636E
:1011200000208860002F73D11220944908608F48F6
:10113000006820F00100401C8C49086000BF00BF1F
:1011400000BF6D1C8948046804F002041CB98C4877
:1011500000688542F5D38548046804F0020414B998
:101160000120BDE8F08F8148406820F0F000703029
:101170007E4948600846406869F30A20486008468E
:1011800040686BF3CD2048600846406820F480300A
:10119000486040464FEAE87108EB9171C1F38F0651
:1011A000102E02DAB01E86B200E00F266F484068AB
:1011B00066F395406D4948600846006820F08070ED
:1011C00000F1807008600024002500BF6D1C674896
:1011D000046804F000741CB9694800688542F5D9B8
:1011E0006248046804F000740CB90220B9E75F4853
:1011F000406820F00300801C5C494860002400BF68
:101200005A48446804F00804082CF9D19FE0FFE72D
:101210005648C06A20F00F005449C862084600686A
:1012200020F47F00086000240025BAF1010F06D1E8
:101230000846006820F4802000F5802008604B48B4
:10124000006820F4803000F580304849086000BF15
:101250006D1C4648046804F400341CB94848006812
:101260008542F5D347487843474908603F480468BA
:1012700004F400340CB9012073E74048006820F002
:10128000100010303D4908600846006820F0070053
:10129000801C08603548406820F0F0007030334909
:1012A00048600846406869F30A204860084640687C
:1012B0006BF3CD2048600846406820F4003000F50C
:1012C000003048600846406820F4803000F58030E7
:1012D00048600026384607EBD071491098FBF1F1C1
:1012E0008EB2102E02DAB01E86B200E00F261F4822
:1012F000406866F395401D4948600846006820F044
:10130000807000F1807008600024002500BF6D1C13
:101310001648046804F000741CB919480068854236
:10132000F5D31248046804F000740CB9022018E7E1
:101330000E48406820F00300801C0C4948600024DF
:1013400000BF0A48446804F00804082CF9D1064993
:1013500080390A9808600D48091D08600A48FFF79F
:1013600025FE0020FDE6000088ED00E000100240B0
:101370000CC07FF8FFFFF6FECCFC00FF002002400F
:101380006003002040420F00580A00200005FA05C3
:1013900030B51C4611B90025058517E0164DA84249
:1013A0000BD0164DA84208D0154DA84205D0154DBA
:1013B000A84202D0144DA84202D1144DAB6901E0FD
:1013C000124D6B69B3FBF1F56D1E0585B0F1804FD1
:1013D00001D1C26201E095B2C562056825F440758D
:1013E0000560056864F3041505600025056105685E
:1013F00025F00105056030BD002C0140003401409E
:10140000004001400044014000480140580A0020CB
:10141000CA4392B20261704710B504463448844210
:1014200006D14015FFF7BAFD6015FFF7AFFD5EE08E
:10143000B4F1804F06D10120FFF798FD0120FFF79E
:101440008DFD54E02B48844206D10220FFF78EFD2B
:101450000220FFF783FD4AE02748844206D104209A
:10146000FFF784FD0420FFF779FD40E02348844224
:1014700006D11020FFF77AFD1020FFF76FFD36E050
:101480001F48844206D12020FFF770FD2020FFF77F
:1014900065FD2CE01B48844206D14014FFF77EFD19
:1014A0006014FFF773FD22E01748844208D14FF41F
:1014B0008030FFF773FD4FF48030FFF767FD16E0D3
:1014C0001248844208D14FF40030FFF767FD4FF413
:1014D0000030FFF75BFD0AE00D48844207D14FF46E
:1014E0008020FFF75BFD4FF48020FFF74FFD10BD1C
:1014F000002C0140000400400008004000100040A3
:10150000001400400034014000400140004401400C
:1015100000480140016821F00101491C0160704749
:10152000C2680A43C26070470162704710B500226A
:1015300000230A0C01249440A3B2036210BD0000F2
:1015400010B504461D48844208D14FF48040FFF78F
:1015500025FD4FF48040FFF719FD2EE01848844226
:1015600008D14FF40030FFF701FD4FF40030FFF7D2
:10157000F5FC22E01348844208D14FF48020FFF7A5
:10158000F5FC4FF48020FFF7E9FC16E00E4884429A
:1015900008D14FF40020FFF7E9FC4FF40020FFF7DB
:1015A000DDFC0AE00948844207D14FF48010FFF7C0
:1015B000DDFC4FF48010FFF7D1FC10BD0038014076
:1015C0000044004000480040004C004000500040F3
:1015D000816821F04001403181607047816821F0CD
:1015E00080018031816070470246D069084008B1AF
:1015F000012070470020FCE72DE9F04104460F462A
:1016000015461E46DDF81880206820F00100206095
:101610000020A060606866F30D306060206868F3A9
:101620004A202060206820F00400001D206020680F
:1016300020F0080008302060606820F4000000F509
:1016400000006060606900F07F402330606175B128
:10165000012D15D0022D1ED1206820F4805020606D
:10166000206820F0805000F18050206014E0206855
:1016700020F480502060206820F0805020600BE033
:10168000206820F4805000F580502060206820F011
:101690008050206000E000BF00BF3946204600F0C7
:1016A0004FF84FF0FF302062206820F00100401C0E
:1016B0002060BDE8F08130B5002300240022C1F392
:1016C0000723CCB2012505FA04F2022B03D14568A9
:1016D0009543456008E0032B03D1856895438560F9
:1016E00002E005689543056030BD30B50023002455
:1016F0000022C1F30723CCB2012505FA04F2022B24
:1017000003D145681543456008E0032B03D1856884
:101710001543856002E005681543056030BD10B5CE
:101720000B46002108E000BF047FC4F3C014002C66
:10173000FAD05C5C8462491C9142F4D310BD000075
:1017400070B5002200230024056825F0010505601E
:10175000184DA84202D1184D2A6901E0164DEA68D9
:101760000588C5F3C03545B15500B5FBF1F355000B
:10177000B5FBF1F601FB165405E0B2FBF1F3B2FB49
:10178000F1F501FB1524B4EB510F00D35B1C058868
:10179000C5F3C03535B1C3F342044FF6F0751D40B3
:1017A00045EA04039DB2C560056825F001056D1C7E
:1017B000056070BD00380140580A00201CB5044681
:1017C0000320034648220821CDE900040020FFF74A
:1017D0006FFC1CBD10B5FFF7AFF810BD10B5044687
:1017E0002046FFF7CFF810BD0146084B53F82120E3
:1017F000074B33F81100136903400BB1012300E0DC
:1018000000230BB9002070470120FCE76002002094
:10181000702D0008054B53F82010054B33F81020AD
:101820000B8B13430B8300BF704700002C0200207A
:101830001C2D0008054B53F82010054B33F81020E1
:101840004B8B13434B8300BF704700002C020020DA
:101850001C2D000810B504460F48FFF7DDFD1020D1
:10186000FFF774FB1020FFF75FF8621E00230B499F
:101870000948FFF78DFD072200213620FFF73EFBC8
:101880003620FFF72FFB01210348FFF749FE0248EE
:10189000FFF740FE10BD00000010004040420F0066
:1018A00070B504460D46164621780F4A52F82100BD
:1018B0000E49FFF73BFE21780B4A52F821000C49F4
:1018C000FFF734FE2178084A52F821004FF44071A6
:1018D000FFF72CFE2178074A52F8210032462946AC
:1018E000FFF7B5F970BD0000980200201A010B0047
:1018F00006020800D002002038B5044660780828A7
:101900007DD2DFE800F0042345649B9CF1EF217851
:10191000C34A52F82100FFF711FB01200090227802
:10192000C04B33F81210C04B53F8220000230122A1
:10193000FFF7C8F92378BD4DEA5CBD4D35F81310AB
:10194000B94D55F82300FFF79CF966E12178B44AB8
:1019500052F82100FFF7F2FA012000902278B14BF3
:1019600033F81210B04B53F8220000230122FFF786
:10197000A9F92378AD4DEA5CAD4D35F81310AA4DA9
:1019800055F82300FFF77DF9204600F0E7FA44E11F
:101990002178A84A52F82100FFF7D0FA01200090E0
:1019A0002278A54B33F81210A44B53F822000023E1
:1019B0000122FFF787F923789C4DEA5CA04D35F8AA
:1019C00013109E4D55F82300FFF75BF925E12178B0
:1019D000984A52F82100FFF7B1FA2178994A52F853
:1019E0002100FFF7ABFA012000902278964B33F8E4
:1019F0001210964B53F822000023012200E00BE165
:101A0000FFF7FEF90120009022788B4B33F812107B
:101A1000854B53F8220000230122FFF753F9237866
:101A2000824DEA5C864D35F81310844D55F823003D
:101A3000FFF727F9204600F0A5FAEEE000BF217875
:101A40007C4A52F82100FFF779FA2178744A52F85B
:101A50002100FFF773FA21787A4A52F82100FFF744
:101A60006DFA012000902278774B33F81210774BF3
:101A700053F8220000230122FFF7C2F90120009051
:101A800022786D4B33F812106C4B53F82200002370
:101A90000122FFF717F9012000902278614B33F8FB
:101AA0001210614B53F8220000230122FFF70AF9BC
:101AB00023785E4DEA5C624D35F813105F4D55F8A2
:101AC0002300FFF7DEF82378584DEA5C584D35F8CF
:101AD0001310554D55F82300FFF7D3F8204600F0BA
:101AE0003DFA9AE03DE0FFE72178524A52F82100A2
:101AF000FFF724FA21784A4A52F82100FFF71EFA2C
:101B00000120009022784C4B33F812104B4B53F8C5
:101B1000220000230122FFF7D5F80120009022784F
:101B2000404B33F81210404B53F82200002301229F
:101B3000FFF7C8F823783D4DEA5C414D35F81310A6
:101B40003E4D55F82300FFF79CF82378374DEA5CAB
:101B5000374D35F81310344D55F82300FFF791F841
:101B60005BE02178334A52F82100FFF7E7F921784A
:101B70002B4A52F82100FFF7E1F92178314A52F857
:101B80002100FFF7DBF90120009022782E4B33F87B
:101B900012102E4B53F8220000230122FFF730F9D8
:101BA000012000902278244B33F81210234B53F875
:101BB000220000230122FFF785F8012000902278FF
:101BC000184B33F81210184B53F82200002301224F
:101BD000FFF778F82378154DEA5C194D35F81310A6
:101BE000164D55F82300FFF74CF823780F4DEA5CAB
:101BF0000F4D35F813100C4D55F82300FFF741F841
:101C000000BF2278104B33F81210104B53F822000B
:101C1000FFF764F900BF00E000BF00BF38BD00005F
:101C2000A82D0008B02D0008A8020020962D00085D
:101C3000B42D0008982D0008A02D0008A002002057
:101C4000A42D0008B82D0008C02D0008B002002007
:101C50007FB504462046FFF74FFE2078884951F8AB
:101C600020008849884206D12178874A52F821000D
:101C7000FFF784F905E02178834A52F82100FFF745
:101C800065F921787E4A52F82100FFF759FC607906
:101C900000902379E278A5787C4E56F825102578B7
:101CA000774E56F82500FFF7A7FC6078002855D03E
:101CB000A07902283AD12178754A52F82100FFF71D
:101CC0003DF9002001210222CDE90002CDE90210F8
:101CD0002378354655F8233003F1280223786D4DDB
:101CE00055F8230000236169FEF75DFF2178324635
:101CF00052F82100FFF772FC2178674A52F8210060
:101D0000FEF77CFE2178654A505C01220021FFF736
:101D1000F5F82178614A505CFFF7E4F821782A460B
:101D200052F821000221FEF774FF17E0A079012884
:101D300014D121785A4A505C00221146FFF7DEF890
:101D400021784F4A52F821005649FFF7EFFB2178DE
:101D50004B4A52F821005349FFF7C7FC607802282C
:101D600051D0A07902284FD121784F4A52F8210052
:101D7000FFF7E4F800200222CDE900020290039070
:101D800023783F4D55F8233003F124022378474D43
:101D900055F823000023A169FEF705FF2178384A92
:101DA00052F82100FFF714FCA28B2046A169FFF72F
:101DB00077FD2178324A52F821003D49FFF7B6FB02
:101DC0002178374A505C01220021FFF797F82178EB
:101DD000334A505CFFF786F82178294A52F82100EF
:101DE0003349FFF782FC2178254A52F821004FF44D
:101DF0004071FFF79BFB2178214A52F821004FF4F4
:101E00004071FFF772FC3AE0A079012837D12178C0
:101E1000234A505C01220021FFF770F82178204A04
:101E2000505CFFF75FF82178154A52F821002149EC
:101E3000FFF77CFB2178124A52F821001C49FFF77A
:101E400075FB21780E4A52F821001A49FFF74DFC24
:101E500021780B4A52F821001549FFF746FC2178FA
:101E6000074A52F821004FF44071FFF75FFB2178D9
:101E7000034A52F821004FF44071FFF736FC7FBD52
:101E800098020020003801408C2D0008E02D000849
:101E9000C42D0008C0020020D02D0008CC2D000861
:101EA000942D000807010700D82D0008D00200205B
:101EB0001A010B000501050010B50446A0790128A0
:101EC00007D12178084A52F821000849FFF7F3FBAF
:101ED00009E0A079022806D12178034A52F82100AE
:101EE0000349FFF7E8FB10BD98020020050105003B
:101EF0001A010B0010B50446A079012807D12178FA
:101F0000084A52F821000849FFF7EFFB09E0A079E1
:101F1000022806D12178034A52F821000349FFF72D
:101F2000E4FB10BD98020020050105001A010B001A
:101F300070B504460D460A2D0ADAA570A278054B45
:101F400053F822102278044B53F82200FFF7F8FBD5
:101F500070BD0000E02D00089802002010B5037845
:101F6000054C54F82310054C34F813204B8B1343C5
:101F70004B8300BF10BD0000B0020020C02D000840
:101F80007047000010B504462278044B33F8121055
:101F9000034B53F82200FEF7A1FF10BDC02D00082F
:101FA000B00200202DE9F04104460D461646E079C6
:101FB000012809D12178394A52F82100FEF7ECFDB9
:101FC00010B10120BDE8F0816078042802D060786B
:101FD000052802D12046FFF7D5FFA07930BB0120AC
:101FE000E07121782E4A52F8210032462946FFF747
:101FF00096FB6078042802D06078052813D100BFD2
:102000002178274A52F821004021FFF7EDFA0028F5
:10201000F6D12046FFF7A2FF2178214A52F821008D
:102020004021FFF781FA0020E07134E0A079012817
:1020300017D10020608126816069A84200D06561C7
:102040002178174A52F821001649FFF76FFA2178D4
:10205000134A52F821001349FFF747FB0120E071B2
:1020600019E02178104A52F82100FEF7B3FC45B977
:1020700022892378094F57F823006169FEF7CDFDC7
:1020800007E02178054A52F8210032462946FEF73A
:10209000C4FD0120E071002094E70000C002002090
:1020A0009802002007010700D02D0008F0B589B084
:1020B000344E00250024002700BF05E0002001A9C0
:1020C00041F82400601CC4B2082CF7DB002544E072
:1020D000192D3DDA002405E0611DC8B2FFF7AAFB07
:1020E000601CC4B2082CF7DB0A20FFF777FB002442
:1020F00005E0611DC8B2FFF78DFB601CC4B2082C5F
:10210000F7DB0A20FFF76AFB002414E001A850F86F
:102110002400400001A941F82400211DC8B2FFF7A6
:1021200063FB074601A850F82400384401A941F890
:102130002400601CC4B2082CE8DB002405E0611D0B
:10214000C8B2FFF777FB601CC4B2082CF7DB02E0D3
:102150001420FFF743FB681CC5B21B2DB8DB00241D
:102160000CE001AA52F8241004EBC40202EB420274
:1021700006EBC20000F087FA601CC4B2082CF0DB4A
:1021800009B0F0BD6403002070B5094D0024FFF7CD
:102190008DFF00BF09E004EBC40101EB410105EB39
:1021A000C10000F073F8601CC4B2082CF3DB70BDF2
:1021B0006403002070B5002400253248007805280B
:1021C00059D2DFE800F0030715264F0001202D4902
:1021D000087054E0002405E0611DC8B2FFF71AFB47
:1021E000601CC4B2082CF7DB02202649087046E0C8
:1021F000002405E0611DC8B2FFF71CFB601CC4B2DF
:10220000082CF7DB03201F49087000201E490870C6
:1022100035E01D480078801C1B490870084600788E
:10222000B0F5FA7F05DB0020087001201549087021
:1022300017E0002409E0211DC8B2FFF7D5FA0128F4
:1022400001D1012503E0601CC4B2082CF3DB00BF00
:10225000012D03D103200B49087002E00420094935
:1022600008700CE0FFF790FF03200649087000207B
:102270000549087003E001200249087000BF00BF53
:1022800070BD000017000020180000200021DFEDC5
:10229000230AB0EE600A8278012A3DD10A23026B3C
:1022A00092FBF3F2426300BF09E000F1380252F8FA
:1022B0002120436B934200D803E04A1CD1B2092984
:1022C000F3DB00BF00F1800202EB8102D2ED000AD5
:1022D000B0EE600AD0ED0D0AF8EEE00A60EE800A7A
:1022E000B0EE600A00F1A80202EB8102D2ED000A12
:1022F00070EE800AB0EE600AF2EE040A60EE200A88
:10230000FDEEE00AC0ED340AF6EE000A70EE200A97
:10231000FDEEE00AC0ED350A704700000000000045
:10232000DFED080AB0EE600A0749082809DA00EB79
:10233000C00202EB420201EBC202D2ED350AB8EE56
:10234000E00A70470000000064030020DFED080A87
:10235000B0EE600A0749082809DA00EBC00202EB78
:10236000420201EBC202D2ED340AB8EEE00A704735
:10237000000000006403002030B53F490020002326
:10238000002200BF75E0012400EBC00505EB450508
:1023900001EBC505AC7000230BE0002500EBC00489
:1023A00004EB440401EBC404083444F823505C1CDF
:1023B000E3B20A2BF1DB00EBC00404EB440401F8A8
:1023C0003400002400EBC00505EB450501EBC50515
:1023D0002C6300EBC00505EB450501EBC5056C63FF
:1023E00000EBC00505EB450501EBC505EC7000EB06
:1023F000C00505EB450501EBC5052C7100221BE06E
:102400009FED1E0A00EBC00404EB440401EBC4047E
:10241000803404EB820484ED000A9FED190A00EB7E
:10242000C00404EB440401EBC404A83404EB8204AC
:1024300084ED000A541CE2B20A2AE1DB002400EB1E
:10244000C00505EB450501EBC505C5F8D44000EB1B
:10245000C00505EB450501EBC505C5F8D0400124D5
:1024600000EBC00505EB450501EBC5056C70441C90
:10247000E0B2082887DB30BD64030020124DA03A8B
:10248000E1DA85C3014600200C2909DB0E2907DAB1
:10249000A1F10C0202EB4202024B03EB4202507923
:1024A000704700004C0A002070B50024284D00BF82
:1024B0004BE004EB440115F81100FFF795F904EB2C
:1024C000440105EB4101087104EB440005EB4000B9
:1024D000C07804EB440105EB41010979884222D11F
:1024E00004EB440005EB40008078401C04EB440101
:1024F00005EB4101887004EB440005EB4000807857
:10250000322816DB322004EB440105EB41018870D0
:1025100004EB440005EB4000007904EB440105EBBB
:102520004101487105E0002004EB440105EB410145
:10253000887004EB440005EB4000007904EB440193
:1025400005EB4101C870601CC4B2022CB1DB70BD48
:102550004C0A00200020144900BF22E000F10C02C8
:1025600000EB400301F81320002200EB400301EBD5
:1025700043039A7000EB400301EB4303DA7000EB76
:10258000400301EB43031A7100EB400301EB4303EB
:102590005A71012200EB400301EB43035A70421CC5
:1025A000D0B20228DADB70474C0A00202DE9F04156
:1025B0001D4D00240026A046002700BF0BE01B484D
:1025C000005D295D884204D0285D184908554FF008
:1025D0000108601CC4B2042CF1DBB8F1010F20D15A
:1025E000002418E01148075D002610E007F0010004
:1025F00018B10020FFF70EF902E00020FFF71AF9EA
:102600007F1001210320FDF713FF701CC6B2082EB6
:10261000ECDB601CC4B2042CE4DB01210220FDF7DA
:1026200007FFBDE8F08100000F000020130000202C
:1026300010B50020FFF7EEF80120FFF7EBF80220BD
:10264000FFF7F8F80320FFF7F5F80420FFF7F2F89A
:102650000120FFF7DFF800210420FDF7E9FE01214A
:102660000220FDF7E5FE0120FFF7E4F810BD00F0C1
:1026700067F9FFF76FFFFFF7DBFFFFF77DFE00F065
:10268000F9F800BFFEE710B5C2780A2A03DB002282
:10269000C27001228270B1F1807F0AD36FF07E4256
:1026A000521A521C5342C47800F1080242F82430F6
:1026B00004E0C37800F1080242F823108278012A6E
:1026C00016D1C47800F1080252F82420036B1A4492
:1026D0000263C2780B320A2392FBF3F403FB142348
:1026E00000F1080252F82320036B9A1A026307E0F4
:1026F000C47800F1080252F82420036B1A440263E4
:10270000C278521CC27010BD2DE9F05F06460F461C
:10271000144698460025A946AB46AA4640F2FF70EB
:10272000864251DA002C4FDD7F2C4DDAA520274957
:1027300081F804015A21254880F805116000C01C69
:10274000C1B2224880F80611822180F80711310AAF
:1027500080F8081180F8096100BF0EE037F8029B8D
:102760004FEA29216800801D194A11546800C01DD4
:10277000114601F80090681C85B2A542EEDBB8F165
:10278000010F16D16000C11C1148C01CFEF7A8F84B
:1027900082464FEA2A216800801D0D4A11546800C4
:1027A000C01D114601F800A0600008301FFA80FB30
:1027B00003E06000801D1FFA80FB04490868096877
:1027C0005A46CB6A02499847BDE8F09F1C0000209A
:1027D000200100202DE9F04188B0254D0024A046BD
:1027E0000526082700BF1AE0E0B2FFF799FDBDEE0D
:1027F000C00A10EE100A00B204A921F81400E0B2D9
:10280000FFF7A4FDBDEEC00A10EE100A00B22DF8CD
:1028100014003DF8140025F81400601C84B2082C44
:10282000E2DB2046611C8CB225F8106004A830F869
:10283000160082B22046611C8CB225F8102020467A
:10284000611C8CB225F8107004A830F8170082B211
:102850002046611C8CB225F8102000232246294610
:102860004FF4B070FFF750FF08B0BDE8F0810000F2
:10287000240A002010B50C48A0F501710968C86051
:10288000801CA0F2062109680861A0F20220011F45
:1028900009684861011F09688861021F1068126891
:1028A000116A884710BD00002002002010B50024E6
:1028B0001E480078401C1D4908701D480078D8B992
:1028C000A5201C4981F804015A211A4880F80511F5
:1028D000032180F80611812180F80711032180F877
:1028E0000811022180F809110146086809680622CA
:1028F000CB6A1149984717E00C4800780F490880C7
:10290000012408E0601C0949097848430B4921F873
:102910001400601CC4B2082CF4DB00230822074911
:102920004FF4B070FFF7F0FE10BD0000250200204C
:10293000240200201C000020200100203C0A00206E
:1029400070B54FF0006400256019FEF737FFFEF701
:1029500041FF00F08BF84FF47A70FEF77BFF70BDFB
:1029600070B592B000250024002600BF13E010A827
:1029700045552846FFF7D4FC08A800EB850080EDFC
:10298000000A2846FFF7E2FC684600EB850080ED70
:10299000000A681CC5B2082DE9DB082210A908A8A6
:1029A000FDF7C4FC082210A96846FDF7BFFC00240F
:1029B00058E008A9601C01EB800090ED000A08A80F
:1029C00000EB8400D0ED000A30EE600AF0EE000A61
:1029D000B4EEE00AF1EE10FA3ED208A800EB840053
:1029E00090ED000AF8EE000AB4EEE00AF1EE10FAFB
:1029F0000BD308A800EB840090ED000AF0EE000A6B
:102A0000B4EEE00AF1EE10FA26DD08A9601C01EB35
:102A1000800090ED000AF8EE000AB4EEE00AF1EE54
:102A200010FA0BD3601C01EB800090ED000AF0EE71
:102A3000000AB4EEE00AF1EE10FA0DDD3146204650
:102A4000FDF722FD611CC8B23146FDF71DFD601C7B
:102A5000C4B2701CC6B203E004212046FDF714FD89
:102A6000601CC4B2072CA4DB12B070BD38B50024C2
:102A70000EE0144951F82400FEF760FA124A32F8C9
:102A80001410124A52F824000022FEF789F9641C3F
:102A90000E2CEED3002411E00D4951F82400FEF76E
:102AA0004DFA00200B4A009032F814100A4A52F8EE
:102AB000240000230122FEF7A3F9641C0D2CEBD3A4
:102AC00038BD0000382D0008702D0008600200207D
:102AD000E82C00081C2D00082C0200204FF040704C
:102AE000E1EE100A704700C1814001C0804101C081
:102AF000804100C1814001C0804100C1814000C1CE
:102B0000814001C0804101C0804100C1814000C1BD
:102B1000814001C0804100C1814001C0804101C0AD
:102B2000804100C1814001C0804100C1814000C19D
:102B3000814001C0804100C1814001C0804101C08D
:102B4000804100C1814000C1814001C0804101C07D
:102B5000804100C1814001C0804100C1814000C16D
:102B6000814001C0804101C0804100C1814000C15D
:102B7000814001C0804100C1814001C0804101C04D
:102B8000804100C1814000C1814001C0804101C03D
:102B9000804100C1814001C0804100C1814000C12D
:102BA000814001C0804100C1814001C0804101C01D
:102BB000804100C1814001C0804100C1814000C10D
:102BC000814001C0804101C0804100C1814000C1FD
:102BD000814001C0804100C1814001C0804101C0ED
:102BE000804100C1814000C0C101C30302C2C606CA
:102BF00007C705C5C404CC0C0DCD0FCFCE0E0ACA35
:102C0000CB0BC90908C8D81819D91BDBDA1A1EDE84
:102C1000DF1FDD1D1CDC14D4D515D71716D6D21234
:102C200013D311D1D010F03031F133F3F23236F644
:102C3000F737F53534F43CFCFD3DFF3F3EFEFA3AF4
:102C40003BFB39F9F83828E8E929EB2B2AEAEE2E84
:102C50002FEF2DEDEC2CE42425E527E7E62622E2F4
:102C6000E323E12120E0A06061A163A3A26266A644
:102C7000A767A56564A46CACAD6DAF6F6EAEAA6AB4
:102C80006BAB69A9A86878B8B979BB7B7ABABE7E04
:102C90007FBF7DBDBC7CB47475B577B7B67672B2B4
:102CA000B373B17170B05090915193535292965644
:102CB0005797559594549C5C5D9D5F9F9E5E5A9A74
:102CC0009B5B99595898884849894B8B8A4A4E8E04
:102CD0008F4F8D4D4C8C4484854587474686824274
:102CE000438341818040000000000800000008008C
:102CF00000000800000008000000080000000200BA
:102D000000000200000002000000020000000200BB
:102D100000000200000002000000020001000400A8
:102D2000080010002000010002000400080010004C
:102D300020004000800000000000080000000400A7
:102D40000000040000000400000004000000040073
:102D50000000040000000400000004000000040063
:102D60000000040000000400000004000000040053
:102D70000200002000400080010002000400080062
:102D80001000200040008000000100020000100040
:102D900000000400352705070000080000000800B7
:102DA000001000040C000A000000100000000800E1
:102DB0000400000802000B000000000000000400F6
:102DC0000000000401000000010000000E0C0000E3
:102DD0000020004020000020010000000100000051
:102DE000C012000080250000004B0000009600008B
:102DF00000E1000000C2010040420F0080841E007C
:102E0000C0C62D0000093D00282E0008000000204B
:102E100064030000C40100089C2E00086403002025
:102E20007C17000020020008C1E3E803131003022E
:102E3000FF2001FF6182011208FA480421091C04E5
:102E400029240A31040412501A40067A40687A0C88
:102E500070212920112B0240041A44045A1C0C2909
:102E6000041A58042A300C14060101031602022227
:102E70001013511C1408311F1B0881041AA50413D8
:102E8000F51E1B08B90434010505093038816809AD
:0C2E900001020304060708090C1AFF01E8
:040000050800018965
:00000001FF
