:020000040800F2
:10000000D024002069020008770200087902000865
:100010007B0200087D0200087F020008000000004B
:100020000000000000000000000000008102000845
:100030008302000800000000850200088702000813
:100040008902000889020008890200088902000864
:100050008902000889020008890200088902000854
:100060008902000889020008890200088902000844
:100070000D040008890200088902000889020008AE
:100080008902000849040008890200088902000862
:100090008902000889020008890200088902000814
:1000A0008902000889020008890200088902000804
:1000B00089020008890200088902000889020008F4
:1000C00089020008890200088902000889020008E4
:1000D00089020008890200084D0E0008450F00083B
:1000E00089020008890200088902000889020008C4
:1000F00089020008890200088902000889020008B4
:10010000000000000000000000000000890200085C
:100110008902000889020008390E000889020008D7
:100120008902000889020008890200088902000883
:100130008902000889020008000000000000000099
:1001400089020008890200088902000800000000F6
:10015000000000000000000000000000000000009F
:100160000000000000000000890200088902000869
:1001700089020008000000000000000000000000EC
:10018000000000008902000800F002F800F05CF8AE
:100190000AA090E8000C82448344AAF10107DA45E2
:1001A00001D100F051F8AFF2090EBAE80F0013F0D8
:1001B000010F18BFFB1A43F00103184758650000F0
:1001C000786500000A444FF0000C10F8013B13F072
:1001D000070408BF10F8014B1D1108BF10F8015BA0
:1001E000641E05D010F8016B641E01F8016BF9D193
:1001F00013F0080F1EBF10F8014BAD1C0C1B09D1EA
:100200006D1E58BF01F801CBFAD505E014F8016B5B
:1002100001F8016B6D1EF9D59142D6D370470000ED
:100220000023002400250026103A28BF78C1FBD8FF
:10023000520728BF30C148BF0B6070471FB506F09A
:10024000A9F81FBD10B510BD00F05CF81146FFF70E
:10025000F5FF03F07DFB00F07AF803B4FFF7F2FF3F
:1002600003BC00F081F800000B48016841F4700104
:1002700001600A480047FEE7FEE7FEE7FEE7FEE70B
:10028000FEE7FEE7FEE7FEE7FEE70000044805495B
:10029000054A064B7047000088ED00E08901000820
:1002A000D0140020D0240020D01C0020D01C00201E
:1002B0004FF0000200B5134694469646203922BFFF
:1002C000A0E80C50A0E80C50B1F12001BFF4F7AF4A
:1002D000090728BFA0E80C5048BF0CC05DF804EB2C
:1002E000890028BF40F8042B08BF704748BF20F89A
:1002F000022B11F0804F18BF00F8012B7047704798
:1003000070477047754600F02BF8AE460500694609
:10031000534620F00700854618B020B5FFF7B6FF1A
:10032000BDE820404FF000064FF000074FF00008F6
:100330004FF0000B21F00701AC46ACE8C009ACE877
:10034000C009ACE8C009ACE8C0098D46704710B5DB
:100350000446AFF300802046BDE81040FFF77DBFA4
:10036000004870476C14002001491820ABBEFEE71E
:100370002600020070470000F0B503460025002467
:100380000020DFED210AB0EE600A002600BF37E052
:10039000002501202DE003EB8007D7ED000A471E62
:1003A00003EB870797ED001AF4EEC10AF1EE10FA9D
:1003B0001DD2471E03EB8707D7ED000AB0EE600A97
:1003C00003EB8007D7ED000A471E03EB8707C7ED55
:1003D000000A03EB800787ED000A471E31F917601A
:1003E00031F810C021F817C021F810600125471C12
:1003F000F8B2171B8742CEDC05B9F0BD671CFCB212
:100400009442C5DB00BFF8E70000000010B50A4ABF
:1004100011680A4A106801F08DF960B1074908684F
:1004200001F07CF906490868064902F018F802490B
:10043000086801F0E3F810BDDC660008040600203F
:10044000DC0500200601060010B50A4A51680A4A78
:10045000506801F06FF960B10749486801F05EF932
:1004600006494868064901F0FAFF0249486801F068
:10047000C5F810BDDC66000804060020DC0500207D
:100480000601060010B5DFED0C0AB0EE600A0B4A5B
:10049000062910DA02280EDB03280CDA431E03EBD0
:1004A000430402F5037303EBC40303EB8103D3EDB1
:1004B000000AB0EE600A10BD000000001800002025
:1004C00070B505460C466426012C12D1284602F070
:1004D00099F8304600F064F8284602F083F8304678
:1004E00000F05EF8284602F08DF8304600F058F82B
:1004F00011E0284602F076F8304600F051F8284620
:1005000002F080F8304600F04BF8284602F06AF816
:10051000304600F045F870BDF0B502460C460027A5
:100520000025002300260021012C06D0022C0AD031
:10053000032C06D0042C08D101E0012507E0082592
:1005400005E0042503E0022501E0002500BF00BF0F
:10055000062A21DAC2F1050000EBD07CCCF3470378
:100560000E48C15C032B17DAC2F1050000EBD07C0A
:100570004FEA6C0CA0EB4C0C0CF0FF061EB901F01E
:10058000F001294305E001F00F01F02000EA051019
:1005900001430248C15401273846F0BD0500002040
:1005A00000E0401E0028FCD17047000010B50E4C42
:1005B000D4F80802401CC4F808020C48006990B145
:1005C0000A480069012803D1204600F020F80AE01B
:1005D00006480069022806DB04480069032802DA9D
:1005E000204600F0EAF910BD18000020A00200200B
:1005F000C822D0F80812B1FBF2F302FB131129B99B
:10060000B0F83E1241F00101A0F83E12704710B55B
:100610000446204600F05EF9204600F0A0F90128CB
:1006200002D1204600F04AF810BD70B504460026FD
:10063000002594F83E0200F0010000283BD004F2AF
:100640003E24208820F001002080607C401C6074E3
:10065000607CA4F23E24032802DB022084F84F02CF
:10066000012084F8040194F84F1240F2051001555E
:100670000121401C0155401C0155401C015505201D
:1006800084F84E0294F84E1204F5827000F042FD98
:100690000546290A94F84E22501C84F84E0204F5AF
:1006A0008270815494F84E22501C84F84E0204F556
:1006B000827085540126F0B270BD000070B5002133
:1006C0000022002302794379022A7CDB032A7ADAAA
:1006D000012B78D17E4C2469012CFAD18479812CAC
:1006E00002D0822C70D140E0C479182C3CD100217A
:1006F00038E08C00241D051D2D5D541E04EB4406BE
:1007000000F5037404EBC60404F821508C00641D4A
:10071000051D2D5D541E04EB440600F5037404EB27
:10072000C60404EB810465708C00A41D051D2D5DBD
:10073000541E04EB440600F5037404EBC60404EBFA
:100740008104A5708C00E41D051D2D5D541E04EB75
:10075000440600F5037404EBC60404EB8104E57061
:100760004C1CA1B20629C4DBAFE0C479182C7DD1A2
:100770000021A5E00025541E04EB440600F5037497
:1007800004EBC60444F82150541E04EB440500F564
:10079000037404EBC50454F821608C00241D051D6E
:1007A0002C5D3519541E04EB440600F5037404EB6C
:1007B000C60444F82150541E04EB440500F50374AC
:1007C00004EBC50401E081E07EE054F821402502FD
:1007D000541E04EB440600F5037404EBC60444F80D
:1007E0002150541E04EB440500F5037404EBC504CA
:1007F00054F821608C00641D051D2C5D3519541EB4
:1008000004EB440600F5037404EBC60444F82150DD
:10081000541E04EB440500F5037404EBC50454F8BE
:1008200021402502541E04EB440600F5037404EB3A
:10083000C60444F82150541E04EB440500F503742B
:1008400004EBC50454F821608C00A41D051D2C5D2B
:100850003519541E04EB440600F5037404EBC6047A
:1008600044F82150541E04EB440500E02BE000F551
:10087000037404EBC50454F821402502541E04EB14
:10088000440600F5037404EBC60444F82150541EDA
:1008900004EB440500F5037404EBC50454F821602F
:1008A0008C00E41D051D2C5D3519541E04EB440617
:1008B00000F5037404EBC60444F821504C1CA1B2AB
:1008C0000629FFF657AF00E000BF00BF70BD000073
:1008D000A002002010B504462046FFF789FE94F8D8
:1008E0003C0220B101280FD0022832D11FE0B4F819
:1008F0004202401CA4F84202B4F842020F2802DB74
:10090000012084F83C0228E02046FFF78EFE0128F3
:100910000CD194F84E22206804F58271C36A98477E
:10092000022084F83C020020A4F8440215E0B4F848
:100930004412481CA4F844023C2902DB012084F83C
:100940003C0294F80602012802D1002084F83C02FF
:1009500003E0002084F83C0200BF00BF10BD70B56A
:1009600004460026002594F80602012823D1002021
:1009700084F80602B4F8040202281CDDB4F804026C
:10098000FF2818DCB4F80402801E211D085C4FF417
:100990007F4101EA0025B4F80402401E211D085CD5
:1009A000284485B2B4F80402811E201D00F0B2FB79
:1009B000A84200D10126F0B270BD10B50446204611
:1009C00000F0A6F92046FFF7CAFF012802D1204611
:1009D00000F002F810BD00002DE9F04104460025AA
:1009E000A8460026002794F804806679B8F1010F24
:1009F0007DD1022E7BDB032E79DAC4480069B04238
:100A0000F6D1A079012804D0022871D0032870D132
:100A100039E1E07901286DD1207A01286AD1BB48FB
:100A2000007C84F80401012140F205100155812168
:100A3000401C01551821401C015500250FE0E8B26B
:100A400002F08EFB701E00EB400104F5037000EB1A
:100A5000C10000EB850080ED000A681C85B2062D00
:100A6000EDDB00253CE0701E00EB400104F5037057
:100A700000EBC10010F82520A800001D04F58271CC
:100A80000A54701E00EB400104F5037000EBC10036
:100A900000EB85004278A800401D04F582710A54DD
:100AA000701E00EB400104F5037000EBC10000EB89
:100AB00085008278A800801D04F582710A54701E9A
:100AC00000EB400104F5037000EBC10000EB850072
:100AD000C278A800C01D04F582710A54681C85B252
:100AE000062DC0DBA800001D84F84E0203E00BE1D8
:100AF00020E007E11DE094F84E1204F5827000F04A
:100B000009FB0746390A94F84E22501C84F84E021D
:100B100004F58270815494F84E22501C84F84E02E1
:100B200004F582708754B4F8480240F00100A4F83C
:100B30004802E8E0E07901287ED1207A0228FBD142
:100B40007248007C84F80401012140F2051001552F
:100B50008221401C01551821401C015500250FE041
:100B6000E8B202F0FDFA701E00EB400104F50370DC
:100B700000EBC10000EB850080ED000A681C85B227
:100B8000062DEDDB002559E0701E00EB400104F559
:100B9000037000EBC10000EB850090ED000ABDEE94
:100BA000C00A10EE100A020EA800001D04F58271A2
:100BB0000A54701E00EB400104F5037000EBC10005
:100BC00000EB850090ED000ABDEEC00A10EE100AA1
:100BD000C0F30742A800401D04F582710A54701E3C
:100BE00000EB400104F5037000EBC10000EB850051
:100BF00090ED000ABDEEC00A10EE100AC0F3072205
:100C0000A800801D04F582710A54701E00EB40019B
:100C100004F5037000EBC10000EB850090ED000AC5
:100C2000BDEEC00A10EE100AC2B2A800C01D04F545
:100C300082710A54681C00E024E085B2062DA3DB13
:100C4000A800001D84F84E0294F84E1204F582703C
:100C500000F060FA0746390A94F84E22501C84F8D6
:100C60004E0204F58270815494F84E22501C84F890
:100C70004E0204F582708754B4F8480240F0020036
:100C8000A4F848023FE0B4F8480240F00400A4F899
:100C900048021E48007C84F80401012140F205103E
:100CA00001558221401C01550121401C0155832121
:100CB000401C0155052084F84E0294F84E1204F5AC
:100CC000827000F027FA0746390A94F84E22501C29
:100CD00084F84E0204F58270815494F84E22501C20
:100CE00084F84E0204F582708754B4F8480240F04C
:100CF0000400A4F84802B4F84A0240F00400A4F842
:100D00004A0200E000BF00BFBDE8F081A002002061
:100D100010B5044694F8460210B101281DD10CE02C
:100D2000B4F84C02401CA4F84C02B4F84C020F2852
:100D300002DB012084F8460213E0204600F013F89D
:100D4000012809D194F84E22206804F58271C36A03
:100D50009847002084F8460203E0002084F8460209
:100D600000BF00BF10BD01460020B1F848221AB1F3
:100D70000022A1F8482201207047000010B50F485A
:100D80000F49086001F501700968C860801C0C49B2
:100D900009680861A0F20220011F09684861011F6B
:100DA0000968886100200649A1F8040281F806025A
:100DB0000A4610681268116A884710BD1C06002098
:100DC0001800002010B5014600200D4B1B880C4C6C
:100DD000A48823440A4C248923449AB2094B1A60FC
:100DE00040F2E5735343C3F30B02914206D1064B25
:100DF000196042F2CD03054C2360012010BD0000B4
:100E0000600C00206C0200207002002074020020A0
:100E100070B1084A52F8212012680260054A52F85F
:100E2000212052684260034A52F821209268826071
:100E3000704700007802002010B50121024801F03F
:100E4000A1F900F03BF910BD001000401CB5384876
:100E50004068C06901903648406800680090019879
:100E6000C0F3C02060B30098C0F3806040B3304945
:100E70004868304901F014FA2F49486800F04EFCE8
:100E80002D49486800F088FC2C49B1F85410081A24
:100E900081B22A48406C018001212848806C017091
:100EA0002648383000F034F9244BB3F85420196D3B
:100EB000214B586800F088FB1F49486800F033FC5C
:100EC0000098C0F38010C8B10198C0F38010A8B199
:100ED000174948681A4901F0E3F90021174880F8DA
:100EE0003F1090F83900042804D0144890F83900D5
:100EF000052803D11148383001F018FF019800F09F
:100F0000010078B90198C0F3400058B90198C0F3C6
:100F1000800038B90198C0F3C00018B90198C0F337
:100F2000002018B10548383001F07AFD1CBD0000E2
:100F3000DC0500201A010B00140600201C0600200E
:100F4000060106001CB556480068C069019001986A
:100F5000C0F3C02010B352490868524901F0A0F90B
:100F60005149086800F0DAFB4F49086800F014FCAA
:100F70004E49898B081A4D49C968088001204B49A0
:100F800009690870494B9A8B9969474B186800F0BA
:100F90001BFB4549086800F0C6FB80E00198C0F3E0
:100FA0004010B0B13E490868414901F079F93C4927
:100FB0000868416A00910099C9B23C48C06802883B
:100FC0003A48C068801C394BD86018468069815403
:100FD00065E00198C0F3C01020B90198C0F38010FB
:100FE000002845D00198C0F3801098B12C490868BA
:100FF000304901F055F900202C49C8710846407865
:10100000042803D008464078052848D1274801F035
:101010008DFE44E00198C0F3C01000283FD0204965
:101020000868254901F03CF9204840891F49098991
:1010300088420FDB1A4908681F4901F0F6F9184980
:1010400008681C4901F02CF915490868194901F094
:1010500006FA24E0124A1068144A53895289521C35
:10106000124C628122465269D15C816200BF16E057
:10107000019800F0010078B90198C0F3400058B918
:101080000198C0F3800038B90198C0F3C00018B9C6
:101090000198C0F3002010B1044801F0C1FC1CBD50
:1010A000DC0500201A010B00140600201C0600209D
:1010B00005010500060106000701070010B5002420
:1010C00002F00CFB01F05EFF0446204604F08CFDAC
:1010D00002F0D6FB04F0F0F9FFF768FA0A4800784E
:1010E00001280AD10948006840F6B831884204D383
:1010F00000200549087002F02DF904480068401CE2
:101100000249086010BD000004000020000000201B
:1011100070470000F0B502460D46FF21FF24002075
:1011200009E0167886EA04030A4EF65C86EA0104B2
:10113000094EF15C521C2E1EA5F10105F1D10846A5
:101140004FF6FF7606EA002000F47F400619B0B2A1
:10115000F0BD0000D0630008D064000870B5002422
:1011600000258348B0F82002062801DD002070BD6C
:101170007F48B0F8200218B906207E4908700AE0BE
:101180007B48B0F82002062805DC794890F8200258
:10119000401E784908707848007830B101283CD06A
:1011A000022874D0032871D1A9E07148D0F8500208
:1011B0006F49D1F84C12884208D96D48D0F85002D6
:1011C0006B49D1F84C12401A0F2810D26848D0F859
:1011D00050026749D1F84C1288421DD26448D0F8B9
:1011E0004C026349D1F85012401A0F2814D36148B9
:1011F000007800EB8000614901EB001000F114045D
:1012000000230A2221464FF40C5004F077FB5A4881
:101210000078401C58490870A6E05548D0F85002A4
:101220005349D1F84C12884208D95148D0F850029D
:101230004F49D1F84C12401A0F2810D24C48D0F820
:1012400050024B49D1F84C1288421DD24848D0F880
:101250004C024749D1F85012401A0F2814D3454880
:10126000007800EB8000454901EB001000F12804F4
:1012700000230A2221464FF4105004F03FFB3E4861
:101280000078401C3C4908706EE000E067E0384898
:10129000D0F850023649D1F84C12884208D9344867
:1012A000D0F850023249D1F84C12401A0F2810D20F
:1012B0002F48D0F850022E49D1F84C1288421DD246
:1012C0002B48D0F84C022A49D1F85012401A0F2866
:1012D00014D32848007800EB8000284901EB001067
:1012E00000F13C0400230A2221464FF4085004F088
:1012F00005FB21480078401C1F49087034E01C4859
:10130000D0F850021A49D1F84C12884208D918482E
:10131000D0F850021649D1F84C12401A0F2810D2BA
:101320001348D0F850021249D1F84C12884215D215
:101330000F48D0F84C020E49D1F85012401A0F282D
:101340000CD30F4C0023012221464FF4045004F02B
:10135000D5FA09480078401C0749087004E00020CD
:1013600005490870012500BF00BF2846FFE60000C0
:10137000D80200204305002042050020441100202F
:10138000F80400202DE9F04106460027002400253E
:101390005EBB00BF26E0384601F0CAF805460024CF
:1013A00006E0002105F12C0040F82410601CC4B2B6
:1013B0000A2CF6DB002411E09FED210A05F17C00E8
:1013C00000EB840080ED000A9FED1D0A05F1A800E6
:1013D00000EB840080ED000A601CC4B20B2CEBDB38
:1013E000781CC7B2062FD6DB28E0062E26DC701E3E
:1013F000C7B2384601F09CF80546002406E00021FB
:1014000005F12C0040F82410601CC4B20A2CF6DB55
:10141000002411E09FED0A0A05F17C0000EB840036
:1014200080ED000A9FED060A05F1A80000EB84009C
:1014300080ED000A601CC4B20B2CEBDBBDE8F08130
:101440000000000030B5024600210020E2B900BFD4
:1014500017E0002011E0002401EB8103184D05EB9B
:101460000313143323F8104001EB810305EB03133E
:10147000283323F81040431CD8B20A28EBDB4B1C5E
:10148000D9B20729E5DB19E0062A17DC531ED9B2C9
:10149000002011E0002401EB8103094D05EB03134B
:1014A000143323F8104001EB810305EB03132833B9
:1014B00023F81040431CD8B20A28EBDB30BD0000F3
:1014C00044110020002000BF06E00022811D044BD3
:1014D00023F81120411CC8B20628F6DB7047000033
:1014E00014110020024989680143014A9160704744
:1014F000002004E04FF0E020006920F004004FF0ED
:10150000E02108610A4880680A49B0FBF1F0C0F3A5
:10151000CF00094908800846008800EB4001C1EB74
:10152000C0104FF6FF7101EAC000044908807047FF
:101530004814002040420F006A0500206C0500207E
:1015400001460F4A12884A434FF0E0235A610022B5
:101550009A611A46126922F00102521C1A6100BFF8
:101560004FF0E022106900F001021AB100F480325D
:10157000002AF5D000224FF0E0231A619A617047EB
:101580006C05002001460F4A12884A434FF0E023C1
:101590005A6100229A611A46126922F00102521C15
:1015A0001A6100BF4FF0E022106900F001021AB189
:1015B00000F48032002AF5D000224FF0E0231A61B7
:1015C0009A6170476A050020436862F30F03436025
:1015D000C16070470021002200F080520AB1012151
:1015E00000E0002111B1034B186001E0024B58608C
:1015F000704700000404024000000240002200F096
:1016000000420AB1024900E0024948607047000008
:101610000004024000000240016821F00101016065
:101620000021016041686FF30F014160002181607A
:10163000C1603849884204D10F21364A083A5160C6
:1016400067E034491431884204D1F021314A083A24
:1016500051605EE02F492831884205D14FF4706116
:101660002C4A083A516054E02A493C31884205D15D
:101670004FF47041274A083A51604AE025495031F9
:10168000884205D14FF47021224A083A516040E067
:1016900020496431884205D14FF470011D4A083A4F
:1016A000516036E01B497831884205D14FF07061B6
:1016B000184A083A51602CE01749884203D10F219B
:1016C000021F116025E014491431884204D1F02131
:1016D000114A121F11601CE00F492831884205D1C0
:1016E0004FF470610C4A121F116012E00A493C313C
:1016F000884205D14FF47041074A121F116008E07B
:1017000005495031884204D14FF47021024A121F1A
:10171000116070470800024008040240016821F08F
:10172000010101607047016821F00101491C01605D
:1017300070470000F0B503460024A44600250026AB
:10174000002701F0004401F0E0404FEA107C0CB1AA
:101750000F4A00E00F4A146804EA010008B10126AC
:1017600000E00026ACF101008000C1401D6805F0DA
:101770000E0501EA050008B1012700E00027012F4E
:1017800003D1012E01D10120F0BD0020FCE70000B3
:10179000000402400000024008B50146486800907D
:1017A000009880B208BD2DE9F04704460D46164664
:1017B000DDE9099ADDF820800B9F2046FFF72CFF1A
:1017C000206820F480402060206868F34510206085
:1017D00020686AF304102060206820F080008030C8
:1017E0002060206820F040002060206867F38B2094
:1017F0002060206867F309202060206869F30D30BD
:101800002060606863F30F006060E560A660BDE87B
:10181000F08702680A430260704708B5036823F046
:101820000103036006E003680093009B03F00103DB
:1018300003B900E0F7E700BFC160436862F30F033C
:101840004360036823F001035B1C036008BD08B517
:10185000036823F00103036006E003680093009B24
:1018600003F0010303B900E0F7E700BFC16043687C
:1018700062F30F034360036823F001035B1C036002
:1018800008BD000030B50446042500F061F80546A7
:10189000042D16D10C48006920F00200801C0A4972
:1018A000086108464461006920F04000403008614A
:1018B00000F04EF805460448006920F00200024995
:1018C0000861284630BD0000002002400420094A7B
:1018D000D16801F001020AB101200AE001F0100212
:1018E0000AB1022005E001F004020AB1032000E081
:1018F00004207047002002400348006920F0800067
:1019000080300149086170470020024030B5002353
:1019100006E00388801C048843EA044410C1801C4C
:10192000141EA2F10105AAB2F3D130BD0549086920
:1019300000F0800121B10449024A5160034951601D
:10194000704700000020024023016745AB89EFCDBE
:1019500010B54FF0FF330424FFF7B8FF044603E04F
:10196000FFF7B4FF04465B1E012C01D1002BF7D119
:1019700003B90524204610BD2DE9F04104460D466B
:10198000164604274FF00008FFF7E2FF0746042F32
:101990002CD11848006920F00100401C154908614D
:1019A00000BF28882080FFF7D3FF0746042F09D106
:1019B00004F102082868000CA8F80000FFF7C8FF2F
:1019C000074606E00B48006920F00100094908615C
:1019D00005E0701E86B2241D2D1D002EE1D100BF32
:1019E0000448006920F00100024908613846BDE85A
:1019F000F081000000200240F0B5002300244D07D4
:101A0000ED0E02FA05F308290BDA4E07F70E0F2642
:101A1000BE40056AB5430562056A45EA03040462EF
:101A20000AE04E07F70E0F26BE40456AB5434562F1
:101A3000456A45EA03044462F0BD2DE9F0430C46D3
:101A4000079E00210025002700BF60E04FF0010C39
:101A50000CFA01F504EA0507AF4257D14FEA4109F4
:101A60004FF0030808FA09F8D0F800C02CEA080C77
:101A7000C0F800C04FEA41094FF0030808FA09F81E
:101A8000D0F804C02CEA080CC0F804C04FEA4109A1
:101A90004FF0030808FA09F8D0F80CC02CEA080C3B
:101AA000C0F80CC04FEA41094FF0030808FA09F8E2
:101AB000D0F808C02CEA080CC0F808C04FEA410969
:101AC0004FF0020808FA09F8D0F800C04CEA080CF8
:101AD000C0F800C003FA01F8D0F804C04CEA080CC2
:101AE000C0F804C04FEA410802FA08F8D0F80CC068
:101AF0004CEA080CC0F80CC04FEA410806FA08F896
:101B0000D0F808C04CEA080CC0F808C0491C1029DD
:101B10009CD3BDE8F083F0B50B46002100240025DE
:101B200000BF25E0012606FA01F403EA0405A542F8
:101B30001DD14FEA410C032707FA0CF70668BE4394
:101B400006604FEA410C032707FA0CF7C668BE434C
:101B5000C6604FEA410C002707FA0CF706683E43BF
:101B600006604F0002FA07F7C6683E43C660491C8C
:101B70001029D7D3F0BD2DE9F0430C46079E002174
:101B80000025002700BF60E04FF0010C0CFA01F5C2
:101B900004EA0507AF4257D14FEA41094FF0030865
:101BA00008FA09F8D0F800C02CEA080CC0F800C008
:101BB0004FEA41094FF0030808FA09F8D0F804C0C9
:101BC0002CEA080CC0F804C04FEA41094FF00308A2
:101BD00008FA09F8D0F80CC02CEA080CC0F80CC0C0
:101BE0004FEA41094FF0030808FA09F8D0F808C095
:101BF0002CEA080CC0F808C04FEA41094FF0010870
:101C000008FA09F8D0F800C04CEA080CC0F800C087
:101C100003FA01F8D0F804C04CEA080CC0F804C07C
:101C20004FEA410802FA08F8D0F80CC04CEA080C58
:101C3000C0F80CC04FEA410806FA08F8D0F808C00E
:101C40004CEA080CC0F808C0491C10299CD3BDE818
:101C5000F083028B0A430283704700F01F020121C8
:101C600091404211920002F1E022C2F80011704747
:101C700070B50346002000250F240B4E366806F48D
:101C8000E066C6F5E066C6F30720C0F10406F5B2CB
:101C9000044101FA05F6F0B202EA040630430607F1
:101CA000300E024EF05470BD0CED00E000E400E098
:101CB000024949690143014A5161704700100240DD
:101CC0000249C9690143014AD161704700100240CD
:101CD000024909698143014A1161704700100240BD
:101CE000024909690143014A11617047001002402D
:101CF000024989690143014A91617047001002401D
:101D00000249C9688143014AD1607047001002400E
:101D10000249C9680143014AD1607047001002407E
:101D2000F0B5054600210022002300240020384E93
:101D3000367906F00C0121B1042906D0082922D1F8
:101D400008E0344E344F7E6021E0334E3668324F27
:101D50007E601CE02E4E7468C4F300447068C0F3CB
:101D600083400E2801D2801C00E010202CB12A4EA6
:101D70003668760806FB00F302E0264E46437308F9
:101D8000254E736003E0234E234F7E6000BF00BFEB
:101D90001F4E3679C6F30311204E725C1E4E7668D4
:101DA000D6401D4FBE601A4EB688C6F302211C4EA7
:101DB000725C3E46B668D640FE60154EB688C6F3E5
:101DC000C221174E725C3E46B668D6403E613E4622
:101DD000B668FF68BE4204D10F4EF6680E4F7E61B2
:101DE00004E00D4EF66876000B4F7E610A4EB66831
:101DF000094F3F69BE4204D1074E3669064FBE61A6
:101E000004E0054E36697600034FBE61F0BD000068
:101E10000010024000127A00481400208C060020B6
:101E20009C0600202DE9F04F82460F4690469946C9
:101E3000DDF824B0002400250026A848006840F4FE
:101E40007000A6490860A648006840F00100A44957
:101E5000086008464068A3490840A1494860084610
:101E60000068A14908409E4908600846006820F4BF
:101E7000802008600846406820F4FE00486008465C
:101E8000C06A20F00F00C8620846006B97490840FE
:101E90009349086300208860002F73D11220944971
:101EA00008608F48006820F00100401C8C490860E1
:101EB00000BF00BF00BF6D1C8948046804F0020425
:101EC0001CB98C4800688542F5D38548046804F045
:101ED000020414B90120BDE8F08F8148406820F069
:101EE000F00070307E4948600846406869F30A2077
:101EF0004860084640686BF3CD204860084640685B
:101F000020F48030486040464FEAE87108EB917158
:101F1000C1F38F06102E02DAB01E86B200E00F2643
:101F20006F48406866F395406D4948600846006810
:101F300020F0807000F1807008600024002500BF50
:101F40006D1C6748046804F000741CB96948006897
:101F50008542F5D96248046804F000740CB9022087
:101F6000B9E75F48406820F00300801C5C49486086
:101F7000002400BF5A48446804F00804082CF9D132
:101F80009FE0FFE75648C06A20F00F005449C8623E
:101F90000846006820F47F00086000240025BAF19C
:101FA000010F06D10846006820F4802000F580204B
:101FB00008604B48006820F4803000F580304849C4
:101FC000086000BF6D1C4648046804F400341CB966
:101FD000484800688542F5D3474878434749086038
:101FE0003F48046804F400340CB9012073E740480A
:101FF000006820F0100010303D4908600846006875
:1020000020F00700801C08603548406820F0F00090
:102010007030334948600846406869F30A204860D8
:10202000084640686BF3CD2048600846406820F4BD
:10203000003000F5003048600846406820F48030E9
:1020400000F5803048600026384607EBD071491013
:1020500098FBF1F18EB2102E02DAB01E86B200E0CB
:102060000F261F48406866F395401D4948600846A2
:10207000006820F0807000F1807008600024002566
:1020800000BF6D1C1648046804F000741CB91948A0
:1020900000688542F5D31248046804F000740CB956
:1020A000022018E70E48406820F00300801C0C490D
:1020B0004860002400BF0A48446804F00804082C63
:1020C000F9D1064980390A9808600D48091D086051
:1020D0000A48FFF725FE0020FDE6000088ED00E03D
:1020E000001002400CC07FF8FFFFF6FECCFC00FFA2
:1020F00000200240A406002040420F0048140020A7
:102100000005FA0530B51C4611B90025058517E014
:10211000164DA8420BD0164DA84208D0154DA84226
:1021200005D0154DA84202D0144DA84202D1144D3D
:10213000AB6901E0124D6B69B3FBF1F56D1E0585CE
:10214000B0F1804F01D1C26201E095B2C56205686D
:1021500025F440750560056864F3041505600025E5
:102160000561056825F00105056030BD002C0140C2
:10217000003401400040014000440140004801405B
:1021800048140020CA4392B20261704710B5044659
:102190003448844206D14015FFF7BAFD6015FFF7B9
:1021A000AFFD5EE0B4F1804F06D10120FFF798FD4E
:1021B0000120FFF78DFD54E02B48844206D1022018
:1021C000FFF78EFD0220FFF783FD4AE02748844297
:1021D00006D10420FFF784FD0420FFF779FD40E0DD
:1021E0002348844206D11020FFF77AFD1020FFF724
:1021F0006FFD36E01F48844206D12020FFF770FDB6
:102200002020FFF765FD2CE01B48844206D14014D6
:10221000FFF77EFD6014FFF773FD22E0174884424C
:1022200008D14FF48030FFF773FD4FF48030FFF793
:1022300067FD16E01248844208D14FF40030FFF7E2
:1022400067FD4FF40030FFF75BFD0AE00D48844264
:1022500007D14FF48020FFF75BFD4FF48020FFF79C
:102260004FFD10BD002C014000040040000800405C
:1022700000100040001400400034014000400140C4
:102280000044014000480140016821F00101491C5F
:1022900001607047C2680A43C260704701627047BC
:1022A00010B5002200230A0C01249440A3B203625B
:1022B00010BD000010B504461D48844208D14FF4FB
:1022C0008040FFF725FD4FF48040FFF719FD2EE019
:1022D0001848844208D14FF40030FFF701FD4FF455
:1022E0000030FFF7F5FC22E01348844208D14FF498
:1022F0008020FFF7F5FC4FF48020FFF7E9FC16E0A3
:102300000E48844208D14FF40020FFF7E9FC4FF457
:102310000020FFF7DDFC0AE00948844207D14FF4B2
:102320008010FFF7DDFC4FF48010FFF7D1FC10BDEB
:10233000003801400044004000480040004C00408C
:1023400000500040816821F04001403181607047B9
:10235000816821F080018031816070470246D06938
:10236000084008B1012070470020FCE72DE9F0414A
:1023700004460F4615461E46DDF81880206820F0FA
:10238000010020600020A060606866F30D3060608E
:10239000206868F34A202060206820F00400001DB7
:1023A0002060206820F0080008302060606820F479
:1023B000000000F500006060606900F07F4023309D
:1023C000606175B1012D15D0022D1ED1206820F459
:1023D00080502060206820F0805000F18050206004
:1023E00014E0206820F480502060206820F08050A5
:1023F00020600BE0206820F4805000F580502060C1
:10240000206820F08050206000E000BF00BF394607
:10241000204600F04FF84FF0FF302062206820F097
:102420000100401C2060BDE8F08130B5002300248D
:102430000022C1F30723CCB2012505FA04F2022BD6
:1024400003D145689543456008E0032B03D18568B7
:102450009543856002E005689543056030BD30B561
:10246000002300240022C1F30723CCB2012505FA82
:1024700004F2022B03D145681543456008E0032BA5
:1024800003D185681543856002E005681543056042
:1024900030BD10B50B46002108E000BF047FC4F337
:1024A000C014002CFAD05C5C8462491C9142F4D3C5
:1024B00010BD000070B5002200230024056825F03F
:1024C00001050560184DA84202D1184D2A6901E0A6
:1024D000164DEA680588C5F3C03545B15500B5FB12
:1024E000F1F35500B5FBF1F601FB165405E0B2FB24
:1024F000F1F3B2FBF1F501FB1524B4EB510F00D35E
:102500005B1C0588C5F3C03535B1C3F342044FF6F3
:10251000F0751D4045EA04039DB2C560056825F0CD
:1025200001056D1C056070BD003801404814002095
:1025300001460548062906DAC1EBC102C2EB811249
:10254000034603EB82007047FC06002000200021B8
:1025500000BF0FE0094A32F8112040F223139A42DB
:1025600006D0064A22F81130143A12F8210003E08E
:102570004A1CD1B20429EDDB00BF7047CC02002019
:102580001CB504460320034648220821CDE9000477
:102590000020FFF747FC1CBD10B5FEF7ABFF10BDD8
:1025A00010B504462046FEF7CBFF10BD10B504461B
:1025B0002046FEF7E7FF10BD0146084B53F82120E7
:1025C000074B33F81100136903400BB1012300E0FE
:1025D00000230BB9002070470120FCE7A405002070
:1025E0007C660008054B53F82010054B33F810208B
:1025F0000B8B13430B8300BF704700007005002056
:1026000028660008054B53F82010054B33F81020BE
:102610004B8B13434B8300BF7047000070050020B5
:102620002866000810B504460F48FFF7AFFD1020DC
:10263000FFF746FB1020FEF755FF621E00230B49F3
:102640000948FFF75FFD072200213620FFF710FB46
:102650003620FFF702FB01210348FFF71BFE02486B
:10266000FFF712FE10BD00000010004040420F00B6
:1026700070B504460D46164621780F4A52F82100DF
:102680000E49FFF70DFE21780B4A52F821000C4944
:10269000FFF706FE2178084A52F821004FF44071F6
:1026A000FFF7FEFD2178074A52F8210032462946FD
:1026B000FFF7CDF870BD0000DC0500201A010B000B
:1026C000060208001406002038B504466078082881
:1026D0007DD2DFE800F0042345649B9CF1EF217874
:1026E000C34A52F82100FFF7E3FA01200090227854
:1026F000C04B33F81210C04B53F8220000230122C4
:10270000FFF79BF92378BD4DEA5CBD4D35F81310FA
:10271000B94D55F82300FFF76FF966E12178B44A07
:1027200052F82100FFF7C4FA012000902278B14B43
:1027300033F81210B04B53F8220000230122FFF7A8
:102740007CF92378AD4DEA5CAD4D35F81310AA4DF8
:1027500055F82300FFF750F9204600F0E7FA44E16E
:102760002178A84A52F82100FFF7A2FA0120009030
:102770002278A54B33F81210A44B53F82200002303
:102780000122FFF75AF923789C4DEA5CA04D35F8F9
:1027900013109E4D55F82300FFF72EF925E12178FF
:1027A000984A52F82100FFF783FA2178994A52F8A3
:1027B0002100FFF77DFA012000902278964B33F834
:1027C0001210964B53F822000023012200E00BE187
:1027D000FFF7D1F90120009022788B4B33F81210CB
:1027E000854B53F8220000230122FFF726F92378B6
:1027F000824DEA5C864D35F81310844D55F8230060
:10280000FFF7FAF8204600F0A5FAEEE000BF2178C5
:102810007C4A52F82100FFF74BFA2178744A52F8AB
:102820002100FFF745FA21787A4A52F82100FFF794
:102830003FFA012000902278774B33F81210774B43
:1028400053F8220000230122FFF795F901200090A0
:1028500022786D4B33F812106C4B53F82200002392
:102860000122FFF7EAF8012000902278614B33F84B
:102870001210614B53F8220000230122FFF7DDF80C
:1028800023785E4DEA5C624D35F813105F4D55F8C4
:102890002300FFF7B1F82378584DEA5C584D35F81E
:1028A0001310554D55F82300FFF7A6F8204600F009
:1028B0003DFA9AE03DE0FFE72178524A52F82100C4
:1028C000FFF7F6F921784A4A52F82100FFF7F0F9AC
:1028D0000120009022784C4B33F812104B4B53F8E8
:1028E000220000230122FFF7A8F80120009022789F
:1028F000404B33F81210404B53F8220000230122C2
:10290000FFF79BF823783D4DEA5C414D35F81310F5
:102910003E4D55F82300FFF76FF82378374DEA5CFA
:10292000374D35F81310344D55F82300FFF764F890
:102930005BE02178334A52F82100FFF7B9F921789A
:102940002B4A52F82100FFF7B3F92178314A52F8A7
:102950002100FFF7ADF90120009022782E4B33F8CB
:1029600012102E4B53F8220000230122FFF703F927
:10297000012000902278244B33F81210234B53F897
:10298000220000230122FFF758F80120009022784E
:10299000184B33F81210184B53F822000023012271
:1029A000FFF74BF82378154DEA5C194D35F81310F5
:1029B000164D55F82300FFF71FF823780F4DEA5CFA
:1029C0000F4D35F813100C4D55F82300FFF714F890
:1029D00000BF2278104B33F81210104B53F822002E
:1029E000FFF737F900BF00E000BF00BF38BD0000AF
:1029F000B4660008BC660008EC050020A26600086A
:102A0000C0660008A4660008AC660008E405002063
:102A1000B0660008C4660008CC660008F405002013
:102A20007FB504462046FFF74FFE2078884951F8CD
:102A300020008849884206D12178874A52F821002F
:102A4000FFF756F905E02178834A52F82100FFF795
:102A500037F921787E4A52F82100FFF72BFC607984
:102A600000902379E278A5787C4E56F825102578D9
:102A7000774E56F82500FFF779FC6078002855D08E
:102A8000A07902283AD12178754A52F82100FFF73F
:102A90000FF9002001210222CDE90002CDE9021048
:102AA0002378354655F8233003F1280223786D4DFD
:102AB00055F8230000236169FEF775FE2178324640
:102AC00052F82100FFF744FC2178674A52F82100B0
:102AD000FEF794FD2178654A505C01220021FFF742
:102AE000C7F82178614A505CFFF7B7F821782A4689
:102AF00052F821000221FEF78CFE17E0A079012890
:102B000014D121785A4A505C00221146FFF7B0F8E0
:102B100021784F4A52F821005649FFF7C1FB21782E
:102B20004B4A52F821005349FFF799FC607802287C
:102B300051D0A07902284FD121784F4A52F8210074
:102B4000FFF7B6F800200222CDE9000202900390C0
:102B500023783F4D55F8233003F124022378474D65
:102B600055F823000023A169FEF71DFE2178384A9D
:102B700052F82100FFF7E6FBA28B2046A169FFF780
:102B800077FD2178324A52F821003D49FFF788FB52
:102B90002178374A505C01220021FFF769F821783B
:102BA000334A505CFFF759F82178294A52F821003E
:102BB0003349FFF754FC2178254A52F821004FF49D
:102BC0004071FFF76DFB2178214A52F821004FF444
:102BD0004071FFF744FC3AE0A079012837D1217811
:102BE000234A505C01220021FFF742F82178204A55
:102BF000505CFFF732F82178154A52F8210021493C
:102C0000FFF74EFB2178124A52F821001C49FFF7CA
:102C100047FB21780E4A52F821001A49FFF71FFCA2
:102C200021780B4A52F821001549FFF718FC21784A
:102C3000074A52F821004FF44071FFF731FB217829
:102C4000034A52F821004FF44071FFF708FC7FBDA2
:102C5000DC0500200038014098660008EC6600089A
:102C6000D066000804060020DC660008D86600086C
:102C7000A066000807010700E466000814060020AB
:102C80001A010B000501050010B50446A0790128C2
:102C900007D12178084A52F821000849FFF7C5FBFF
:102CA00009E0A079022806D12178034A52F82100D0
:102CB0000349FFF7BAFB10BDDC0500200501050044
:102CC0001A010B0010B50446A079012807D121781C
:102CD000084A52F821000849FFF7C1FB09E0A07932
:102CE000022806D12178034A52F821000349FFF750
:102CF000B6FB10BDDC050020050105001A010B0024
:102D000070B504460D460A2D0ADAA570A278054B67
:102D100053F822102278044B53F82200FFF7CAFB25
:102D200070BD0000EC660008DC05002010B50378DB
:102D3000054C54F82310054C34F813204B8B1343E7
:102D40004B8300BF10BD0000F4050020CC660008D6
:102D50007047000010B504462278044B33F8121077
:102D6000034B53F82200FEF774FF10BDCC66000839
:102D7000F40500202DE9F04104460D461646E079A1
:102D8000012809D12178394A52F82100FEF704FDC3
:102D900010B10120BDE8F0816078042802D060788D
:102DA000052802D12046FFF7D5FFA07930BB0120CE
:102DB000E07121782E4A52F8210032462946FFF769
:102DC00068FB6078042802D06078052813D100BF22
:102DD0002178274A52F821004021FFF7BFFA002846
:102DE000F6D12046FFF7A2FF2178214A52F82100B0
:102DF0004021FFF753FA0020E07134E0A079012868
:102E000017D10020608126816069A84200D06561E9
:102E10002178174A52F821001649FFF741FA217824
:102E2000134A52F821001349FFF719FB0120E07102
:102E300019E02178104A52F82100FEF7CBFB45B982
:102E400022892378094F57F823006169FEF7E5FCD2
:102E500007E02178054A52F8210032462946FEF75C
:102E6000DCFC0120E071002094E700000406002053
:102E7000DC05002007010700DC660008F0B587B01C
:102E8000344E00250024002700BF05E0002001A9E2
:102E900041F82400601CC4B2062CF7DB002544E096
:102EA000192D3DDA002405E0611DC8B2FFF7AAFB29
:102EB000601CC4B2062CF7DB0A20FFF777FB002466
:102EC00005E0611DC8B2FFF78DFB601CC4B2062C83
:102ED000F7DB0A20FFF76AFB002414E001A850F892
:102EE0002400400001A941F82400211DC8B2FFF7C9
:102EF00063FB074601A850F82400384401A941F8B3
:102F00002400601CC4B2062CE8DB002405E0611D2F
:102F1000C8B2FFF777FB601CC4B2062CF7DB02E0F7
:102F20001420FFF743FB681CC5B21B2DB8DB00243F
:102F30000CE001AA52F82410C4EBC402C2EB8412C4
:102F400006EB820001F08AFA601CC4B2062CF0DBAA
:102F500007B0F0BDFC06002070B50024084DFFF757
:102F60008DFF00BF09E0C4EBC401C1EB841105EB88
:102F7000810000F075F8601CC4B2062CF3DB70BD54
:102F8000FC06002070B50024002500263248007899
:102F900005285AD2DFE800F0030715264F0001206C
:102FA0002D49087055E0002405E0611DC8B2FFF707
:102FB00019FB601CC4B2062CF7DB022026490870FE
:102FC00047E0002405E0611DC8B2FFF71BFB601C51
:102FD000C4B2062CF7DB03201F49087000201F49EC
:102FE000087036E01D480078801C1C4908700846AF
:102FF0000078B0F5FA7F05DB002008700120164943
:10300000087017E0002409E0211DC8B2FFF7D4FAC8
:10301000012801D1012503E0601CC4B2062CF3DBBA
:1030200000BF012D03D103200B49087002E00420EA
:10303000094908700DE0FFF78FFF0320064908706B
:10304000002006490870012603E0012002490870AB
:1030500000BF00BF304670BD1000002011000020EE
:1030600030B50021DFED350AB0EE600A4FF00042C6
:10307000531E8478012C60D10024846100BF17E0C6
:10308000041D54F82140944202DB041D54F8212011
:10309000041D54F821409C4202DC041D54F82130E8
:1030A000041D54F8214085692C4484614C1CE1B214
:1030B0000529E5DB8469A41AE41A8461032584697F
:1030C00094FBF5F4C461002114E0D0F8D8403CB979
:1030D00000F12C0454F82140C569A54208DC0BE03E
:1030E00000F12C0454F82140C569A54200DB03E03F
:1030F0004C1CE1B20A29E8DB00BF00F17C0404EBC0
:103100008104D4ED000AB0EE600AD0ED070AF8EEB3
:10311000E00A60EE800AB0EE600A00F1A80404EB59
:103120008104D4ED000A70EE800AB0EE600AD0EDA2
:10313000370AC0ED380A80ED370A30BD00000000C4
:1031400001460020054A062906DAC1EBC103C3EB9C
:10315000811302EB8303D86970470000FC0600204E
:1031600070B52DED068B04469FED1B0AB0EE408A2C
:103170001A49886802F0F9FF41EC1A0B9FED180B11
:1031800053EC102B03F008F841EC190B02F0BCFFD4
:1031900008EE900A144D062C11DAC4EBC400C0EB03
:1031A000841005EB800090ED370AC4EBC400C0EB3F
:1031B000841005EB8000D0ED350A30EE608AB4EE65
:1031C000E88AF1EE10FA01DBB0EE688AB0EE480A48
:1031D000BDEC068B70BD000000000000A0020020C6
:1031E0009A9999999999F13FFC06002030B5544974
:1031F00000200023002200BF9EE0C0EBC004C4EB0F
:10320000801401F824000024C0EBC005C5EB801534
:1032100001EB8505AC70C0EBC005C5EB801501EB7B
:103220008505EC70C0EBC005C5EB801501EB85058D
:10323000AC61C0EBC005C5EB801501EB8505EC6109
:1032400000230BE00025C0EBC004C4EB801401EBAD
:103250008404241D44F823505C1CE3B20A2BF1DBE8
:10326000002216E0374C54F82250C0EBC004C4EBE7
:10327000801401EB8404543444F822500025C0EB40
:10328000C004C4EB801401EB84042034A554541C06
:10329000E2B20A2AE6DB00221BE09FED2B0AC0EB1C
:1032A000C004C4EB801401EB84047C3404EB82047E
:1032B00084ED000A9FED250AC0EBC004C4EB801426
:1032C00001EB8404A83404EB820484ED000A541C4E
:1032D000E2B20B2AE1DB9FED1E0AC0EBC004C4EB97
:1032E000801401EB840484ED350A0024C0EBC00592
:1032F000C5EB801501EB8505C5F8D8409FED140A94
:10330000C0EBC004C4EB801401EB840484ED370AE5
:103310009FED0F0AC0EBC004C4EB801401EB8404E2
:1033200084ED380A0124C0EBC005C5EB801501EB24
:1033300085056C70441CE0B20628FFF65EAF30BD18
:10334000FC060020A8630008124DA03AE1DA85C30C
:103350000000000070B50D4D002400BF11E0C4EB6B
:10336000C400C0EB841005EB800090ED370AC4EB7D
:10337000C400C0EB841005EB800080ED350A601CB2
:10338000C4B2062CEBDBFEF79DF870BDFC060020F6
:1033900038B500241648006800901648D0F850024E
:1033A0001449D1F84C12884208D91248D0F850027A
:1033B0001049D1F84C12401A0F2810D20D48D0F8FD
:1033C00050020C49D1F84C1288420FD20948D0F86B
:1033D0004C020849D1F85012401A0F2806D3002396
:1033E00002226946842002F089FA0124204638BD71
:1033F000D0650008D802002038B500241A480068BB
:1034000000901A480069012802D13720ADF8020067
:103410001748D0F850021649D1F84C12884208D902
:103420001348D0F850021249D1F84C12401A0F2814
:1034300010D20F48D0F850020D49D1F84C128842F2
:103440000FD20B48D0F84C020949D1F85012401A5B
:103450000F2806D3002302226946842002F04EFA88
:103460000124204638BD0000DC650008A0020020D1
:10347000D802002038B500241A48006800901A4885
:103480000069012802D13A20ADF802001748D0F8AF
:1034900050021649D1F84C12884208D91348D0F886
:1034A00050021249D1F84C12401A0F2810D20F487E
:1034B000D0F850020D49D1F84C1288420FD20B4877
:1034C000D0F84C020949D1F85012401A0F2806D3FF
:1034D000002302226946842002F010FA01242046CB
:1034E00038BD0000D8650008A0020020D8020020E6
:1034F00038B500241A48006800901A48006901286D
:1035000002D13720ADF802001748D0F85002164912
:10351000D1F84C12884208D91348D0F85002124909
:10352000D1F84C12401A0F2810D20F48D0F8500290
:103530000D49D1F84C1288420FD20B48D0F84C02FA
:103540000949D1F85012401A0F2806D3002302224D
:103550006946842002F0D2F90124204638BD0000DB
:10356000D4650008A0020020D802002038B500244D
:103570001A48006800901A480069012802D13720D3
:10358000ADF802001748D0F850021649D1F84C1295
:10359000884208D91348D0F850021249D1F84C1289
:1035A000401A0F2810D20F48D0F850020D49D1F818
:1035B0004C1288420FD20B48D0F84C020949D1F87E
:1035C0005012401A0F2806D3002302226946842095
:1035D00002F094F90124204638BD0000E865000897
:1035E000A0020020D802002038B500241648006848
:1035F00000901648D0F850021449D1F84C12884275
:1036000008D91248D0F850021049D1F84C12401A8B
:103610000F2810D20D48D0F850020C49D1F84C12A6
:1036200088420FD20948D0F84C020849D1F850120C
:10363000401A0F2806D3002302226946842002F094
:103640005DF90124204638BDE0650008D80200205D
:1036500038B500241648006800901648D0F850028B
:103660001449D1F84C12884208D91248D0F85002B7
:103670001049D1F84C12401A0F2810D20D48D0F83A
:1036800050020C49D1F84C1288420FD20948D0F8A8
:103690004C020849D1F85012401A0F2806D30023D3
:1036A00002226946842002F029F90124204638BD0F
:1036B000E4650008D8020020014600200C2909DB3F
:1036C0000E2907DAA1F10C0202EB4202024B03EBD6
:1036D0004202507970470000540C002010B500F0F1
:1036E0004DF82248007860B90D20FFF7E5FF01286A
:1036F0000ED11E4908701E49A1F81402FFF72AFED8
:1037000006E00D20FFF7D8FF10B900201749087018
:103710001848007808BB0C20FFF7CEFF012823D102
:1037200014490870144908780978491C124A117024
:1037300000EBD0714910A0EB410111B101290AD170
:1037400004E001200A49A1F8560205E001200849D9
:10375000A1F8580200E000BF06E00C20FFF7ACFF24
:1037600010B900200349087010BD000012000020AD
:10377000D8020020130000201400002070B500249F
:10378000284D00BF4BE004EB440115F81100FEF793
:1037900013FF04EB440105EB4101087104EB440005
:1037A00005EB4000C07804EB440105EB41010979C9
:1037B000884222D104EB440005EB40008078401C95
:1037C00004EB440105EB4101887004EB440005EB78
:1037D00040008078322816DB322004EB440105EBF0
:1037E0004101887004EB440005EB4000007904EBD4
:1037F000440105EB4101487105E0002004EB440160
:1038000005EB4101887004EB440005EB40000079B2
:1038100004EB440105EB4101C870601CC4B2022CEA
:10382000B1DB70BD540C00200020144900BF22E021
:1038300000F10C0200EB400301F81320002200EB22
:10384000400301EB43039A7000EB400301EB430399
:10385000DA7000EB400301EB43031A7100EB400305
:1038600001EB43035A71012200EB400301EB4303D8
:103870005A70421CD0B20228DADB7047540C002088
:103880002DE9F0411F4D00240026A04600271E48C8
:103890004069012833D100BF0BE01C48005D295D61
:1038A000884204D0285D194908554FF00108601C72
:1038B000C4B2032CF1DBB8F1010F20D1002418E0D1
:1038C0001248075D002610E007F0010018B1002043
:1038D000FEF788FE02E00020FEF794FE7F10012133
:1038E0000320FCF7EDFD701CC6B2082EECDB601C5B
:1038F000C4B2032CE4DB01210220FCF7E1FDBDE8AA
:10390000F081000005000020A00200200D00002032
:1039100010B50020FEF766FE0120FEF763FE0220D0
:10392000FEF770FE0320FEF76DFE0420FEF76AFE30
:103930000120FEF757FE00210420FCF7C1FD012104
:103940000220FCF7BDFD0120FEF75CFE10BD00006B
:1039500001F02AFFFFF768FFFFF7DAFFFFF746FCE9
:1039600000F09AFDFDF70AFA00F008FB00F0C6FB34
:1039700001210448FDF74CFA03480068FDF722FADC
:1039800000BFFEE7600C00207002002010B5062882
:1039900000DD10BD0A2907DA00EB8003034C04EBBD
:1039A0000313283323F8112000BFF2E7441100204D
:1039B00070B5062800DD70BD0A2916DA012400EB77
:1039C00080050B4E06EB051525F8114000EB800431
:1039D000354605EB0414143424F8112000EB800460
:1039E00005EB0414283424F8113000BFE3E700008D
:1039F0004411002070B5002400254C48B0F8200286
:103A0000062801DD002070BD4848B0F8200218B932
:103A10000620474908700AE04448B0F8200206280A
:103A200005DC424890F82002401E41490870414898
:103A3000007810B1012871D137E03C48D0F850022D
:103A40003A49D1F84C12884208D93848D0F8500287
:103A50003649D1F84C12401A0F2810D23348D0F80A
:103A600050023249D1F84C1288421DD22F48D0F86A
:103A70004C022E49D1F85012401A0F2814D32C486A
:103A8000007800EB80002C4901EB001000F11404D9
:103A900000230A2221464FF40C5001F02FFF254845
:103AA0000078401C234908703DE02048D0F85002BF
:103AB0001E49D1F84C12884208D91C48D0F850024F
:103AC0001A49D1F84C12401A0F2810D21748D0F8D2
:103AD00050021649D1F84C1288421DD21348D0F832
:103AE0004C021249D1F85012401A0F2814D3104832
:103AF000007800EB8000104901EB001000F1280471
:103B000000230A2221464FF4105001F0F7FE094825
:103B10000078401C0749087005E0FFE700200549D0
:103B20000870012500BF00BF28466CE7D8020020BE
:103B30003F0500203E0500204411002010B5062856
:103B400000DD10BD0A2907DA00EB8003034C04EB0B
:103B500003133C3323F8112000BFF2E74411002087
:103B60002DE9FF4F87B005460F469A46DDF8508095
:103B7000002006900590834604900024002681468C
:103B8000BC480390BC480290002001900090B8F11E
:103B90000C0F7CDC00BF99E04C463AF9140090FB16
:103BA000F8F108FB1100C6B237F8140000286FD0F6
:103BB00035F9140000EE100AB8EEC00AAF48D0ED97
:103BC0000A0AF1EE600AB4EEE00AF1EE10FA0DD343
:103BD00035F9140000EE100AB8EEC00AA748D0ED7F
:103BE0000A0AB4EEE00AF1EE10FA55DD35F91600D6
:103BF00000EE100AB8EEC00AA048D0ED0A0AF1EEB5
:103C0000600AB4EEE00AF1EE10FA0DD335F91600B1
:103C100000EE100AB8EEC00A9848D0ED0A0AB4EED9
:103C2000E00AF1EE10FA37DD35F9140035F9161017
:103C3000401A00EE100AB8EEC00A9048D0ED030A10
:103C4000F1EE600AB4EEE00AF1EE10FA24DD35F987
:103C5000140035F91610401A00EE100AB8EEC00A2A
:103C60008648D0ED030AB4EEE00AF1EE10FA13D262
:103C700037F8140027F8160096FBF8F008FB1060E0
:103C80002AF8140094FBF8F008FB104001E0EDE086
:103C900018E02AF8160001E0012005900598012897
:103CA00010D117F8140000F091FA17F8160000F080
:103CB0008DFA002027F8140027F816002AF81400BF
:103CC0002AF8160009F1010000F0FF09C145FFF6CE
:103CD00063AF0020049081461AE037F8190098B9C4
:103CE00035F9190000EE100AB8EEC00ADDE903014B
:103CF00000EB810080ED000A0499029820F81190F1
:103D00000498401CC0B2049009F1010000F0FF09C2
:103D1000C145E2DBDDE903020299FCF72DFB00203F
:103D2000019085E0DDE9011010F81140DDE90101A5
:103D3000401C11F81060444576DA464574DA35F9CE
:103D4000140000EE100AB8EEC00A4C48D0ED0A0A82
:103D5000F1EE600AB4EEE00AF1EE10FA0DD335F997
:103D6000140000EE100AB8EEC00A4448D0ED0A0A6A
:103D7000B4EEE00AF1EE10FA56DD35F9160000EE69
:103D8000100AB8EEC00A3D48D0ED0A0AF1EE600A0A
:103D9000B4EEE00AF1EE10FA0DD335F9160000EE9C
:103DA000100AB8EEC00A3548D0ED0A0AB4EEE00AAF
:103DB000F1EE10FA38DD35F9140035F91610401A15
:103DC00000EE100AB8EEC00A2C48D0ED030AF1EE5E
:103DD000600AB4EEE00AF1EE10FA25DD35F91400C0
:103DE00035F91610401A00EE100AB8EEC00A234842
:103DF000D0ED030AB4EEE00AF1EE10FA14D2FEF7A9
:103E0000A5FB0090009827F81400009827F81600EA
:103E100096FBF8F008FB10602AF8140094FBF8F009
:103E200008FB10402AF816000198401CC0B201900F
:103E30000498401E019988423FF774AF4FF0000B81
:103E400011E037F91B10099830F91B00814206D0A8
:103E500037F81B10099820F81B10012006900BF171
:103E6000010000F0FF0BC345EBDB00BF06980BB071
:103E7000BDE8F08F0014002030140020A0020020C4
:103E80002DE9F04706460F4690464FF00009002501
:103E90000024B8F10C0F6CDC3748006908BB00BF88
:103EA0001CE025462046FFF75BF9F6EE000A30EEEF
:103EB000200ABDEEC00A10EE100A00B226F8150066
:103EC00036F9150037F91510884205D036F8150077
:103ED00027F815004FF00109601CC4B2062CE0DB86
:103EE00047E025480069012843D100241CE025460D
:103EF0002046FFF735F9F6EE000A30EE200ABDEE57
:103F0000C00A10EE100A00B226F8150036F91500A6
:103F100037F91510884205D036F8150027F8150036
:103F20004FF00109601CC4B2062CE0DB00241EE047
:103F3000A01DC5B221460220FCF7A4FAF6EE000A45
:103F400030EE200ABDEEC00A10EE100A00B226F8CC
:103F5000150036F9150037F91510884205D036F8E6
:103F6000150027F815004FF00109601CC4B2062C9B
:103F7000DEDB4846BDE8F087A00200202DE9F04FC7
:103F8000ADF22C4D002640F2244102A8FCF790F936
:103F90000027B0460020019081460024002583467A
:103FA00040F2091202A95448FDF7B0FCDDF82814CC
:103FB00001914FF4846102A8FDF7ACF801998842A1
:103FC00073D100BF00BF00BF8DE009F0FF00FEF716
:103FD000AFFA06464FF0000B2C4604F10A0085B2FA
:103FE00006F12C0717E002A850F8240001C702AB25
:103FF00053F824A04FEAEA730AEBD3535B121AB2C8
:1040000059460BF1010C0CF0FF0B09F0FF00FFF714
:10401000BDFC601C84B2AC42E5DB4FF0000B2C46CB
:1040200004F10A0085B206F1540712E002A850F824
:10403000240001C702AB33F824301AB259460BF101
:10404000010C0CF0FF0B09F0FF00FFF777FD601C7F
:1040500084B2AC42EADB2C4604F10B0085B206F1D7
:104060007C0808E002A800EB840090ED000AA8ECB0
:10407000010A601C84B2AC42F4DB2C4604F10B0054
:1040800085B206F1A80808E002A800EB840090EDD4
:10409000000AA8EC010A601C84B2AC42F4DB2C4696
:1040A000601C85B206F1D40809E020E002A800EB0C
:1040B000840090ED000AA8EC010A601C84B2AC42B6
:1040C000F4DB2C46601C85B206F1D80705E002A897
:1040D00050F8240001C7601C84B2AC42F7DB09F140
:1040E00001001FFA80F9B9F1060FFFF66EAF0DF26D
:1040F0002C4DBDE8F08F000000F00308F0B58DB046
:1041000034216846FCF7D4F8002500240026002757
:104110000D2269462A48FDF7F9FB0C9D30216846BF
:10412000FCF7F8FFA84249D100BF2146641C5DF8A6
:104130002100244908602146641C5DF821002249C1
:1041400008602146641C5DF821001F494860214633
:10415000641C5DF821001C4988602146641C684687
:1041600000EB810090ED000A174880ED030A21461C
:10417000641C5DF82100144908612146641C5DF847
:10418000210011494861261D00BF0AE05DF8242086
:104190003846791CCFB20C49183141F82020601CF8
:1041A00084B2B442F2DB2046611C8CB2694601EB5A
:1041B000800090ED000A044880ED0A0A0DB0F0BDC1
:1041C00000E0030870020020A00200200146002049
:1041D00000BF0CE0084A52F820208A4205D1002393
:1041E000054A143222F8103003E0421CD0B20428F1
:1041F000F0DB00BF70470000B8020020FEB5424D62
:104200000024002600BF00BF13E02046FEF7A8FFF1
:10421000F6EE000A30EE200ABDEEC00A10EE100ADB
:1042200000B22DF814003DF8140025F81400601CAD
:10423000C4B2062CE9DB3548007810B101285BD107
:104240002BE03348D0F850023149D1F84C12884263
:1042500008D92F48D0F850022D49D1F84C12401AF5
:104260000F2810D22A48D0F850022949D1F84C1210
:10427000884211D22648D0F84C022549D1F8501274
:10428000401A0F2808D3002306222946D00201F045
:1042900035FB01201D49087033E01D48D0F850025D
:1042A0001B49D1F84C12884208D91948D0F850025D
:1042B0001749D1F84C12401A0F2810D21448D0F8E0
:1042C00050021349D1F84C12884214D21048D0F849
:1042D0004C020F49D1F85012401A0F280BD30A4D47
:1042E0000C350023062229464FF4445001F006FB0A
:1042F00002200649087004E00020044908700126E5
:1043000000BF00BF3046FEBD141100204405002050
:10431000D802002070B5002400254C48B0F82002D7
:10432000062801DD002070BD4848B0F8200218B909
:1043300000204749087009E04448B0F820020628E8
:1043400004DC424890F82002414908704148007856
:1043500010B1012871D137E03C48D0F850023B49F8
:10436000D1F84C12884208D93848D0F85002374961
:10437000D1F84C12401A0F2810D23448D0F850020D
:104380003249D1F84C1288421DD23048D0F84C0244
:104390002E49D1F85012401A0F2814D32C48007817
:1043A00000EB80002C4901EB001000F11404002305
:1043B0000A2221464FF40C5001F0A0FA254800785B
:1043C000401C244908703DE02048D0F850021F49A5
:1043D000D1F84C12884208D91C48D0F850021B4929
:1043E000D1F84C12401A0F2810D21848D0F85002B9
:1043F0001649D1F84C1288421DD21448D0F84C020C
:104400001249D1F85012401A0F2814D310480078DE
:1044100000EB8000104901EB001000F1280400239C
:104420000A2221464FF4105001F068FA094800783A
:10443000401C0849087005E0FFE7002005490870A6
:10444000012500BF00BF28466DE70000D80200200C
:1044500041050020400500204411002010B5C2781D
:10446000052A03DB0022C27001228270B1F1807F35
:1044700009D36FF07E42521A521C5342C478021D77
:1044800042F8243003E0C378021D42F82310C278BA
:10449000521CC27010BD000010B50024002021493C
:1044A00048702148486000200872487201F20A20D2
:1044B0004968C860801C1B4949680861A0F2022055
:1044C00018494968486117494968886100201549B9
:1044D000A1F80A0281F80C024FF6FF70A1F80E0253
:1044E0000020A1F81002A1F81202A1F81E02582023
:1044F000A1F820020020A1F82202A1F81A0200BFB0
:1045000007E00A4850F82410094840F82410601CBD
:10451000C4B20A2CF5DB034A50685268116A884716
:1045200010BD0000D802002054060020A863000837
:10453000FC04002038B5044600251C4800680090A3
:104540000F2094FBF0F100FB1140012101EB002052
:1045500000B2ADF800001648D0F850021449D1F866
:104560004C12884208D91248D0F850021049D1F8AC
:104570004C12401A0F2810D20D48D0F850020C49A6
:10458000D1F84C1288420FD20948D0F84C020849A1
:10459000D1F85012401A0F2806D300230222694690
:1045A000A02001F0ABF90125284638BDF0650008D0
:1045B000D80200202DE9F84F0025A946002600204A
:1045C0000090824683460024002780464E4890F89B
:1045D0000C0201287BD14C48807A5A2878D14A486D
:1045E000C07AA528FAD14848B0F80A02062873DB39
:1045F0004548B0F80A02C01E4349097B88426BD186
:104600004148407B802806D0812805D0822824D0CC
:1046100083285FD122E05EE03B4890F80F90007B5A
:10462000C01E484518D1002000903748807B00907C
:1046300000260FE04FF0000AB01D33490A3111F88F
:1046400000A05146009A3244D0B200F0B3F90543BD
:10465000701C86B24E45EDDB3DE03CE02A4890F808
:1046600010B00146097B081F00EBD071BBEB610F56
:104670002CD100272448877B4FF6FF7000EA0727DC
:1046800007F47F472048C07B384487B200241BE0F2
:104690004FF000086000C01D1B490A3111F800806E
:1046A0004FF6FF7000EA082808F47F4860000830E1
:1046B000085C40441FFA80F8391988B2414600F07E
:1046C00085F90543601C84B25C45E1DB03E019E039
:1046D0000EE001E000BF00BF0B48D0F84C0241F2F1
:1046E000883188420AD905F0010010B100F0FAFEC5
:1046F00004E005F0020008B100F0A6FF0020024926
:1047000081F80C02BDE8F88FD802002010B500F047
:10471000AFF85548007838B900F02EFD002802D0D7
:104720007B20514908709DE04F48B0F8560201289F
:1047300008D1FEF78DFF0028F5D000204A49A1F8E6
:1047400056028FE04848B0F85802012808D1FEF719
:104750000DFF002803D000204349A1F8580281E052
:104760004148B0F85402012808D1FEF73DFF002867
:1047700078D000203C49A1F8540273E03A48B0F8E0
:104780005A02012808D1FEF703FE00286AD0002053
:104790003549A1F85A0265E03348B0F85C020128B7
:1047A00008D1FEF7A5FE00285CD000202E49A1F814
:1047B0005C0257E02C48B0F86002012807D1FEF7F0
:1047C0001BFE50B300202849A1F860024AE02648A9
:1047D000B0F85E02012807D1FEF74CFEE8B10020D8
:1047E0002149A1F85E023DE01F48B0F81C020128F3
:1047F00007D1FCF7B3FC80B100201B49A1F81C02D3
:1048000030E01948B0F81802012807D1FFF782FDFF
:1048100018B100201449A1F8180223E01248B0F89A
:104820001602012807D1FFF7E5F8D8B100200E499C
:10483000A1F8160216E00C48B0F81402012807D1BE
:10484000FFF7DCFC70B100200749A1F8140209E071
:104850000648006842F2CD01884203D100F0DAFA3E
:1048600000F02EFB10BD0000D802002074020020D2
:1048700010B54B48007809287BD2DFE800F005121C
:1048800021303E4D5C6B7B00464A4749474800F06B
:104890007DFA012804D142480078401C4049087044
:1048A0007CE042480078FFF745FE012807D13C48EC
:1048B0000078401C3A49087000203D4908806DE0AE
:1048C0003B4801880088401C394A1080B1F57A7F46
:1048D00004DD33480078401C314908705EE00D204B
:1048E000FFF728FE012807D12D480078401C2C49ED
:1048F000087000202E49088050E02D48018800886B
:10490000401C2B4A1080B1F57A7F04DD24480078E2
:10491000401C2349087041E023480078FFF70AFE55
:10492000012807D11E480078401C1D49087000204E
:104930001F49088032E01E4801880088401C1C4A3C
:104940001080B1F57A7F04DD15480078401C1449C9
:10495000087023E013480078FFF7ECFD012807D129
:104960000F480078401C0E4908700020104908804C
:1049700014E00FE00E4801880088401C0C4A1080AB
:1049800040F2DC50814204DD05480078401C0449B7
:10499000087003E000200249087000BF00BF10BD8E
:1049A00064050020670500206605002065050020DD
:1049B0006805002010B502460020034B12B9197299
:1049C00001245C7010BD0000D80200202DE9F84FD2
:1049D000804689464FF0000A0025002000900026FE
:1049E0000027E34CA4F80E820FFA89F0A4F8120213
:1049F000B4F80E024FF6FF71884279D0B4F80E0277
:104A0000B0F5805F05DBB4F80E0241F21301884275
:104A100005DDB4F80E0241F2105188426AD1B4F8B3
:104A20000E0241F20D02811A904231D00BDCB0F53A
:104A3000805F14D0A0F580500A38A8B1012818D0A2
:104A400002283AD11AE0012927D006292AD0A1F25A
:104A5000035189BBB4F91202FCF7B4F944E0B4F98C
:104A60001202C44908603FE0B4F91202C14948602B
:104A70003AE0B4F91202BF49886035E0B4F9120295
:104A800000EE100AB8EEC00ABA4880ED030A2BE027
:104A9000B4F91202B749086126E0B4F91202B54927
:104AA000486121E0B4F9120200EE100AB8EEC00A23
:104AB000B04880ED0A0A17E0FFE7B4F80E0241F2B1
:104AC0000F0188420FDBB4F80E02C91C88420ADCD1
:104AD000B4F91222B4F80E02A0F580500F38A5499F
:104AE000183141F8202000BF00BF4AF0020A38E127
:104AF0003BE1FFE7B4F80E0241F20311884208D10E
:104B0000B4F8120280B28842F1D10120A4F8600208
:104B100027E1B4F80E0241F20211884208D1B4F83C
:104B2000120280B28842E2D10120A4F85E0218E1AC
:104B3000B4F80E0241F20111884208D1B4F8120211
:104B400080B28842D3D10120A4F85C0209E1B4F814
:104B50000E02B0F5045F14D10020A4F81A02B4F8D4
:104B60002002B4F912128842C1D00120A4F81C021C
:104B7000B4F912020628BADCB4F81202A4F8200232
:104B8000EFE0B4F80E0242F20111884214D1B4F8F9
:104B9000120280B240F2E5718842A8D10120A4F847
:104BA0001802A4F81A0294F82002FCF74BFC94F8BF
:104BB0002002FCF7E7FBD4E0B4F80E0242F2031146
:104BC000884215D1B4F8120280B240F2E5718842F1
:104BD00003D10120A4F85402C3E0B4F8120280B259
:104BE00040F2B241884293D10120A4F85A02B8E0C1
:104BF000B4F80E0242F2021188420CD1B4F812024B
:104C000080B24AF25A51884291D1FEF7A3FB0120AB
:104C1000A4F81402A5E0B4F80E02B0F5085F43DB77
:104C2000B4F80E0242F20A2188423DDA4FF0010A3E
:104C3000B4F80E02A0F50850A4F8220294F822025B
:104C40000090B4F9122204F50970009940F821206F
:104C5000B4F91262B4F82002A8B900250BE032467C
:104C60002846009900F014FC32B228460099FEF75D
:104C700065FF681CC5B2062DF1DB32B228460099EB
:104C8000FEF75CFF6DE094F82012491EC8B2324670
:104C9000009900F0FDFB94F82012491EC8B232B210
:104CA0000099FEF74BFF5CE0B4F81A02012858D1D6
:104CB000B4F80E02B0F5145F53DBB4F80E0242F202
:104CC0000A5188424DDAB4F9120241F2FE218842BB
:104CD00047D10120A4F81602824694F80E020090F3
:104CE000B4F82002F0B9002513E02846FEF728FAB0
:104CF0008346C0170BEBD05047122846009900F0AE
:104D000073FE3BB2012228460099FEF751FE681C53
:104D1000C5B2062DE9DB3BB2012206200099FEF761
:104D200047FE1EE0B4F8200206281ADC94F8201290
:104D3000491EC8B2FEF704FA8346C0170BEBD050E9
:104D4000471294F82012491EC8B2009900F04CFE98
:104D500094F82012491EC8B23BB201220099FEF716
:104D600027FE4FF6FF70A4F80E025046BDE8F88FFC
:104D7000D8020020A0020020062803DA821D024B80
:104D800023F81210704700001411002070B503467C
:104D900000201E4C247804EB44041D4D2C5D1C7037
:104DA00000241A4D2D7805EB4505194E7455174C06
:104DB000247804EB440435462C4464780C700024B9
:104DC000124D2D7805EB450535446C700F4C247859
:104DD00004EB440435462C44A478147000240B4D95
:104DE0002D7805EB45053544AC70084C2478641CDF
:104DF000062594FBF5F605FB1644044D2C701C7833
:104E000014B10C7804B1012070BD00003D050020F4
:104E1000741300202DE9F843214C224E224FDFF875
:104E20008C80DFF88C9000252248006908B906259F
:104E300000E00C252A4631462046FFF721F80128DC
:104E400001D11D4908701C48007801280BD10023AE
:104E50000C222146900200F0B7FC01281ED1002050
:104E6000154908701AE04B464246394620460095DF
:104E7000FEF776FE012801D1104908700F4800782E
:104E800001280BD100230C2239464FF4445000F086
:104E90009BFC012802D1002008490870BDE8F88376
:104EA000861300209E130020B6130020CE1300208E
:104EB000E6130020A0020020530500205405002026
:104EC00070B52DED028B8EB000249FEDA30AB0EEDD
:104ED000408A00200590049003900026002500BF22
:104EE0000FE09E4830F9140000EE100AB8EEC00A38
:104EF00008A800EB840080ED000A06A80455601C99
:104F0000C4B2062CEDDB00240DE0A01D934931F85E
:104F1000100030B19FED900A08A800EB840080EDEE
:104F2000000A601CC4B2062CEFDB062206A908A802
:104F3000FBF722FA002487E008A9601C01EB80003F
:104F400090ED000A08A800EB8400D0ED000A30EED6
:104F5000600AB0EE408A824890ED030AB4EEC80AB7
:104F6000F1EE10FA02DB601CC4B26BE008A9601C11
:104F700001EB800090ED000A7948D0ED0A0AB4EE0A
:104F8000E00AF1EE10FA0EDA601C01EB800090ED01
:104F9000000A7348D0ED0A0AF1EE600AB4EEE00AA6
:104FA000F1EE10FA4ED808A800EB840090ED000A4C
:104FB0006B48D0ED0A0AB4EEE00AF1EE10FA0EDA10
:104FC00008A800EB840090ED000A6548D0ED0A0ABD
:104FD000F1EE600AB4EEE00AF1EE10FA32D808A958
:104FE000601C01EB800090ED000A08A800EB840033
:104FF000D0ED000A30EE600AB0EE408A584890EDDD
:10500000030AB4EEC80AF1EE10FA1BD206A9601C1E
:10501000085C401C05A921F8160006A8005D401C8C
:1050200004A921F81600BDEEC80A10EE100A00B25D
:1050300003A921F81600601CC4B2701CC6B2022E6F
:1050400000DB04E0601CC4B2052CFFF675AF00BFA6
:1050500000252EE005A830F91500424931F9151058
:1050600088420FD104A830F915003F4931F91510D5
:10507000884207D103A830F915003C4931F91510D1
:10508000884214D005A830F81500364921F81500DB
:1050900004A830F81500344921F8150003A830F8A9
:1050A0001500324921F81500012031490870681CAB
:1050B000C5B2022DCEDB2E480078012848D12D48FC
:1050C000D0F850022B49D1F84C12884208D929480F
:1050D000D0F850022749D1F84C12401A0F2810D2AC
:1050E0002448D0F850022349D1F84C1288422FD2DC
:1050F0002048D0F84C021F49D1F85012401A0F280E
:1051000026D3002518E0174830F8151005EB4500A8
:105110002DF81010144830F8151005EB4500401C10
:105120002DF81010114830F8151005EB4500801CC3
:105130002DF81010681CC5B2022DE4DB00230622F6
:10514000694641F2012000F0D9FB002008490870AF
:105150000EB0BDEC028B70BD000000002C110020D1
:10516000A0020020460500204A0500204E05002030
:1051700052050020D802002030B58BB00024002555
:10518000BE48007805287DD2DFE800F0033AC6FD6E
:10519000FC00BB48D0F85002B949D1F84C12884203
:1051A00008D9B748D0F85002B549D1F84C12401A86
:1051B000962810D2B248D0F85002B149D1F84C121A
:1051C00088421CD2AE48D0F84C02AD49D1F85012FA
:1051D000401A962813D30024AA48008802B2214618
:1051E000641C01A820F811202246002301A92003F5
:1051F00000F084FBA1480078401CA049087039E108
:105200009F48D0F850029E49D1F84C12884208D9E4
:105210009B48D0F850029A49D1F84C12401A96286F
:1052200010D29748D0F850029549D1F84C128842D4
:1052300071D29348D0F84C029149D1F85012401ADB
:10524000962868D300248F48808802B22146641CC7
:1052500001A820F811208B48008902B22146641C65
:1052600001A820F81120874890ED030ABDEEC00A7E
:1052700010EE100A02B22146641C01A820F8112089
:10528000804800E0F4E0008A02B22146641C01A8D4
:1052900020F811207B48808A02B22146641C01A8B4
:1052A00020F811207748008B02B22146641C01A827
:1052B00020F811207348808B02B22146641C01A89B
:1052C00020F811206F48008C02B22146641C01A80E
:1052D00020F811206B48808C02B22146641C01A882
:1052E00020F81120674890ED0A0ABDEEC00A10EEC2
:1052F000100A02B22146641C01A820F8112022469F
:10530000002301A941F20A0000F0F8FA5B48007896
:10531000401C5A490870ADE05948D0F8500258492D
:10532000D1F84C12884208D95548D0F85002544957
:10533000D1F84C12401A962810D25148D0F8500299
:105340004F49D1F84C12884220D24D48D0F84C0237
:105350004B49D1F85012401A962817D300244A48D6
:10536000008802B22146641C01A820F811202246C0
:10537000002301A94FF4A85000F0C0FA3F4800787C
:10538000401C01E03BE002E03C49087072E03C4810
:10539000D0F850023A49D1F84C12884208D938481E
:1053A000D0F850023649D1F84C12401A962810D243
:1053B0003348D0F850023249D1F84C1288421DD2FD
:1053C0002F48D0F84C022E49D1F85012401A962896
:1053D00014D300242D48008802B22146641C01A881
:1053E00020F811202246002301A941F2105000F0BC
:1053F00085FA22480078401C204908703AE020488D
:10540000D0F850021E49D1F84C12884208D91C48E5
:10541000D0F850021A49D1F84C12401A962810D2EE
:105420001748D0F850021649D1F84C1288421ED2C3
:105430001348D0F84C021249D1F85012401A96285D
:1054400015D300240E48B0F8200202B22146641C95
:1054500001A820F811202246002301A94FF404508E
:1054600000F04CFA05480078401C0449087001E03F
:10547000012500BF00BF28460BB030BD63050020EA
:10548000D8020020A00200206C0200207002002040
:1054900030B5084B06280CDA0A290ADAC0EBC0043A
:1054A000C4EB80141D4605EB840303F1540444F857
:1054B000212030BDFC06002010B50948D0F84C0270
:1054C000401C0749C1F84C020846D0F84C0240F68F
:1054D000B831884203D9FFF76DF8FFF717F910BD0F
:1054E000D80200202DE9F84F0027544EBB46B8469D
:1054F000B9460020009082460024002500BF78E0D5
:105500000AF0FF00FDF714F807462C4604F10A00E4
:1055100085B207F12C0808E0B4F5847F03DA58F867
:10552000040B46F82400601C84B2AC42F4DB2C4629
:1055300004F10A0085B207F1540808E0B4F5847F4D
:1055400003DA58F8040B46F82400601C84B2AC421D
:10555000F4DB2C4604F10B0085B207F17C090AE06C
:10556000B4F5847F05DAB9EC010A06EB840080ED1E
:10557000000A601C84B2AC42F2DB2C4604F10B0042
:1055800085B207F1A8090AE0B4F5847F05DAB9EC21
:10559000010A06EB840080ED000A601C84B2AC4274
:1055A000F2DB2C46601C85B207F1D4090AE0B4F5A1
:1055B000847F05DAB9EC010A06EB840080ED000A6D
:1055C000601C84B2AC42F2DB2C46601C85B207F151
:1055D000D80808E0B4F5847F03DA58F8040B46F8DD
:1055E0002400601C84B2AC42F4DB0AF101001FFA13
:1055F00080FABAF1060F83DBB346A1005846FBF7E9
:1056000089FD0090009846F82400601C84B2B4F52F
:10561000857F10DA0A480088401C09490880FCF799
:1056200085F90848FCF72EF9224631460548FCF773
:10563000A3F9FCF761F9BDE8F88F00006C0C0020BD
:10564000D402002000F003082DE9F047514F4FF03D
:1056500000090026B046B246002400252C46651CF1
:105660004D4E04E001CE47F82400601C84B2AC42E9
:10567000F8DB2C46601C85B2484E04E001CE47F8AA
:105680002400601C84B2AC42F8DB2C46601C85B25E
:10569000424E361D04E001CE47F82400601C84B25F
:1056A000AC42F8DB2C46601C85B23C4E083604E068
:1056B00001CE47F82400601C84B2AC42F8DB2C46D3
:1056C000601C85B2DFF8D48008F10C0807E0B8EC64
:1056D000010A07EB840080ED000A601C84B2AC4232
:1056E000F5DB2C46601C85B22C4E103604E001CE52
:1056F00047F82400601C84B2AC42F8DB2C46601CE6
:1057000085B2264E143604E001CE47F82400601C12
:1057100084B2AC42F8DB2C46201D85B21F4E1836F1
:1057200004E001CE47F82400601C84B2AC42F8DBF0
:105730002C46601C85B2DFF8648008F1280807E079
:10574000B8EC010A07EB840080ED000A601C84B20B
:10575000AC42F5DBB946A1004846FBF7DBFC8246CC
:1057600047F824A0601C84B20D2C10DC0C48008883
:10577000401C0B490880FCF7D9F80A48FCF782F86E
:10578000224639460748FCF7F7F8FCF7B5F8BDE8BC
:10579000F08700009010002070020020A00200207E
:1057A000D602002000E0030870B54FF00064002529
:1057B0006019FCF7E5FEFCF7EFFE00F06DFC4FF41E
:1057C0007A70FCF72FFF70BD2DE9F84F05460F46A4
:1057D000144698464FF0000B0026B146002000907A
:1057E00082464448D0F850024249D1F84C128842CF
:1057F00008D94048D0F850023E49D1F84C12401A1E
:105800000F2810D23B48D0F850023A49D1F84C1238
:1058100088426CD23748D0F84C023649D1F8501241
:10582000401A0F2863D34FF6FF7085425FDA2819BC
:1058300000285CDD28194FF6FF71884257DA5A209C
:105840002C4981F80A01A5212A4880F80B11600033
:10585000C01CC1B2274880F80C11822180F80D11BC
:10586000290A80F80E1180F80F51002610E037F851
:10587000021B1FFA81F94FEA29217000801D1E4A80
:1058800011547000C01D114601F80090701C86B2C2
:10589000A642ECDBB8F1010F16D16000C11C16481E
:1058A000C01CFBF737FC82464FEA2A216000801DAE
:1058B000114A11546000C01D114601F800A060009B
:1058C000083080B2009003E06000801D80B200903C
:1058D000084948684968CB6A0749009A98470548CB
:1058E000D0F84C020349C1F850024FF0010B584662
:1058F000BDE8F88FD8020020E20300202DE9F05F18
:1059000005460F46144698460026B146B346B246B1
:105910004FF6FF70854260DA281900285DDD2819EE
:105920004FF6FF71884258DA5A202D4981F80A0152
:10593000A5212B4880F80B116000C01CC1B228487B
:1059400080F80C11822180F80D11290A80F80E11BF
:1059500080F80F5100BF10E037F8021B1FFA81F9E1
:105960004FEA29217000801D1E4A11547000C01D8D
:10597000114601F80090701C86B2A642ECDBB8F12B
:10598000010F16D16000C11C1648C01CFBF7C2FBFA
:1059900082464FEA2A216000801D124A115460009D
:1059A000C01D114601F800A0600008301FFA80FBFE
:1059B00003E06000801D1FFA80FB094948684968C0
:1059C0005A46CB6A074998470548D0F84C02044923
:1059D000C1F850020120FCF7E3FDBDE8F09F000094
:1059E000D8020020E203002030B502467C489FED3B
:1059F0007D1AB0EE410A9FED7B1AF0EE410A062AAD
:105A00007EDA0A29FCDAC2EBC203C3EB8213044636
:105A100004EB830000F12C03C46943F82140012406
:105A20000C3B5C5400296CD04B1E00F12004E35C5D
:105A3000012B10D100F12C0353F821504B1E0C34D4
:105A400054F823309D4203DD0023C0F8D83002E033
:105A50000123C0F8D8309FED631AB0EE410A00F17F
:105A6000540353F821504B1E00F1540454F82330D2
:105A7000EB1A01EE103AB8EEC11AB0EE410A00F18D
:105A80002C0353F821504B1E283C54F82330EB1ABA
:105A900001EE103AB8EEC11AC0EE011AB0EE610A7A
:105AA00000F1540353F8213001EE103AB8EEC11A58
:105AB000234653F8213001EE903AF8EEE11A00EE59
:105AC000611AF0EE410A00F17C0303EB810383EDE0
:105AD000000A00F1A80303EB8103C3ED000A0929C2
