:020000040800F2
:10000000A02D00206902000877020008790200088C
:100010007B0200087D0200087F020008000000004B
:100020000000000000000000000000008102000845
:100030008302000800000000850200088702000813
:100040008902000889020008890200088902000864
:100050008902000889020008890200088902000854
:100060008902000889020008890200088902000844
:100070000D040008890200088902000889020008AE
:100080008902000849040008890200088902000862
:100090008902000889020008890200088902000814
:1000A0008902000889020008890200088902000804
:1000B00089020008890200088902000889020008F4
:1000C00089020008890200088902000889020008E4
:1000D00089020008890200087113000869140008E9
:1000E00089020008890200088902000889020008C4
:1000F00089020008890200088902000889020008B4
:10010000000000000000000000000000890200085C
:1001100089020008890200085D13000889020008AE
:100120008902000889020008890200088902000883
:100130008902000889020008000000000000000099
:1001400089020008890200088902000800000000F6
:10015000000000000000000000000000000000009F
:100160000000000000000000890200088902000869
:1001700089020008000000000000000000000000EC
:10018000000000008902000800F002F800F05CF8AE
:100190000AA090E8000C82448344AAF10107DA45E2
:1001A00001D100F051F8AFF2090EBAE80F0013F0D8
:1001B000010F18BFFB1A43F001031847286B00001A
:1001C000486B00000A444FF0000C10F8013B13F09C
:1001D000070408BF10F8014B1D1108BF10F8015BA0
:1001E000641E05D010F8016B641E01F8016BF9D193
:1001F00013F0080F1EBF10F8014BAD1C0C1B09D1EA
:100200006D1E58BF01F801CBFAD505E014F8016B5B
:1002100001F8016B6D1EF9D59142D6D370470000ED
:100220000023002400250026103A28BF78C1FBD8FF
:10023000520728BF30C148BF0B6070471FB506F09A
:1002400091FB1FBD10B510BD00F05CF81146FFF723
:10025000F5FF03F029FE00F07AF803B4FFF7F2FF90
:1002600003BC00F081F800000B48016841F4700104
:1002700001600A480047FEE7FEE7FEE7FEE7FEE70B
:10028000FEE7FEE7FEE7FEE7FEE70000044805495B
:10029000054A064B7047000088ED00E08901000820
:1002A000A0150020A02D0020A0210020A0210020CA
:1002B0004FF0000200B5134694469646203922BFFF
:1002C000A0E80C50A0E80C50B1F12001BFF4F7AF4A
:1002D000090728BFA0E80C5048BF0CC05DF804EB2C
:1002E000890028BF40F8042B08BF704748BF20F89A
:1002F000022B11F0804F18BF00F8012B7047704798
:1003000070477047754600F02BF8AE460500694609
:10031000534620F00700854618B020B5FFF7B6FF1A
:10032000BDE820404FF000064FF000074FF00008F6
:100330004FF0000B21F00701AC46ACE8C009ACE877
:10034000C009ACE8C009ACE8C0098D46704710B5DB
:100350000446AFF300802046BDE81040FFF77DBFA4
:10036000004870474015002001491820ABBEFEE749
:100370002600020070470000F0B503460025002467
:100380000020DFED210AB0EE600A002600BF37E052
:10039000002501202DE003EB8007D7ED000A471E62
:1003A00003EB870797ED001AF4EEC10AF1EE10FA9D
:1003B0001DD2471E03EB8707D7ED000AB0EE600A97
:1003C00003EB8007D7ED000A471E03EB8707C7ED55
:1003D000000A03EB800787ED000A471E31F917601A
:1003E00031F810C021F817C021F810600125471C12
:1003F000F8B2171B8742CEDC05B9F0BD671CFCB212
:100400009442C5DB00BFF8E70000000010B50A4ABF
:1004100011680A4A106801F025FC60B107490868B4
:1004200001F014FC06490868064902F0B0FA0249D6
:10043000086801F07BFB10BDAC6C0008EC060020E6
:10044000C40600200601060010B50A4A51680A4A8F
:10045000506801F007FC60B10749486801F0F6FBFD
:1004600006494868064902F092FA0249486801F0D4
:100470005DFB10BDAC6C0008EC060020C40600203B
:100480000601060010B5DFED0C0AB0EE600A0B4A5B
:10049000062910DA02280EDB03280CDA431E03EBD0
:1004A000430402F5437303EBC40303EB8103D3ED71
:1004B000000AB0EE600A10BD000000001800002025
:1004C00070B505460C466426012C12D1284602F070
:1004D00031FB304600F064F8284602F01BFB304642
:1004E00000F05EF8284602F025FB304600F058F890
:1004F00011E0284602F00EFB304600F051F8284685
:1005000002F018FB304600F04BF8284602F002FBE0
:10051000304600F045F870BDF0B502460C460027A5
:100520000025002300260021012C06D0022C0AD031
:10053000032C06D0042C08D101E0012507E0082592
:1005400005E0042503E0022501E0002500BF00BF0F
:10055000062A21DAC2F1050000EBD07CCCF3470378
:100560000E48C15C032B17DAC2F1050000EBD07C0A
:100570004FEA6C0CA0EB4C0C0CF0FF061EB901F01E
:10058000F001294305E001F00F01F02000EA051019
:1005900001430248C15401273846F0BD0500002040
:1005A00000E0401E0028FCD17047000010B50E4C42
:1005B000D4F80803401CC4F808030C48006990B143
:1005C0000A480069012803D1204600F02BF80AE010
:1005D00006480069022806DB04480069032802DA9D
:1005E000204600F04BFB10BD18000020A0030020A7
:1005F000C822D0F80813B1FBF2F302FB131181B942
:1006000000F23E30018841F008010180417C491C24
:100610004174417CA0F23E30032902DB022180F8C4
:100620004F13704710B50446204600F0A1FA20464B
:1006300000F0E3FA012802D1204600F0FFF810BDD7
:1006400070B504460026002594F83E0300F0010032
:1006500088B3B4F83E0320F00100A4F83E03012063
:1006600084F8040194F84F1340F20510015501215C
:10067000401C0155401C0155401C0155062084F8C2
:100680004E0394F84E1304F5827000F0DBFF05462C
:10069000290A94F84E23501C84F84E0304F5827006
:1006A000815494F84E23501C84F84E0304F5827054
:1006B00085540126BFE0FFE794F83E0300F00200F6
:1006C00098B3B4F83E0320F00200A4F83E030120E2
:1006D00084F8040194F84F1340F2051001550221EB
:1006E000401C01550121401C01550221401C0155AF
:1006F000062084F84E0394F84E1304F5827000F03F
:10070000A1FF0546290A94F84E23501C84F84E0395
:1007100004F58270815494F84E23501C84F84E03E3
:1007200004F582708554012685E0FFE794F83E03C6
:1007300000F00400C0B3B4F83E0320F00400A4F8B5
:100740003E03012084F8040194F84F1340F2051091
:1007500001550321401C01552521401C0155032151
:10076000401C0155122104F2091003F097FF2A20C2
:1007700084F84E0394F84E1304F5827000F062FF83
:100780000546290A94F84E23501C84F84E0304F5BC
:100790008270815494F84E23501C84F84E0304F563
:1007A00082708554012646E0FFE794F83E0300F08E
:1007B0000800E8B3B4F83E0320F00800A4F83E03B4
:1007C000012084F8040194F84F1340F205100155FC
:1007D0000421401C01552621401C01550421401CC8
:1007E0000155122104F2091003F058FF94F8501338
:1007F00084F82D11002084F850032B2084F84E0338
:1008000094F84E1304F5827000F01CFF0546290A87
:1008100094F84E23501C84F84E0304F582708154E2
:1008200094F84E23501C84F84E0304F5827000E0C7
:1008300001E085540126F0B270BD000070B50021C2
:100840000022002302794379022A7CDB032A7ADA28
:10085000012B78D1C54C2469012CFAD18479812CE3
:1008600006D0822C45D0832C6ED0842C6DD131E102
:10087000C479182C3CD1002138E08C00241D051DC2
:100880002D5D541E04EB440600F5437404EBC604CE
:1008900004F821508C00641D051D2D5D541E04EBD1
:1008A000440600F5437404EBC60404EB8104657050
:1008B0008C00A41D051D2D5D541E04EB440600F59F
:1008C000437404EBC60404EB8104A5708C00E41DA2
:1008D000051D2D5D541E04EB440600F5437404EB26
:1008E000C60404EB8104E5704C1CA1B20629C4DBEC
:1008F0003AE1C479182C7CD10021A6E00025541ED1
:1009000004EB440600F5437404EBC60444F821509C
:10091000541E04EB440500F5437404EBC50454F87D
:1009200021608C00241D051D2C5D3519541E04EB1F
:10093000440600F5437404EBC60444F82150541EE9
:1009400004EB440502E010E183E00CE100F54374A0
:1009500004EBC50454F821402502541E04EB440660
:1009600000F5437404EBC60444F82150541E04EB14
:10097000440500F5437404EBC50454F821608C0071
:10098000641D051D2C5D3519541E04EB440600F54D
:10099000437404EBC60444F82150541E04EB440590
:1009A00000F5437404EBC50454F821402502541E9D
:1009B00004EB440600F5437404EBC60444F82150EC
:1009C000541E04EB440500F5437404EBC50454F8CD
:1009D00021608C00A41D051D2C5D3519541E04EBEF
:1009E000440600F5437404EBC60444F82150541E39
:1009F00000E02DE004EB440500F5437404EBC5046E
:100A000054F821402502541E04EB440600F54374BB
:100A100004EBC60444F82150541E04EB440500F5D1
:100A2000437404EBC50454F821608C00E41D051DDB
:100A30002C5D3519541E04EB440600F5437404EB99
:100A4000C60444F821504C1CA1B20629FFF656AF4B
:100A50008AE0C479182C3CD1002138E08C00241D98
:100A6000051D2D5D541E04EB440600F5437404EB94
:100A7000C60404F821508C00641D051D2D5D541E14
:100A800004EB440600F5437404EBC60404EB810454
:100A900065708C00A41D051D2D5D541E04EB4406DD
:100AA00000F5437404EBC60404EB8104A5708C00CC
:100AB000E41D051D2D5D541E04EB440600F5437432
:100AC00004EBC60404EB8104E5704C1CA1B20629BA
:100AD000C4DB49E0C479192C44D1002138E08C00F2
:100AE000241D051D2D5D541E04EB440600F54374C2
:100AF00004EBC60404F821508C00641D051D2D5D17
:100B0000541E04EB440600F5437404EBC60404EBE6
:100B1000810465708C00A41D051D2D5D541E04EB21
:100B2000440600F5437404EBC60404EB8104A5708D
:100B30008C00E41D051D2D5D541E04EB440600F5DC
:100B4000437404EBC60404EB8104E5704C1CA1B2B1
:100B50000629C4DB8C00241D051D2C5D012C01D150
:100B600080F8514300E000BF00BF70BDA00300202B
:100B700010B504462046FFF73BFD94F83C0320B136
:100B800001280FD0022832D11FE0B4F84203401CE4
:100B9000A4F84203B4F842030F2802DB012084F8D2
:100BA0003C0328E02046FFF74BFD01280CD194F8C8
:100BB0004E23206804F58271C36A9847022084F8A6
:100BC0003C030020A4F8440315E0B4F84413481C87
:100BD000A4F844033C2902DB012084F83C0394F888
:100BE0000603012802D1002084F83C0303E0002022
:100BF00084F83C0300BF00BF10BD2DE9F04104465E
:100C000000270025002694F80603012833D1002090
:100C100084F80603B4F8040302282CDDB4F80403B6
:100C2000FF2828DCB4F80403801E04F50171085C79
:100C30004FF47F4101EA0026B4F80403401E04F596
:100C40000171085C304486B2B4F80403811E04F5D7
:100C5000017000F0F7FCB0420DD100BF06E004F5D2
:100C60000170415D201D4155681C85B2B4F8040334
:100C7000A842F4DC0127F8B2BDE8F08110B50446C3
:100C8000204600F06DF82046FFF7B7FF012802D19B
:100C9000204600F001F810BD70B50446002600257E
:100CA00026796579012E57D1022D55DB032D53DAB4
:100CB0002A480069A8424FD1A079012806D002280D
:100CC00011D003281CD0042844D12BE0E07901285E
:100CD00008D1207A012805D1B4F8480340F001007A
:100CE000A4F8480337E0E079012808D1207A0228E7
:100CF00005D1B4F8480340F00200A4F848032AE004
:100D0000E07925280DD1207A03280AD1122104F197
:100D1000090005F0B1FCB4F8480340F00400A4F861
:100D2000480318E0E079262813D1207A042810D14E
:100D3000122104F1090005F09FFC94F82D00012810
:100D400001D184F85103B4F8480340F00800A4F836
:100D5000480300E000BF00BF70BD0000A0030020FA
:100D600010B5044694F8460310B101281DD10CE0DB
:100D7000B4F84C03401CA4F84C03B4F84C030F28FF
:100D800002DB012084F8460313E0204600F014F84B
:100D9000012809D194F84E23206804F58271C36AB2
:100DA0009847002084F8460303E0002084F84603B7
:100DB00000BF00BF10BD00002DE9F04104464FF018
:100DC0000008002500260027667994F8480300F003
:100DD000010000287DD0B4F8480320F00100A4F8F9
:100DE0004803F748007C84F80401012140F2051013
:100DF00001558121401C01551821401C015500BF9F
:100E00000FE0E8B202F044FC701E00EB400104F574
:100E1000437000EBC10000EB850080ED000A681C08
:100E200085B2062DEDDB00253CE0701E00EB400195
:100E300004F5437000EBC10010F82520A800001D48
:100E400004F582710A54701E00EB400104F54370F2
:100E500000EBC10000EB85004278A800401D04F5BE
:100E600082710A54701E00EB400104F5437000EBE0
:100E7000C10000EB85008278A800801D04F5827116
:100E80000A54701E00EB400104F5437000EBC100F2
:100E900000EB8500C278A800C01D04F582710A54D9
:100EA000681C85B2062DC0DBA800001D84F84E0327
:100EB00094F84E1304F5827000F0C4FB0746390A1B
:100EC00094F84E23501C84F84E0304F5827081542C
:100ED00000E00AE094F84E23501C84F84E0304F519
:100EE000827087544FF00108D5E194F8480300F070
:100EF000020000287DD0B4F8480320F00200A4F8D6
:100F00004803AF48007C84F80401012140F2051039
:100F100001558221401C01551821401C0155002516
:100F20000FE0E8B202F0B4FB701E00EB400104F5E4
:100F3000437000EBC10000EB850080ED000A681CE7
:100F400085B2062DEDDB002559E0701E00EB400157
:100F500004F5437000EBC10000EB850090ED000A42
:100F6000BDEEC00A10EE100A020EA800001D04F526
:100F700082710A54701E00EB400104F5437000EBCF
:100F8000C10000EB850090ED000ABDEEC00A10EE36
:100F9000100AC0F30742A800401D04F582710A54EC
:100FA000701E00EB400104F5437000EBC10000EB44
:100FB000850090ED000ABDEEC00A10EE100AC0F3E5
:100FC0000722A800801D04F582710A54701E00EBF0
:100FD000400104F5437000EBC10000EB850090ED8B
:100FE000000ABDEEC00A10EE100AC2B2A800C01D71
:100FF00000E025E004F582710A54681C85B2062DD4
:10100000A3DBA800001D84F84E0394F84E1304F5EA
:10101000827000F017FB0746390A94F84E23501CE3
:1010200084F84E0304F58270815494F84E23501CCA
:1010300084F84E0304F5827087544FF001082AE1CA
:1010400094F8480300F0040000287DD0B4F8480369
:1010500020F00400A4F848035948007C84F80401F7
:10106000012140F2051001558321401C0155182132
:10107000401C015500250FE0E8B202F009FB701E8C
:1010800000EB400104F5437000EBC10000EB85006C
:1010900080ED000A681C85B2062DEDDB00253CE0E2
:1010A000701E00EB400104F5437000EBC10010F826
:1010B0002520A800001D04F582710A54701E00EB63
:1010C000400104F5437000EBC10000EB850042785D
:1010D000A800401D04F582710A54701E00EB400107
:1010E00004F5437000EBC10000EB85008278A80096
:1010F000801D04F582710A54701E00EB400104F556
:10110000437000EBC10000EB8500C278A800C01D51
:1011100004F582710A54681C85B2062DC0DBA80054
:10112000001D84F84E0394F84E1304F5827000F00D
:1011300089FA0746390A94F84E23501C84F84E0366
:1011400004F58270815400E00AE094F84E23501CAC
:1011500084F84E0304F5827087544FF001089AE03A
:1011600094F8480300F0080000287DD0B4F8480344
:1011700020F00800A4F848031148007C84F804011A
:10118000012140F2051001558421401C015519210F
:10119000401C015500250FE0E8B202F079FA701EFC
:1011A00000EB400104F5437000EBC10000EB85004B
:1011B00080ED000A681C85B2062DEDDB00253EE0BF
:1011C000A0030020701E00EB400104F5437000EB0B
:1011D000C10010F82520A800001D04F582710A54F2
:1011E000701E00EB400104F5437000EBC10000EB02
:1011F00085004278A800401D04F582710A54701ED3
:1012000000EB400104F5437000EBC10000EB8500EA
:101210008278A800801D04F582710A54701E00EBCC
:10122000400104F5437000EBC10000EB8500C2787B
:10123000A800C01D04F582710A54681C85B2062DF1
:10124000C0DB94F85023A800001D04F582710A54F5
:10125000002084F85003A800401D84F84E0394F841
:101260004E1304F5827000E015E000F0EBF907463C
:10127000390A94F84E23501C84F84E0304F582700A
:10128000815494F84E23501C84F84E0304F5827068
:1012900087544FF001084046BDE8F08110B5104872
:1012A0001049086001F541700968C860801C0D494B
:1012B00009680861A0F202200A490968486100F53E
:1012C000807008490968886100200649A1F8040374
:1012D00081F806030A4610681268116A884710BD33
:1012E000040700201800002010B5014600200D4B17
:1012F0001B880C4CA48823440A4C248923449AB2AA
:10130000094B1A6040F2E5735343C3F30B02914259
:1013100006D1064B196042F2CD03054C2360012033
:1013200010BD0000F40C00206C03002070030020AE
:101330007403002070B1084A52F82120126802603C
:10134000054A52F8212052684260034A52F821208F
:1013500092688260704700007803002010B5012178
:10136000024801F0A7F900F053F910BD0010004049
:101370001CB538484068C06901903648406800682C
:1013800000900198C0F3C02060B30098C0F3806063
:1013900040B330494868304901F01AFA2F4948688B
:1013A00000F054FC2D49486800F08EFC2C49B1F83F
:1013B0005410081A81B22A48406C01800121284843
:1013C000806C01702648383000F03AF9244BB3F8AD
:1013D0005420196D214B586800F08EFB1F49486856
:1013E00000F039FC0098C0F38010C8B10198C0F338
:1013F0008010A8B1174948681A4901F0E9F900219D
:10140000174880F83F1090F83900042804D0144899
:1014100090F83900052803D11148383001F01EFF3B
:10142000019800F0010078B90198C0F3400058B964
:101430000198C0F3800038B90198C0F3C00018B912
:101440000198C0F3002018B10548383001F080FD44
:101450001CBD0000C40600201A010B00FC06002081
:1014600004070020060106001CB556480068C06944
:1014700001900198C0F3C02010B352490868524946
:1014800001F0A6F95149086800F0E0FB4F490868EF
:1014900000F01AFC4E49898B081A4D49C96808802A
:1014A00001204B4909690870494B9A8B9969474B50
:1014B000186800F021FB4549086800F0CCFB80E08B
:1014C0000198C0F34010B0B13E490868414901F0AD
:1014D0007FF93C490868416A00910099C9B23C48CB
:1014E000C06802883A48C068801C394BD8601846EA
:1014F0008069815465E00198C0F3C01020B901985B
:10150000C0F38010002845D00198C0F3801098B136
:101510002C490868304901F05BF900202C49C8715A
:1015200008464078042803D008464078052848D16A
:10153000274801F093FE44E00198C0F3C010002852
:101540003FD020490868254901F042F920484089E8
:101550001F49098988420FDB1A4908681F4901F0B1
:10156000FCF9184908681C4901F032F91549086866
:10157000194901F00CFA24E0124A1068144A538900
:101580005289521C124C628122465269D15C81629E
:1015900000BF16E0019800F0010078B90198C0F38F
:1015A000400058B90198C0F3800038B90198C0F3E1
:1015B000C00018B90198C0F3002010B1044801F030
:1015C000C7FC1CBDC40600201A010B00FC0600204D
:1015D00004070020050105000601060007010700B9
:1015E00010B50948007801280CD10848006840F679
:1015F000B831884206D300200349087002F042F94E
:1016000004F0BAFD10BD000004000020000000201E
:1016100010B5002409480068401C08490860FFF71D
:10162000DFFF02F007FB01F045FF0446FEF7BEFFB7
:1016300004F01AFC02F0D0FB10BD000000000020F6
:1016400070470000F0B502460D46FF21FF24002040
:1016500009E0167886EA04030A4EF65C86EA01047D
:10166000094EF15C521C2E1EA5F10105F1D1084670
:101670004FF6FF7606EA002000F47F400619B0B26C
:10168000F0BD0000A0690008A06A000870B5002441
:1016900000258348B0F82002062801DD002070BD37
:1016A0007F48B0F8200218B906207E4908700AE089
:1016B0007B48B0F82002062805DC794890F8200223
:1016C000401E784908707848007830B101283CD035
:1016D000022874D0032871D1A9E07148D0F85002D3
:1016E0006F49D1F84C12884208D96D48D0F85002A1
:1016F0006B49D1F84C12401A0F2810D26848D0F824
:1017000050026749D1F84C1288421DD26448D0F883
:101710004C026349D1F85012401A0F2814D3614883
:10172000007800EB8000614901EB001000F1140427
:1017300000230A2221464FF40C5004F0EBFD5A48D6
:101740000078401C58490870A6E05548D0F850026F
:101750005349D1F84C12884208D95148D0F8500268
:101760004F49D1F84C12401A0F2810D24C48D0F8EB
:1017700050024B49D1F84C1288421DD24848D0F84B
:101780004C024749D1F85012401A0F2814D345484B
:10179000007800EB8000454901EB001000F12804BF
:1017A00000230A2221464FF4105004F0B3FD3E48B6
:1017B0000078401C3C4908706EE000E067E0384863
:1017C000D0F850023649D1F84C12884208D9344832
:1017D000D0F850023249D1F84C12401A0F2810D2DA
:1017E0002F48D0F850022E49D1F84C1288421DD211
:1017F0002B48D0F84C022A49D1F85012401A0F2831
:1018000014D32848007800EB8000284901EB001031
:1018100000F13C0400230A2221464FF4085004F052
:1018200079FD21480078401C1F49087034E01C48AD
:10183000D0F850021A49D1F84C12884208D91848F9
:10184000D0F850021649D1F84C12401A0F2810D285
:101850001348D0F850021249D1F84C12884215D2E0
:101860000F48D0F84C020E49D1F85012401A0F28F8
:101870000CD30F4C0023012221464FF4045004F0F6
:1018800049FD09480078401C0749087004E0002021
:1018900005490870012500BF00BF2846FFE600008B
:1018A000D8030020440600204306002088110020B1
:1018B000F80500202DE9F041064600270024002508
:1018C0005EBB00BF26E0384601F0CAF8054600249A
:1018D00006E0002105F12C0040F82410601CC4B281
:1018E0000A2CF6DB002411E09FED210A05F17C00B3
:1018F00000EB840080ED000A9FED1D0A05F1A800B1
:1019000000EB840080ED000A601CC4B20B2CEBDB02
:10191000781CC7B2062FD6DB28E0062E26DC701E08
:10192000C7B2384601F09CF80546002406E00021C5
:1019300005F12C0040F82410601CC4B20A2CF6DB20
:10194000002411E09FED0A0A05F17C0000EB840001
:1019500080ED000A9FED060A05F1A80000EB840067
:1019600080ED000A601CC4B20B2CEBDBBDE8F081FB
:101970000000000030B5024600210020E2B900BF9F
:1019800017E0002011E0002401EB8103184D05EB66
:101990000313143323F8104001EB810305EB031309
:1019A000283323F81040431CD8B20A28EBDB4B1C29
:1019B000D9B20729E5DB19E0062A17DC531ED9B294
:1019C000002011E0002401EB8103094D05EB031316
:1019D000143323F8104001EB810305EB0313283384
:1019E00023F81040431CD8B20A28EBDB30BD0000BE
:1019F00088110020002000BF06E00022811D044B5A
:101A000023F81120411CC8B20628F6DB70470000FD
:101A100058110020024989680143014A91607047CA
:101A2000002004E04FF0E020006920F004004FF0B7
:101A3000E02108610A4880680A49B0FBF1F0C0F370
:101A4000CF00094908800846008800EB4001C1EB3F
:101A5000C0104FF6FF7101EAC000044908807047CA
:101A60001C15002040420F005206002054060020A2
:101A700001460F4A12884A434FF0E0235A61002280
:101A80009A611A46126922F00102521C1A6100BFC3
:101A90004FF0E022106900F001021AB100F4803228
:101AA000002AF5D000224FF0E0231A619A617047B6
:101AB0005406002001460F4A12884A434FF0E023A3
:101AC0005A6100229A611A46126922F00102521CE0
:101AD0001A6100BF4FF0E022106900F001021AB154
:101AE00000F48032002AF5D000224FF0E0231A6182
:101AF0009A61704752060020436862F30F03436007
:101B0000C16070470021002200F080520AB101211B
:101B100000E0002111B1034B186001E0024B586056
:101B2000704700000404024000000240002200F060
:101B300000420AB1024900E00249486070470000D3
:101B40000004024000000240016821F00101016030
:101B50000021016041686FF30F0141600021816045
:101B6000C1603849884204D10F21364A083A516091
:101B700067E034491431884204D1F021314A083AEF
:101B800051605EE02F492831884205D14FF47061E1
:101B90002C4A083A516054E02A493C31884205D128
:101BA0004FF47041274A083A51604AE025495031C4
:101BB000884205D14FF47021224A083A516040E032
:101BC00020496431884205D14FF470011D4A083A1A
:101BD000516036E01B497831884205D14FF0706181
:101BE000184A083A51602CE01749884203D10F2166
:101BF000021F116025E014491431884204D1F021FC
:101C0000114A121F11601CE00F492831884205D18A
:101C10004FF470610C4A121F116012E00A493C3106
:101C2000884205D14FF47041074A121F116008E045
:101C300005495031884204D14FF47021024A121FE5
:101C4000116070470800024008040240016821F05A
:101C5000010101607047016821F00101491C016028
:101C600070470000F0B503460024A4460025002676
:101C7000002701F0004401F0E0404FEA107C0CB175
:101C80000F4A00E00F4A146804EA010008B1012677
:101C900000E00026ACF101008000C1401D6805F0A5
:101CA0000E0501EA050008B1012700E00027012F19
:101CB00003D1012E01D10120F0BD0020FCE700007E
:101CC000000402400000024008B501464868009048
:101CD000009880B208BD2DE9F04704460D4616462F
:101CE000DDE9099ADDF820800B9F2046FFF72CFFE5
:101CF000206820F480402060206868F34510206050
:101D000020686AF304102060206820F08000803092
:101D10002060206820F040002060206867F38B205E
:101D20002060206867F309202060206869F30D3087
:101D30002060606863F30F006060E560A660BDE846
:101D4000F08702680A430260704708B5036823F011
:101D50000103036006E003680093009B03F00103A6
:101D600003B900E0F7E700BFC160436862F30F0307
:101D70004360036823F001035B1C036008BD08B5E2
:101D8000036823F00103036006E003680093009BEF
:101D900003F0010303B900E0F7E700BFC160436847
:101DA00062F30F034360036823F001035B1C0360CD
:101DB00008BD000030B50446042500F061F8054672
:101DC000042D16D10C48006920F00200801C0A493D
:101DD000086108464461006920F040004030086115
:101DE00000F04EF805460448006920F00200024960
:101DF0000861284630BD0000002002400420094A46
:101E0000D16801F001020AB101200AE001F01002DC
:101E10000AB1022005E001F004020AB1032000E04B
:101E200004207047002002400348006920F0800031
:101E300080300149086170470020024030B500231E
:101E400006E00388801C048843EA044410C1801C17
:101E5000141EA2F10105AAB2F3D130BD05490869EB
:101E600000F0800121B10449024A516003495160E8
:101E7000704700000020024023016745AB89EFCD89
:101E800010B54FF0FF330424FFF7B8FF044603E01A
:101E9000FFF7B4FF04465B1E012C01D1002BF7D1E4
:101EA00003B90524204610BD2DE9F04104460D4636
:101EB000164604274FF00008FFF7E2FF0746042FFD
:101EC0002CD11848006920F00100401C1549086118
:101ED00000BF28882080FFF7D3FF0746042F09D1D1
:101EE00004F102082868000CA8F80000FFF7C8FFFA
:101EF000074606E00B48006920F001000949086127
:101F000005E0701E86B2241D2D1D002EE1D100BFFC
:101F10000448006920F00100024908613846BDE824
:101F2000F081000000200240F0B5002300244D079E
:101F3000ED0E02FA05F308290BDA4E07F70E0F260D
:101F4000BE40056AB5430562056A45EA03040462BA
:101F50000AE04E07F70E0F26BE40456AB5434562BC
:101F6000456A45EA03044462F0BD2DE9F0430C469E
:101F7000079E00210025002700BF60E04FF0010C04
:101F80000CFA01F504EA0507AF4257D14FEA4109BF
:101F90004FF0030808FA09F8D0F800C02CEA080C42
:101FA000C0F800C04FEA41094FF0030808FA09F8E9
:101FB000D0F804C02CEA080CC0F804C04FEA41096C
:101FC0004FF0030808FA09F8D0F80CC02CEA080C06
:101FD000C0F80CC04FEA41094FF0030808FA09F8AD
:101FE000D0F808C02CEA080CC0F808C04FEA410934
:101FF0004FF0020808FA09F8D0F800C04CEA080CC3
:10200000C0F800C003FA01F8D0F804C04CEA080C8C
:10201000C0F804C04FEA410802FA08F8D0F80CC032
:102020004CEA080CC0F80CC04FEA410806FA08F860
:10203000D0F808C04CEA080CC0F808C0491C1029A8
:102040009CD3BDE8F083F0B50B46002100240025A9
:1020500000BF25E0012606FA01F403EA0405A542C3
:102060001DD14FEA410C032707FA0CF70668BE435F
:1020700006604FEA410C032707FA0CF7C668BE4317
:10208000C6604FEA410C002707FA0CF706683E438A
:1020900006604F0002FA07F7C6683E43C660491C57
:1020A0001029D7D3F0BD2DE9F0430C46079E00213F
:1020B0000025002700BF60E04FF0010C0CFA01F58D
:1020C00004EA0507AF4257D14FEA41094FF0030830
:1020D00008FA09F8D0F800C02CEA080CC0F800C0D3
:1020E0004FEA41094FF0030808FA09F8D0F804C094
:1020F0002CEA080CC0F804C04FEA41094FF003086D
:1021000008FA09F8D0F80CC02CEA080CC0F80CC08A
:102110004FEA41094FF0030808FA09F8D0F808C05F
:102120002CEA080CC0F808C04FEA41094FF001083A
:1021300008FA09F8D0F800C04CEA080CC0F800C052
:1021400003FA01F8D0F804C04CEA080CC0F804C047
:102150004FEA410802FA08F8D0F80CC04CEA080C23
:10216000C0F80CC04FEA410806FA08F8D0F808C0D9
:102170004CEA080CC0F808C0491C10299CD3BDE8E3
:10218000F083028B0A430283704700F01F02012193
:1021900091404211920002F1E022C2F80011704712
:1021A00070B50346002000250F240B4E366806F458
:1021B000E066C6F5E066C6F30720C0F10406F5B296
:1021C000044101FA05F6F0B202EA040630430607BC
:1021D000300E024EF05470BD0CED00E000E400E063
:1021E000024949690143014A5161704700100240A8
:1021F0000249C9690143014AD16170470010024098
:10220000024909698143014A116170470010024087
:10221000024909690143014A1161704700100240F7
:10222000024989690143014A9161704700100240E7
:102230000249C9688143014AD160704700100240D9
:102240000249C9680143014AD16070470010024049
:10225000F0B5054600210022002300240020384E5E
:10226000367906F00C0121B1042906D0082922D1C3
:1022700008E0344E344F7E6021E0334E3668324FF2
:102280007E601CE02E4E7468C4F300447068C0F396
:1022900083400E2801D2801C00E010202CB12A4E71
:1022A0003668760806FB00F302E0264E46437308C4
:1022B000254E736003E0234E234F7E6000BF00BFB6
:1022C0001F4E3679C6F30311204E725C1E4E76689F
:1022D000D6401D4FBE601A4EB688C6F302211C4E72
:1022E000725C3E46B668D640FE60154EB688C6F3B0
:1022F000C221174E725C3E46B668D6403E613E46ED
:10230000B668FF68BE4204D10F4EF6680E4F7E617C
:1023100004E00D4EF66876000B4F7E610A4EB668FB
:10232000094F3F69BE4204D1074E3669064FBE6170
:1023300004E0054E36697600034FBE61F0BD000033
:102340000010024000127A001C15002074070020C3
:10235000840700202DE9F04F82460F4690469946AB
:10236000DDF824B0002400250026A848006840F4C9
:102370007000A6490860A648006840F00100A44922
:10238000086008464068A3490840A14948600846DB
:102390000068A14908409E4908600846006820F48A
:1023A000802008600846406820F4FE004860084627
:1023B000C06A20F00F00C8620846006B97490840C9
:1023C0009349086300208860002F73D1122094493C
:1023D00008608F48006820F00100401C8C490860AC
:1023E00000BF00BF00BF6D1C8948046804F00204F0
:1023F0001CB98C4800688542F5D38548046804F010
:10240000020414B90120BDE8F08F8148406820F033
:10241000F00070307E4948600846406869F30A2041
:102420004860084640686BF3CD2048600846406825
:1024300020F48030486040464FEAE87108EB917123
:10244000C1F38F06102E02DAB01E86B200E00F260E
:102450006F48406866F395406D49486008460068DB
:1024600020F0807000F1807008600024002500BF1B
:102470006D1C6748046804F000741CB96948006862
:102480008542F5D96248046804F000740CB9022052
:10249000B9E75F48406820F00300801C5C49486051
:1024A000002400BF5A48446804F00804082CF9D1FD
:1024B0009FE0FFE75648C06A20F00F005449C86209
:1024C0000846006820F47F00086000240025BAF167
:1024D000010F06D10846006820F4802000F5802016
:1024E00008604B48006820F4803000F5803048498F
:1024F000086000BF6D1C4648046804F400341CB931
:10250000484800688542F5D3474878434749086002
:102510003F48046804F400340CB9012073E74048D4
:10252000006820F0100010303D490860084600683F
:1025300020F00700801C08603548406820F0F0005B
:102540007030334948600846406869F30A204860A3
:10255000084640686BF3CD2048600846406820F488
:10256000003000F5003048600846406820F48030B4
:1025700000F5803048600026384607EBD0714910DE
:1025800098FBF1F18EB2102E02DAB01E86B200E096
:102590000F261F48406866F395401D49486008466D
:1025A000006820F0807000F1807008600024002531
:1025B00000BF6D1C1648046804F000741CB919486B
:1025C00000688542F5D31248046804F000740CB921
:1025D000022018E70E48406820F00300801C0C49D8
:1025E0004860002400BF0A48446804F00804082C2E
:1025F000F9D1064980390A9808600D48091D08601C
:102600000A48FFF725FE0020FDE6000088ED00E007
:10261000001002400CC07FF8FFFFF6FECCFC00FF6C
:10262000002002408C07002040420F001C150020B3
:102630000005FA0530B51C4611B90025058517E0DF
:10264000164DA8420BD0164DA84208D0154DA842F1
:1026500005D0154DA84202D0144DA84202D1144D08
:10266000AB6901E0124D6B69B3FBF1F56D1E058599
:10267000B0F1804F01D1C26201E095B2C562056838
:1026800025F440750560056864F3041505600025B0
:102690000561056825F00105056030BD002C01408D
:1026A0000034014000400140004401400048014026
:1026B0001C150020CA4392B20261704710B504464F
:1026C0003448844206D14015FFF7BAFD6015FFF784
:1026D000AFFD5EE0B4F1804F06D10120FFF798FD19
:1026E0000120FFF78DFD54E02B48844206D10220E3
:1026F000FFF78EFD0220FFF783FD4AE02748844262
:1027000006D10420FFF784FD0420FFF779FD40E0A7
:102710002348844206D11020FFF77AFD1020FFF7EE
:102720006FFD36E01F48844206D12020FFF770FD80
:102730002020FFF765FD2CE01B48844206D14014A1
:10274000FFF77EFD6014FFF773FD22E01748844217
:1027500008D14FF48030FFF773FD4FF48030FFF75E
:1027600067FD16E01248844208D14FF40030FFF7AD
:1027700067FD4FF40030FFF75BFD0AE00D4884422F
:1027800007D14FF48020FFF75BFD4FF48020FFF767
:102790004FFD10BD002C0140000400400008004027
:1027A000001000400014004000340140004001408F
:1027B0000044014000480140016821F00101491C2A
:1027C00001607047C2680A43C26070470162704787
:1027D00010B5002200230A0C01249440A3B2036226
:1027E00010BD000010B504461D48844208D14FF4C6
:1027F0008040FFF725FD4FF48040FFF719FD2EE0E4
:102800001848844208D14FF40030FFF701FD4FF41F
:102810000030FFF7F5FC22E01348844208D14FF462
:102820008020FFF7F5FC4FF48020FFF7E9FC16E06D
:102830000E48844208D14FF40020FFF7E9FC4FF422
:102840000020FFF7DDFC0AE00948844207D14FF47D
:102850008010FFF7DDFC4FF48010FFF7D1FC10BDB6
:10286000003801400044004000480040004C004057
:1028700000500040816821F0400140318160704784
:10288000816821F080018031816070470246D06903
:10289000084008B1012070470020FCE72DE9F04115
:1028A00004460F4615461E46DDF81880206820F0C5
:1028B000010020600020A060606866F30D30606059
:1028C000206868F34A202060206820F00400001D82
:1028D0002060206820F0080008302060606820F444
:1028E000000000F500006060606900F07F40233068
:1028F000606175B1012D15D0022D1ED1206820F424
:1029000080502060206820F0805000F180502060CE
:1029100014E0206820F480502060206820F080506F
:1029200020600BE0206820F4805000F5805020608B
:10293000206820F08050206000E000BF00BF3946D2
:10294000204600F04FF84FF0FF302062206820F062
:102950000100401C2060BDE8F08130B50023002458
:102960000022C1F30723CCB2012505FA04F2022BA1
:1029700003D145689543456008E0032B03D1856882
:102980009543856002E005689543056030BD30B52C
:10299000002300240022C1F30723CCB2012505FA4D
:1029A00004F2022B03D145681543456008E0032B70
:1029B00003D185681543856002E00568154305600D
:1029C00030BD10B50B46002108E000BF047FC4F302
:1029D000C014002CFAD05C5C8462491C9142F4D390
:1029E00010BD000070B5002200230024056825F00A
:1029F00001050560184DA84202D1184D2A6901E071
:102A0000164DEA680588C5F3C03545B15500B5FBDC
:102A1000F1F35500B5FBF1F601FB165405E0B2FBEE
:102A2000F1F3B2FBF1F501FB1524B4EB510F00D328
:102A30005B1C0588C5F3C03535B1C3F342044FF6BE
:102A4000F0751D4045EA04039DB2C560056825F098
:102A500001056D1C056070BD003801401C1500208B
:102A600001460548062906DAC1EBC102C2EB811214
:102A7000034603EB8200704790070020014890F85E
:102A800051037047180000200020002100BF0FE014
:102A9000094A32F8112040F223139A4206D0064A1E
:102AA00022F81130143A12F8210003E04A1CD1B286
:102AB0000429EDDB00BF7047CC0300201CB50446A1
:102AC0000320034648220821CDE900040020FFF737
:102AD00041FC1CBD10B5FEF7A5FF10BD10B50446A6
:102AE0002046FEF7E7FF10BD0146084B53F82120B2
:102AF000074B33F81100136903400BB1012300E0C9
:102B000000230BB9002070470120FCE78C06002051
:102B10004C6C0008054B53F82010054B33F810207F
:102B20000B8B13430B8300BF704700005806002037
:102B3000F86B0008054B53F82010054B33F81020B4
:102B40004B8B13434B8300BF704700005806002097
:102B5000F86B000810B504460F48FFF7AFFD1020D2
:102B6000FFF746FB1020FEF755FF621E00230B49BE
:102B70000948FFF75FFD072200213620FFF710FB11
:102B80003620FFF702FB01210348FFF71BFE024836
:102B9000FFF712FE10BD00000010004040420F0081
:102BA00070B504460D46164621780F4A52F82100AA
:102BB0000E49FFF70DFE21780B4A52F821000C490F
:102BC000FFF706FE2178084A52F821004FF44071C1
:102BD000FFF7FEFD2178074A52F8210032462946C8
:102BE000FFF7CDF870BD0000C40600201A010B00ED
:102BF00006020800FC06002038B504466078082864
:102C00007DD2DFE800F0042345649B9CF1EF21783E
:102C1000C34A52F82100FFF7E3FA0120009022781E
:102C2000C04B33F81210C04B53F82200002301228E
:102C3000FFF79BF92378BD4DEA5CBD4D35F81310C5
:102C4000B94D55F82300FFF76FF966E12178B44AD2
:102C500052F82100FFF7C4FA012000902278B14B0E
:102C600033F81210B04B53F8220000230122FFF773
:102C70007CF92378AD4DEA5CAD4D35F81310AA4DC3
:102C800055F82300FFF750F9204600F0E7FA44E139
:102C90002178A84A52F82100FFF7A2FA01200090FB
:102CA0002278A54B33F81210A44B53F822000023CE
:102CB0000122FFF75AF923789C4DEA5CA04D35F8C4
:102CC00013109E4D55F82300FFF72EF925E12178CA
:102CD000984A52F82100FFF783FA2178994A52F86E
:102CE0002100FFF77DFA012000902278964B33F8FF
:102CF0001210964B53F822000023012200E00BE152
:102D0000FFF7D1F90120009022788B4B33F8121095
:102D1000854B53F8220000230122FFF726F9237880
:102D2000824DEA5C864D35F81310844D55F823002A
:102D3000FFF7FAF8204600F0A5FAEEE000BF217890
:102D40007C4A52F82100FFF74BFA2178744A52F876
:102D50002100FFF745FA21787A4A52F82100FFF75F
:102D60003FFA012000902278774B33F81210774B0E
:102D700053F8220000230122FFF795F9012000906B
:102D800022786D4B33F812106C4B53F8220000235D
:102D90000122FFF7EAF8012000902278614B33F816
:102DA0001210614B53F8220000230122FFF7DDF8D7
:102DB00023785E4DEA5C624D35F813105F4D55F88F
:102DC0002300FFF7B1F82378584DEA5C584D35F8E9
:102DD0001310554D55F82300FFF7A6F8204600F0D4
:102DE0003DFA9AE03DE0FFE72178524A52F821008F
:102DF000FFF7F6F921784A4A52F82100FFF7F0F977
:102E00000120009022784C4B33F812104B4B53F8B2
:102E1000220000230122FFF7A8F801200090227869
:102E2000404B33F81210404B53F82200002301228C
:102E3000FFF79BF823783D4DEA5C414D35F81310C0
:102E40003E4D55F82300FFF76FF82378374DEA5CC5
:102E5000374D35F81310344D55F82300FFF764F85B
:102E60005BE02178334A52F82100FFF7B9F9217865
:102E70002B4A52F82100FFF7B3F92178314A52F872
:102E80002100FFF7ADF90120009022782E4B33F896
:102E900012102E4B53F8220000230122FFF703F9F2
:102EA000012000902278244B33F81210234B53F862
:102EB000220000230122FFF758F801200090227819
:102EC000184B33F81210184B53F82200002301223C
:102ED000FFF74BF82378154DEA5C194D35F81310C0
:102EE000164D55F82300FFF71FF823780F4DEA5CC5
:102EF0000F4D35F813100C4D55F82300FFF714F85B
:102F000000BF2278104B33F81210104B53F82200F8
:102F1000FFF737F900BF00E000BF00BF38BD000079
:102F2000846C00088C6C0008D4060020726C0008C9
:102F3000906C0008746C00087C6C0008CC060020C3
:102F4000806C0008946C00089C6C0008DC06002073
:102F50007FB504462046FFF74FFE2078884951F898
:102F600020008849884206D12178874A52F82100FA
:102F7000FFF756F905E02178834A52F82100FFF760
:102F800037F921787E4A52F82100FFF72BFC60794F
:102F900000902379E278A5787C4E56F825102578A4
:102FA000774E56F82500FFF779FC6078002855D059
:102FB000A07902283AD12178754A52F82100FFF70A
:102FC0000FF9002001210222CDE90002CDE9021013
:102FD0002378354655F8233003F1280223786D4DC8
:102FE00055F8230000236169FEF775FE217832460B
:102FF00052F82100FFF744FC2178674A52F821007B
:10300000FEF794FD2178654A505C01220021FFF70C
:10301000C7F82178614A505CFFF7B7F821782A4653
:1030200052F821000221FEF78CFE17E0A07901285A
:1030300014D121785A4A505C00221146FFF7B0F8AB
:1030400021784F4A52F821005649FFF7C1FB2178F9
:103050004B4A52F821005349FFF799FC6078022847
:1030600051D0A07902284FD121784F4A52F821003F
:10307000FFF7B6F800200222CDE90002029003908B
:1030800023783F4D55F8233003F124022378474D30
:1030900055F823000023A169FEF71DFE2178384A68
:1030A00052F82100FFF7E6FBA28B2046A169FFF74B
:1030B00077FD2178324A52F821003D49FFF788FB1D
:1030C0002178374A505C01220021FFF769F8217806
:1030D000334A505CFFF759F82178294A52F8210009
:1030E0003349FFF754FC2178254A52F821004FF468
:1030F0004071FFF76DFB2178214A52F821004FF40F
:103100004071FFF744FC3AE0A079012837D12178DB
:10311000234A505C01220021FFF742F82178204A1F
:10312000505CFFF732F82178154A52F82100214906
:10313000FFF74EFB2178124A52F821001C49FFF795
:1031400047FB21780E4A52F821001A49FFF71FFC6D
:1031500021780B4A52F821001549FFF718FC217815
:10316000074A52F821004FF44071FFF731FB2178F4
:10317000034A52F821004FF44071FFF708FC7FBD6D
:10318000C406002000380140686C0008BC6C0008D0
:10319000A06C0008EC060020AC6C0008A86C0008CD
:1031A000706C000807010700B46C0008FC060020E2
:1031B0001A010B000501050010B50446A07901288D
:1031C00007D12178084A52F821000849FFF7C5FBCA
:1031D00009E0A079022806D12178034A52F821009B
:1031E0000349FFF7BAFB10BDC40600200501050026
:1031F0001A010B0010B50446A079012807D12178E7
:10320000084A52F821000849FFF7C1FB09E0A079FC
:10321000022806D12178034A52F821000349FFF71A
:10322000B6FB10BDC4060020050105001A010B0005
:1032300070B504460D460A2D0ADAA570A278054B32
:1032400053F822102278044B53F82200FFF7CAFBF0
:1032500070BD0000BC6C0008C406002010B50378E7
:10326000054C54F82310054C34F813204B8B1343B2
:103270004B8300BF10BD0000DC0600209C6C0008E2
:103280007047000010B504462278044B33F8121042
:10329000034B53F82200FEF774FF10BD9C6C00082E
:1032A000DC0600202DE9F04104460D461646E07983
:1032B000012809D12178394A52F82100FEF704FD8E
:1032C00010B10120BDE8F0816078042802D0607858
:1032D000052802D12046FFF7D5FFA07930BB012099
:1032E000E07121782E4A52F8210032462946FFF734
:1032F00068FB6078042802D06078052813D100BFED
:103300002178274A52F821004021FFF7BFFA002810
:10331000F6D12046FFF7A2FF2178214A52F821007A
:103320004021FFF753FA0020E07134E0A079012832
:1033300017D10020608126816069A84200D06561B4
:103340002178174A52F821001649FFF741FA2178EF
:10335000134A52F821001349FFF719FB0120E071CD
:1033600019E02178104A52F82100FEF7CBFB45B94D
:1033700022892378094F57F823006169FEF7E5FC9D
:1033800007E02178054A52F8210032462946FEF727
:10339000DCFC0120E071002094E70000EC06002036
:1033A000C406002007010700AC6C0008F0B587B028
:1033B000344E00250024002700BF05E0002001A9AD
:1033C00041F82400601CC4B2062CF7DB002544E061
:1033D000192D3DDA002405E0611DC8B2FFF7AAFBF4
:1033E000601CC4B2062CF7DB0A20FFF777FB002431
:1033F00005E0611DC8B2FFF78DFB601CC4B2062C4E
:10340000F7DB0A20FFF76AFB002414E001A850F85C
:103410002400400001A941F82400211DC8B2FFF793
:1034200063FB074601A850F82400384401A941F87D
:103430002400601CC4B2062CE8DB002405E0611DFA
:10344000C8B2FFF777FB601CC4B2062CF7DB02E0C2
:103450001420FFF743FB681CC5B21B2DB8DB00240A
:103460000CE001AA52F82410C4EBC402C2EB84128F
:1034700006EB820001F09EFB601CC4B2062CF0DB60
:1034800007B0F0BD9007002070B50024084DFFF78D
:103490008DFF00BF09E0C4EBC401C1EB841105EB53
:1034A000810000F075F8601CC4B2062CF3DB70BD1F
:1034B0009007002070B500240025002632480078CF
:1034C00005285AD2DFE800F0030715264F00012037
:1034D0002D49087055E0002405E0611DC8B2FFF7D2
:1034E00019FB601CC4B2062CF7DB022026490870C9
:1034F00047E0002405E0611DC8B2FFF71BFB601C1C
:10350000C4B2062CF7DB03201F49087000201F49B6
:10351000087036E01D480078801C1C490870084679
:103520000078B0F5FA7F05DB00200870012016490D
:10353000087017E0002409E0211DC8B2FFF7D4FA93
:10354000012801D1012503E0601CC4B2062CF3DB85
:1035500000BF012D03D103200B49087002E00420B5
:10356000094908700DE0FFF78FFF03200649087036
:10357000002006490870012603E001200249087076
:1035800000BF00BF304670BD1000002011000020B9
:1035900030B50021DFED350AB0EE600A4FF0004291
:1035A000531E8478012C60D10024846100BF17E091
:1035B000041D54F82140944202DB041D54F82120DC
:1035C000041D54F821409C4202DC041D54F82130B3
:1035D000041D54F8214085692C4484614C1CE1B2DF
:1035E0000529E5DB8469A41AE41A8461032584694A
:1035F00094FBF5F4C461002114E0D0F8D8403CB944
:1036000000F12C0454F82140C569A54208DC0BE008
:1036100000F12C0454F82140C569A54200DB03E009
:103620004C1CE1B20A29E8DB00BF00F17C0404EB8A
:103630008104D4ED000AB0EE600AD0ED070AF8EE7E
:10364000E00A60EE800AB0EE600A00F1A80404EB24
:103650008104D4ED000A70EE800AB0EE600AD0ED6D
:10366000370AC0ED380A80ED370A30BD000000008F
:1036700001460020054A062906DAC1EBC103C3EB67
:10368000811302EB8303D869704700009007002084
:1036900070B52DED068B04469FED1B0AB0EE408AF7
:1036A0001A49886803F049F841EC1A0B9FED180B92
:1036B00053EC102B03F058F841EC190B03F00CF805
:1036C00008EE900A144D062C11DAC4EBC400C0EBCE
:1036D000841005EB800090ED370AC4EBC400C0EB0A
:1036E000841005EB8000D0ED350A30EE608AB4EE30
:1036F000E88AF1EE10FA01DBB0EE688AB0EE480A13
:10370000BDEC068B70BD000000000000A00300208F
:103710009A9999999999F13F9007002030B55449A9
:1037200000200023002200BF9EE0C0EBC004C4EBD9
:10373000801401F824000024C0EBC005C5EB8015FF
:1037400001EB8505AC70C0EBC005C5EB801501EB46
:103750008505EC70C0EBC005C5EB801501EB850558
:10376000AC61C0EBC005C5EB801501EB8505EC61D4
:1037700000230BE00025C0EBC004C4EB801401EB78
:103780008404241D44F823505C1CE3B20A2BF1DBB3
:10379000002216E0374C54F82250C0EBC004C4EBB2
:1037A000801401EB8404543444F822500025C0EB0B
:1037B000C004C4EB801401EB84042034A554541CD1
:1037C000E2B20A2AE6DB00221BE09FED2B0AC0EBE7
:1037D000C004C4EB801401EB84047C3404EB820449
:1037E00084ED000A9FED250AC0EBC004C4EB8014F1
:1037F00001EB8404A83404EB820484ED000A541C19
:10380000E2B20B2AE1DB9FED1E0AC0EBC004C4EB61
:10381000801401EB840484ED350A0024C0EBC0055C
:10382000C5EB801501EB8505C5F8D8409FED140A5E
:10383000C0EBC004C4EB801401EB840484ED370AB0
:103840009FED0F0AC0EBC004C4EB801401EB8404AD
:1038500084ED380A0124C0EBC005C5EB801501EBEF
:1038600085056C70441CE0B20628FFF65EAF30BDE3
:103870009007002078690008124DA03AE1DA85C36C
:103880000000000070B50D4D002400BF11E0C4EB36
:10389000C400C0EB841005EB800090ED370AC4EB48
:1038A000C400C0EB841005EB800080ED350A601C7D
:1038B000C4B2062CEBDBFEF79DF870BD900700202C
:1038C00038B500241648006800901648D0F8500219
:1038D0001449D1F84C12884208D91248D0F8500245
:1038E0001049D1F84C12401A0F2810D20D48D0F8C8
:1038F00050020C49D1F84C1288420FD20948D0F836
:103900004C020849D1F85012401A0F2806D3002360
:1039100002226946842002F0FDFC0124204638BDC5
:10392000A06B0008D803002038B500241A480068AE
:1039300000901A480069012802D13720ADF8020032
:103940001748D0F850021649D1F84C12884208D9CD
:103950001348D0F850021249D1F84C12401A0F28DF
:1039600010D20F48D0F850020D49D1F84C128842BD
:103970000FD20B48D0F84C020949D1F85012401A26
:103980000F2806D3002302226946842002F0C2FCDD
:103990000124204638BD0000AC6B0008A0030020C5
:1039A000D803002038B500241A48006800901A484F
:1039B0000069012802D13A20ADF802001748D0F87A
:1039C00050021649D1F84C12884208D91348D0F851
:1039D00050021249D1F84C12401A0F2810D20F4849
:1039E000D0F850020D49D1F84C1288420FD20B4842
:1039F000D0F84C020949D1F85012401A0F2806D3CA
:103A0000002302226946842002F084FC012420461F
:103A100038BD0000A86B0008A0030020D8030020D8
:103A200038B500241F48006800901F48006918B985
:103A30003120ADF802000AE01B480069012803D1DB
:103A40003720ADF8020002E03B20ADF80200174835
:103A5000D0F850021549D1F84C12884208D91348C1
:103A6000D0F850021149D1F84C12401A0F2810D248
:103A70000E48D0F850020D49D1F84C1288420FD2AE
:103A80000A48D0F84C020949D1F85012401A0F28C0
:103A900006D3002302226946842002F03BFC012465
:103AA000204638BDA46B0008A0030020D8030020E6
:103AB00038B500241F48006800901F48006918B9F5
:103AC0003120ADF802000AE01B480069012803D14B
:103AD0003720ADF8020002E03B20ADF802001748A5
:103AE000D0F850021549D1F84C12884208D9134831
:103AF000D0F850021149D1F84C12401A0F2810D2B8
:103B00000E48D0F850020D49D1F84C1288420FD21D
:103B10000A48D0F84C020949D1F85012401A0F282F
:103B200006D3002302226946842002F0F3FB01241D
:103B3000204638BDB86B0008A0030020D803002041
:103B400038B500241648006800901648D0F8500296
:103B50001449D1F84C12884208D91248D0F85002C2
:103B60001049D1F84C12401A0F2810D20D48D0F845
:103B700050020C49D1F84C1288420FD20948D0F8B3
:103B80004C020849D1F85012401A0F2806D30023DE
:103B900002226946842002F0BDFB0124204638BD84
:103BA000B06B0008D803002038B500241648006820
:103BB00000901648D0F850021449D1F84C128842AF
:103BC00008D91248D0F850021049D1F84C12401AC6
:103BD0000F2810D20D48D0F850020C49D1F84C12E1
:103BE00088420FD20948D0F84C020849D1F8501247
:103BF000401A0F2806D3002302226946842002F0CF
:103C000089FB0124204638BDB46B0008D80300208E
:103C1000014600200C2909DB0E2907DAA1F10C026C
:103C200002EB4202024B03EB420250797047000064
:103C3000E80C002010B500F04DF82248007860B97B
:103C40000D20FFF7E5FF01280ED11E4908701E491F
:103C5000A1F8140202F0EEF806E00D20FFF7D8FFFD
:103C600010B90020174908701848007808BB0C20CC
:103C7000FFF7CEFF012823D11449087014490878B2
:103C80000978491C124A117000EBD0714910A0EB61
:103C9000410111B101290AD104E001200A49A1F82A
:103CA000560205E001200849A1F8580200E000BFD3
:103CB00006E00C20FFF7ACFF10B9002003490870A4
:103CC00010BD000012000020D803002013000020C7
:103CD0001400002070B50024284D00BF4BE004EB19
:103CE000440115F81100FEF7FFFE04EB440105EB5B
:103CF0004101087104EB440005EB4000C07804EB7F
:103D0000440105EB41010979884222D104EB4400CA
:103D100005EB40008078401C04EB440105EB4101B9
:103D2000887004EB440005EB40008078322816DBF5
:103D3000322004EB440105EB4101887004EB4400A0
:103D400005EB4000007904EB440105EB41014871AB
:103D500005E0002004EB440105EB4101887004EB11
:103D6000440005EB4000007904EB440105EB410100
:103D7000C870601CC4B2022CB1DB70BDE80C00201E
:103D80000020144900BF22E000F10C0200EB4003C8
:103D900001F81320002200EB400301EB43039A706B
:103DA00000EB400301EB4303DA7000EB400301EB4F
:103DB00043031A7100EB400301EB43035A710122E4
:103DC00000EB400301EB43035A70421CD0B20228BF
:103DD000DADB7047E80C00202DE9F0411F4D00248C
:103DE0000026A04600271E484069012833D100BFA5
:103DF0000BE01C48005D295D884204D0285D19490C
:103E000008554FF00108601CC4B2032CF1DBB8F177
:103E1000010F20D1002418E01248075D002610E0B1
:103E200007F0010018B10020FEF774FE02E0002048
:103E3000FEF780FE7F1001210320FCF741FB701C80
:103E4000C6B2082EECDB601CC4B2032CE4DB0121FB
:103E50000220FCF735FBBDE8F081000005000020E2
:103E6000A00300200D00002010B50020FEF752FE38
:103E70000120FEF74FFE0220FEF75CFE0320FEF756
:103E800059FE0420FEF756FE0120FEF743FE0021F6
:103E90000420FCF715FB01210220FCF711FB012097
:103EA000FEF748FE10BD000002F056F9FFF768FF6C
:103EB000FFF7DAFFFFF732FC00F0B6FEFDF7EEF990
:103EC00000F008FC00F0C6FC01210448FDF732FABE
:103ED00003480068FDF708FA00BFFEE7F40C002075
:103EE000700300202DE9FC5F8A466148019061481B
:103EF0000090614EDFF884914FF0000B0025604F79
:103F0000A8460024BAF10C0F1BDC00BF17E0009894
:103F100030F91400FF2810D1019830F9140000EE98
:103F2000100AB8EEC00A06EB880080ED000A29F8F6
:103F3000184008F1010000F0FF08601CC4B25445AD
:103F4000E5DBB8F1010F04DD424649463046FCF797
:103F500013FA002471E0601C06EB800090ED000A6B
:103F60004848D0ED0A0AB4EEE00AF1EE10FA0EDA93
:103F7000601C06EB800090ED000A4248D0ED0A0A72
:103F8000F1EE600AB4EEE00AF1EE10FA53D806EB57
:103F9000840090ED000A3B48D0ED0A0AB4EEE00A36
:103FA000F1EE10FA0DDA06EB840090ED000A3548C8
:103FB000D0ED0A0AF1EE600AB4EEE00AF1EE10FA72
:103FC00039D8601C06EB800090ED000A06EB8400F7
:103FD000D0ED000A30EE600ABDEEC00A10EE100A05
:103FE0000FFA80FB2748D0ED030A00EE10BAB8EEB6
:103FF000C00AF4EEC00AF1EE10FA1AD2062D18DA51
:10400000601C39F81000401C01B205EB450027F890
:10401000101039F81400401C01B205EB4500401C9B
:1040200027F8101005EB4500801C27F810B0681C1D
:10403000C5B2601CC4B2601CC4B2A8F10100A042A9
:1040400089DC10E0002105EB450027F8101005EB96
:104050004500401C27F8101005EB4500801C27F890
:104060001010681CC5B2062DECDBBDE8FC9F0000FB
:10407000CA1300202A140020D414002004150020A4
:104080008C140020A003002010B5062800DD10BD10
:104090000A2907DA00EB8003034C04EB03132833EF
:1040A00023F8112000BFF2E78811002070B5062820
:1040B00000DD70BD0A2916DA012400EB80050B4EE5
:1040C00006EB051525F8114000EB8004354605EB9D
:1040D0000414143424F8112000EB800405EB0414BC
:1040E000283424F8113000BFE3E7000088110020D5
:1040F00070B5002400254C48B0F82002062801DDE8
:10410000002070BD4848B0F8200218B90620474981
:1041100008700AE04448B0F82002062805DC42484E
:1041200090F82002401E414908704148007810B1C3
:10413000012871D137E03C48D0F850023A49D1F813
:104140004C12884208D93848D0F850023649D1F884
:104150004C12401A0F2810D23348D0F8500232497E
:10416000D1F84C1288421DD22F48D0F84C022E496B
:10417000D1F85012401A0F2814D32C48007800EBC5
:1041800080002C4901EB001000F1140400230A22E6
:1041900021464FF40C5002F0BDF825480078401C31
:1041A000234908703DE02048D0F850021E49D1F85C
:1041B0004C12884208D91C48D0F850021A49D1F84C
:1041C0004C12401A0F2810D21748D0F85002164946
:1041D000D1F84C1288421DD21348D0F84C02124933
:1041E000D1F85012401A0F2814D31048007800EB71
:1041F0008000104901EB001000F1280400230A227E
:1042000021464FF4105002F085F809480078401C10
:104210000749087005E0FFE70020054908700125FF
:1042200000BF00BF28466CE7D803002040060020EE
:104230003F0600208811002010B5062800DD10BDC3
:104240000A2907DA00EB8003034C04EB03133C3329
:1042500023F8112000BFF2E7881100202DE9FF4F5D
:1042600087B0054688469946DDF850A000200690A4
:1042700005908346002400260027C6480490C648BF
:104280000390002002900190BAF10C0F6FDC00BF88
:10429000AAE03C4639F91400504569DA39F91400AE
:1042A000A04265D019F8146035F9140035F91610DC
:1042B000401A00EE100AB8EEC00AB848D0ED030A62
:1042C000F1EE600AB4EEE00AF1EE10FA54DD35F9D1
:1042D000140035F91610401A00EE100AB8EEC00AA4
:1042E000AE48D0ED030AB4EEE00AF1EE10FA43D284
:1042F00035F9140000EE100AB8EEC00AA748D0ED58
:104300000A0AF1EE600AB4EEE00AF1EE10FA0DDDF1
:1043100035F9140000EE100AB8EEC00A9F48D0ED3F
:104320000A0AB4EEE00AF1EE10FA1DD335F91600D0
:1043300000EE100AB8EEC00A9848D0ED0A0AF1EE75
:10434000600AB4EEE00AF1EE10FA12DD35F916005B
:1043500000EE100AB8EEC00A9048D0ED0A0AB4EE9A
:10436000E00AF1EE10FA04D20120059006E00DE11A
:1043700022E00020059001E0012005900598012829
:1043800030D1FF2029F8140029F8160018F814007D
:1043900000F0C8FA18F8160000F0C4FA002028F857
:1043A000140028F8160000212046FCF7B5F800217B
:1043B0003046FCF7B1F815E039F91400FF2811D0A8
:1043C000FF2029F8140018F8140000F0ABFA0020C0
:1043D00028F8140000212046FCF79EF80021304602
:1043E000FCF79AF8781CC7B25745FFF652AF4FF06A
:1043F000000B002716E038F8170088B935F91700C8
:1044000000EE100AB8EEC00A049800EB8B0080EDB5
:10441000000A039820F81B700BF1010000F0FF0B5D
:10442000781CC7B25745E6DB5A46DDE90310FBF7B7
:10443000A3FF002002908FE0DDE9021010F8114088
:10444000DDE90201401C11F8106054457DDA564543
:104450007EDA35F9140000EE100AB8EEC00A4F48B3
:10446000D0ED0A0AF1EE600AB4EEE00AF1EE10FABD
:104470000DD335F9140000EE100AB8EEC00A474813
:10448000D0ED0A0AB4EEE00AF1EE10FA60DD35F97B
:10449000160000EE100AB8EEC00A4048D0ED0A0A35
:1044A000F1EE600AB4EEE00AF1EE10FA0DD335F940
:1044B000160000EE100AB8EEC00A3848D0ED0A0A1D
:1044C000B4EEE00AF1EE10FA42DD35F9140035F9E8
:1044D0001610401A00EE100AB8EEC00A2F48D0EDB0
:1044E000030AF1EE600AB4EEE00AF1EE10FA2FDDF5
:1044F00035F9140035F91610401A00EE100AB8EE1E
:10450000C00A2648D0ED030AB4EEE00AF1EE10FA34
:104510001ED2FEF7B9FA0190019828F8140001980C
:1045200028F8160029F8146029F81640019828B1D7
:10453000721CD1B2621CD0B201F058F82046019929
:10454000FBF7EAFF3046019900E001E0FBF7E4FFEA
:104550000298401CC0B20290ABF10100029988425F
:104560003FF76AAF00270FE038F91710099830F9C4
:104570001700814206D038F81710099820F8171054
:1045800001200690781CC7B25745EDDB06980BB0AA
:10459000BDE8F08F4414002074140020A003002014
:1045A0002DE9F04706460F4690464FF000090025DA
:1045B0000024B8F10C0F6CDC3748006908BB00BF61
:1045C0001CE025462046FFF763F8F6EE000A30EEC1
:1045D000200ABDEEC00A10EE100A00B226F815003F
:1045E00036F9150037F91510884205D036F8150050
:1045F00027F815004FF00109601CC4B2062CE0DB5F
:1046000047E025480069012843D100241CE02546E5
:104610002046FFF73DF8F6EE000A30EE200ABDEE28
:10462000C00A10EE100A00B226F8150036F915007F
:1046300037F91510884205D036F8150027F815000F
:104640004FF00109601CC4B2062CE0DB00241EE020
:10465000A01DC5B221460220FBF714FFF6EE000AAA
:1046600030EE200ABDEEC00A10EE100A00B226F8A5
:10467000150036F9150037F91510884205D036F8BF
:10468000150027F815004FF00109601CC4B2062C74
:10469000DEDB4846BDE8F087A003002010B50246E7
:1046A0000020122912DC00BF0EE0094B33F8103055
:1046B000C3F3072402F81040054B13F810404300E1
:1046C0005B1CD454431CD8B28842EEDB10BD000002
:1046D0008C1400202DE9F04FADF22C4D002640F255
:1046E000244102A8FBF7E4FD0027B046002001901A
:1046F000814600240025834640F2091202A954484D
:10470000FDF79CFBDDF8281401914FF4846102A8A9
:10471000FCF798FF0199884273D100BF00BF00BF2A
:104720008DE009F0FF00FEF79BF906464FF0000B05
:104730002C4604F10A0085B206F12C0717E002A806
:1047400050F8240001C702AB53F824A04FEAEA73E3
:104750000AEBD3535B121AB259460BF1010C0CF061
:10476000FF0B09F0FF00FFF78FFC601C84B2AC4226
:10477000E5DB4FF0000B2C4604F10A0085B206F190
:10478000540712E002A850F8240001C702AB33F826
:1047900024301AB259460BF1010C0CF0FF0B09F052
:1047A000FF00FFF749FD601C84B2AC42EADB2C46F7
:1047B00004F10B0085B206F17C0808E002A800EBCA
:1047C000840090ED000AA8EC010A601C84B2AC429F
:1047D000F4DB2C4604F10B0085B206F1A80808E0D2
:1047E00002A800EB840090ED000AA8EC010A601C0E
:1047F00084B2AC42F4DB2C46601C85B206F1D408CE
:1048000009E020E002A800EB840090ED000AA8EC8B
:10481000010A601C84B2AC42F4DB2C46601C85B2F9
:1048200006F1D80705E002A850F8240001C7601C73
:1048300084B2AC42F7DB09F101001FFA80F9B9F14B
:10484000060FFFF66EAF0DF22C4DBDE8F08F0000A5
:1048500000F00308F0B58DB034216846FBF728FD61
:1048600000250024002600270D2269462A48FDF76E
:10487000E5FA0C9D30216846FCF7E4FEA84249D1D8
:1048800000BF2146641C5DF82100244908602146D0
:10489000641C5DF82100224908602146641C5DF813
:1048A00021001F4948602146641C5DF821001C4915
:1048B00088602146641C684600EB810090ED000A88
:1048C000174880ED030A2146641C5DF82100144955
:1048D00008612146641C5DF8210011494861261DCC
:1048E00000BF0AE05DF824203846791CCFB20C499D
:1048F000183141F82020601C84B2B442F2DB20461B
:10490000611C8CB2694601EB800090ED000A0448FE
:1049100080ED0A0A0DB0F0BD00E00308700300202E
:10492000A00300200146002000BF0CE0084A52F816
:1049300020208A4205D10023054A143222F8103083
:1049400003E0421CD0B20428F0DB00BF7047000037
:10495000B8030020FEB5424D0024002600BF00BF72
:1049600013E02046FEF794FEF6EE000A30EE200A31
:10497000BDEEC00A10EE100A00B22DF814003DF88A
:10498000140025F81400601CC4B2062CE9DB35487D
:10499000007810B101285BD12BE03348D0F85002E9
:1049A0003149D1F84C12884208D92F48D0F850022A
:1049B0002D49D1F84C12401A0F2810D22A48D0F8AD
:1049C00050022949D1F84C12884211D22648D0F819
:1049D0004C022549D1F85012401A0F2808D3002361
:1049E00006222946D00201F095FC01201D490870DD
:1049F00033E01D48D0F850021B49D1F84C128842D0
:104A000008D91948D0F850021749D1F84C12401A69
:104A10000F2810D21448D0F850021349D1F84C1284
:104A2000884214D21048D0F84C020F49D1F85012E5
:104A3000401A0F280BD30A4D0C35002306222946B5
:104A40004FF4445001F066FC02200649087004E06F
:104A5000002004490870012600BF00BF3046FEBD9B
:104A60005811002045060020D803002070B500240E
:104A700000254C48B0F82002062801DD002070BD5A
:104A80004848B0F8200218B900204749087009E0EA
:104A90004448B0F82002062804DC424890F820027E
:104AA000414908704148007810B1012871D137E0C0
:104AB0003C48D0F850023B49D1F84C12884208D902
:104AC0003848D0F850023749D1F84C12401A0F2814
:104AD00010D23448D0F850023249D1F84C128842F2
:104AE0001DD23048D0F84C022E49D1F85012401A4D
:104AF0000F2814D32C48007800EB80002C4901EBE0
:104B0000001000F1140400230A2221464FF40C5037
:104B100001F000FC25480078401C244908703DE065
:104B20002048D0F850021F49D1F84C12884208D9C9
:104B30001C48D0F850021B49D1F84C12401A0F28DB
:104B400010D21848D0F850021649D1F84C128842B9
:104B50001DD21448D0F84C021249D1F85012401A14
:104B60000F2814D31048007800EB8000104901EBA7
:104B7000001000F1280400230A2221464FF41050AF
:104B800001F0C8FB09480078401C0849087005E09E
:104B9000FFE7002005490870012500BF00BF284637
:104BA0006DE70000D80300204206002041060020E7
:104BB0008811002010B5C278052A03DB0022C270DC
:104BC00001228270B1F1807F09D36FF07E42521AC8
:104BD000521C5342C478021D42F8243003E0C378CB
:104BE000021D42F82310C278521CC27010BD000092
:104BF00010B50B4C0B48006910B900F07BFD0EE0BE
:104C000008480069022802D100F06EFE07E005485E
:104C10000069012803D10C212046FFF763F910BD7C
:104C200018000020A003002010B500240020264911
:104C300048702648486000200872487201F20A2035
:104C40004968C860801C204949680861A0F20220B8
:104C50001D49496848611C494968886100201A4912
:104C6000A1F80A0281F80C024FF6FF70A1F80E02BB
:104C70000020A1F81002A1F81202A1F81E0258208B
:104C8000A1F820020020A1F82202A1F81A0200BF18
:104C900007E00F4850F824100E4840F82410601C1C
:104CA000C4B20A2CF5DB002405E0FF200A4921F8F4
:104CB0001400601CC4B20C2CF7DB034A5068526825
:104CC000116A884710BD0000D80300203C0700206F
:104CD00078690008FC0500202A14002038B5044635
:104CE00000251C48006800900F2094FBF0F100FBA9
:104CF0001140012101EB002000B2ADF80000164880
:104D0000D0F850021449D1F84C12884208D9124800
:104D1000D0F850021049D1F84C12401A0F2810D286
:104D20000D48D0F850020C49D1F84C1288420FD2ED
:104D30000948D0F84C020849D1F85012401A0F28FF
:104D400006D3002302226946A02001F0E3FA0125E0
:104D5000284638BDC06B0008D80300202DE9F84F65
:104D60000025A946002600200090824683460024A4
:104D7000002780464E4890F80C0201287BD14C4811
:104D8000807A5A2878D14A48C07AA528FAD148486A
:104D9000B0F80A02062873DB4548B0F80A02C01EC4
:104DA0004349097B88426BD14148407B802806D02B
:104DB000812805D0822824D083285FD122E05EE0BC
:104DC0003B4890F80F90007BC01E484518D100204A
:104DD00000903748807B009000260FE04FF0000ADB
:104DE000B01D33490A3111F800A05146009A3244EF
:104DF000D0B200F0BFF90543701C86B24E45EDDB22
:104E00003DE03CE02A4890F810B00146097B081FBD
:104E100000EBD071BBEB610F2CD100272448877BBE
:104E20004FF6FF7000EA072707F47F472048C07B52
:104E3000384487B200241BE04FF000086000C01D1A
:104E40001B490A3111F800804FF6FF7000EA08286C
:104E500008F47F4860000830085C40441FFA80F87E
:104E6000391988B2414600F091F90543601C84B2BB
:104E70005C45E1DB03E019E00EE001E000BF00BFAC
:104E80000B48D0F84C0241F2883188420AD905F02B
:104E9000010010B100F0FEFF04E005F0020008B1CF
:104EA00001F0AAF80020024981F80C02BDE8F88F51
:104EB000D803002010B500F0BBF85B48007812283A
:104EC00007D000F041FD012802D112205649087098
:104ED000A8E05548B0F85602012808D1FEF764FE54
:104EE0000028F5D000205049A1F856029AE04E481B
:104EF000B0F85802012808D1FEF7DAFD0028E7D003
:104F000000204949A1F858028CE04748B0F8540203
:104F1000012808D1FEF714FE002803D000204249E2
:104F2000A1F854027EE04048B0F85A02012808D1A6
:104F3000FEF7C6FC002875D000203B49A1F85A02B4
:104F400070E03948B0F85C02012808D1FEF768FD2E
:104F5000002867D000203449A1F85C0262E03248A2
:104F6000B0F86002012808D1FEF7DEFC002859D015
:104F700000202D49A1F8600254E02B48B0F85E02F1
:104F8000012807D1FEF70EFD50B300202649A1F8F5
:104F90005E0247E02448B0F81C02012807D1FCF764
:104FA00075FBE8B100202049A1F81C023AE01E4838
:104FB000B0F81802012807D1FFF758FD80B1002092
:104FC0001949A1F818022DE01748B0F81602012877
:104FD00007D1FFF78DF818B100201349A1F8160288
:104FE00020E01148B0F81402012803D0FDF746FD77
:104FF00001280DD1FEF746FC01F0BEF8FFF7AAFC30
:1050000080B100200849A1F8140200F00DFF09E06A
:105010000648006842F2CD01884203D100F014FB3B
:10502000FFF7E6FD10BD0000D80300207403002048
:1050300010B54B48007809287BD2DFE800F0051254
:1050400021303E4D5C6B7B00464A4749474800F0A3
:1050500073FA012804D142480078401C4049087086
:105060007CE042480078FFF739FE012807D13C4830
:105070000078401C3A49087000203D4908806DE0E6
:105080003B4801880088401C394A1080B1F57A7F7E
:1050900004DD33480078401C314908705EE00D2083
:1050A000FFF71CFE012807D12D480078401C2C4931
:1050B000087000202E49088050E02D4801880088A3
:1050C000401C2B4A1080B1F57A7F04DD244800781B
:1050D000401C2349087041E023480078FFF7FEFD9B
:1050E000012807D11E480078401C1D490870002087
:1050F0001F49088032E01E4801880088401C1C4A75
:105100001080B1F57A7F04DD15480078401C144901
:10511000087023E013480078FFF7E0FD012807D16D
:105120000F480078401C0E49087000201049088084
:1051300014E00FE00E4801880088401C0C4A1080E3
:1051400040F2DC50814204DD05480078401C0449EF
:10515000087003E000200249087000BF00BF10BDC6
:105160004B0600204E0600204D0600204C06002075
:105170005006002010B502460020034B12B91972E8
:1051800001245C7010BD0000D80300202DE9F84F09
:10519000804689464FF0000A002500200090002636
:1051A0000027E34CA4F80E820FFA89F0A4F812024B
:1051B000B4F80E024FF6FF71884279D0B4F80E02AF
:1051C000B0F5805F05DBB4F80E0241F213018842AE
:1051D00005DDB4F80E0241F2105188426AD1B4F8EC
:1051E0000E0241F20D02811A904231D00BDCB0F573
:1051F000805F14D0A0F580500A38A8B1012818D0DB
:1052000002283AD11AE0012927D006292AD0A1F292
:10521000035189BBB4F91202FCF766F844E0B4F913
:105220001202C44908603FE0B4F91202C149486063
:105230003AE0B4F91202BF49886035E0B4F91202CD
:1052400000EE100AB8EEC00ABA4880ED030A2BE05F
:10525000B4F91202B749086126E0B4F91202B5495F
:10526000486121E0B4F9120200EE100AB8EEC00A5B
:10527000B04880ED0A0A17E0FFE7B4F80E0241F2E9
:105280000F0188420FDBB4F80E02C91C88420ADC09
:10529000B4F91222B4F80E02A0F580500F38A549D7
:1052A000183141F8202000BF00BF4AF0020A38E15F
:1052B0003BE1FFE7B4F80E0241F20311884208D146
:1052C000B4F8120280B28842F1D10120A4F8600241
:1052D00027E1B4F80E0241F20211884208D1B4F875
:1052E000120280B28842E2D10120A4F85E0218E1E5
:1052F000B4F80E0241F20111884208D1B4F812024A
:1053000080B28842D3D10120A4F85C0209E1B4F84C
:105310000E02B0F5045F14D10020A4F81A02B4F80C
:105320002002B4F912128842C1D00120A4F81C0254
:10533000B4F912020628BADCB4F81202A4F820026A
:10534000EFE0B4F80E0242F20111884214D1B4F831
:10535000120280B240F2E5718842A8D10120A4F87F
:105360001802A4F81A0294F82002FCF703FB94F840
:105370002002FCF79FFAD4E0B4F80E0242F20311C7
:10538000884215D1B4F8120280B240F2E571884229
:1053900003D10120A4F85402C3E0B4F8120280B291
:1053A00040F2B241884293D10120A4F85A02B8E0F9
:1053B000B4F80E0242F2021188420CD1B4F8120283
:1053C00080B24AF25A51884291D10120A4F81402C5
:1053D00000F030FDA5E0B4F80E02B0F5085F43DB45
:1053E000B4F80E0242F20A2188423DDA4FF0010A77
:1053F000B4F80E02A0F50850A4F8220294F8220294
:105400000090B4F9122204F50970009940F82120A7
:10541000B4F91262B4F82002A8B900250BE03246B4
:105420002846009900F00CFD32B228460099FEF79C
:1054300003FF681CC5B2062DF1DB32B22846009985
:10544000FEF7FAFE6DE094F82012491EC8B232460B
:10545000009900F0F5FC94F82012491EC8B232B24F
:105460000099FEF7E9FE5CE0B4F81A02012858D171
:10547000B4F80E02B0F5145F53DBB4F80E0242F23A
:105480000A5188424DDAB4F9120241F2FE218842F3
:1054900047D10120A4F81602824694F80E0200902B
:1054A000B4F82002F0B9002513E02846FEF7E0F832
:1054B0008346C0170BEBD05047122846009900F0E6
:1054C000A3FF3BB2012228460099FEF7EFFD681CBE
:1054D000C5B2062DE9DB3BB2012206200099FEF79A
:1054E000E5FD1EE0B4F8200206281ADC94F820122C
:1054F000491EC8B2FEF7BCF88346C0170BEBD0506C
:10550000471294F82012491EC8B2009900F07CFF9F
:1055100094F82012491EC8B23BB201220099FEF74E
:10552000C5FD4FF6FF70A4F80E025046BDE8F88F97
:10553000D8030020A003002070B503460020284CAB
:105540002478002C4ADD264C2478641E244D2C70CF
:10555000244C247804EB4404234D2C5D1C7000245F
:10556000204D2D7805EB45051F4E74551D4C2478B4
:1055700004EB440435462C4464780C700024194D27
:105580002D7805EB450535446C70164C247804EBFA
:10559000440435462C44A47814700024114D2D7811
:1055A00005EB45053544AC700E4C2478641C06258B
:1055B00094FBF5F605FB16440A4D2C701C78012C63
:1055C0000CDB1C780C2C09DC0C78012C06DB0C782D
:1055D0000C2C03DC14780E2C00D1012070BD0000CF
:1055E0003E0600203D060020B813002010B5134AE7
:1055F000127812BB124A127802EB4202114B9854F5
:105600000F4A127802EB42021A4451700E220C4BE0
:105610001B7803EB43030B4C23449A70084A12781F
:10562000521C062392FBF3F403FB1422044B1A7062
:10563000024A1278521C014B1A7010BD3E0600201F
:105640003C060020B81300202DE9F843214C224EDF
:10565000224FDFF88C80DFF88C900025224800690B
:1056600008B9062500E00C252A4631462046FEF7FB
:1056700097FF012801D11D4908701C4800780128B6
:105680000BD100230C222146900200F0A9FD012835
:105690001ED10020154908701AE04B464246394693
:1056A00020460095FEF7DAFD012801D11049087067
:1056B0000F48007801280BD100230C2239464FF403
:1056C000445000F08DFD012802D1002008490870E7
:1056D000BDE8F883CA130020E2130020FA1300206B
:1056E000121400202A140020A003002048060020E5
:1056F000490600202DE9FC5F00277348019073489C
:105700000090734EDFF8CCA1BB460025DFF8C881BE
:10571000A946002400BF00BF17E0009830F914002C
:10572000FF2810D1019830F9140000EE100AB8EEED
:10573000C00A06EB890080ED000A2AF8194009F139
:10574000010000F0FF09601CC4B2062CE5DBB9F1D2
:10575000010F04DD4A4651463046FAF70DFE00249B
:1057600071E0601C06EB800090ED000A5B48D0ED14
:105770000A0AB4EEE00AF1EE10FA0EDA601C06EB4B
:10578000800090ED000A5548D0ED0A0AF1EE600A5B
:10579000B4EEE00AF1EE10FA53D806EB840090ED77
:1057A000000A4E48D0ED0A0AB4EEE00AF1EE10FA13
:1057B0000DDA06EB840090ED000A4848D0ED0A0AA5
:1057C000F1EE600AB4EEE00AF1EE10FA39D8601C8E
:1057D00006EB800090ED000A06EB8400D0ED000A95
:1057E00030EE600ABDEEC00A10EE100A0FFA80FB20
:1057F0003A48D0ED030A00EE10BAB8EEC00AF4EE53
:10580000C00AF1EE10FA1AD2062D18DA601C3AF826
:105810001000401C01B205EB450028F810103AF8C2
:105820001400401C01B205EB4500401C28F8101084
:1058300005EB4500801C28F810B0681CC5B2601C40
:10584000C4B2601CC4B2A9F10100A04289DC10E01E
:10585000002105EB450028F8101005EB4500401C21
:1058600028F8101005EB4500801C28F81010681C63
:10587000C5B2062DECDB002712E0194830F91700FD
:10588000154931F91710884208D0134830F817002D
:10589000134921F81700012012490870781CC7B27B
:1058A000122FEADB0F48007801280BD100231222C7
:1058B000094941F2012000F093FC012802D10020A7
:1058C00008490870BDE8FC9FCA1300202A14002074
:1058D000D4140020041500208C140020A003002004
:1058E000B01400204606002010B5002400BF12E0CE
:1058F000124830F91400124931F91410884208D0C6
:105900000F4830F814000D4921F8140001200D490A
:105910000870601CC4B2122CEADB0A480078012827
:105920000BD100231222064941F2012000F058FC5D
:10593000012802D100200349087010BDB0140020D6
:105940008C1400204706002030B5A1B000240025AB
:10595000F848007809287CD2DFE800F0053CC8FC54
:10596000FBFAF9F8F700F448D0F85002F249D1F800
:105970004C12884208D9F048D0F85002EE49D1F8CC
:105980004C12401A962810D2EB48D0F85002EA493F
:10599000D1F84C1288421CD2E748D0F84C02E649B4
:1059A000D1F85012401A962813D30024E3480088F7
:1059B00002B22146641C01A820F8112022460023CF
:1059C00001A9200300F0A6FCDA480078401CD94960
:1059D000087020E2D848D0F85002D749D1F84C12CC
:1059E000884208D9D448D0F85002D349D1F84C1293
:1059F000401A962810D2D048D0F85002CE49D1F89B
:105A00004C12884271D2CC48D0F84C02CA49D1F825
:105A10005012401A962868D30024C848808802B2E1
:105A20002146641C01A820F81120C448008902B254
:105A30002146641C01A820F81120C04890ED030AFB
:105A4000BDEEC00A10EE100A02B22146641C01A885
:105A500000E0DEE120F81120B848008A02B22146B9
:105A6000641C01A820F81120B448808A02B22146A3
:105A7000641C01A820F81120B048008B02B2214616
:105A8000641C01A820F81120AC48808B02B221468A
:105A9000641C01A820F81120A848008C02B22146FD
:105AA000641C01A820F81120A448808C02B2214671
:105AB000641C01A820F81120A04890ED0A0ABDEE50
:105AC000C00A10EE100A02B22146641C01A820F898
:105AD00011202246002301A941F20A0000F01AFC1D
