:020000040800F2
:10000000202E00206902000877020008790200080B
:100010007B0200087D0200087F020008000000004B
:100020000000000000000000000000008102000845
:100030008302000800000000850200088702000813
:100040008902000889020008890200088902000864
:100050008902000889020008890200088902000854
:100060008902000889020008890200088902000844
:10007000610400088902000889020008890200085A
:10008000890200089D04000889020008890200080E
:100090008902000889020008890200088902000814
:1000A0008902000889020008890200088902000804
:1000B00089020008890200088902000889020008F4
:1000C00089020008890200088902000889020008E4
:1000D0008902000889020008A11600089917000883
:1000E00089020008890200088902000889020008C4
:1000F00089020008890200088902000889020008B4
:10010000000000000000000000000000890200085C
:1001100089020008890200088D160008890200087B
:100120008902000889020008890200088902000883
:100130008902000889020008000000000000000099
:1001400089020008890200088902000800000000F6
:10015000000000000000000000000000000000009F
:100160000000000000000000890200088902000869
:1001700089020008000000000000000000000000EC
:10018000000000008902000800F002F800F05CF8AE
:100190000AA090E8000C82448344AAF10107DA45E2
:1001A00001D100F051F8AFF2090EBAE80F0013F0D8
:1001B000010F18BFFB1A43F001031847C076000077
:1001C000E07600000A444FF0000C10F8013B13F0F9
:1001D000070408BF10F8014B1D1108BF10F8015BA0
:1001E000641E05D010F8016B641E01F8016BF9D193
:1001F00013F0080F1EBF10F8014BAD1C0C1B09D1EA
:100200006D1E58BF01F801CBFAD505E014F8016B5B
:1002100001F8016B6D1EF9D59142D6D370470000ED
:100220000023002400250026103A28BF78C1FBD8FF
:10023000520728BF30C148BF0B6070471FB507F099
:100240005DF91FBD10B510BD00F05CF81146FFF759
:10025000F5FF04F013F900F07AF803B4FFF7F2FFAA
:1002600003BC00F081F800000B48016841F4700104
:1002700001600A480047FEE7FEE7FEE7FEE7FEE70B
:10028000FEE7FEE7FEE7FEE7FEE70000044805495B
:10029000054A064B7047000088ED00E08901000820
:1002A00020160020202E00202022002020220020C6
:1002B0004FF0000200B5134694469646203922BFFF
:1002C000A0E80C50A0E80C50B1F12001BFF4F7AF4A
:1002D000090728BFA0E80C5048BF0CC05DF804EB2C
:1002E000890028BF40F8042B08BF704748BF20F89A
:1002F000022B11F0804F18BF00F8012B7047704798
:1003000070477047754600F02BF8AE460500694609
:10031000534620F00700854618B020B5FFF7B6FF1A
:10032000BDE820404FF000064FF000074FF00008F6
:100330004FF0000B21F00701AC46ACE8C009ACE877
:10034000C009ACE8C009ACE8C0098D46704710B5DB
:100350000446AFF300802046BDE81040FFF77DBFA4
:1003600000487047BC15002001491820ABBEFEE7CD
:100370002600020070470000F0B503460025002467
:100380000020DFED210AB0EE600A002600BF37E052
:10039000002501202DE003EB8007D7ED000A471E62
:1003A00003EB870797ED001AF4EEC10AF1EE10FA9D
:1003B0001DD2471E03EB8707D7ED000AB0EE600A97
:1003C00003EB8007D7ED000A471E03EB8707C7ED55
:1003D000000A03EB800787ED000A471E31F917601A
:1003E00031F810C021F817C021F810600125471C12
:1003F000F8B2171B8742CEDC05B9F0BD671CFCB212
:100400009442C5DB00BFF8E700000000F0B50246EB
:10041000002400230020002500BF1CE00024012050
:1004200012E052F82070461E52F82660B74209DAF0
:10043000461E52F8265052F8207042F8267042F8B4
:1004400020500124461CF0B2CE1A8642E9DC04B9E1
:10045000F0BD5E1CF3B28B42E0DB00BFF8E70000AA
:1004600010B50A4A11680A4A106801F0ABFD60B184
:100470000749086801F09AFD06490868064902F034
:100480004AFC0249086801F001FD10BD44780008EB
:100490000C070020E40600200601060010B50A4AF9
:1004A00051680A4A506801F08DFD60B107494868FB
:1004B00001F07CFD06494868064902F02CFC02491F
:1004C000486801F0E3FC10BD447800080C070020E8
:1004D000E40600200601060010B5DFED0C0AB0EEC0
:1004E000600A0B4A062910DA02280EDB03280CDA10
:1004F000431E03EB430402F5437303EBC40303EB16
:100500008103D3ED000AB0EE600A10BD00000000C8
:100510002800002070B505460C466426012C12D137
:10052000284602F0CBFC304600F064F8284602F082
:10053000B5FC304600F05EF8284602F0BFFC3046BD
:1005400000F058F811E0284602F0A8FC304600F010
:1005500051F8284602F0B2FC304600F04BF828462D
:1005600002F09CFC304600F045F870BDF0B5024644
:100570000C4600270025002300260021012C06D070
:10058000022C0AD0032C06D0042C08D101E001254E
:1005900007E0082505E0042503E0022501E0002529
:1005A00000BF00BF062A21DAC2F1050000EBD07CB3
:1005B000CCF347030E48C15C032B17DAC2F10500E8
:1005C00000EBD07C4FEA6C0CA0EB4C0C0CF0FF065F
:1005D0001EB901F0F001294305E001F00F01F02000
:1005E00000EA051001430248C15401273846F0BD16
:1005F0000500002000E0401E0028FCD170470000EC
:1006000010B50E4CD4F80803401CC4F808030C487D
:10061000006990B10A480069012803D1204600F022
:100620002BF80AE006480069022806DB0448006946
:10063000032802DA204600F0F1FB10BD280000205C
:10064000B0030020C822D0F80813B1FBF2F302FB7C
:10065000131181B900F23E30018841F01001018090
:10066000417C491C4174417CA0F23E30032902DBED
:10067000022180F84F13704710B50446204600F061
:1006800047FB204600F089FB012802D1204600F0FC
:100690005BF910BD2DE9F041044600270026002536
:1006A00094F83E0300F0010088B3B4F83E0320F054
:1006B0000100A4F83E03012084F8040194F84F13CC
:1006C00040F2051001550121401C0155401C015507
:1006D000401C0155062084F84E0394F84E1304F58F
:1006E000827001F05FF90546290A94F84E23501CE8
:1006F00084F84E0304F58270815494F84E23501C04
:1007000084F84E0304F582708554012718E1FFE751
:1007100094F83E0300F0020098B3B4F83E0320F0D2
:100720000200A4F83E03012084F8040194F84F135A
:1007300040F2051001550221401C01550121401CC9
:1007400001550221401C0155062084F84E0394F8FF
:100750004E1304F5827001F025F90546290A94F834
:100760004E23501C84F84E0304F58270815494F893
:100770004E23501C84F84E0304F5827085540127E3
:10078000DEE0FFE794F83E0300F00400C0B3B4F8E5
:100790003E0320F00400A4F83E03012084F8040185
:1007A00094F84F1340F2051001550321401C0155E8
:1007B0002521401C01550321401C0155122104F242
:1007C000091004F0B1FA2A2084F84E0394F84E136D
:1007D00004F5827001F0E6F80546290A94F84E23E4
:1007E000501C84F84E0304F58270815494F84E2313
:1007F000501C84F84E0304F58270855401279FE055
:10080000FFE794F83E0300F00800E8B3B4F83E03B5
:1008100020F00800A4F83E03012084F8040194F8B5
:100820004F1340F2051001550421401C01552621AB
:10083000401C01550421401C0155122104F20910ED
:1008400004F072FA94F8501384F82D11002084F803
:1008500050032B2084F84E0394F84E1304F5827055
:1008600001F0A0F80546290A94F84E23501C84F89C
:100870004E0304F58270815494F84E23501C84F882
:100880004E0304F5827000E002E08554012757E032
:1008900094F83E0300F01000002851D0B4F83E0355
:1008A00020F01000A4F83E03012084F8040194F81D
:1008B0004F1340F2051001550521401C01555621EA
:1008C000401C01550521401C0155052604F5827187
:1008D0008819122104F028FA243694F8501304F5EC
:1008E00082708155002084F85003761C04F58271D3
:1008F00088190C2104F07CFB183604F582718819E4
:100900000C2104F0F5F91836701C84F84E0394F8A5
:100910004E1304F5827001F045F80546290A94F853
:100920004E23501C84F84E0304F58270815494F8D1
:100930004E23501C84F84E0304F582708554012721
:10094000F8B2BDE8F081000070B50021002200235C
:1009500002794379022A7DDB032A7BDA012B79D1E4
:10096000EA4C2469012CFAD18479813C052C72D29D
:10097000DFE804F00344F6F4F300C479182C3CD10A
:10098000002138E08C00241D051D2D5D541E04EB54
:10099000440600F5437404EBC60404F821508C00AF
:1009A000641D051D2D5D541E04EB440600F54374C3
:1009B00004EBC60404EB810465708C00A41D051DC6
:1009C0002D5D541E04EB440600F5437404EBC6048D
:1009D00004EB8104A5708C00E41D051D2D5D541EE3
:1009E00004EB440600F5437404EBC60404EB8104F5
:1009F000E5704C1CA1B20629C4DB85E1C479182C32
:100A00007DD10021A5E00025541E04EB440600F52D
:100A1000437404EBC60444F82150541E04EB44050F
:100A200000F5437404EBC50454F821608C00241DC8
:100A3000051D2C5D3519541E04EB440600F5437466
:100A400004EBC60444F82150541E04EB440500F5A1
:100A5000437401E059E156E104EBC50454F8214028
:100A60002502541E04EB440600F5437404EBC6044F
:100A700044F82150541E04EB440500F5437404EB84
:100A8000C50454F821608C00641D051D2C5D3519CA
:100A9000541E04EB440600F5437404EBC60444F80A
:100AA0002150541E04EB440500F5437404EBC504C7
:100AB00054F821402502541E04EB440600F543740B
:100AC00004EBC60444F82150541E04EB440500F521
:100AD000437404EBC50454F821608C00A41D051D6B
:100AE0002C5D3519541E04EB440600F5437404EBE9
:100AF000C60444F82150541E04EB440500E02BE0EA
:100B000000F5437404EBC50454F821402502541E3B
:100B100004EB440600F5437404EBC60444F821508A
:100B2000541E04EB440500F5437404EBC50454F86B
:100B300021608C00E41D051D2C5D3519541E04EB4D
:100B4000440600F5437404EBC60444F821504C1CE1
:100B5000A1B20629FFF657AFD6E08BE041E0FFE7F0
:100B6000C479182C3CD1002138E08C00241D051DCF
:100B70002D5D541E04EB440600F5437404EBC604DB
:100B800004F821508C00641D051D2D5D541E04EBDE
:100B9000440600F5437404EBC60404EB810465705D
:100BA0008C00A41D051D2D5D541E04EB440600F5AC
:100BB000437404EBC60404EB8104A5708C00E41DAF
:100BC000051D2D5D541E04EB440600F5437404EB33
:100BD000C60404EB8104E5704C1CA1B20629C4DBF9
:100BE00092E0C479192C44D1002138E08C00241DF6
:100BF000051D2D5D541E04EB440600F5437404EB03
:100C0000C60404F821508C00641D051D2D5D541E82
:100C100004EB440600F5437404EBC60404EB8104C2
:100C200065708C00A41D051D2D5D541E04EB44064B
:100C300000F5437404EBC60404EB8104A5708C003A
:100C4000E41D051D2D5D541E04EB440600F54374A0
:100C500004EBC60404EB8104E5704C1CA1B2062928
:100C6000C4DB8C00241D051D2C5D012C01D180F8F6
:100C7000514349E0C479192C44D1002138E08C005B
:100C8000241D051D2D5D541E04EB440600F5437420
:100C900004EBC60404F821508C00641D051D2D5D75
:100CA000541E04EB440600F5437404EBC60404EB45
:100CB000810465708C00A41D051D2D5D541E04EB80
:100CC000440600F5437404EBC60404EB8104A570EC
:100CD0008C00E41D051D2D5D541E04EB440600F53B
:100CE000437404EBC60404EB8104E5704C1CA1B210
:100CF0000629C4DB8C00241D051D2C5D012C01D1AF
:100D000080F8514300E000BF00BF70BDB003002079
:100D100010B504462046FFF795FC94F83C0320B13B
:100D200001280FD0022832D11FE0B4F84203401C42
:100D3000A4F84203B4F842030F2802DB012084F830
:100D40003C0328E02046FFF7A5FC01280CD194F8CD
:100D50004E23206804F58271C36A9847022084F804
:100D60003C030020A4F8440315E0B4F84413481CE5
:100D7000A4F844033C2902DB012084F83C0394F8E6
:100D80000603012802D1002084F83C0303E0002080
:100D900084F83C0300BF00BF10BD2DE9F0410446BC
:100DA00000270025002694F80603012833D10020EF
:100DB00084F80603B4F8040302282CDDB4F8040315
:100DC000FF2828DCB4F80403801E04F50171085CD8
:100DD0004FF47F4101EA0026B4F80403401E04F5F5
:100DE0000171085C304486B2B4F80403811E04F536
:100DF000017000F0D7FDB0420DD100BF06E004F550
:100E00000170415D201D4155681C85B2B4F8040392
:100E1000A842F4DC0127F8B2BDE8F08110B5044621
:100E2000204600F099F82046FFF7B7FF012802D1CD
:100E3000204600F001F810BD2DE9F04104460027DE
:100E40000026002527796679012F7CD1022E7EDBD2
:100E5000032E7CDA3F480069B04278D1A079062899
:100E600073D2DFE800F07203101D2F47E0790128EC
:100E700008D1207A012805D1B4F8480340F00100D8
:100E8000A4F8480362E0E079012808D1207A02281A
:100E900005D1B4F8480340F00200A4F8480355E037
:100EA000E07925280DD1207A03280AD1122104F1F6
:100EB000090006F0EBF8B4F8480340F00400A4F889
:100EC000480343E0E079262813D1207A042810D182
:100ED000122104F1090006F0D9F894F82D00012838
:100EE00001D184F85103B4F8480340F00800A4F895
:100EF00048032BE0E079562824D1207A052821D117
:100F00000525211D4819122106F0C0F82435201DA1
:100F1000405D012801D184F85103681C85B2211D70
:100F200048190C2106F0E2F805F1180085B2211DE0
:100F300048190C2106F07AF8B4F8480340F0100084
:100F4000A4F8480302E002E0FFE700BF00BFBDE8ED
:100F5000F0810000B003002010B5044694F8460369
:100F600010B101281DD10CE0B4F84C03401CA4F8CA
:100F70004C03B4F84C030F2802DB012084F846032D
:100F800013E0204600F014F8012809D194F84E230C
:100F9000206804F58271C36A9847002084F84603EC
:100FA00003E0002084F8460300BF00BF10BD00002E
:100FB0002DE9F04104464FF00008002500260027E7
:100FC000667994F8480300F0010000287DD0B4F859
:100FD000480320F00100A4F84803F748007C84F897
:100FE0000401012140F2051001558121401C0155E9
:100FF0001821401C015500BF0FE0E8B202F018FEB6
:10100000701E00EB400104F5437000EBC10000EBE3
:10101000850080ED000A681C85B2062DEDDB0025F9
:101020003CE0701E00EB400104F5437000EBC10092
:1010300010F82520A800001D04F582710A54701EC6
:1010400000EB400104F5437000EBC10000EB8500AC
:101050004278A800401D04F582710A54701E00EB0E
:10106000400104F5437000EBC10000EB850082787D
:10107000A800801D04F582710A54701E00EB400127
:1010800004F5437000EBC10000EB8500C278A800B6
:10109000C01D04F582710A54681C85B2062DC0DBA0
:1010A000A800001D84F84E0394F84E1304F58270D6
:1010B00000F078FC0746390A94F84E23501C84F857
:1010C0004E0304F58270815400E00AE094F84E2348
:1010D000501C84F84E0304F5827087544FF00108C9
:1010E0006FE294F8480300F0020000287DD0B4F8C5
:1010F000480320F00200A4F84803AF48007C84F8BD
:101100000401012140F2051001558221401C0155C6
:101110001821401C015500250FE0E8B202F088FDBF
:10112000701E00EB400104F5437000EBC10000EBC2
:10113000850080ED000A681C85B2062DEDDB0025D8
:1011400059E0701E00EB400104F5437000EBC10054
:1011500000EB850090ED000ABDEEC00A10EE100A0B
:10116000020EA800001D04F582710A54701E00EBE7
:10117000400104F5437000EBC10000EB850090EDE9
:10118000000ABDEEC00A10EE100AC0F30742A80024
:10119000401D04F582710A54701E00EB400104F5F5
:1011A000437000EBC10000EB850090ED000ABDEE3E
:1011B000C00A10EE100AC0F30722A800801D04F533
:1011C00082710A54701E00EB400104F5437000EB7D
:1011D000C10000EB850090ED000ABDEEC00A10EEE4
:1011E000100AC2B2A800C01D00E025E004F582711B
:1011F0000A54681C85B2062DA3DBA800001D84F8E4
:101200004E0394F84E1304F5827000F0CBFB0746B2
:10121000390A94F84E23501C84F84E0304F582706A
:10122000815494F84E23501C84F84E0304F58270C8
:1012300087544FF00108C4E194F8480300F004001B
:1012400000287DD0B4F8480320F00400A4F8480337
:101250005948007C84F80401012140F20510015531
:101260008321401C01551821401C015500250FE029
:10127000E8B202F0DDFC701E00EB400104F54370A3
:1012800000EBC10000EB850080ED000A681C85B210
:10129000062DEDDB00253CE0701E00EB400104F55F
:1012A000437000EBC10010F82520A800001D04F5D4
:1012B00082710A54701E00EB400104F5437000EB8C
:1012C000C10000EB85004278A800401D04F5827142
:1012D0000A54701E00EB400104F5437000EBC1009E
:1012E00000EB85008278A800801D04F582710A5405
:1012F000701E00EB400104F5437000EBC10000EBF1
:101300008500C278A800C01D04F582710A54681CCB
:1013100085B2062DC0DBA800001D84F84E0394F8AA
:101320004E1304F5827000F03DFB0746390A94F82D
:101330004E23501C84F84E0304F58270815400E063
:101340000AE094F84E23501C84F84E0304F5827092
:1013500087544FF0010834E194F8480300F0080086
:1013600000287DD0B4F8480320F00800A4F8480312
:101370001148007C84F80401012140F20510015558
:101380008421401C01551921401C015500250FE006
:10139000E8B202F04DFC701E00EB400104F5437012
:1013A00000EBC10000EB850080ED000A681C85B2EF
:1013B000062DEDDB00253EE0B0030020701E00EBA3
:1013C000400104F5437000EBC10010F82520A8008F
:1013D000001D04F582710A54701E00EB400104F5F3
:1013E000437000EBC10000EB85004278A800401D6F
:1013F00004F582710A54701E00EB400104F543703D
:1014000000EBC10000EB85008278A800801D04F588
:1014100082710A54701E00EB400104F5437000EB2A
:10142000C10000EB8500C278A800C01D04F58271E0
:101430000A54681C85B2062DC0DB94F85023A8001E
:10144000001D04F582710A54002084F85003A8009E
:10145000401D84F84E0394F84E1304F5827000E0AA
:1014600016E000F09FFA0746390A94F84E23501C04
:1014700084F84E0304F58270815494F84E23501C76
:1014800084F84E0304F5827087544FF0010898E009
:1014900094F8480300F0100000287DD0B4F8480309
:1014A00020F01000A4F848034748007C84F80401A9
:1014B000012140F2051001558521401C01551921DB
:1014C000401C015500250FE0E8B202F0B1FB701E90
:1014D00000EB400104F5437000EBC10000EB850018
:1014E00080ED000A681C85B2062DEDDB00253CE08E
:1014F000701E00EB400104F5437000EBC10010F8D2
:101500002520A800001D04F582710A54701E00EB0E
:10151000400104F5437000EBC10000EB8500427808
:10152000A800401D04F582710A54701E00EB4001B2
:1015300004F5437000EBC10000EB85008278A80041
:10154000801D04F582710A54701E00EB400104F501
:10155000437000EBC10000EB8500C278A800C01DFD
:1015600004F582710A54681C85B2062DC0DB94F81C
:101570005023A800001D04F582710A54002084F84D
:101580005003A800401D84F84E0394F84E1304F550
:10159000827000F007FA00E013E00746390A94F879
:1015A0004E23501C84F84E0304F58270815494F845
:1015B0004E23501C84F84E0304F5827087544FF07C
:1015C00001084046BDE8F081B003002010B5104886
:1015D0001049086001F541700968C860801C0D4918
:1015E00009680861A0F202200A490968486100F50B
:1015F000807008490968886100200649A1F8040341
:1016000081F806030A4610681268116A884710BDFF
:10161000240700202800002010B5014600200D4BB3
:101620001B880C4CA48823440A4C248923449AB276
:10163000094B1A6040F2E5735343C3F30B02914226
:1016400006D1064B196042F2CD03054C2360012000
:1016500010BD0000640D00207C03002080030020EA
:101660008403002070B1084A52F8212012680260F9
:10167000054A52F8212052684260034A52F821205C
:1016800092688260704700008803002010B5012135
:10169000024801F0D3F900F053F910BD00100040EA
:1016A0001CB538484068C0690190364840680068F9
:1016B00000900198C0F3C02060B30098C0F3806030
:1016C00040B330494868304901F046FA2F4948682C
:1016D00000F06CFC2D49486800F0A6FC2C49B1F8DC
:1016E0005410081A81B22A48406C01800121284810
:1016F000806C01702648383000F046F9244BB3F86E
:101700005420196D214B586800F0A6FB1F4948680A
:1017100000F051FC0098C0F38010C8B10198C0F3EC
:101720008010A8B1174948681A4901F015FA00213C
:10173000174880F83F1090F83900042804D0144866
:1017400090F83900052803D11148383001F04AFFDC
:10175000019800F0010078B90198C0F3400058B931
:101760000198C0F3800038B90198C0F3C00018B9DF
:101770000198C0F3002018B10548383001F0ACFDE5
:101780001CBD0000E40600201A010B001C0700200D
:1017900024070020060106001CB556480068C069F1
:1017A00001900198C0F3C02010B352490868524913
:1017B00001F0D2F95149086800F0F8FB4F49086878
:1017C00000F032FC4E49898B081A4D49C9680880DF
:1017D00001204B4909690870494B9A8B9969474B1D
:1017E000186800F039FB4549086800F0E4FB80E028
:1017F0000198C0F34010B0B13E490868414901F07A
:10180000ABF93C490868416A00910099C9B23C486B
:10181000C06802883A48C068801C394BD8601846B6
:101820008069815465E00198C0F3C01020B9019827
:10183000C0F38010002845D00198C0F3801098B103
:101840002C490868304901F087F900202C49C871FB
:1018500008464078042803D008464078052848D137
:10186000274801F0BFFE44E00198C0F3C0100028F3
:101870003FD020490868254901F06EF92048408989
:101880001F49098988420FDB1A4908681F4901F07E
:1018900028FA184908681C4901F05EF915490868DA
:1018A000194901F038FA24E0124A1068144A5389A1
:1018B0005289521C124C628122465269D15C81626B
:1018C00000BF16E0019800F0010078B90198C0F35C
:1018D000400058B90198C0F3800038B90198C0F3AE
:1018E000C00018B90198C0F3002010B1044801F0FD
:1018F000F3FC1CBDE40600201A010B001C070020AD
:101900002407002005010500060106000701070065
:1019100010B50948007801280CD10848006840F645
:10192000E441884206D300200349087002F082FA9D
:1019300005F0FCF810BD00000400002000000020AD
:1019400010B5002400BF4AF6AA200D49088000BF48
:101950000C480068401C0B490860FFF7D9FF02F0F3
:1019600053FC01F0F7FF012802D101F067FF0446A4
:10197000FEF746FE04F022FF02F018FD10BD000045
:101980000030004000000020704710B5002400BF68
:1019900005E000212046FEF7E9FD601CC4B2062CDC
:1019A000F7DB10BDF0B502460D46FF21FF240020F5
:1019B00009E0167886EA04030A4EF65C86EA01041A
:1019C000094EF15C521C2E1EA5F10105F1D108460D
:1019D0004FF6FF7606EA002000F47F400619B0B209
:1019E000F0BD0000387500083876000870B5002496
:1019F00000258348B0F82002062801DD002070BDD4
:101A00007F48B0F8200218B906207E4908700AE025
:101A10007B48B0F82002062805DC794890F82002BF
:101A2000401E784908707848007830B101283CD0D1
:101A3000022874D0032871D1A9E07148D0F850026F
:101A40006F49D1F84C12884208D96D48D0F850023D
:101A50006B49D1F84C12401A192810D26848D0F8B6
:101A600050026749D1F84C1288421DD26448D0F820
:101A70004C026349D1F85012401A192814D3614816
:101A8000007800EB8000614901EB001000F11404C4
:101A900000230A2221464FF40C5005F015F95A484C
:101AA0000078401C58490870A6E05548D0F850020C
:101AB0005349D1F84C12884208D95148D0F8500205
:101AC0004F49D1F84C12401A192810D24C48D0F87E
:101AD00050024B49D1F84C1288421DD24848D0F8E8
:101AE0004C024749D1F85012401A192814D34548DE
:101AF000007800EB8000454901EB001000F128045C
:101B000000230A2221464FF4105005F0DDF83E482C
:101B10000078401C3C4908706EE000E067E03848FF
:101B2000D0F850023649D1F84C12884208D93448CE
:101B3000D0F850023249D1F84C12401A192810D26C
:101B40002F48D0F850022E49D1F84C1288421DD2AD
:101B50002B48D0F84C022A49D1F85012401A1928C3
:101B600014D32848007800EB8000284901EB0010CE
:101B700000F13C0400230A2221464FF4085005F0EE
:101B8000A3F821480078401C1F49087034E01C4825
:101B9000D0F850021A49D1F84C12884208D9184896
:101BA000D0F850021649D1F84C12401A192810D218
:101BB0001348D0F850021249D1F84C12884215D27D
:101BC0000F48D0F84C020E49D1F85012401A19288B
:101BD0000CD30F4C0023012221464FF4045005F092
:101BE00073F809480078401C0749087004E0002099
:101BF00005490870012500BF00BF2846FFE6000028
:101C0000F4030020600600205F060020041200207C
:101C1000140600202DE9F041064600270024002587
:101C20005EBB00BF26E0384601F0DEF80546002422
:101C300006E0002105F1340040F82410601CC4B215
:101C40000A2CF6DB002411E09FED210A05F1840047
:101C500000EB840080ED000A9FED1D0A05F1B00045
:101C600000EB840080ED000A601CC4B20B2CEBDB9F
:101C7000781CC7B2062FD6DB28E0062E26DC701EA5
:101C8000C7B2384601F0B0F80546002406E000214E
:101C900005F1340040F82410601CC4B20A2CF6DBB5
:101CA000002411E09FED0A0A05F1840000EB840096
:101CB00080ED000A9FED060A05F1B00000EB8400FC
:101CC00080ED000A601CC4B20B2CEBDBBDE8F08198
:101CD0000000000030B5024600210020E2B900BF3C
:101CE00017E0002011E0002401EB8103184D05EB03
:101CF0000313143323F8104001EB810305EB0313A6
:101D0000283323F81040431CD8B20A28EBDB4B1CC5
:101D1000D9B20729E5DB19E0062A17DC531ED9B230
:101D2000002011E0002401EB8103094D05EB0313B2
:101D3000143323F8104001EB810305EB0313283320
:101D400023F81040431CD8B20A28EBDB30BD00005A
:101D500004120020002000BF06E00022811D044B79
:101D600023F81120411CC8B20628F6DB704700009A
:101D7000D4110020024989680143014A91607047EB
:101D8000002004E04FF0E020006920F004004FF054
:101D9000E02108610A4880680A49B0FBF1F0C0F30D
:101DA000CF00094908800846008800EB4001C1EBDC
:101DB000C0104FF6FF7101EAC00004490880704767
:101DC0009815002040420F00720600207406002083
:101DD00001460F4A12884A434FF0E0235A6100221D
:101DE0009A611A46126922F00102521C1A6100BF60
:101DF0004FF0E022106900F001021AB100F48032C5
:101E0000002AF5D000224FF0E0231A619A61704752
:101E10007406002001460F4A12884A434FF0E0231F
:101E20005A6100229A611A46126922F00102521C7C
:101E30001A6100BF4FF0E022106900F001021AB1F0
:101E400000F48032002AF5D000224FF0E0231A611E
:101E50009A61704772060020436862F30F03436083
:101E6000C16070470021002200F080520AB10121B8
:101E700000E0002111B1034B186001E0024B5860F3
:101E8000704700000404024000000240002200F0FD
:101E900000420AB1024900E0024948607047000070
:101EA0000004024000000240016821F001010160CD
:101EB0000021016041686FF30F01416000218160E2
:101EC000C1603849884204D10F21364A083A51602E
:101ED00067E034491431884204D1F021314A083A8C
:101EE00051605EE02F492831884205D14FF470617E
:101EF0002C4A083A516054E02A493C31884205D1C5
:101F00004FF47041274A083A51604AE02549503160
:101F1000884205D14FF47021224A083A516040E0CE
:101F200020496431884205D14FF470011D4A083AB6
:101F3000516036E01B497831884205D14FF070611D
:101F4000184A083A51602CE01749884203D10F2102
:101F5000021F116025E014491431884204D1F02198
:101F6000114A121F11601CE00F492831884205D127
:101F70004FF470610C4A121F116012E00A493C31A3
:101F8000884205D14FF47041074A121F116008E0E2
:101F900005495031884204D14FF47021024A121F82
:101FA000116070470800024008040240016821F0F7
:101FB000010101607047016821F00101491C0160C5
:101FC00070470000F0B503460024A4460025002613
:101FD000002701F0004401F0E0404FEA107C0CB112
:101FE0000F4A00E00F4A146804EA010008B1012614
:101FF00000E00026ACF101008000C1401D6805F042
:102000000E0501EA050008B1012700E00027012FB5
:1020100003D1012E01D10120F0BD0020FCE700001A
:10202000000402400000024008B5014648680090E4
:10203000009880B208BD2DE9F04704460D461646CB
:10204000DDE9099ADDF820800B9F2046FFF72CFF81
:10205000206820F480402060206868F345102060EC
:1020600020686AF304102060206820F0800080302F
:102070002060206820F040002060206867F38B20FB
:102080002060206867F309202060206869F30D3024
:102090002060606863F30F006060E560A660BDE8E3
:1020A000F08702680A430260704708B5036823F0AE
:1020B0000103036006E003680093009B03F0010343
:1020C00003B900E0F7E700BFC160436862F30F03A4
:1020D0004360036823F001035B1C036008BD08B57F
:1020E000036823F00103036006E003680093009B8C
:1020F00003F0010303B900E0F7E700BFC1604368E4
:1021000062F30F034360036823F001035B1C036069
:1021100008BD000030B50446042500F061F805460E
:10212000042D16D10C48006920F00200801C0A49D9
:10213000086108464461006920F0400040300861B1
:1021400000F04EF805460448006920F002000249FC
:102150000861284630BD0000002002400420094AE2
:10216000D16801F001020AB101200AE001F0100279
:102170000AB1022005E001F004020AB1032000E0E8
:1021800004207047002002400348006920F08000CE
:1021900080300149086170470020024030B50023BB
:1021A00006E00388801C048843EA044410C1801CB4
:1021B000141EA2F10105AAB2F3D130BD0549086988
:1021C00000F0800121B10449024A51600349516085
:1021D000704700000020024023016745AB89EFCD26
:1021E00010B54FF0FF330424FFF7B8FF044603E0B7
:1021F000FFF7B4FF04465B1E012C01D1002BF7D181
:1022000003B90524204610BD2DE9F04104460D46D2
:10221000164604274FF00008FFF7E2FF0746042F99
:102220002CD11848006920F00100401C15490861B4
:1022300000BF28882080FFF7D3FF0746042F09D16D
:1022400004F102082868000CA8F80000FFF7C8FF96
:10225000074606E00B48006920F0010009490861C3
:1022600005E0701E86B2241D2D1D002EE1D100BF99
:102270000448006920F00100024908613846BDE8C1
:10228000F081000000200240F0B5002300244D073B
:10229000ED0E02FA05F308290BDA4E07F70E0F26AA
:1022A000BE40056AB5430562056A45EA0304046257
:1022B0000AE04E07F70E0F26BE40456AB543456259
:1022C000456A45EA03044462F0BD2DE9F0430C463B
:1022D000079E00210025002700BF60E04FF0010CA1
:1022E0000CFA01F504EA0507AF4257D14FEA41095C
:1022F0004FF0030808FA09F8D0F800C02CEA080CDF
:10230000C0F800C04FEA41094FF0030808FA09F885
:10231000D0F804C02CEA080CC0F804C04FEA410908
:102320004FF0030808FA09F8D0F80CC02CEA080CA2
:10233000C0F80CC04FEA41094FF0030808FA09F849
:10234000D0F808C02CEA080CC0F808C04FEA4109D0
:102350004FF0020808FA09F8D0F800C04CEA080C5F
:10236000C0F800C003FA01F8D0F804C04CEA080C29
:10237000C0F804C04FEA410802FA08F8D0F80CC0CF
:102380004CEA080CC0F80CC04FEA410806FA08F8FD
:10239000D0F808C04CEA080CC0F808C0491C102945
:1023A0009CD3BDE8F083F0B50B4600210024002546
:1023B00000BF25E0012606FA01F403EA0405A54260
:1023C0001DD14FEA410C032707FA0CF70668BE43FC
:1023D00006604FEA410C032707FA0CF7C668BE43B4
:1023E000C6604FEA410C002707FA0CF706683E4327
:1023F00006604F0002FA07F7C6683E43C660491CF4
:102400001029D7D3F0BD2DE9F0430C46079E0021DB
:102410000025002700BF60E04FF0010C0CFA01F529
:1024200004EA0507AF4257D14FEA41094FF00308CC
:1024300008FA09F8D0F800C02CEA080CC0F800C06F
:102440004FEA41094FF0030808FA09F8D0F804C030
:102450002CEA080CC0F804C04FEA41094FF0030809
:1024600008FA09F8D0F80CC02CEA080CC0F80CC027
:102470004FEA41094FF0030808FA09F8D0F808C0FC
:102480002CEA080CC0F808C04FEA41094FF00108D7
:1024900008FA09F8D0F800C04CEA080CC0F800C0EF
:1024A00003FA01F8D0F804C04CEA080CC0F804C0E4
:1024B0004FEA410802FA08F8D0F80CC04CEA080CC0
:1024C000C0F80CC04FEA410806FA08F8D0F808C076
:1024D0004CEA080CC0F808C0491C10299CD3BDE880
:1024E000F083028B0A4302837047000045F2555186
:1024F000064A11801146496821F00701C91C516044
:10250000114688604CF6CC41118070470030004085
:1025100000F01F02012191404211920002F1E022DD
:10252000C2F800117047000070B503460020002576
:102530000F240B4E366806F4E066C6F5E066C6F377
:102540000720C0F10406F5B2044101FA05F6F0B225
:1025500002EA040630430607300E024EF05470BD06
:102560000CED00E000E400E0024949690143014A42
:1025700051617047001002400249C9690143014A94
:10258000D161704700100240024909698143014A44
:102590001161704700100240024909690143014A74
:1025A0001161704700100240024989690143014AE4
:1025B00091617047001002400249C9688143014A95
:1025C000D1607047001002400249C9680143014AC6
:1025D000D160704700100240F0B50546002100228E
:1025E000002300240020384E367906F00C0121B17A
:1025F000042906D0082922D108E0344E344F7E60E9
:1026000021E0334E3668324F7E601CE02E4E7468F7
:10261000C4F300447068C0F383400E2801D2801CCC
:1026200000E010202CB12A4E3668760806FB00F335
:1026300002E0264E46437308254E736003E0234EA6
:10264000234F7E6000BF00BF1F4E3679C6F30311D3
:10265000204E725C1E4E7668D6401D4FBE601A4EEC
:10266000B688C6F302211C4E725C3E46B668D64060
:10267000FE60154EB688C6F3C221174E725C3E4608
:10268000B668D6403E613E46B668FF68BE4204D199
:102690000F4EF6680E4F7E6104E00D4EF668760030
:1026A0000B4F7E610A4EB668094F3F69BE4204D1A6
:1026B000074E3669064FBE6104E0054E3669760066
:1026C000034FBE61F0BD00000010024000127A000E
:1026D0009815002094070020A40700202DE9F04F52
:1026E00082460F4690469946DDF824B00024002526
:1026F0000026A848006840F47000A6490860A64873
:10270000006840F00100A449086008464068A349F9
:102710000840A149486008460068A14908409E4910
:1027200008600846006820F4802008600846406879
:1027300020F4FE0048600846C06A20F00F00C8621E
:102740000846006B97490840934908630020886059
:10275000002F73D11220944908608F48006820F040
:102760000100401C8C49086000BF00BF00BF6D1C09
:102770008948046804F002041CB98C48006885424A
:10278000F5D38548046804F0020414B90120BDE8BB
:10279000F08F8148406820F0F00070307E4948603A
:1027A0000846406869F30A204860084640686BF3B1
:1027B000CD2048600846406820F48030486040469C
:1027C0004FEAE87108EB9171C1F38F06102E02DA1F
:1027D000B01E86B200E00F266F48406866F3954051
:1027E0006D4948600846006820F0807000F18070F4
:1027F00008600024002500BF6D1C6748046804F0D1
:1028000000741CB9694800688542F5D962480468BB
:1028100004F000740CB90220B9E75F48406820F06A
:102820000300801C5C494860002400BF5A4844688B
:1028300004F00804082CF9D19FE0FFE75648C06A6D
:1028400020F00F005449C8620846006820F47F0059
:10285000086000240025BAF1010F06D1084600687F
:1028600020F4802000F5802008604B48006820F4A8
:10287000803000F580304849086000BF6D1C464834
:10288000046804F400341CB9484800688542F5D354
:1028900047487843474908603F48046804F40034D7
:1028A0000CB9012073E74048006820F01000103098
:1028B0003D4908600846006820F00700801C086059
:1028C0003548406820F0F0007030334948600846D1
:1028D000406869F30A204860084640686BF3CD20E1
:1028E00048600846406820F4003000F50030486039
:1028F0000846406820F4803000F5803048600026AB
:10290000384607EBD071491098FBF1F18EB2102ECA
:1029100002DAB01E86B200E00F261F48406866F358
:1029200095401D4948600846006820F0807000F11D
:10293000807008600024002500BF6D1C16480468E4
:1029400004F000741CB9194800688542F5D3124898
:10295000046804F000740CB9022018E70E484068BF
:1029600020F00300801C0C494860002400BF0A4886
:10297000446804F00804082CF9D1064980390A9803
:1029800008600D48091D08600A48FFF725FE002071
:10299000FDE6000088ED00E0001002400CC07FF86A
:1029A000FFFFF6FECCFC00FF00200240AC07002039
:1029B00040420F00981500200005FA0530B51C466E
:1029C00011B90025058517E0164DA8420BD0164D0C
:1029D000A84208D0154DA84205D0154DA84202D0F6
:1029E000144DA84202D1144DAB6901E0124D6B6940
:1029F000B3FBF1F56D1E0585B0F1804F01D1C262C8
:102A000001E095B2C562056825F44075056005686A
:102A100064F30415056000250561056825F00105CE
:102A2000056030BD002C01400034014000400140F1
:102A3000004401400048014098150020CA4392B26A
:102A40000261704710B504463448844206D14015EF
:102A5000FFF7BAFD6015FFF7AFFD5EE0B4F1804F00
:102A600006D10120FFF798FD0120FFF78DFD54E00E
:102A70002B48844206D10220FFF78EFD0220FFF78B
:102A800083FD4AE02748844206D10420FFF784FDF5
:102A90000420FFF779FD40E02348844206D110204E
:102AA000FFF77AFD1020FFF76FFD36E01F488442E4
:102AB00006D12020FFF770FD2020FFF765FD2CE0F8
:102AC0001B48844206D14014FFF77EFD6014FFF7D7
:102AD00073FD22E01748844208D14FF48030FFF79D
:102AE00073FD4FF48030FFF767FD16E01248844213
:102AF00008D14FF40030FFF767FD4FF40030FFF7C7
:102B00005BFD0AE00D48844207D14FF48020FFF7B7
:102B10005BFD4FF48020FFF74FFD10BD002C0140FE
:102B20000004004000080040001000400014004075
:102B30000034014000400140004401400048014091
:102B4000016821F00101491C01607047C2680A4315
:102B5000C26070470162704710B5002200230A0C62
:102B600001249440A3B2036210BD000010B50446D6
:102B70001D48844208D14FF48040FFF725FD4FF4F3
:102B80008040FFF719FD2EE01848844208D14FF429
:102B90000030FFF701FD4FF40030FFF7F5FC22E0B5
:102BA0001348844208D14FF48020FFF7F5FC4FF41E
:102BB0008020FFF7E9FC16E00E48844208D14FF46C
:102BC0000020FFF7E9FC4FF40020FFF7DDFC0AE0EE
:102BD0000948844207D14FF48010FFF7DDFC4FF421
:102BE0008010FFF7D1FC10BD0038014000440040C8
:102BF00000480040004C004000500040816821F037
:102C00004001403181607047816821F0800180314E
:102C1000816070470246D069084008B101207047C2
:102C20000020FCE72DE9F04104460F4615461E46FC
:102C3000DDF81880206820F0010020600020A060EE
:102C4000606866F30D306060206868F34A20206099
:102C5000206820F00400001D2060206820F008009B
:102C600008302060606820F4000000F5000060601B
:102C7000606900F07F402330606175B1012D15D08F
:102C8000022D1ED1206820F480502060206820F0A2
:102C9000805000F18050206014E0206820F48050C3
:102CA0002060206820F0805020600BE0206820F435
:102CB000805000F580502060206820F08050206017
:102CC00000E000BF00BF3946204600F04FF84FF04B
:102CD000FF302062206820F00100401C2060BDE829
:102CE000F08130B5002300240022C1F30723CCB2C9
:102CF000012505FA04F2022B03D14568954345608E
:102D000008E0032B03D185689543856002E00568E0
:102D10009543056030BD30B5002300240022C1F387
:102D20000723CCB2012505FA04F2022B03D1456832
:102D30001543456008E0032B03D185681543856082
:102D400002E005681543056030BD10B50B46002153
:102D500008E000BF047FC4F3C014002CFAD05C5C10
:102D60008462491C9142F4D310BD000070B500226A
:102D700000230024056825F001050560184DA842D0
:102D800002D1184D2A6901E0164DEA680588C5F39D
:102D9000C03545B15500B5FBF1F35500B5FBF1F673
:102DA00001FB165405E0B2FBF1F3B2FBF1F501FBB8
:102DB0001524B4EB510F00D35B1C0588C5F3C03557
:102DC00035B1C3F342044FF6F0751D4045EA0403E4
:102DD0009DB2C560056825F001056D1C056070BDDC
:102DE000003801409815002001460548062906DAFA
:102DF00001EB8102C2EB8112034603EB82007047B4
:102E0000B0070020014890F85103704728000020C7
:102E10000020002100BF0FE0094A32F8112040F2E3
:102E200023139A4206D0064A22F81130203A12F8AB
:102E3000210003E04A1CD1B20429EDDB00BF70473A
:102E4000E80300201CB5044603200346482208215D
:102E5000CDE900040020FFF741FC1CBD10B5FEF7D2
:102E600091FF10BD10B504462046FEF7D3FF10BDFC
:102E70000146084B53F82120074B33F81100136922
:102E800003400BB1012300E000230BB90020704781
:102E90000120FCE7AC060020E4770008054B53F85E
:102EA0002010054B33F810200B8B13430B8300BF0E
:102EB000704700007806002090770008054B53F813
:102EC0002010054B33F810204B8B13434B8300BF6E
:102ED00070470000780600209077000810B504467F
:102EE0000F48FFF7AFFD1020FFF746FB1020FEF75D
:102EF00041FF621E00230B490948FFF75FFD0722CF
:102F000000213620FFF710FB3620FFF701FB0121DF
:102F10000348FFF71BFE0248FFF712FE10BD00003A
:102F20000010004040420F0070B504460D461646A2
:102F300021780F4A52F821000E49FFF70DFE217843
:102F40000B4A52F821000C49FFF706FE2178084A87
:102F500052F821004FF44071FFF7FEFD2178074A37
:102F600052F8210032462946FFF7B9F870BD00003B
:102F7000E40600201A010B00060208001C070020CE
:102F800038B50446607808287DD2DFE800F00423D5
:102F900045649B9CF1EF2178C34A52F82100FFF76A
:102FA000E3FA012000902278C04B33F81210C04B96
:102FB00053F8220000230122FFF787F92378BD4D43
:102FC000EA5CBD4D35F81310B94D55F82300FFF7F5
:102FD0005BF966E12178B44A52F82100FFF7C4FAA0
:102FE000012000902278B14B33F81210B04B53F807
:102FF000220000230122FFF768F92378AD4DEA5C37
:10300000AD4D35F81310AA4D55F82300FFF73CF9E4
:10301000204600F0E7FA44E12178A84A52F821005E
:10302000FFF7A2FA012000902278A54B33F8121086
:10303000A44B53F8220000230122FFF746F923781E
:103040009C4DEA5CA04D35F813109E4D55F82300B9
:10305000FFF71AF925E12178984A52F82100FFF785
:1030600083FA2178994A52F82100FFF77DFA01206E
:1030700000902278964B33F81210964B53F82200AA
:103080000023012200E00BE1FFF7BDF901200090D1
:1030900022788B4B33F81210854B53F82200002313
:1030A0000122FFF712F92378824DEA5C864D35F84C
:1030B0001310844D55F82300FFF7E6F8204600F082
:1030C000A5FAEEE000BF21787C4A52F82100FFF714
:1030D0004BFA2178744A52F82100FFF745FA21781B
:1030E0007A4A52F82100FFF73FFA01200090227837
:1030F000774B33F81210774B53F82200002301224C
:10310000FFF781F90120009022786D4B33F81210FF
:103110006C4B53F8220000230122FFF7D6F8012060
:1031200000902278614B33F81210614B53F8220063
:1031300000230122FFF7C9F823785E4DEA5C624D57
:1031400035F813105F4D55F82300FFF79DF82378ED
:10315000584DEA5C584D35F81310554D55F823007D
:10316000FFF792F8204600F03DFA9AE03DE0FFE7D5
:103170002178524A52F82100FFF7F6F921784A4A9D
:1031800052F82100FFF7F0F90120009022784C4B13
:1031900033F812104B4B53F8220000230122FFF7A3
:1031A00094F8012000902278404B33F81210404BE5
:1031B00053F8220000230122FFF787F823783D4DC2
:1031C000EA5C414D35F813103E4D55F82300FFF7EA
:1031D0005BF82378374DEA5C374D35F81310344DE2
:1031E00055F82300FFF750F85BE02178334A52F896
:1031F0002100FFF7B9F921782B4A52F82100FFF797
:10320000B3F92178314A52F82100FFF7ADF90120D6
:10321000009022782E4B33F812102E4B53F82200D8
:1032200000230122FFF7EFF8012000902278244BC1
:1032300033F81210234B53F8220000230122FFF72A
:1032400044F8012000902278184B33F81210184BE4
:1032500053F8220000230122FFF737F82378154D99
:10326000EA5C194D35F81310164D55F82300FFF799
:103270000BF823780F4DEA5C0F4D35F813100C4D09
:1032800055F82300FFF700F800BF2278104B33F801
:103290001210104B53F82200FFF723F900BF00E093
:1032A00000BF00BF38BD00001C780008247800086B
:1032B000F40600200A780008287800080C78000836
:1032C00014780008EC060020187800082C78000814
:1032D00034780008FC0600207FB504462046FFF73E
:1032E0004FFE2078884951F820008849884206D14D
:1032F0002178874A52F82100FFF756F905E0217836
:10330000834A52F82100FFF737F921787E4A52F8B4
:103310002100FFF72BFC607900902379E278A578F3
:103320007C4E56F825102578774E56F82500FFF785
:1033300079FC6078002855D0A07902283AD121780C
:10334000754A52F82100FFF70FF9002001210222EF
:10335000CDE90002CDE902102378354655F8233037
:1033600003F1280223786D4D55F82300002361698D
:10337000FEF761FE2178324652F82100FFF744FC47
:103380002178674A52F82100FEF780FD2178654ACE
:10339000505C01220021FFF7C7F82178614A505C98
:1033A000FFF7B6F821782A4652F821000221FEF7ED
:1033B00078FE17E0A079012814D121785A4A505C90
:1033C00000221146FFF7B0F821784F4A52F8210049
:1033D0005649FFF7C1FB21784B4A52F82100534967
:1033E000FFF799FC6078022851D0A07902284FD1CC
:1033F00021784F4A52F82100FFF7B6F80020022248
:10340000CDE900020290039023783F4D55F8233018
:1034100003F124022378474D55F823000023A169C6
:10342000FEF709FE2178384A52F82100FFF7E6FB43
:10343000A28B2046A169FFF777FD2178324A52F826
:1034400021003D49FFF788FB2178374A505C012273
:103450000021FFF769F82178334A505CFFF758F8EC
:103460002178294A52F821003349FFF754FC21788A
:10347000254A52F821004FF44071FFF76DFB217887
:10348000214A52F821004FF44071FFF744FC3AE022
:10349000A079012837D12178234A505C01220021EC
:1034A000FFF742F82178204A505CFFF731F8217885
:1034B000154A52F821002149FFF74EFB2178124AA4
:1034C00052F821001C49FFF747FB21780E4A52F8B9
:1034D00021001A49FFF71FFC21780B4A52F82100FE
:1034E0001549FFF718FC2178074A52F821004FF4DC
:1034F0004071FFF731FB2178034A52F821004FF465
:103500004071FFF708FC7FBDE40600200038014051
:103510000078000854780008387800080C0700206C
:103520004478000840780008087800080701070080
:103530004C7800081C0700201A010B00050105004B
:1035400010B50446A079012807D12178084A52F81D
:1035500021000849FFF7C5FB09E0A079022806D140
:103560002178034A52F821000349FFF7BAFB10BD46
:10357000E4060020050105001A010B0010B5044601
:10358000A079012807D12178084A52F8210008497A
:10359000FFF7C1FB09E0A079022806D12178034A90
:1035A00052F821000349FFF7B6FB10BDE4060020E6
:1035B000050105001A010B0070B504460D460A2DE1
:1035C0000ADAA570A278054B53F822102278044B32
:1035D00053F82200FFF7CAFB70BD000054780008C2
:1035E000E406002010B50378054C54F82310054C70
:1035F00034F813204B8B13434B8300BF10BD0000E6
:10360000FC060020347800087047000010B504461E
:103610002278044B33F81210034B53F82200FEF7C4
:1036200060FF10BD34780008FC0600202DE9F04151
:1036300004460D461646E079012809D12178394A19
:1036400052F82100FEF7F0FC10B10120BDE8F08136
:103650006078042802D06078052802D12046FFF760
:10366000D5FFA07930BB0120E07121782E4A52F8B5
:10367000210032462946FFF768FB6078042802D013
:103680006078052813D100BF2178274A52F821001D
:103690004021FFF7BFFA0028F6D12046FFF7A2FF2E
:1036A0002178214A52F821004021FFF753FA0020E7
:1036B000E07134E0A079012817D1002060812681D3
:1036C0006069A84200D065612178174A52F821004C
:1036D0001649FFF741FA2178134A52F8210013499D
:1036E000FFF719FB0120E07119E02178104A52F828
:1036F0002100FEF7B7FB45B922892378094F57F817
:1037000023006169FEF7D1FC07E02178054A52F8F1
:10371000210032462946FEF7C8FC0120E071002056
:1037200094E700000C070020E406002007010700D2
:1037300044780008F0B587B0344E002500240027F7
:1037400000BF05E0002001A941F82400601CC4B2BC
:10375000062CF7DB002544E0192D3DDA002405E0B6
:10376000611DC8B2FFF7AAFB601CC4B2062CF7DBD0
:103770000A20FFF777FB002405E0611DC8B2FFF7C0
:103780008DFB601CC4B2062CF7DB0A20FFF76AFB36
:10379000002414E001A850F82400400001A941F8D9
:1037A0002400211DC8B2FFF763FB074601A850F8AB
:1037B0002400384401A941F82400601CC4B2062C3E
:1037C000E8DB002405E0611DC8B2FFF777FB601C51
:1037D000C4B2062CF7DB02E01420FFF743FB681CA1
:1037E000C5B21B2DB8DB00240CE001AA52F824104E
:1037F00004EB8402C2EB841206EB820001F05CFD54
:10380000601CC4B2062CF0DB07B0F0BDB00700208E
:1038100070B50024084DFFF78DFF00BF09E004EBF1
:103820008401C1EB841105EB810000F083F9601C79
:10383000C4B2062CF3DB70BDB007002070B50024C5
:10384000002500263F480078052873D2DFE800F005
:1038500003071526650001203A4908706EE0002430
:1038600005E0611DC8B2FFF719FB601CC4B2062C4D
:10387000F7DB02203349087060E0002405E0611D99
:10388000C8B2FFF71BFB601CC4B2062CF7DB032099
:103890002C49087000202C4908804FE02A480088F5
:1038A000401C294908800846008840F28A21884245
:1038B00008DB0020244908802449087001202149A0
:1038C000087029E000240DE02148005D012807D19F
:1038D000211DC8B2FFF7CCFA012801D1012503E070
:1038E000601CC4B2062CEFDB00BF012D06D1032003
:1038F000144908700020154908700DE0134801783C
:103900000078401C114A10700A2905DD04200D4979
:10391000087000201146087010E0FFF779FF0320BF
:1039200008490870002008490880084908700126E5
:1039300004E0FFE701200349087000BF00BF3046E4
:1039400070BD00001F000020200000202200002089
:10395000100000202DE9F0412DED028B00260024FF
:103960000025002769480088B0F5FA6F7CDC6748BD
:103970000088401C6549088065480078082874D292
:10398000DFE800F0041230BCBC234591002405E0C0
:10399000611DC8B2FFF792FA601CC4B2062CF7DBB7
:1039A00001205B490870AAE0002405E0611DC8B24F
:1039B000FFF774FA601CC4B2062CF7DB05205449EB
:1039C000087000205349088099E052480088401C44
:1039D00050490880084600880A2802DD02204C4928
:1039E00008708CE0002409E0611DC8B2FFF766FA98
:1039F0000020494921F81400601CC4B2062CF3DBF6
:103A000006204349087000204449088077E0434875
:103A10000088401C4149088000240DE0211DC8B2E7
:103A2000FFF726FA30B93C4830F81400401C3A49F8
:103A300021F81400601CC4B2062CEFDB3748008864
:103A400040F28A2188422DDB002419E0324830F808
:103A5000140032280ADB012004EB4401304A1144EF
:103A6000304A1278885409E04AE047E0002004EB2D
:103A700044012B4A11442B4A12788854601CC4B26A
:103A8000062CE3DB27480078401C264908700846CE
:103A90000078032803DB07201D49087002E000209E
:103AA0001B4908702BE0002422E00026002508E0D6
:103AB00004EB44001A490844405D3044C6B2681C17
:103AC000C5B2032DF4DB304603F094FB41EC180B38
:103AD0009FED150B53EC102B03F0DAFC03D80120FB
:103AE0001349085502E0002011490855601CC4B272
:103AF000062CDADB08200649087000E000BF00E071
:103B000001273846BDEC028BBDE8F081180000208B
:103B1000160000201A000020380D00201C00002094
:103B2000440D00201E000020CCCCCCCCCCCC0040DE
:103B30001000002030B52DED028B87B00446002523
:103B40009FED320AB0EE408AA07801285AD100BF1A
:103B500006E0201D50F825004DF82500681CC5B270
:103B6000072DF6DB07216846FCF750FC0020206299
:103B7000022506E05DF82510206A08442062681CD2
:103B8000C5B2052DF6DB0321206A90FBF1F06062DF
:103B9000002514E0D4F8E00038B904F1340050F8FE
:103BA0002500616A814208DC0BE004F1340050F822
:103BB0002500616A814200DB03E0681CC5B20A2D62
:103BC000E8DB00BF04F1840000EB850090ED000A03
:103BD000B0EE408A94ED090AB8EEC00A20EE080A59
:103BE000B0EE408A04F1B00000EB850090ED000AD1
:103BF00030EE080AB0EE408A94ED390A84ED3A0AB4
:103C000084ED398A07B0BDEC028B30BD00000000A6
:103C100001460020054A062906DA01EB8103C3EBC1
:103C2000811302EB8303586A70470000B00700203D
:103C300070B52DED068B04469FED1E0AB0EE408A4E
:103C40001D49886803F0BFFA41EC1A0B9FED1B0B6E
:103C500053EC102B03F01EFB41EC190B03F076FA2A
:103C600008EE900A174D062C11DA04EB8400C0EB25
:103C7000841005EB800090ED390A04EB8400C0EB62
:103C8000841005EB8000D0ED370A30EE608AB4EE88
:103C9000E88AF1EE10FA01DBB0EE688A0A48005DAE
:103CA00018B99FED040AB0EE408AB0EE480ABDECA8
:103CB000068B70BD00000000B00300209A9999990E
:103CC0009999F13FB00700201000002030B5544909
:103CD00000200023002200BF9EE000EB8004C4EB24
:103CE000801401F82400002400EB8005C5EB80154A
:103CF00001EB8505AC7000EB8005C5EB801501EB91
:103D00008505EC7000EB8005C5EB801501EB8505A2
:103D10002C6200EB8005C5EB801501EB85056C621C
:103D200000230BE0002500EB8004C4EB801401EBC2
:103D30008404241D44F823505C1CE3B20A2BF1DBFD
:103D4000002216E0374C54F8225000EB8004C4EBFC
:103D5000801401EB84045C3444F82250002500EB0D
:103D60008004C4EB801401EB84042834A554541C53
:103D7000E2B20A2AE6DB00221BE09FED2B0A00EBF1
:103D80008004C4EB801401EB8404843404EB8204CB
:103D900084ED000A9FED250A00EB8004C4EB80143B
:103DA00001EB8404B03404EB820484ED000A541C5B
:103DB000E2B20B2AE1DB9FED1E0A00EB8004C4EBAC
:103DC000801401EB840484ED370A002400EB8005A5
:103DD000C5EB801501EB8505C5F8E0409FED140AA1
:103DE00000EB8004C4EB801401EB840484ED390AF9
:103DF0009FED0F0A00EB8004C4EB801401EB8404F8
:103E000084ED3A0A012400EB8005C5EB801501EB37
:103E100085056C70441CE0B20628FFF65EAF30BD2D
:103E2000B007002010750008124DA03AE1DA85C3F2
:103E30000000000070B5144E0024002500BF11E002
:103E400004EB8400C0EB841006EB800090ED390A8F
:103E500004EB8400C0EB841006EB800080ED370A91
:103E6000601CC4B2062CEBDBFDF774FFFDF78DFD83
:103E7000002505E00021054820F81510681CC5B292
:103E8000042DF7DB70BD0000B0070020E803002020
:103E900038B500241648006800901648D0F8500243
:103EA0001449D1F84C12884208D91248D0F850026F
:103EB0001049D1F84C12401A192810D20D48D0F8E8
:103EC00050020C49D1F84C1288420FD20948D0F860
:103ED0004C020849D1F85012401A192806D3002381
:103EE00002226946842002F0EFFE0124204638BDFC
:103EF00038770008F403002038B500241A48006819
:103F000000901A480069012802D13720ADF802005C
:103F10001748D0F850021649D1F84C12884208D9F7
:103F20001348D0F850021249D1F84C12401A1928FF
:103F300010D20F48D0F850020D49D1F84C128842E7
:103F40000FD20B48D0F84C020949D1F85012401A50
:103F5000192806D3002302226946842002F0B4FE09
:103F60000124204638BD000044770008B00300203B
:103F7000F403002038B500241B48006800901B485B
:103F8000006918B93920ADF8020002E03A20ADF816
:103F900002001748D0F850021549D1F84C12884257
:103FA00008D91348D0F850021149D1F84C12401AE0
:103FB000192810D20E48D0F850020D49D1F84C12F1
:103FC00088420FD20A48D0F84C020949D1F8501261
:103FD000401A192806D3002302226946842002F0E1
:103FE00073FE0124204638BD40770008B00300204E
:103FF000F403002038B500241F48006800901F48D3
:10400000006918B93120ADF8020009E01B48006BC7
:1040100018B93720ADF8020002E03B20ADF80200ED
:104020001748D0F850021649D1F84C12884208D9E6
:104030001348D0F850021249D1F84C12401A1928EE
:1040400010D20F48D0F850020D49D1F84C128842D6
:104050000FD20B48D0F84C020949D1F85012401A3F
:10406000192806D3002302226946842002F02CFE80
:104070000124204638BD00003C770008B003002032
:10408000F403002038B500241F48006800901F4842
:10409000006918B93120ADF8020009E01B48006B37
:1040A00018B93720ADF8020002E03B20ADF802005D
:1040B0001748D0F850021649D1F84C12884208D956
:1040C0001348D0F850021249D1F84C12401A19285E
:1040D00010D20F48D0F850020D49D1F84C12884246
:1040E0000FD20B48D0F84C020949D1F85012401AAF
:1040F000192806D3002302226946842002F0E4FD39
:104100000124204638BD000050770008B00300208D
:10411000F403002038B500241648006800901648C3
:10412000D0F850021449D1F84C12884208D91248EC
:10413000D0F850021049D1F84C12401A192810D268
:104140000D48D0F850020C49D1F84C1288420FD2D9
:104150000948D0F84C020849D1F85012401A1928E1
:1041600006D3002302226946842002F0ADFD01241B
:10417000204638BD48770008F403002038B50024F5
:104180001648006800901648D0F850021449D1F83B
:104190004C12884208D91248D0F850021049D1F880
:1041A0004C12401A192810D20D48D0F850020C4970
:1041B000D1F84C1288420FD20948D0F84C02084975
:1041C000D1F85012401A192806D30023022269465A
:1041D000842002F079FD0124204638BD4C77000888
:1041E000F4030020014600200C2909DB0E2907DA20
:1041F000A1F10C0202EB4202024B03EB42025079A6
:1042000070470000560D002010B500F04DF8224810
:10421000007860B90D20FFF7E5FF01280ED11E4997
:1042200008701E49A1F8140202F0AEFA06E00D2053
:10423000FFF7D8FF10B90020174908701848007818
:1042400008BB0C20FFF7CEFF012823D114490870CA
:10425000144908780978491C124A117000EBD07192
:104260004910A0EB410111B101290AD104E001205C
:104270000A49A1F8560205E001200849A1F85802B0
:1042800000E000BF06E00C20FFF7ACFF10B90020F3
:104290000349087010BD000023000020F403002033
:1042A000240000202500002070B50024284D00BF08
:1042B0004BE004EB440115F81100FEF7D9FD04EBC7
:1042C000440105EB4101087104EB440005EB40009B
:1042D000C07804EB440105EB41010979884222D101
:1042E00004EB440005EB40008078401C04EB4401E3
:1042F00005EB4101887004EB440005EB4000807839
:10430000322816DB322004EB440105EB41018870B2
:1043100004EB440005EB4000007904EB440105EB9D
:104320004101487105E0002004EB440105EB410127
:10433000887004EB440005EB4000007904EB440175
:1043400005EB4101C870601CC4B2022CB1DB70BD2A
:10435000560D00200020144900BF22E000F10C029D
:1043600000EB400301F81320002200EB400301EBB7
:1043700043039A7000EB400301EB4303DA7000EB58
:10438000400301EB43031A7100EB400301EB4303CD
:104390005A71012200EB400301EB43035A70421CA7
:1043A000D0B20228DADB7047560D00202DE9F0412B
:1043B0001F4D00240026A04600271E484069012802
:1043C00033D100BF0BE01C48005D295D884204D05A
:1043D000285D194908554FF00108601CC4B2032C30
:1043E000F1DBB8F1010F20D1002418E01248075D7D
:1043F000002610E007F0010018B10020FEF74EFD86
:1044000002E00020FEF75AFD7F1001210320FCF797
:1044100081F8701CC6B2082EECDB601CC4B2032C01
:10442000E4DB01210220FCF775F8BDE8F081000013
:1044300005000020B00300200D00002010B5002072
:10444000FEF72CFD0120FEF729FD0220FEF736FDC8
:104450000320FEF733FD0420FEF730FD0120FEF7B8
:104460001DFD00210420FCF755F801210220FCF776
:1044700051F80120FEF722FD10BD000002F042FBC2
:10448000FFF768FFFFF7DAFFFFF720FC00F04EFFB1
:10449000FDF79CF800F064FC00F022FD01210448C7
:1044A000FDF7E0F803480068FDF7B6F800BFFEE747
:1044B000640D0020800300202DE9F34F85B0804873
:1044C000049080480390804DDFF800A24FF0000B6D
:1044D000FF20029001900026DFF8F49100270024CD
:1044E0004FF0000806980C281ADC00BF15E003986E
:1044F00030F91400FF280ED1049830F9140000EEB2
:10450000100AB8EEC00A05EB870080ED000A2AF811
:104510001740781CC7B2601CC4B206988442E6DB20
:10452000012F04DD3A4651462846FBF725FF0026B9
:10453000AAE047F6FF7BFF200290019000246BE089
:1045400005EB840090ED000A6248D0ED0A0AB4EE53
:10455000E00AF1EE10FA0DDA05EB840090ED000AA6
:104560005C48D0ED0A0AF1EE600AB4EEE00AF1EE22
:1045700010FA4FD8601C00F0FF081EE005EB880021
:1045800090ED000A5348D0ED0A0AB4EEE00AF1EECD
:1045900010FA0DDA05EB880090ED000A4D48D0EDD9
:1045A0000A0AF1EE600AB4EEE00AF1EE10FA00D861
:1045B00005E008F1010000F0FF08B845DEDB00BFB0
:1045C000BC4227DAB84525DA05EB880090ED000AF1
:1045D00005EB8400D0ED000A70EE600A00EE10BA20
:1045E000B8EEC00AF4EEC00AF1EE10FA12D205EBF2
:1045F000880090ED000A05EB8400D0ED000A30EE53
:10460000600ABDEEC00A10EE100A0FFA80FBCDF86A
:1046100004800294601CC4B2BC4291DB47F6FF7078
:10462000834530D00298FF282DD00198FF282AD04A
:10463000062E19DA01983AF81000401C01B206EB78
:10464000460029F8101002983AF81000401C01B2F8
:1046500006EB4600401C29F8101006EB4600801CB3
:1046600029F810B0701CC6B29FED1B0A019805EB2B
:10467000800080ED000A9FED180A029805EB80008B
:1046800080ED000A00E002E0062EFFF652AF00BF08
:1046900010E0002106EB460029F8101006EB46005A
:1046A000401C29F8101006EB4600801C29F8101059
:1046B000701CC6B2062EECDB07B0BDE8F08F000020
:1046C00046140020A614002050150020801500205C
:1046D00008150020B00300200000000010B50628D7
:1046E00000DD10BD0A2907DA00EB8003034C04EB60
:1046F0000313283323F8112000BFF2E7041200202F
:1047000070B5062800DD70BD0A2916DA012400EB19
:1047100080050B4E06EB051525F8114000EB8004D3
:10472000354605EB0414143424F8112000EB800402
:1047300005EB0414283424F8113000BFE3E700002F
:104740000412002070B5002400254C48B0F8200267
:10475000062801DD002070BD4848B0F8200218B9D5
:104760000620474908700AE04448B0F820020628AD
:1047700005DC424890F82002401E4149087041483B
:10478000007810B1012871D137E03C48D0F85002D0
:104790003A49D1F84C12884208D93848D0F850022A
:1047A0003649D1F84C12401A192810D23348D0F8A3
:1047B00050023249D1F84C1288421DD22F48D0F80D
:1047C0004C022E49D1F85012401A192814D32C4803
:1047D000007800EB80002C4901EB001000F114047C
:1047E00000230A2221464FF40C5002F06DFA2548AE
:1047F0000078401C234908703DE02048D0F8500262
:104800001E49D1F84C12884208D91C48D0F85002F1
:104810001A49D1F84C12401A192810D21748D0F86A
:1048200050021649D1F84C1288421DD21348D0F8D4
:104830004C021249D1F85012401A192814D31048CA
:10484000007800EB8000104901EB001000F1280413
:1048500000230A2221464FF4105002F035FA09488D
:104860000078401C0749087005E0FFE70020054973
:104870000870012500BF00BF28466CE7F403002044
:104880005C0600205B0600200412002010B50628FC
:1048900000DD10BD0A2907DA00EB8003034C04EBAE
:1048A00003133C3323F8112000BFF2E70412002069
:1048B0002DE9FF4F87B0054688469946DDF850A0A0
:1048C0000020069005908346002400260027C64855
:1048D0000490C6480390002002900190BAF10C0F9A
:1048E0006FDC00BFAAE03C4639F91400504569DA94
:1048F00039F91400A04265D019F8146035F9140094
:1049000035F91610401A00EE100AB8EEC00AB84881
:10491000D0ED030AF1EE600AB4EEE00AF1EE10FA0F
:1049200054DB35F9140035F91610401A00EE100A60
:10493000B8EEC00AAE48D0ED030AB4EEE00AF1EEDC
:1049400010FA43D835F9140000EE100AB8EEC00A88
:10495000A748D0ED0A0AF1EE600AB4EEE00AF1EEE3
:1049600010FA0DDD35F9140000EE100AB8EEC00A99
:104970009F48D0ED0A0AB4EEE00AF1EE10FA1DD31A
:1049800035F9160000EE100AB8EEC00A9848D0EDCE
:104990000A0AF1EE600AB4EEE00AF1EE10FA12DD56
:1049A00035F9160000EE100AB8EEC00A9048D0EDB6
:1049B0000A0AB4EEE00AF1EE10FA04D201200590E2
:1049C00006E00DE122E00020059001E001200590C5
:1049D0000598012830D1FF2029F8140029F8160085
:1049E00018F8140000F020FB18F8160000F01CFB6B
:1049F000002028F8140028F8160000212046FBF7B4
:104A0000B5FD00213046FBF7B1FD15E039F9140082
:104A1000FF2811D0FF2029F8140018F8140000F026
:104A200003FB002028F8140000212046FBF79EFD20
:104A300000213046FBF79AFD781CC7B25745FFF6B8
:104A400052AF4FF0000B002716E038F8170088B976
:104A500035F9170000EE100AB8EEC00A049800EB12
:104A60008B0080ED000A039820F81B700BF1010009
:104A700000F0FF0B781CC7B25745E6DB5A46DDE96C
:104A80000310FBF779FC002002908FE0DDE90210B3
:104A900010F81140DDE90201401C11F81060544586
:104AA0007DDA56457EDA35F9140000EE100AB8EECC
:104AB000C00A4F48D0ED0A0AF1EE600AB4EEE00AEF
:104AC000F1EE10FA0DD335F9140000EE100AB8EE2D
:104AD000C00A4748D0ED0A0AB4EEE00AF1EE10FA37
:104AE00060DD35F9160000EE100AB8EEC00A404845
:104AF000D0ED0A0AF1EE600AB4EEE00AF1EE10FA27
:104B00000DD335F9160000EE100AB8EEC00A384889
:104B1000D0ED0A0AB4EEE00AF1EE10FA42DD35F902
:104B2000140035F91610401A00EE100AB8EEC00A4B
:104B30002F48D0ED030AF1EE600AB4EEE00AF1EE80
:104B400010FA2FDB35F9140035F91610401A00EE73
:104B5000100AB8EEC00A2648D0ED030AB4EEE00A07
:104B6000F1EE10FA1ED8FEF753F90190019828F8DB
:104B70001400019828F8160029F8146029F8164046
:104B8000019828B1721CD1B2621CD0B201F0E0F8D9
:104B900020460199FBF7EAFC3046019900E001E06C
:104BA000FBF7E4FC0298401CC0B20290ABF101009C
:104BB000029988423FF76AAF00270FE038F91710D3
:104BC000099830F91700814206D038F81710099873
:104BD00020F8171001200690781CC7B25745EDDB6E
:104BE00006980BB0BDE8F08FC0140020F014002030
:104BF000B00300202DE9F04706460F4690464FF0DF
:104C0000000900250024B8F10C0F6CDC374800695E
:104C100008BB00BF1CE025462046FFF709F8F6EE6A
:104C2000000A30EE200ABDEEC00A10EE100A00B2F3
:104C300026F8150036F9150037F91510884205D009
:104C400036F8150027F815004FF00109601CC4B2B2
:104C5000062CE0DB47E025480069012843D1002409
:104C60001CE025462046FEF7E3FFF6EE000A30EE94
:104C7000200ABDEEC00A10EE100A00B226F8150098
:104C800036F9150037F91510884205D036F81500A9
:104C900027F815004FF00109601CC4B2062CE0DBB8
:104CA00000241EE0A01DC5B221460220FBF714FC23
:104CB000F6EE000A30EE200ABDEEC00A10EE100A31
:104CC00000B226F8150036F9150037F9151088429C
:104CD00005D036F8150027F815004FF00109601CC3
:104CE000C4B2062CDEDB4846BDE8F087B0030020E6
:104CF00010B502460020122912DC00BF0EE0094B5D
:104D000033F81030C3F3072402F81040054B13F8B2
:104D1000104043005B1CD454431CD8B28842EEDBE5
:104D200010BD00007614002010B5024600201229A4
:104D300012DC00BF0EE0094B33F81030C3F3072438
:104D400002F81040054B13F8104043005B1CD4548C
:104D5000431CD8B28842EEDB10BD000008150020CD
:104D60002DE9F04FADF22C4D002640F2244102A86F
:104D7000FBF79EFA0027B0460020019081460024F0
:104D80000025834640F2091202A95448FDF706FAAD
:104D9000DDF8281401914FF4846102A8FCF702FEAB
:104DA0000199884273D100BF00BF00BF8DE009F0B8
:104DB000FF00FEF719F806464FF0000B2C4604F1F1
:104DC0000A0085B206F1340717E002A850F8240063
:104DD00001C702AB53F824A04FEAEA730AEBD3539E
:104DE0005B121AB259460BF1010C0CF0FF0B09F0E3
:104DF000FF00FFF773FC601C84B2AC42E5DB4FF0B0
:104E0000000B2C4604F10A0085B206F15C0712E0A3
:104E100002A850F8240001C702AB33F824301AB2BC
:104E200059460BF1010C0CF0FF0B09F0FF00FFF7E6
:104E30002DFD601C84B2AC42EADB2C4604F10B0071
:104E400085B206F1840808E002A800EB840090ED2A
:104E5000000AA8EC010A601C84B2AC42F4DB2C46C8
:104E600004F10B0085B206F1B00808E002A800EBDF
:104E7000840090ED000AA8EC010A601C84B2AC42E8
:104E8000F4DB2C46601C85B206F1DC0809E020E06A
:104E900002A800EB840090ED000AA8EC010A601C57
:104EA00084B2AC42F4DB2C46601C85B206F1E0070C
:104EB00005E002A850F8240001C7601C84B2AC428F
:104EC000F7DB09F101001FFA80F9B9F1060FFFF6CF
:104ED0006EAF0DF22C4DBDE8F08F000000F003081E
:104EE000F0B591B0402101A8FBF7E2F900250024BC
:104EF00000260027102201A93A48FDF74FF9109D1E
:104F00003C2101A8FCF74EFDA84268D100BF214614
:104F1000641C01A850F82100334908602146641C34
:104F200001A850F82100314908602146641C01A8FD
:104F300050F821002D4948602146641C01A850F812
:104F400021002A4988602146641C01A800EB8100E9
:104F500090ED000A254880ED030A2146641C01A853
:104F600050F82100214908612146641C01A850F82D
:104F700021001E494861261D00BF0BE001A850F822
:104F800024203846791CCFB21849183141F8202026
:104F9000601C84B2B442F1DB2046611C8CB201A9D2
:104FA00001EB800090ED000A104880ED0A0A2046CF
:104FB000611C8CB201A951F820000C49C86220463E
:104FC000611C8CB201A951F82000084908632046F1
:104FD000611C8CB201A951F820000449486311B04A
:104FE000F0BD000000E0030880030020B0030020B3
:104FF00010B502460020122912DC00BF0EE0094B5A
:1050000033F81030C3F3072402F81040054B13F8AF
:10501000104043005B1CD454431CD8B28842EEDBE2
:1050200010BD0000461400200146002000BF0CE027
:10503000084A52F820208A4205D10023054A20322E
:1050400022F8103003E0421CD0B20428F0DB00BF8D
:1050500070470000C8030020FEB5424D0024002622
:1050600000BF00BF13E02046FEF7E2FDF6EE000AA7
:1050700030EE200ABDEEC00A10EE100A00B22DF884
:1050800014003DF8140025F81400601CC4B2062C6E
:10509000E9DB3548007810B101285BD12BE03348BB
:1050A000D0F850023149D1F84C12884208D92F4823
:1050B000D0F850022D49D1F84C12401A192810D2BC
:1050C0002A48D0F850022949D1F84C12884211D20E
:1050D0002648D0F84C022549D1F85012401A192818
:1050E00008D3002306222946D00201F0EDFD01205D
:1050F0001D49087033E01D48D0F850021B49D1F813
:105100004C12884208D91948D0F850021749D1F8F2
:105110004C12401A192810D21448D0F850021349E2
:10512000D1F84C12884214D21048D0F84C020F49E2
:10513000D1F85012401A19280BD30A4D0C35002310
:10514000062229464FF4445001F0BEFD02200649D4
:10515000087004E0002004490870012600BF00BF69
:105160003046FEBDD411002061060020F40300206B
:1051700070B5002400254C48B0F82002062801DD57
:10518000002070BD4848B0F8200218B900204749F7
:10519000087009E04448B0F82002062804DC4248C0
:1051A00090F82002414908704148007810B1012868
:1051B00071D137E03C48D0F850023B49D1F84C124D
:1051C000884208D93848D0F850023749D1F84C12F3
:1051D000401A192810D23448D0F850023249D1F878
:1051E0004C1288421DD23048D0F84C022E49D1F8DA
:1051F0005012401A192814D32C48007800EB800074
:105200002C4901EB001000F1140400230A2221466E
:105210004FF40C5001F058FD25480078401C2449FB
:1052200008703DE02048D0F850021F49D1F84C12D8
:10523000884208D91C48D0F850021B49D1F84C12BA
:10524000401A192810D21848D0F850021649D1F83F
:105250004C1288421DD21448D0F84C021249D1F8A1
:105260005012401A192814D31048007800EB80001F
:10527000104901EB001000F1280400230A22214606
:105280004FF4105001F020FD09480078401C0849F7
:10529000087005E0FFE7002005490870012500BF00
:1052A00000BF28466DE70000F40300205E060020E2
:1052B0005D0600200412002010B5C278072A03DB27
:1052C0000022C27001228270B1F1807F09D36FF099
:1052D0007E42521A521C5342C478021D42F82430B6
:1052E00003E0C378021D42F82310C278521CC2703A
:1052F00010BD000010B50B4C0B48006910B900F050
:105300002FFE0EE008480069022802D100F06AFF73
:1053100007E005480069012803D10C212046FFF76A
:10532000CBF810BD28000020B003002010B50024E9
:1053300000202649487026484860002008724872BC
:1053400001F20A204968C860801C20494968086148
:10535000A0F202201D49496848611C4949688861DA
:1053600000201A49A1F80A0281F80C024FF6FF70DA
:10537000A1F80E020020A1F81002A1F81202A1F873
:105380001E025820A1F820020020A1F82202A1F854
:105390001A0200BF07E00F4850F824100E4840F8EA
:1053A0002410601CC4B20A2CF5DB002405E0FF20A9
:1053B0000A4921F81400601CC4B20C2CF7DB034A24
:1053C00050685268116A884710BD0000F40300203D
:1053D0005C0700201075000818060020A6140020A5
:1053E00038B5044600251C48006800900F2094FB47
:1053F000F0F100FB1140012101EB002000B2ADF8FB
:1054000000001648D0F850021449D1F84C128842D6
:1054100008D91248D0F850021049D1F84C12401A5D
:10542000192810D20D48D0F850020C49D1F84C126E
:1054300088420FD20948D0F84C020849D1F85012DE
:10544000401A192806D3002302226946A02001F041
:105450003BFC0125284638BD58770008F40300209E
:105460002DE9F84F0025A94600260020009082462D
:1054700083460024002780464F4890F80C020128FC
:105480007BD14D48807A5A2878D14B48C07AA528DC
:10549000FAD14948B0F80A02062873DB4648B0F84A
:1054A0000A02C01E4449097B88426BD14248407BB6
:1054B000802806D0812805D0822824D083285FD177
:1054C00022E05EE03C4890F80F90007BC01E48450B
:1054D00018D1002000903848807B009000260FE013
:1054E0004FF0000AB01D34490A3111F800A05146AE
:1054F000009A3244D0B200F0CFF90543701C86B256
:105500004E45EDDB3DE03CE02B4890F810B0014605
:10551000097B081F00EBD071BBEB610F2CD100277A
:105520002548877B4FF6FF7000EA072707F47F477F
:105530002148C07B384487B200241BE04FF00008AC
:105540006000C01D1C490A3111F800804FF6FF7041
:1055500000EA082808F47F4860000830085C4044EE
:105560001FFA80F8391988B2414600F0A1F90543C5
:10557000601C84B25C45E1DB03E01BE010E001E06D
:1055800000BF00BF0C48D0F84C0241F2883188427D
:105590000CD905F0010020B101F026F901F0D6F98F
:1055A00004E005F0020008B101F0D0F90020024942
:1055B00081F80C02BDE8F88FF403002010B56348B1
:1055C000C06A012801D100F0C7F8614800781228AC
:1055D00007D000F037FE012802D112205C49087084
:1055E000B3E05B48B0F85602012808D1FEF7C6FDCB
:1055F0000028F5D000205649A1F85602A5E05448ED
:10560000B0F85802012808D1FEF73CFD0028E7D089
:1056100000204F49A1F8580297E04D48B0F85402D5
:10562000012808D1FEF776FD0028D9D0002048498E
:10563000A1F8540289E04648B0F85A02012808D17E
:10564000FEF726FC002803D000204149A1F85A02A9
:105650007BE03F48B0F85C02012808D1FEF7CAFCA5
:10566000002872D000203A49A1F85C026DE0384869
:10567000B0F86002012808D1FEF73EFC002864D093
:1056800000203349A1F860025FE03148B0F85E02C3
:10569000012808D1FEF76EFC002856D000202C49C6
:1056A000A1F85E0251E02A48B0F81C02012807D197
:1056B000FCF79CF9A0B300202549A1F81C0244E0A6
:1056C0002348B0F81802012807D1FFF751FD38B37D
:1056D00000201F49A1F8180237E01D48B0F8160253
:1056E000012807D1FFF72EF8D0B100201849A1F802
:1056F00016022AE01648B0F81402012803D0FDF77C
:1057000081FB01280DD1FEF795FB01F00FFAFFF7A1
:10571000A3FC28B100200E49A1F8140201F02EF8D4
:1057200013E00C48006842F2CD0188420DD10748D1
:10573000006918B105480069012802D100F036FB64
:1057400001E000F09FFBFFF7D5FD10BDB003002086
:10575000F40300208403002010B54A48007809288B
:1057600079D2DFE800F00512212E3C4B5A6979000E
:10577000454A4649464800F091FA012804D141487B
:105780000078401C3F4908707AE041480078FFF7F4
:1057900027FE012807D13B480078401C3949087092
:1057A00000203C4908806BE03A4801880088401C92
:1057B000384A1080B1F5617F02DD0520314908705B
:1057C0005EE00D20FFF70CFE012807D12D48007880
:1057D000401C2C49087000202E49088050E02D48BC
:1057E00001880088401C2B4A1080B1F57A7F04DDC7
:1057F00024480078401C2349087041E02348007881
:10580000FFF7EEFD012807D11E480078401C1D4916
:10581000087000201F49088032E01E480188008877
:10582000401C1C4A1080B1F5617F04DD15480078EA
:10583000401C1449087023E013480078FFF7D0FD9E
:10584000012807D10F480078401C0E49087000203D
:105850001049088014E00FE00E4801880088401CC1
:105860000C4A108040F2DC50814204DD054800788B
:10587000401C0449087003E000200249087000BF82
:1058800000BF10BD6B0600206E0600206D060020D4
:105890006C0600207006002010B502460020034B65
:1058A00012B9197201245C7010BD0000F4030020CD
:1058B0002DE9F84F804689464FF0000A0025002068
:1058C000009000260027F34CA4F80E820FFA89F00E
:1058D000A4F81202B4F80E024FF6FF71884273D09A
:1058E000B4F80E02B0F5805F05DBB4F80E0241F2A9
:1058F0001301884210DDB4F80E0241F2170188420C
:105900000AD0B4F80E02491C884205D0B4F80E0241
:1059100041F2105188427ED1B4F80E0241F20E02DB
:10592000811A904241D013DC41F20B02A0EB02013C
:10593000904225D007DCB0F5805F17D0A0F58050ED
:105940000A3888BB17E001291FD0022947D126E079
:1059500005292FD0092938D00A293BD0A1F20251BC
:1059600011BBB4F91202FBF757FE4FE0B4F9120273
:10597000C94908604AE0B4F91202C749486045E0E5
:10598000B4F91202C449886040E0B4F9120200EE92
:10599000100AB8EEC00AC04880ED030A36E0B4F938
:1059A0001202BD49086131E019E0B4F91202BA49A6
:1059B00048612BE0B4F9120200EE100AB8EEC00AFA
:1059C000B54880ED0A0A21E060E1B4F91202B2495B
:1059D000C8621BE0B4F91202AF49086316E0B4F8DC
:1059E0000E0241F20F0188420FDBB4F80E02C91C0F
:1059F00088420ADCB4F91222B4F80E02A0F58050F5
:105A00000F38A549183141F8202000BF00BF4AF0E7
:105A1000020A37E1FFE7B4F80E0241F203118842AF
:105A200008D1B4F8120280B28842F2D10120A4F861
:105A3000600227E1B4F80E0241F20211884208D157
:105A4000B4F8120280B28842E3D10120A4F85E02C9
:105A500018E1B4F80E0241F20111884208D1B4F8FD
:105A6000120280B28842D4D10120A4F85C0209E17C
:105A7000B4F80E02B0F5045F14D10020A4F81A02A5
:105A8000B4F82002B4F912128842C2D00120A4F85E
:105A90001C02B4F912020628BBDCB4F81202A4F806
:105AA0002002EFE0B4F80E0242F20111884214D154
:105AB000B4F8120280B240F2E5718842A9D1012007
:105AC000A4F81802A4F81A0294F82002FCF702F9CC
:105AD00094F82002FCF79EF8D4E0B4F80E0242F2EB
